{
  "_format": "hh-sol-artifact-1",
  "contractName": "HeroesOfNyxeum",
  "sourceName": "contracts/HeroesOfNyxeum.sol",
  "abi": [
    {
      "inputs": [
        {
          "internalType": "address",
          "name": "nyxEssenceAddress",
          "type": "address"
        }
      ],
      "stateMutability": "nonpayable",
      "type": "constructor"
    },
    {
      "anonymous": false,
      "inputs": [
        {
          "indexed": true,
          "internalType": "address",
          "name": "owner",
          "type": "address"
        },
        {
          "indexed": true,
          "internalType": "address",
          "name": "approved",
          "type": "address"
        },
        {
          "indexed": true,
          "internalType": "uint256",
          "name": "tokenId",
          "type": "uint256"
        }
      ],
      "name": "Approval",
      "type": "event"
    },
    {
      "anonymous": false,
      "inputs": [
        {
          "indexed": true,
          "internalType": "address",
          "name": "owner",
          "type": "address"
        },
        {
          "indexed": true,
          "internalType": "address",
          "name": "operator",
          "type": "address"
        },
        {
          "indexed": false,
          "internalType": "bool",
          "name": "approved",
          "type": "bool"
        }
      ],
      "name": "ApprovalForAll",
      "type": "event"
    },
    {
      "anonymous": false,
      "inputs": [
        {
          "indexed": true,
          "internalType": "address",
          "name": "previousOwner",
          "type": "address"
        },
        {
          "indexed": true,
          "internalType": "address",
          "name": "newOwner",
          "type": "address"
        }
      ],
      "name": "OwnershipTransferred",
      "type": "event"
    },
    {
      "anonymous": false,
      "inputs": [
        {
          "indexed": true,
          "internalType": "address",
          "name": "from",
          "type": "address"
        },
        {
          "indexed": true,
          "internalType": "address",
          "name": "to",
          "type": "address"
        },
        {
          "indexed": true,
          "internalType": "uint256",
          "name": "tokenId",
          "type": "uint256"
        }
      ],
      "name": "Transfer",
      "type": "event"
    },
    {
      "inputs": [
        {
          "internalType": "address",
          "name": "to",
          "type": "address"
        },
        {
          "internalType": "uint256",
          "name": "tokenId",
          "type": "uint256"
        }
      ],
      "name": "approve",
      "outputs": [],
      "stateMutability": "nonpayable",
      "type": "function"
    },
    {
      "inputs": [
        {
          "internalType": "address",
          "name": "owner",
          "type": "address"
        }
      ],
      "name": "balanceOf",
      "outputs": [
        {
          "internalType": "uint256",
          "name": "",
          "type": "uint256"
        }
      ],
      "stateMutability": "view",
      "type": "function"
    },
    {
      "inputs": [],
      "name": "commit",
      "outputs": [],
      "stateMutability": "payable",
      "type": "function"
    },
    {
      "inputs": [
        {
          "internalType": "uint256",
          "name": "tokenId",
          "type": "uint256"
        }
      ],
      "name": "getApproved",
      "outputs": [
        {
          "internalType": "address",
          "name": "",
          "type": "address"
        }
      ],
      "stateMutability": "view",
      "type": "function"
    },
    {
      "inputs": [],
      "name": "getCommitPrice",
      "outputs": [
        {
          "internalType": "uint256",
          "name": "",
          "type": "uint256"
        }
      ],
      "stateMutability": "view",
      "type": "function"
    },
    {
      "inputs": [
        {
          "internalType": "uint256",
          "name": "index",
          "type": "uint256"
        }
      ],
      "name": "getNftMetadata",
      "outputs": [
        {
          "components": [
            {
              "internalType": "string",
              "name": "imageUrl",
              "type": "string"
            },
            {
              "internalType": "uint8",
              "name": "strength",
              "type": "uint8"
            },
            {
              "internalType": "uint8",
              "name": "dexterity",
              "type": "uint8"
            },
            {
              "internalType": "uint8",
              "name": "intelligence",
              "type": "uint8"
            },
            {
              "internalType": "uint8",
              "name": "tough",
              "type": "uint8"
            },
            {
              "internalType": "uint8",
              "name": "powerful",
              "type": "uint8"
            },
            {
              "internalType": "uint8",
              "name": "precise",
              "type": "uint8"
            },
            {
              "internalType": "uint8",
              "name": "skilled",
              "type": "uint8"
            },
            {
              "internalType": "uint8",
              "name": "sharp",
              "type": "uint8"
            },
            {
              "internalType": "uint8",
              "name": "oracle",
              "type": "uint8"
            }
          ],
          "internalType": "struct HeroesOfNyxeum.NftMetadata",
          "name": "",
          "type": "tuple"
        }
      ],
      "stateMutability": "view",
      "type": "function"
    },
    {
      "inputs": [],
      "name": "getRevealPrice",
      "outputs": [
        {
          "internalType": "uint256",
          "name": "",
          "type": "uint256"
        }
      ],
      "stateMutability": "view",
      "type": "function"
    },
    {
      "inputs": [
        {
          "internalType": "address",
          "name": "owner",
          "type": "address"
        },
        {
          "internalType": "address",
          "name": "operator",
          "type": "address"
        }
      ],
      "name": "isApprovedForAll",
      "outputs": [
        {
          "internalType": "bool",
          "name": "",
          "type": "bool"
        }
      ],
      "stateMutability": "view",
      "type": "function"
    },
    {
      "inputs": [],
      "name": "name",
      "outputs": [
        {
          "internalType": "string",
          "name": "",
          "type": "string"
        }
      ],
      "stateMutability": "view",
      "type": "function"
    },
    {
      "inputs": [],
      "name": "owner",
      "outputs": [
        {
          "internalType": "address",
          "name": "",
          "type": "address"
        }
      ],
      "stateMutability": "view",
      "type": "function"
    },
    {
      "inputs": [
        {
          "internalType": "uint256",
          "name": "tokenId",
          "type": "uint256"
        }
      ],
      "name": "ownerOf",
      "outputs": [
        {
          "internalType": "address",
          "name": "",
          "type": "address"
        }
      ],
      "stateMutability": "view",
      "type": "function"
    },
    {
      "inputs": [],
      "name": "renounceOwnership",
      "outputs": [],
      "stateMutability": "nonpayable",
      "type": "function"
    },
    {
      "inputs": [],
      "name": "reveal",
      "outputs": [],
      "stateMutability": "nonpayable",
      "type": "function"
    },
    {
      "inputs": [
        {
          "internalType": "address",
          "name": "from",
          "type": "address"
        },
        {
          "internalType": "address",
          "name": "to",
          "type": "address"
        },
        {
          "internalType": "uint256",
          "name": "tokenId",
          "type": "uint256"
        }
      ],
      "name": "safeTransferFrom",
      "outputs": [],
      "stateMutability": "nonpayable",
      "type": "function"
    },
    {
      "inputs": [
        {
          "internalType": "address",
          "name": "from",
          "type": "address"
        },
        {
          "internalType": "address",
          "name": "to",
          "type": "address"
        },
        {
          "internalType": "uint256",
          "name": "tokenId",
          "type": "uint256"
        },
        {
          "internalType": "bytes",
          "name": "data",
          "type": "bytes"
        }
      ],
      "name": "safeTransferFrom",
      "outputs": [],
      "stateMutability": "nonpayable",
      "type": "function"
    },
    {
      "inputs": [
        {
          "internalType": "address",
          "name": "operator",
          "type": "address"
        },
        {
          "internalType": "bool",
          "name": "approved",
          "type": "bool"
        }
      ],
      "name": "setApprovalForAll",
      "outputs": [],
      "stateMutability": "nonpayable",
      "type": "function"
    },
    {
      "inputs": [
        {
          "internalType": "bytes4",
          "name": "interfaceId",
          "type": "bytes4"
        }
      ],
      "name": "supportsInterface",
      "outputs": [
        {
          "internalType": "bool",
          "name": "",
          "type": "bool"
        }
      ],
      "stateMutability": "view",
      "type": "function"
    },
    {
      "inputs": [],
      "name": "symbol",
      "outputs": [
        {
          "internalType": "string",
          "name": "",
          "type": "string"
        }
      ],
      "stateMutability": "view",
      "type": "function"
    },
    {
      "inputs": [
        {
          "internalType": "uint256",
          "name": "index",
          "type": "uint256"
        }
      ],
      "name": "tokenByIndex",
      "outputs": [
        {
          "internalType": "uint256",
          "name": "",
          "type": "uint256"
        }
      ],
      "stateMutability": "view",
      "type": "function"
    },
    {
      "inputs": [
        {
          "internalType": "address",
          "name": "owner",
          "type": "address"
        },
        {
          "internalType": "uint256",
          "name": "index",
          "type": "uint256"
        }
      ],
      "name": "tokenOfOwnerByIndex",
      "outputs": [
        {
          "internalType": "uint256",
          "name": "",
          "type": "uint256"
        }
      ],
      "stateMutability": "view",
      "type": "function"
    },
    {
      "inputs": [
        {
          "internalType": "uint256",
          "name": "tokenId",
          "type": "uint256"
        }
      ],
      "name": "tokenURI",
      "outputs": [
        {
          "internalType": "string",
          "name": "",
          "type": "string"
        }
      ],
      "stateMutability": "view",
      "type": "function"
    },
    {
      "inputs": [],
      "name": "totalSupply",
      "outputs": [
        {
          "internalType": "uint256",
          "name": "",
          "type": "uint256"
        }
      ],
      "stateMutability": "view",
      "type": "function"
    },
    {
      "inputs": [
        {
          "internalType": "address",
          "name": "from",
          "type": "address"
        },
        {
          "internalType": "address",
          "name": "to",
          "type": "address"
        },
        {
          "internalType": "uint256",
          "name": "tokenId",
          "type": "uint256"
        }
      ],
      "name": "transferFrom",
      "outputs": [],
      "stateMutability": "nonpayable",
      "type": "function"
    },
    {
      "inputs": [
        {
          "internalType": "address",
          "name": "newOwner",
          "type": "address"
        }
      ],
      "name": "transferOwnership",
      "outputs": [],
      "stateMutability": "nonpayable",
      "type": "function"
    }
  ],
  "bytecode": "0x6080604052674563918244f40000600d556000600e556001600f553480156200002757600080fd5b5060405162004a4038038062004a4083398181016040528101906200004d91906200027f565b6040518060400160405280601081526020017f4865726f6573206f66204e797865756d000000000000000000000000000000008152506040518060400160405280600481526020017f484e5958000000000000000000000000000000000000000000000000000000008152508160009081620000ca91906200052b565b508060019081620000dc91906200052b565b505050620000ff620000f36200014760201b60201c565b6200014f60201b60201c565b80600c60006101000a81548173ffffffffffffffffffffffffffffffffffffffff021916908373ffffffffffffffffffffffffffffffffffffffff1602179055505062000612565b600033905090565b6000600a60009054906101000a900473ffffffffffffffffffffffffffffffffffffffff16905081600a60006101000a81548173ffffffffffffffffffffffffffffffffffffffff021916908373ffffffffffffffffffffffffffffffffffffffff1602179055508173ffffffffffffffffffffffffffffffffffffffff168173ffffffffffffffffffffffffffffffffffffffff167f8be0079c531659141344cd1fd0a4f28419497f9722a3daafe3b4186f6b6457e060405160405180910390a35050565b600080fd5b600073ffffffffffffffffffffffffffffffffffffffff82169050919050565b600062000247826200021a565b9050919050565b62000259816200023a565b81146200026557600080fd5b50565b60008151905062000279816200024e565b92915050565b60006020828403121562000298576200029762000215565b5b6000620002a88482850162000268565b91505092915050565b600081519050919050565b7f4e487b7100000000000000000000000000000000000000000000000000000000600052604160045260246000fd5b7f4e487b7100000000000000000000000000000000000000000000000000000000600052602260045260246000fd5b600060028204905060018216806200033357607f821691505b602082108103620003495762000348620002eb565b5b50919050565b60008190508160005260206000209050919050565b60006020601f8301049050919050565b600082821b905092915050565b600060088302620003b37fffffffffffffffffffffffffffffffffffffffffffffffffffffffffffffffff8262000374565b620003bf868362000374565b95508019841693508086168417925050509392505050565b6000819050919050565b6000819050919050565b60006200040c620004066200040084620003d7565b620003e1565b620003d7565b9050919050565b6000819050919050565b6200042883620003eb565b62000440620004378262000413565b84845462000381565b825550505050565b600090565b6200045762000448565b620004648184846200041d565b505050565b5b818110156200048c57620004806000826200044d565b6001810190506200046a565b5050565b601f821115620004db57620004a5816200034f565b620004b08462000364565b81016020851015620004c0578190505b620004d8620004cf8562000364565b83018262000469565b50505b505050565b600082821c905092915050565b60006200050060001984600802620004e0565b1980831691505092915050565b60006200051b8383620004ed565b9150826002028217905092915050565b6200053682620002b1565b67ffffffffffffffff811115620005525762000551620002bc565b5b6200055e82546200031a565b6200056b82828562000490565b600060209050601f831160018114620005a357600084156200058e578287015190505b6200059a85826200050d565b8655506200060a565b601f198416620005b3866200034f565b60005b82811015620005dd57848901518255600182019150602085019450602081019050620005b6565b86831015620005fd5784890151620005f9601f891682620004ed565b8355505b6001600288020188555050505b505050505050565b61441e80620006226000396000f3fe60806040526004361061014b5760003560e01c806370a08231116100b6578063a475b5dd1161006f578063a475b5dd14610485578063ad27314b1461049c578063b88d4fde146104d9578063c87b56dd14610502578063e985e9c51461053f578063f2fde38b1461057c5761014b565b806370a0823114610387578063715018a6146103c45780637af43952146103db5780638da5cb5b1461040657806395d89b4114610431578063a22cb4651461045c5761014b565b80632f745c59116101085780632f745c59146102725780633c7a3aff146102af5780633cbef428146102b957806342842e0e146102e45780634f6ccce71461030d5780636352211e1461034a5761014b565b806301ffc9a71461015057806306fdde031461018d578063081812fc146101b8578063095ea7b3146101f557806318160ddd1461021e57806323b872dd14610249575b600080fd5b34801561015c57600080fd5b5061017760048036038101906101729190612c38565b6105a5565b6040516101849190612c80565b60405180910390f35b34801561019957600080fd5b506101a26105b7565b6040516101af9190612d2b565b60405180910390f35b3480156101c457600080fd5b506101df60048036038101906101da9190612d83565b610649565b6040516101ec9190612df1565b60405180910390f35b34801561020157600080fd5b5061021c60048036038101906102179190612e38565b61068f565b005b34801561022a57600080fd5b506102336107a6565b6040516102409190612e87565b60405180910390f35b34801561025557600080fd5b50610270600480360381019061026b9190612ea2565b6107b3565b005b34801561027e57600080fd5b5061029960048036038101906102949190612e38565b610813565b6040516102a69190612e87565b60405180910390f35b6102b76108b8565b005b3480156102c557600080fd5b506102ce610b07565b6040516102db9190612e87565b60405180910390f35b3480156102f057600080fd5b5061030b60048036038101906103069190612ea2565b610b11565b005b34801561031957600080fd5b50610334600480360381019061032f9190612d83565b610b31565b6040516103419190612e87565b60405180910390f35b34801561035657600080fd5b50610371600480360381019061036c9190612d83565b610ba2565b60405161037e9190612df1565b60405180910390f35b34801561039357600080fd5b506103ae60048036038101906103a99190612ef5565b610c28565b6040516103bb9190612e87565b60405180910390f35b3480156103d057600080fd5b506103d9610cdf565b005b3480156103e757600080fd5b506103f0610cf3565b6040516103fd9190612e87565b60405180910390f35b34801561041257600080fd5b5061041b610cfd565b6040516104289190612df1565b60405180910390f35b34801561043d57600080fd5b50610446610d27565b6040516104539190612d2b565b60405180910390f35b34801561046857600080fd5b50610483600480360381019061047e9190612f4e565b610db9565b005b34801561049157600080fd5b5061049a610dcf565b005b3480156104a857600080fd5b506104c360048036038101906104be9190612d83565b61122d565b6040516104d091906130ce565b60405180910390f35b3480156104e557600080fd5b5061050060048036038101906104fb9190613225565b6113f2565b005b34801561050e57600080fd5b5061052960048036038101906105249190612d83565b611454565b6040516105369190612d2b565b60405180910390f35b34801561054b57600080fd5b50610566600480360381019061056191906132a8565b6114bc565b6040516105739190612c80565b60405180910390f35b34801561058857600080fd5b506105a3600480360381019061059e9190612ef5565b611550565b005b60006105b0826115d3565b9050919050565b6060600080546105c690613317565b80601f01602080910402602001604051908101604052809291908181526020018280546105f290613317565b801561063f5780601f106106145761010080835404028352916020019161063f565b820191906000526020600020905b81548152906001019060200180831161062257829003601f168201915b5050505050905090565b60006106548261164d565b6004600083815260200190815260200160002060009054906101000a900473ffffffffffffffffffffffffffffffffffffffff169050919050565b600061069a82610ba2565b90508073ffffffffffffffffffffffffffffffffffffffff168373ffffffffffffffffffffffffffffffffffffffff160361070a576040517f08c379a0000000000000000000000000000000000000000000000000000000008152600401610701906133ba565b60405180910390fd5b8073ffffffffffffffffffffffffffffffffffffffff16610729611698565b73ffffffffffffffffffffffffffffffffffffffff161480610758575061075781610752611698565b6114bc565b5b610797576040517f08c379a000000000000000000000000000000000000000000000000000000000815260040161078e9061344c565b60405180910390fd5b6107a183836116a0565b505050565b6000600880549050905090565b6107c46107be611698565b82611759565b610803576040517f08c379a00000000000000000000000000000000000000000000000000000000081526004016107fa906134de565b60405180910390fd5b61080e8383836117ee565b505050565b600061081e83610c28565b821061085f576040517f08c379a000000000000000000000000000000000000000000000000000000000815260040161085690613570565b60405180910390fd5b600660008473ffffffffffffffffffffffffffffffffffffffff1673ffffffffffffffffffffffffffffffffffffffff168152602001908152602001600020600083815260200190815260200160002054905092915050565b600d54600c60009054906101000a900473ffffffffffffffffffffffffffffffffffffffff1673ffffffffffffffffffffffffffffffffffffffff1663dd62ed3e33306040518363ffffffff1660e01b8152600401610918929190613590565b602060405180830381865afa158015610935573d6000803e3d6000fd5b505050506040513d601f19601f8201168201806040525081019061095991906135ce565b101561099a576040517f08c379a000000000000000000000000000000000000000000000000000000000815260040161099190613647565b60405180910390fd5b6000601060003373ffffffffffffffffffffffffffffffffffffffff1673ffffffffffffffffffffffffffffffffffffffff1681526020019081526020016000205414610a1c576040517f08c379a0000000000000000000000000000000000000000000000000000000008152600401610a13906136d9565b60405180910390fd5b600c60009054906101000a900473ffffffffffffffffffffffffffffffffffffffff1673ffffffffffffffffffffffffffffffffffffffff166323b872dd3330600d546040518463ffffffff1660e01b8152600401610a7d939291906136f9565b6020604051808303816000875af1158015610a9c573d6000803e3d6000fd5b505050506040513d601f19601f82011682018060405250810190610ac09190613745565b5043601060003373ffffffffffffffffffffffffffffffffffffffff1673ffffffffffffffffffffffffffffffffffffffff16815260200190815260200160002081905550565b6000600d54905090565b610b2c838383604051806020016040528060008152506113f2565b505050565b6000610b3b6107a6565b8210610b7c576040517f08c379a0000000000000000000000000000000000000000000000000000000008152600401610b73906137e4565b60405180910390fd5b60088281548110610b9057610b8f613804565b5b90600052602060002001549050919050565b600080610bae83611ae7565b9050600073ffffffffffffffffffffffffffffffffffffffff168173ffffffffffffffffffffffffffffffffffffffff1603610c1f576040517f08c379a0000000000000000000000000000000000000000000000000000000008152600401610c169061387f565b60405180910390fd5b80915050919050565b60008073ffffffffffffffffffffffffffffffffffffffff168273ffffffffffffffffffffffffffffffffffffffff1603610c98576040517f08c379a0000000000000000000000000000000000000000000000000000000008152600401610c8f90613911565b60405180910390fd5b600360008373ffffffffffffffffffffffffffffffffffffffff1673ffffffffffffffffffffffffffffffffffffffff168152602001908152602001600020549050919050565b610ce7611b24565b610cf16000611ba2565b565b6000600e54905090565b6000600a60009054906101000a900473ffffffffffffffffffffffffffffffffffffffff16905090565b606060018054610d3690613317565b80601f0160208091040260200160405190810160405280929190818152602001828054610d6290613317565b8015610daf5780601f10610d8457610100808354040283529160200191610daf565b820191906000526020600020905b815481529060010190602001808311610d9257829003601f168201915b5050505050905090565b610dcb610dc4611698565b8383611c68565b5050565b6000601060003373ffffffffffffffffffffffffffffffffffffffff1673ffffffffffffffffffffffffffffffffffffffff1681526020019081526020016000205403610e51576040517f08c379a0000000000000000000000000000000000000000000000000000000008152600401610e48906139a3565b60405180910390fd5b43600f54601060003373ffffffffffffffffffffffffffffffffffffffff1673ffffffffffffffffffffffffffffffffffffffff16815260200190815260200160002054610e9f91906139f2565b1015610ee0576040517f08c379a0000000000000000000000000000000000000000000000000000000008152600401610ed790613a98565b60405180910390fd5b6000601060003373ffffffffffffffffffffffffffffffffffffffff1673ffffffffffffffffffffffffffffffffffffffff168152602001908152602001600020544060001c9050601060003373ffffffffffffffffffffffffffffffffffffffff1673ffffffffffffffffffffffffffffffffffffffff16815260200190815260200160002060009055610f75600b611dd4565b6000610f81600b611dea565b9050604051806101400160405280610f97611df8565b610fa084611e35565b604051602001610fb1929190613af4565b604051602081830303815290604052610fc8611f03565b604051602001610fd9929190613af4565b6040516020818303038152906040528152602001606484610ffa9190613b47565b60ff1681526020016064600785901c6110139190613b47565b60ff1681526020016064600e85901c61102c9190613b47565b60ff168152602001601c601385901c6110459190613b47565b60ff168152602001601c601885901c61105e9190613b47565b60ff168152602001601c601d85901c6110779190613b47565b60ff168152602001601c602285901c6110909190613b47565b60ff168152602001601c602785901c6110a99190613b47565b60ff168152602001601c602c85901c6110c29190613b47565b60ff168152506011600083815260200190815260200160002060008201518160000190816110f09190613d24565b5060208201518160010160006101000a81548160ff021916908360ff16021790555060408201518160010160016101000a81548160ff021916908360ff16021790555060608201518160010160026101000a81548160ff021916908360ff16021790555060808201518160010160036101000a81548160ff021916908360ff16021790555060a08201518160010160046101000a81548160ff021916908360ff16021790555060c08201518160010160056101000a81548160ff021916908360ff16021790555060e08201518160010160066101000a81548160ff021916908360ff1602179055506101008201518160010160076101000a81548160ff021916908360ff1602179055506101208201518160010160086101000a81548160ff021916908360ff1602179055509050506112293382611f40565b5050565b611235612b5e565b601160008381526020019081526020016000206040518061014001604052908160008201805461126490613317565b80601f016020809104026020016040519081016040528092919081815260200182805461129090613317565b80156112dd5780601f106112b2576101008083540402835291602001916112dd565b820191906000526020600020905b8154815290600101906020018083116112c057829003601f168201915b505050505081526020016001820160009054906101000a900460ff1660ff1660ff1681526020016001820160019054906101000a900460ff1660ff1660ff1681526020016001820160029054906101000a900460ff1660ff1660ff1681526020016001820160039054906101000a900460ff1660ff1660ff1681526020016001820160049054906101000a900460ff1660ff1660ff1681526020016001820160059054906101000a900460ff1660ff1660ff1681526020016001820160069054906101000a900460ff1660ff1660ff1681526020016001820160079054906101000a900460ff1660ff1660ff1681526020016001820160089054906101000a900460ff1660ff1660ff16815250509050919050565b6114036113fd611698565b83611759565b611442576040517f08c379a0000000000000000000000000000000000000000000000000000000008152600401611439906134de565b60405180910390fd5b61144e84848484611f5e565b50505050565b606061145f8261164d565b6000611469611fba565b9050600081511161148957604051806020016040528060008152506114b4565b8061149384611e35565b6040516020016114a4929190613af4565b6040516020818303038152906040525b915050919050565b6000600560008473ffffffffffffffffffffffffffffffffffffffff1673ffffffffffffffffffffffffffffffffffffffff16815260200190815260200160002060008373ffffffffffffffffffffffffffffffffffffffff1673ffffffffffffffffffffffffffffffffffffffff16815260200190815260200160002060009054906101000a900460ff16905092915050565b611558611b24565b600073ffffffffffffffffffffffffffffffffffffffff168173ffffffffffffffffffffffffffffffffffffffff16036115c7576040517f08c379a00000000000000000000000000000000000000000000000000000000081526004016115be90613e68565b60405180910390fd5b6115d081611ba2565b50565b60007f780e9d63000000000000000000000000000000000000000000000000000000007bffffffffffffffffffffffffffffffffffffffffffffffffffffffff1916827bffffffffffffffffffffffffffffffffffffffffffffffffffffffff19161480611646575061164582611fda565b5b9050919050565b611656816120bc565b611695576040517f08c379a000000000000000000000000000000000000000000000000000000000815260040161168c9061387f565b60405180910390fd5b50565b600033905090565b816004600083815260200190815260200160002060006101000a81548173ffffffffffffffffffffffffffffffffffffffff021916908373ffffffffffffffffffffffffffffffffffffffff160217905550808273ffffffffffffffffffffffffffffffffffffffff1661171383610ba2565b73ffffffffffffffffffffffffffffffffffffffff167f8c5be1e5ebec7d5bd14f71427d1e84f3dd0314c0f7b2291e5b200ac8c7c3b92560405160405180910390a45050565b60008061176583610ba2565b90508073ffffffffffffffffffffffffffffffffffffffff168473ffffffffffffffffffffffffffffffffffffffff1614806117a757506117a681856114bc565b5b806117e557508373ffffffffffffffffffffffffffffffffffffffff166117cd84610649565b73ffffffffffffffffffffffffffffffffffffffff16145b91505092915050565b8273ffffffffffffffffffffffffffffffffffffffff1661180e82610ba2565b73ffffffffffffffffffffffffffffffffffffffff1614611864576040517f08c379a000000000000000000000000000000000000000000000000000000000815260040161185b90613efa565b60405180910390fd5b600073ffffffffffffffffffffffffffffffffffffffff168273ffffffffffffffffffffffffffffffffffffffff16036118d3576040517f08c379a00000000000000000000000000000000000000000000000000000000081526004016118ca90613f8c565b60405180910390fd5b6118e083838360016120fd565b8273ffffffffffffffffffffffffffffffffffffffff1661190082610ba2565b73ffffffffffffffffffffffffffffffffffffffff1614611956576040517f08c379a000000000000000000000000000000000000000000000000000000000815260040161194d90613efa565b60405180910390fd5b6004600082815260200190815260200160002060006101000a81549073ffffffffffffffffffffffffffffffffffffffff02191690556001600360008573ffffffffffffffffffffffffffffffffffffffff1673ffffffffffffffffffffffffffffffffffffffff168152602001908152602001600020600082825403925050819055506001600360008473ffffffffffffffffffffffffffffffffffffffff1673ffffffffffffffffffffffffffffffffffffffff16815260200190815260200160002060008282540192505081905550816002600083815260200190815260200160002060006101000a81548173ffffffffffffffffffffffffffffffffffffffff021916908373ffffffffffffffffffffffffffffffffffffffff160217905550808273ffffffffffffffffffffffffffffffffffffffff168473ffffffffffffffffffffffffffffffffffffffff167fddf252ad1be2c89b69c2b068fc378daa952ba7f163c4a11628f55a4df523b3ef60405160405180910390a4611ae2838383600161210f565b505050565b60006002600083815260200190815260200160002060009054906101000a900473ffffffffffffffffffffffffffffffffffffffff169050919050565b611b2c611698565b73ffffffffffffffffffffffffffffffffffffffff16611b4a610cfd565b73ffffffffffffffffffffffffffffffffffffffff1614611ba0576040517f08c379a0000000000000000000000000000000000000000000000000000000008152600401611b9790613ff8565b60405180910390fd5b565b6000600a60009054906101000a900473ffffffffffffffffffffffffffffffffffffffff16905081600a60006101000a81548173ffffffffffffffffffffffffffffffffffffffff021916908373ffffffffffffffffffffffffffffffffffffffff1602179055508173ffffffffffffffffffffffffffffffffffffffff168173ffffffffffffffffffffffffffffffffffffffff167f8be0079c531659141344cd1fd0a4f28419497f9722a3daafe3b4186f6b6457e060405160405180910390a35050565b8173ffffffffffffffffffffffffffffffffffffffff168373ffffffffffffffffffffffffffffffffffffffff1603611cd6576040517f08c379a0000000000000000000000000000000000000000000000000000000008152600401611ccd90614064565b60405180910390fd5b80600560008573ffffffffffffffffffffffffffffffffffffffff1673ffffffffffffffffffffffffffffffffffffffff16815260200190815260200160002060008473ffffffffffffffffffffffffffffffffffffffff1673ffffffffffffffffffffffffffffffffffffffff16815260200190815260200160002060006101000a81548160ff0219169083151502179055508173ffffffffffffffffffffffffffffffffffffffff168373ffffffffffffffffffffffffffffffffffffffff167f17307eab39ab6107e8899845ad3d59bd9653f200f220920489ca2b5937696c3183604051611dc79190612c80565b60405180910390a3505050565b6001816000016000828254019250508190555050565b600081600001549050919050565b60606040518060400160405280601e81526020017f68747470733a2f2f6e797865756d2e76657263656c2e6170702f6e66742f0000815250905090565b606060006001611e4484612115565b01905060008167ffffffffffffffff811115611e6357611e626130fa565b5b6040519080825280601f01601f191660200182016040528015611e955781602001600182028036833780820191505090505b509050600082602001820190505b600115611ef8578080600190039150507f3031323334353637383961626364656600000000000000000000000000000000600a86061a8153600a8581611eec57611eeb613b18565b5b04945060008503611ea3575b819350505050919050565b60606040518060400160405280600481526020017f2e706e6700000000000000000000000000000000000000000000000000000000815250905090565b611f5a828260405180602001604052806000815250612268565b5050565b611f698484846117ee565b611f75848484846122c3565b611fb4576040517f08c379a0000000000000000000000000000000000000000000000000000000008152600401611fab906140f6565b60405180910390fd5b50505050565b60606040518060600160405280602281526020016143c760229139905090565b60007f80ac58cd000000000000000000000000000000000000000000000000000000007bffffffffffffffffffffffffffffffffffffffffffffffffffffffff1916827bffffffffffffffffffffffffffffffffffffffffffffffffffffffff191614806120a557507f5b5e139f000000000000000000000000000000000000000000000000000000007bffffffffffffffffffffffffffffffffffffffffffffffffffffffff1916827bffffffffffffffffffffffffffffffffffffffffffffffffffffffff1916145b806120b557506120b48261244a565b5b9050919050565b60008073ffffffffffffffffffffffffffffffffffffffff166120de83611ae7565b73ffffffffffffffffffffffffffffffffffffffff1614159050919050565b612109848484846124b4565b50505050565b50505050565b600080600090507a184f03e93ff9f4daa797ed6e38ed64bf6a1f0100000000000000008310612173577a184f03e93ff9f4daa797ed6e38ed64bf6a1f010000000000000000838161216957612168613b18565b5b0492506040810190505b6d04ee2d6d415b85acef810000000083106121b0576d04ee2d6d415b85acef810000000083816121a6576121a5613b18565b5b0492506020810190505b662386f26fc1000083106121df57662386f26fc1000083816121d5576121d4613b18565b5b0492506010810190505b6305f5e1008310612208576305f5e10083816121fe576121fd613b18565b5b0492506008810190505b612710831061222d57612710838161222357612222613b18565b5b0492506004810190505b60648310612250576064838161224657612245613b18565b5b0492506002810190505b600a831061225f576001810190505b80915050919050565b6122728383612612565b61227f60008484846122c3565b6122be576040517f08c379a00000000000000000000000000000000000000000000000000000000081526004016122b5906140f6565b60405180910390fd5b505050565b60006122e48473ffffffffffffffffffffffffffffffffffffffff1661282f565b1561243d578373ffffffffffffffffffffffffffffffffffffffff1663150b7a0261230d611698565b8786866040518563ffffffff1660e01b815260040161232f949392919061416b565b6020604051808303816000875af192505050801561236b57506040513d601f19601f8201168201806040525081019061236891906141cc565b60015b6123ed573d806000811461239b576040519150601f19603f3d011682016040523d82523d6000602084013e6123a0565b606091505b5060008151036123e5576040517f08c379a00000000000000000000000000000000000000000000000000000000081526004016123dc906140f6565b60405180910390fd5b805181602001fd5b63150b7a0260e01b7bffffffffffffffffffffffffffffffffffffffffffffffffffffffff1916817bffffffffffffffffffffffffffffffffffffffffffffffffffffffff191614915050612442565b600190505b949350505050565b60007f01ffc9a7000000000000000000000000000000000000000000000000000000007bffffffffffffffffffffffffffffffffffffffffffffffffffffffff1916827bffffffffffffffffffffffffffffffffffffffffffffffffffffffff1916149050919050565b6124c084848484612852565b6001811115612504576040517f08c379a00000000000000000000000000000000000000000000000000000000081526004016124fb9061426b565b60405180910390fd5b6000829050600073ffffffffffffffffffffffffffffffffffffffff168573ffffffffffffffffffffffffffffffffffffffff160361254b5761254681612858565b61258a565b8373ffffffffffffffffffffffffffffffffffffffff168573ffffffffffffffffffffffffffffffffffffffff16146125895761258885826128a1565b5b5b600073ffffffffffffffffffffffffffffffffffffffff168473ffffffffffffffffffffffffffffffffffffffff16036125cc576125c781612a0e565b61260b565b8473ffffffffffffffffffffffffffffffffffffffff168473ffffffffffffffffffffffffffffffffffffffff161461260a576126098482612adf565b5b5b5050505050565b600073ffffffffffffffffffffffffffffffffffffffff168273ffffffffffffffffffffffffffffffffffffffff1603612681576040517f08c379a0000000000000000000000000000000000000000000000000000000008152600401612678906142d7565b60405180910390fd5b61268a816120bc565b156126ca576040517f08c379a00000000000000000000000000000000000000000000000000000000081526004016126c190614343565b60405180910390fd5b6126d86000838360016120fd565b6126e1816120bc565b15612721576040517f08c379a000000000000000000000000000000000000000000000000000000000815260040161271890614343565b60405180910390fd5b6001600360008473ffffffffffffffffffffffffffffffffffffffff1673ffffffffffffffffffffffffffffffffffffffff16815260200190815260200160002060008282540192505081905550816002600083815260200190815260200160002060006101000a81548173ffffffffffffffffffffffffffffffffffffffff021916908373ffffffffffffffffffffffffffffffffffffffff160217905550808273ffffffffffffffffffffffffffffffffffffffff16600073ffffffffffffffffffffffffffffffffffffffff167fddf252ad1be2c89b69c2b068fc378daa952ba7f163c4a11628f55a4df523b3ef60405160405180910390a461282b60008383600161210f565b5050565b6000808273ffffffffffffffffffffffffffffffffffffffff163b119050919050565b50505050565b6008805490506009600083815260200190815260200160002081905550600881908060018154018082558091505060019003906000526020600020016000909190919091505550565b600060016128ae84610c28565b6128b89190614363565b905060006007600084815260200190815260200160002054905081811461299d576000600660008673ffffffffffffffffffffffffffffffffffffffff1673ffffffffffffffffffffffffffffffffffffffff168152602001908152602001600020600084815260200190815260200160002054905080600660008773ffffffffffffffffffffffffffffffffffffffff1673ffffffffffffffffffffffffffffffffffffffff168152602001908152602001600020600084815260200190815260200160002081905550816007600083815260200190815260200160002081905550505b6007600084815260200190815260200160002060009055600660008573ffffffffffffffffffffffffffffffffffffffff1673ffffffffffffffffffffffffffffffffffffffff16815260200190815260200160002060008381526020019081526020016000206000905550505050565b60006001600880549050612a229190614363565b9050600060096000848152602001908152602001600020549050600060088381548110612a5257612a51613804565b5b906000526020600020015490508060088381548110612a7457612a73613804565b5b906000526020600020018190555081600960008381526020019081526020016000208190555060096000858152602001908152602001600020600090556008805480612ac357612ac2614397565b5b6001900381819060005260206000200160009055905550505050565b6000612aea83610c28565b905081600660008573ffffffffffffffffffffffffffffffffffffffff1673ffffffffffffffffffffffffffffffffffffffff168152602001908152602001600020600083815260200190815260200160002081905550806007600084815260200190815260200160002081905550505050565b60405180610140016040528060608152602001600060ff168152602001600060ff168152602001600060ff168152602001600060ff168152602001600060ff168152602001600060ff168152602001600060ff168152602001600060ff168152602001600060ff1681525090565b6000604051905090565b600080fd5b600080fd5b60007fffffffff0000000000000000000000000000000000000000000000000000000082169050919050565b612c1581612be0565b8114612c2057600080fd5b50565b600081359050612c3281612c0c565b92915050565b600060208284031215612c4e57612c4d612bd6565b5b6000612c5c84828501612c23565b91505092915050565b60008115159050919050565b612c7a81612c65565b82525050565b6000602082019050612c956000830184612c71565b92915050565b600081519050919050565b600082825260208201905092915050565b60005b83811015612cd5578082015181840152602081019050612cba565b60008484015250505050565b6000601f19601f8301169050919050565b6000612cfd82612c9b565b612d078185612ca6565b9350612d17818560208601612cb7565b612d2081612ce1565b840191505092915050565b60006020820190508181036000830152612d458184612cf2565b905092915050565b6000819050919050565b612d6081612d4d565b8114612d6b57600080fd5b50565b600081359050612d7d81612d57565b92915050565b600060208284031215612d9957612d98612bd6565b5b6000612da784828501612d6e565b91505092915050565b600073ffffffffffffffffffffffffffffffffffffffff82169050919050565b6000612ddb82612db0565b9050919050565b612deb81612dd0565b82525050565b6000602082019050612e066000830184612de2565b92915050565b612e1581612dd0565b8114612e2057600080fd5b50565b600081359050612e3281612e0c565b92915050565b60008060408385031215612e4f57612e4e612bd6565b5b6000612e5d85828601612e23565b9250506020612e6e85828601612d6e565b9150509250929050565b612e8181612d4d565b82525050565b6000602082019050612e9c6000830184612e78565b92915050565b600080600060608486031215612ebb57612eba612bd6565b5b6000612ec986828701612e23565b9350506020612eda86828701612e23565b9250506040612eeb86828701612d6e565b9150509250925092565b600060208284031215612f0b57612f0a612bd6565b5b6000612f1984828501612e23565b91505092915050565b612f2b81612c65565b8114612f3657600080fd5b50565b600081359050612f4881612f22565b92915050565b60008060408385031215612f6557612f64612bd6565b5b6000612f7385828601612e23565b9250506020612f8485828601612f39565b9150509250929050565b600082825260208201905092915050565b6000612faa82612c9b565b612fb48185612f8e565b9350612fc4818560208601612cb7565b612fcd81612ce1565b840191505092915050565b600060ff82169050919050565b612fee81612fd8565b82525050565b60006101408301600083015184820360008601526130128282612f9f565b91505060208301516130276020860182612fe5565b50604083015161303a6040860182612fe5565b50606083015161304d6060860182612fe5565b5060808301516130606080860182612fe5565b5060a083015161307360a0860182612fe5565b5060c083015161308660c0860182612fe5565b5060e083015161309960e0860182612fe5565b506101008301516130ae610100860182612fe5565b506101208301516130c3610120860182612fe5565b508091505092915050565b600060208201905081810360008301526130e88184612ff4565b905092915050565b600080fd5b600080fd5b7f4e487b7100000000000000000000000000000000000000000000000000000000600052604160045260246000fd5b61313282612ce1565b810181811067ffffffffffffffff82111715613151576131506130fa565b5b80604052505050565b6000613164612bcc565b90506131708282613129565b919050565b600067ffffffffffffffff8211156131905761318f6130fa565b5b61319982612ce1565b9050602081019050919050565b82818337600083830152505050565b60006131c86131c384613175565b61315a565b9050828152602081018484840111156131e4576131e36130f5565b5b6131ef8482856131a6565b509392505050565b600082601f83011261320c5761320b6130f0565b5b813561321c8482602086016131b5565b91505092915050565b6000806000806080858703121561323f5761323e612bd6565b5b600061324d87828801612e23565b945050602061325e87828801612e23565b935050604061326f87828801612d6e565b925050606085013567ffffffffffffffff8111156132905761328f612bdb565b5b61329c878288016131f7565b91505092959194509250565b600080604083850312156132bf576132be612bd6565b5b60006132cd85828601612e23565b92505060206132de85828601612e23565b9150509250929050565b7f4e487b7100000000000000000000000000000000000000000000000000000000600052602260045260246000fd5b6000600282049050600182168061332f57607f821691505b602082108103613342576133416132e8565b5b50919050565b7f4552433732313a20617070726f76616c20746f2063757272656e74206f776e6560008201527f7200000000000000000000000000000000000000000000000000000000000000602082015250565b60006133a4602183612ca6565b91506133af82613348565b604082019050919050565b600060208201905081810360008301526133d381613397565b9050919050565b7f4552433732313a20617070726f76652063616c6c6572206973206e6f7420746f60008201527f6b656e206f776e6572206f7220617070726f76656420666f7220616c6c000000602082015250565b6000613436603d83612ca6565b9150613441826133da565b604082019050919050565b6000602082019050818103600083015261346581613429565b9050919050565b7f4552433732313a2063616c6c6572206973206e6f7420746f6b656e206f776e6560008201527f72206f7220617070726f76656400000000000000000000000000000000000000602082015250565b60006134c8602d83612ca6565b91506134d38261346c565b604082019050919050565b600060208201905081810360008301526134f7816134bb565b9050919050565b7f455243373231456e756d657261626c653a206f776e657220696e646578206f7560008201527f74206f6620626f756e6473000000000000000000000000000000000000000000602082015250565b600061355a602b83612ca6565b9150613565826134fe565b604082019050919050565b600060208201905081810360008301526135898161354d565b9050919050565b60006040820190506135a56000830185612de2565b6135b26020830184612de2565b9392505050565b6000815190506135c881612d57565b92915050565b6000602082840312156135e4576135e3612bd6565b5b60006135f2848285016135b9565b91505092915050565b7f436865636b204e595820616c6c6f77616e636500000000000000000000000000600082015250565b6000613631601383612ca6565b915061363c826135fb565b602082019050919050565b6000602082019050818103600083015261366081613624565b9050919050565b7f596f75206861766520616c72656164792061206368617261637465722072657160008201527f7565737465642100000000000000000000000000000000000000000000000000602082015250565b60006136c3602783612ca6565b91506136ce82613667565b604082019050919050565b600060208201905081810360008301526136f2816136b6565b9050919050565b600060608201905061370e6000830186612de2565b61371b6020830185612de2565b6137286040830184612e78565b949350505050565b60008151905061373f81612f22565b92915050565b60006020828403121561375b5761375a612bd6565b5b600061376984828501613730565b91505092915050565b7f455243373231456e756d657261626c653a20676c6f62616c20696e646578206f60008201527f7574206f6620626f756e64730000000000000000000000000000000000000000602082015250565b60006137ce602c83612ca6565b91506137d982613772565b604082019050919050565b600060208201905081810360008301526137fd816137c1565b9050919050565b7f4e487b7100000000000000000000000000000000000000000000000000000000600052603260045260246000fd5b7f4552433732313a20696e76616c696420746f6b656e2049440000000000000000600082015250565b6000613869601883612ca6565b915061387482613833565b602082019050919050565b600060208201905081810360008301526138988161385c565b9050919050565b7f4552433732313a2061646472657373207a65726f206973206e6f74206120766160008201527f6c6964206f776e65720000000000000000000000000000000000000000000000602082015250565b60006138fb602983612ca6565b91506139068261389f565b604082019050919050565b6000602082019050818103600083015261392a816138ee565b9050919050565b7f596f75206e65656420746f20726571756573742061206368617261637465722060008201527f6669727374210000000000000000000000000000000000000000000000000000602082015250565b600061398d602683612ca6565b915061399882613931565b604082019050919050565b600060208201905081810360008301526139bc81613980565b9050919050565b7f4e487b7100000000000000000000000000000000000000000000000000000000600052601160045260246000fd5b60006139fd82612d4d565b9150613a0883612d4d565b9250828201905080821115613a2057613a1f6139c3565b5b92915050565b7f596f75206e65656420746f2077616974206120626974206265666f726520726560008201527f7665616c696e6720796f75722063686172616374657200000000000000000000602082015250565b6000613a82603683612ca6565b9150613a8d82613a26565b604082019050919050565b60006020820190508181036000830152613ab181613a75565b9050919050565b600081905092915050565b6000613ace82612c9b565b613ad88185613ab8565b9350613ae8818560208601612cb7565b80840191505092915050565b6000613b008285613ac3565b9150613b0c8284613ac3565b91508190509392505050565b7f4e487b7100000000000000000000000000000000000000000000000000000000600052601260045260246000fd5b6000613b5282612d4d565b9150613b5d83612d4d565b925082613b6d57613b6c613b18565b5b828206905092915050565b60008190508160005260206000209050919050565b60006020601f8301049050919050565b600082821b905092915050565b600060088302613bda7fffffffffffffffffffffffffffffffffffffffffffffffffffffffffffffffff82613b9d565b613be48683613b9d565b95508019841693508086168417925050509392505050565b6000819050919050565b6000613c21613c1c613c1784612d4d565b613bfc565b612d4d565b9050919050565b6000819050919050565b613c3b83613c06565b613c4f613c4782613c28565b848454613baa565b825550505050565b600090565b613c64613c57565b613c6f818484613c32565b505050565b5b81811015613c9357613c88600082613c5c565b600181019050613c75565b5050565b601f821115613cd857613ca981613b78565b613cb284613b8d565b81016020851015613cc1578190505b613cd5613ccd85613b8d565b830182613c74565b50505b505050565b600082821c905092915050565b6000613cfb60001984600802613cdd565b1980831691505092915050565b6000613d148383613cea565b9150826002028217905092915050565b613d2d82612c9b565b67ffffffffffffffff811115613d4657613d456130fa565b5b613d508254613317565b613d5b828285613c97565b600060209050601f831160018114613d8e5760008415613d7c578287015190505b613d868582613d08565b865550613dee565b601f198416613d9c86613b78565b60005b82811015613dc457848901518255600182019150602085019450602081019050613d9f565b86831015613de15784890151613ddd601f891682613cea565b8355505b6001600288020188555050505b505050505050565b7f4f776e61626c653a206e6577206f776e657220697320746865207a65726f206160008201527f6464726573730000000000000000000000000000000000000000000000000000602082015250565b6000613e52602683612ca6565b9150613e5d82613df6565b604082019050919050565b60006020820190508181036000830152613e8181613e45565b9050919050565b7f4552433732313a207472616e736665722066726f6d20696e636f72726563742060008201527f6f776e6572000000000000000000000000000000000000000000000000000000602082015250565b6000613ee4602583612ca6565b9150613eef82613e88565b604082019050919050565b60006020820190508181036000830152613f1381613ed7565b9050919050565b7f4552433732313a207472616e7366657220746f20746865207a65726f2061646460008201527f7265737300000000000000000000000000000000000000000000000000000000602082015250565b6000613f76602483612ca6565b9150613f8182613f1a565b604082019050919050565b60006020820190508181036000830152613fa581613f69565b9050919050565b7f4f776e61626c653a2063616c6c6572206973206e6f7420746865206f776e6572600082015250565b6000613fe2602083612ca6565b9150613fed82613fac565b602082019050919050565b6000602082019050818103600083015261401181613fd5565b9050919050565b7f4552433732313a20617070726f766520746f2063616c6c657200000000000000600082015250565b600061404e601983612ca6565b915061405982614018565b602082019050919050565b6000602082019050818103600083015261407d81614041565b9050919050565b7f4552433732313a207472616e7366657220746f206e6f6e20455243373231526560008201527f63656976657220696d706c656d656e7465720000000000000000000000000000602082015250565b60006140e0603283612ca6565b91506140eb82614084565b604082019050919050565b6000602082019050818103600083015261410f816140d3565b9050919050565b600081519050919050565b600082825260208201905092915050565b600061413d82614116565b6141478185614121565b9350614157818560208601612cb7565b61416081612ce1565b840191505092915050565b60006080820190506141806000830187612de2565b61418d6020830186612de2565b61419a6040830185612e78565b81810360608301526141ac8184614132565b905095945050505050565b6000815190506141c681612c0c565b92915050565b6000602082840312156141e2576141e1612bd6565b5b60006141f0848285016141b7565b91505092915050565b7f455243373231456e756d657261626c653a20636f6e736563757469766520747260008201527f616e7366657273206e6f7420737570706f727465640000000000000000000000602082015250565b6000614255603583612ca6565b9150614260826141f9565b604082019050919050565b6000602082019050818103600083015261428481614248565b9050919050565b7f4552433732313a206d696e7420746f20746865207a65726f2061646472657373600082015250565b60006142c1602083612ca6565b91506142cc8261428b565b602082019050919050565b600060208201905081810360008301526142f0816142b4565b9050919050565b7f4552433732313a20746f6b656e20616c7265616479206d696e74656400000000600082015250565b600061432d601c83612ca6565b9150614338826142f7565b602082019050919050565b6000602082019050818103600083015261435c81614320565b9050919050565b600061436e82612d4d565b915061437983612d4d565b9250828203905081811115614391576143906139c3565b5b92915050565b7f4e487b7100000000000000000000000000000000000000000000000000000000600052603160045260246000fdfe68747470733a2f2f6e797865756d2e76657263656c2e6170702f6170692f6e66742fa2646970667358221220e98a6436db6b07bfdd1ff4abccc116fd799041d34e729d328b5215804db6302264736f6c63430008120033",
  "linkReferences": {},
  "deployedLinkReferences": {}
}