{
  "_format": "hh-sol-artifact-1",
  "contractName": "HeroesOfNyxeum",
  "sourceName": "contracts/HeroesOfNyxeum.sol",
  "abi": [
    {
      "inputs": [
        {
          "internalType": "address",
          "name": "nyxEssenceAddress",
          "type": "address"
        }
      ],
      "stateMutability": "nonpayable",
      "type": "constructor"
    },
    {
      "anonymous": false,
      "inputs": [
        {
          "indexed": true,
          "internalType": "address",
          "name": "owner",
          "type": "address"
        },
        {
          "indexed": true,
          "internalType": "address",
          "name": "approved",
          "type": "address"
        },
        {
          "indexed": true,
          "internalType": "uint256",
          "name": "tokenId",
          "type": "uint256"
        }
      ],
      "name": "Approval",
      "type": "event"
    },
    {
      "anonymous": false,
      "inputs": [
        {
          "indexed": true,
          "internalType": "address",
          "name": "owner",
          "type": "address"
        },
        {
          "indexed": true,
          "internalType": "address",
          "name": "operator",
          "type": "address"
        },
        {
          "indexed": false,
          "internalType": "bool",
          "name": "approved",
          "type": "bool"
        }
      ],
      "name": "ApprovalForAll",
      "type": "event"
    },
    {
      "anonymous": false,
      "inputs": [
        {
          "indexed": true,
          "internalType": "address",
          "name": "previousOwner",
          "type": "address"
        },
        {
          "indexed": true,
          "internalType": "address",
          "name": "newOwner",
          "type": "address"
        }
      ],
      "name": "OwnershipTransferred",
      "type": "event"
    },
    {
      "anonymous": false,
      "inputs": [
        {
          "indexed": true,
          "internalType": "address",
          "name": "from",
          "type": "address"
        },
        {
          "indexed": true,
          "internalType": "address",
          "name": "to",
          "type": "address"
        },
        {
          "indexed": true,
          "internalType": "uint256",
          "name": "tokenId",
          "type": "uint256"
        }
      ],
      "name": "Transfer",
      "type": "event"
    },
    {
      "inputs": [
        {
          "internalType": "address",
          "name": "to",
          "type": "address"
        },
        {
          "internalType": "uint256",
          "name": "tokenId",
          "type": "uint256"
        }
      ],
      "name": "approve",
      "outputs": [],
      "stateMutability": "nonpayable",
      "type": "function"
    },
    {
      "inputs": [
        {
          "internalType": "address",
          "name": "owner",
          "type": "address"
        }
      ],
      "name": "balanceOf",
      "outputs": [
        {
          "internalType": "uint256",
          "name": "",
          "type": "uint256"
        }
      ],
      "stateMutability": "view",
      "type": "function"
    },
    {
      "inputs": [],
      "name": "canReveal",
      "outputs": [
        {
          "internalType": "bool",
          "name": "",
          "type": "bool"
        }
      ],
      "stateMutability": "view",
      "type": "function"
    },
    {
      "inputs": [],
      "name": "commit",
      "outputs": [],
      "stateMutability": "payable",
      "type": "function"
    },
    {
      "inputs": [
        {
          "internalType": "uint256",
          "name": "tokenId",
          "type": "uint256"
        }
      ],
      "name": "getApproved",
      "outputs": [
        {
          "internalType": "address",
          "name": "",
          "type": "address"
        }
      ],
      "stateMutability": "view",
      "type": "function"
    },
    {
      "inputs": [],
      "name": "getCommitPrice",
      "outputs": [
        {
          "internalType": "uint256",
          "name": "",
          "type": "uint256"
        }
      ],
      "stateMutability": "view",
      "type": "function"
    },
    {
      "inputs": [
        {
          "internalType": "uint256",
          "name": "index",
          "type": "uint256"
        }
      ],
      "name": "getNftMetadata",
      "outputs": [
        {
          "components": [
            {
              "internalType": "string",
              "name": "imageUrl",
              "type": "string"
            },
            {
              "internalType": "uint8",
              "name": "strength",
              "type": "uint8"
            },
            {
              "internalType": "uint8",
              "name": "dexterity",
              "type": "uint8"
            },
            {
              "internalType": "uint8",
              "name": "intelligence",
              "type": "uint8"
            },
            {
              "internalType": "uint8",
              "name": "tough",
              "type": "uint8"
            },
            {
              "internalType": "uint8",
              "name": "powerful",
              "type": "uint8"
            },
            {
              "internalType": "uint8",
              "name": "precise",
              "type": "uint8"
            },
            {
              "internalType": "uint8",
              "name": "skilled",
              "type": "uint8"
            },
            {
              "internalType": "uint8",
              "name": "sharp",
              "type": "uint8"
            },
            {
              "internalType": "uint8",
              "name": "oracle",
              "type": "uint8"
            }
          ],
          "internalType": "struct HeroesOfNyxeum.NftMetadata",
          "name": "",
          "type": "tuple"
        }
      ],
      "stateMutability": "view",
      "type": "function"
    },
    {
      "inputs": [],
      "name": "getRevealPrice",
      "outputs": [
        {
          "internalType": "uint256",
          "name": "",
          "type": "uint256"
        }
      ],
      "stateMutability": "view",
      "type": "function"
    },
    {
      "inputs": [
        {
          "internalType": "address",
          "name": "owner",
          "type": "address"
        },
        {
          "internalType": "address",
          "name": "operator",
          "type": "address"
        }
      ],
      "name": "isApprovedForAll",
      "outputs": [
        {
          "internalType": "bool",
          "name": "",
          "type": "bool"
        }
      ],
      "stateMutability": "view",
      "type": "function"
    },
    {
      "inputs": [],
      "name": "name",
      "outputs": [
        {
          "internalType": "string",
          "name": "",
          "type": "string"
        }
      ],
      "stateMutability": "view",
      "type": "function"
    },
    {
      "inputs": [],
      "name": "owner",
      "outputs": [
        {
          "internalType": "address",
          "name": "",
          "type": "address"
        }
      ],
      "stateMutability": "view",
      "type": "function"
    },
    {
      "inputs": [
        {
          "internalType": "uint256",
          "name": "tokenId",
          "type": "uint256"
        }
      ],
      "name": "ownerOf",
      "outputs": [
        {
          "internalType": "address",
          "name": "",
          "type": "address"
        }
      ],
      "stateMutability": "view",
      "type": "function"
    },
    {
      "inputs": [],
      "name": "renounceOwnership",
      "outputs": [],
      "stateMutability": "nonpayable",
      "type": "function"
    },
    {
      "inputs": [],
      "name": "reveal",
      "outputs": [],
      "stateMutability": "nonpayable",
      "type": "function"
    },
    {
      "inputs": [
        {
          "internalType": "address",
          "name": "from",
          "type": "address"
        },
        {
          "internalType": "address",
          "name": "to",
          "type": "address"
        },
        {
          "internalType": "uint256",
          "name": "tokenId",
          "type": "uint256"
        }
      ],
      "name": "safeTransferFrom",
      "outputs": [],
      "stateMutability": "nonpayable",
      "type": "function"
    },
    {
      "inputs": [
        {
          "internalType": "address",
          "name": "from",
          "type": "address"
        },
        {
          "internalType": "address",
          "name": "to",
          "type": "address"
        },
        {
          "internalType": "uint256",
          "name": "tokenId",
          "type": "uint256"
        },
        {
          "internalType": "bytes",
          "name": "data",
          "type": "bytes"
        }
      ],
      "name": "safeTransferFrom",
      "outputs": [],
      "stateMutability": "nonpayable",
      "type": "function"
    },
    {
      "inputs": [
        {
          "internalType": "address",
          "name": "operator",
          "type": "address"
        },
        {
          "internalType": "bool",
          "name": "approved",
          "type": "bool"
        }
      ],
      "name": "setApprovalForAll",
      "outputs": [],
      "stateMutability": "nonpayable",
      "type": "function"
    },
    {
      "inputs": [
        {
          "internalType": "bytes4",
          "name": "interfaceId",
          "type": "bytes4"
        }
      ],
      "name": "supportsInterface",
      "outputs": [
        {
          "internalType": "bool",
          "name": "",
          "type": "bool"
        }
      ],
      "stateMutability": "view",
      "type": "function"
    },
    {
      "inputs": [],
      "name": "symbol",
      "outputs": [
        {
          "internalType": "string",
          "name": "",
          "type": "string"
        }
      ],
      "stateMutability": "view",
      "type": "function"
    },
    {
      "inputs": [
        {
          "internalType": "uint256",
          "name": "index",
          "type": "uint256"
        }
      ],
      "name": "tokenByIndex",
      "outputs": [
        {
          "internalType": "uint256",
          "name": "",
          "type": "uint256"
        }
      ],
      "stateMutability": "view",
      "type": "function"
    },
    {
      "inputs": [
        {
          "internalType": "address",
          "name": "owner",
          "type": "address"
        },
        {
          "internalType": "uint256",
          "name": "index",
          "type": "uint256"
        }
      ],
      "name": "tokenOfOwnerByIndex",
      "outputs": [
        {
          "internalType": "uint256",
          "name": "",
          "type": "uint256"
        }
      ],
      "stateMutability": "view",
      "type": "function"
    },
    {
      "inputs": [
        {
          "internalType": "uint256",
          "name": "tokenId",
          "type": "uint256"
        }
      ],
      "name": "tokenURI",
      "outputs": [
        {
          "internalType": "string",
          "name": "",
          "type": "string"
        }
      ],
      "stateMutability": "view",
      "type": "function"
    },
    {
      "inputs": [],
      "name": "totalSupply",
      "outputs": [
        {
          "internalType": "uint256",
          "name": "",
          "type": "uint256"
        }
      ],
      "stateMutability": "view",
      "type": "function"
    },
    {
      "inputs": [
        {
          "internalType": "address",
          "name": "from",
          "type": "address"
        },
        {
          "internalType": "address",
          "name": "to",
          "type": "address"
        },
        {
          "internalType": "uint256",
          "name": "tokenId",
          "type": "uint256"
        }
      ],
      "name": "transferFrom",
      "outputs": [],
      "stateMutability": "nonpayable",
      "type": "function"
    },
    {
      "inputs": [
        {
          "internalType": "address",
          "name": "newOwner",
          "type": "address"
        }
      ],
      "name": "transferOwnership",
      "outputs": [],
      "stateMutability": "nonpayable",
      "type": "function"
    }
  ],
  "bytecode": "0x6080604052674563918244f40000600d556000600e556001600f553480156200002757600080fd5b5060405162004acf38038062004acf83398181016040528101906200004d91906200027f565b6040518060400160405280601081526020017f4865726f6573206f66204e797865756d000000000000000000000000000000008152506040518060400160405280600481526020017f484e5958000000000000000000000000000000000000000000000000000000008152508160009081620000ca91906200052b565b508060019081620000dc91906200052b565b505050620000ff620000f36200014760201b60201c565b6200014f60201b60201c565b80600c60006101000a81548173ffffffffffffffffffffffffffffffffffffffff021916908373ffffffffffffffffffffffffffffffffffffffff1602179055505062000612565b600033905090565b6000600a60009054906101000a900473ffffffffffffffffffffffffffffffffffffffff16905081600a60006101000a81548173ffffffffffffffffffffffffffffffffffffffff021916908373ffffffffffffffffffffffffffffffffffffffff1602179055508173ffffffffffffffffffffffffffffffffffffffff168173ffffffffffffffffffffffffffffffffffffffff167f8be0079c531659141344cd1fd0a4f28419497f9722a3daafe3b4186f6b6457e060405160405180910390a35050565b600080fd5b600073ffffffffffffffffffffffffffffffffffffffff82169050919050565b600062000247826200021a565b9050919050565b62000259816200023a565b81146200026557600080fd5b50565b60008151905062000279816200024e565b92915050565b60006020828403121562000298576200029762000215565b5b6000620002a88482850162000268565b91505092915050565b600081519050919050565b7f4e487b7100000000000000000000000000000000000000000000000000000000600052604160045260246000fd5b7f4e487b7100000000000000000000000000000000000000000000000000000000600052602260045260246000fd5b600060028204905060018216806200033357607f821691505b602082108103620003495762000348620002eb565b5b50919050565b60008190508160005260206000209050919050565b60006020601f8301049050919050565b600082821b905092915050565b600060088302620003b37fffffffffffffffffffffffffffffffffffffffffffffffffffffffffffffffff8262000374565b620003bf868362000374565b95508019841693508086168417925050509392505050565b6000819050919050565b6000819050919050565b60006200040c620004066200040084620003d7565b620003e1565b620003d7565b9050919050565b6000819050919050565b6200042883620003eb565b62000440620004378262000413565b84845462000381565b825550505050565b600090565b6200045762000448565b620004648184846200041d565b505050565b5b818110156200048c57620004806000826200044d565b6001810190506200046a565b5050565b601f821115620004db57620004a5816200034f565b620004b08462000364565b81016020851015620004c0578190505b620004d8620004cf8562000364565b83018262000469565b50505b505050565b600082821c905092915050565b60006200050060001984600802620004e0565b1980831691505092915050565b60006200051b8383620004ed565b9150826002028217905092915050565b6200053682620002b1565b67ffffffffffffffff811115620005525762000551620002bc565b5b6200055e82546200031a565b6200056b82828562000490565b600060209050601f831160018114620005a357600084156200058e578287015190505b6200059a85826200050d565b8655506200060a565b601f198416620005b3866200034f565b60005b82811015620005dd57848901518255600182019150602085019450602081019050620005b6565b86831015620005fd5784890151620005f9601f891682620004ed565b8355505b6001600288020188555050505b505050505050565b6144ad80620006226000396000f3fe6080604052600436106101665760003560e01c806370a08231116100d1578063a475b5dd1161008a578063b88d4fde11610064578063b88d4fde1461051f578063c87b56dd14610548578063e985e9c514610585578063f2fde38b146105c257610166565b8063a475b5dd146104a0578063a9842610146104b7578063ad27314b146104e257610166565b806370a08231146103a2578063715018a6146103df5780637af43952146103f65780638da5cb5b1461042157806395d89b411461044c578063a22cb4651461047757610166565b80632f745c59116101235780632f745c591461028d5780633c7a3aff146102ca5780633cbef428146102d457806342842e0e146102ff5780634f6ccce7146103285780636352211e1461036557610166565b806301ffc9a71461016b57806306fdde03146101a8578063081812fc146101d3578063095ea7b31461021057806318160ddd1461023957806323b872dd14610264575b600080fd5b34801561017757600080fd5b50610192600480360381019061018d9190612cc7565b6105eb565b60405161019f9190612d0f565b60405180910390f35b3480156101b457600080fd5b506101bd6105fd565b6040516101ca9190612dba565b60405180910390f35b3480156101df57600080fd5b506101fa60048036038101906101f59190612e12565b61068f565b6040516102079190612e80565b60405180910390f35b34801561021c57600080fd5b5061023760048036038101906102329190612ec7565b6106d5565b005b34801561024557600080fd5b5061024e6107ec565b60405161025b9190612f16565b60405180910390f35b34801561027057600080fd5b5061028b60048036038101906102869190612f31565b6107f9565b005b34801561029957600080fd5b506102b460048036038101906102af9190612ec7565b610859565b6040516102c19190612f16565b60405180910390f35b6102d26108fe565b005b3480156102e057600080fd5b506102e9610b4d565b6040516102f69190612f16565b60405180910390f35b34801561030b57600080fd5b5061032660048036038101906103219190612f31565b610b57565b005b34801561033457600080fd5b5061034f600480360381019061034a9190612e12565b610b77565b60405161035c9190612f16565b60405180910390f35b34801561037157600080fd5b5061038c60048036038101906103879190612e12565b610be8565b6040516103999190612e80565b60405180910390f35b3480156103ae57600080fd5b506103c960048036038101906103c49190612f84565b610c6e565b6040516103d69190612f16565b60405180910390f35b3480156103eb57600080fd5b506103f4610d25565b005b34801561040257600080fd5b5061040b610d39565b6040516104189190612f16565b60405180910390f35b34801561042d57600080fd5b50610436610d43565b6040516104439190612e80565b60405180910390f35b34801561045857600080fd5b50610461610d6d565b60405161046e9190612dba565b60405180910390f35b34801561048357600080fd5b5061049e60048036038101906104999190612fdd565b610dff565b005b3480156104ac57600080fd5b506104b5610e15565b005b3480156104c357600080fd5b506104cc611273565b6040516104d99190612d0f565b60405180910390f35b3480156104ee57600080fd5b5061050960048036038101906105049190612e12565b6112bc565b604051610516919061315d565b60405180910390f35b34801561052b57600080fd5b50610546600480360381019061054191906132b4565b611481565b005b34801561055457600080fd5b5061056f600480360381019061056a9190612e12565b6114e3565b60405161057c9190612dba565b60405180910390f35b34801561059157600080fd5b506105ac60048036038101906105a79190613337565b61154b565b6040516105b99190612d0f565b60405180910390f35b3480156105ce57600080fd5b506105e960048036038101906105e49190612f84565b6115df565b005b60006105f682611662565b9050919050565b60606000805461060c906133a6565b80601f0160208091040260200160405190810160405280929190818152602001828054610638906133a6565b80156106855780601f1061065a57610100808354040283529160200191610685565b820191906000526020600020905b81548152906001019060200180831161066857829003601f168201915b5050505050905090565b600061069a826116dc565b6004600083815260200190815260200160002060009054906101000a900473ffffffffffffffffffffffffffffffffffffffff169050919050565b60006106e082610be8565b90508073ffffffffffffffffffffffffffffffffffffffff168373ffffffffffffffffffffffffffffffffffffffff1603610750576040517f08c379a000000000000000000000000000000000000000000000000000000000815260040161074790613449565b60405180910390fd5b8073ffffffffffffffffffffffffffffffffffffffff1661076f611727565b73ffffffffffffffffffffffffffffffffffffffff16148061079e575061079d81610798611727565b61154b565b5b6107dd576040517f08c379a00000000000000000000000000000000000000000000000000000000081526004016107d4906134db565b60405180910390fd5b6107e7838361172f565b505050565b6000600880549050905090565b61080a610804611727565b826117e8565b610849576040517f08c379a00000000000000000000000000000000000000000000000000000000081526004016108409061356d565b60405180910390fd5b61085483838361187d565b505050565b600061086483610c6e565b82106108a5576040517f08c379a000000000000000000000000000000000000000000000000000000000815260040161089c906135ff565b60405180910390fd5b600660008473ffffffffffffffffffffffffffffffffffffffff1673ffffffffffffffffffffffffffffffffffffffff168152602001908152602001600020600083815260200190815260200160002054905092915050565b600d54600c60009054906101000a900473ffffffffffffffffffffffffffffffffffffffff1673ffffffffffffffffffffffffffffffffffffffff1663dd62ed3e33306040518363ffffffff1660e01b815260040161095e92919061361f565b602060405180830381865afa15801561097b573d6000803e3d6000fd5b505050506040513d601f19601f8201168201806040525081019061099f919061365d565b10156109e0576040517f08c379a00000000000000000000000000000000000000000000000000000000081526004016109d7906136d6565b60405180910390fd5b6000601060003373ffffffffffffffffffffffffffffffffffffffff1673ffffffffffffffffffffffffffffffffffffffff1681526020019081526020016000205414610a62576040517f08c379a0000000000000000000000000000000000000000000000000000000008152600401610a5990613768565b60405180910390fd5b600c60009054906101000a900473ffffffffffffffffffffffffffffffffffffffff1673ffffffffffffffffffffffffffffffffffffffff166323b872dd3330600d546040518463ffffffff1660e01b8152600401610ac393929190613788565b6020604051808303816000875af1158015610ae2573d6000803e3d6000fd5b505050506040513d601f19601f82011682018060405250810190610b0691906137d4565b5043601060003373ffffffffffffffffffffffffffffffffffffffff1673ffffffffffffffffffffffffffffffffffffffff16815260200190815260200160002081905550565b6000600d54905090565b610b7283838360405180602001604052806000815250611481565b505050565b6000610b816107ec565b8210610bc2576040517f08c379a0000000000000000000000000000000000000000000000000000000008152600401610bb990613873565b60405180910390fd5b60088281548110610bd657610bd5613893565b5b90600052602060002001549050919050565b600080610bf483611b76565b9050600073ffffffffffffffffffffffffffffffffffffffff168173ffffffffffffffffffffffffffffffffffffffff1603610c65576040517f08c379a0000000000000000000000000000000000000000000000000000000008152600401610c5c9061390e565b60405180910390fd5b80915050919050565b60008073ffffffffffffffffffffffffffffffffffffffff168273ffffffffffffffffffffffffffffffffffffffff1603610cde576040517f08c379a0000000000000000000000000000000000000000000000000000000008152600401610cd5906139a0565b60405180910390fd5b600360008373ffffffffffffffffffffffffffffffffffffffff1673ffffffffffffffffffffffffffffffffffffffff168152602001908152602001600020549050919050565b610d2d611bb3565b610d376000611c31565b565b6000600e54905090565b6000600a60009054906101000a900473ffffffffffffffffffffffffffffffffffffffff16905090565b606060018054610d7c906133a6565b80601f0160208091040260200160405190810160405280929190818152602001828054610da8906133a6565b8015610df55780601f10610dca57610100808354040283529160200191610df5565b820191906000526020600020905b815481529060010190602001808311610dd857829003601f168201915b5050505050905090565b610e11610e0a611727565b8383611cf7565b5050565b6000601060003373ffffffffffffffffffffffffffffffffffffffff1673ffffffffffffffffffffffffffffffffffffffff1681526020019081526020016000205403610e97576040517f08c379a0000000000000000000000000000000000000000000000000000000008152600401610e8e90613a32565b60405180910390fd5b43600f54601060003373ffffffffffffffffffffffffffffffffffffffff1673ffffffffffffffffffffffffffffffffffffffff16815260200190815260200160002054610ee59190613a81565b1015610f26576040517f08c379a0000000000000000000000000000000000000000000000000000000008152600401610f1d90613b27565b60405180910390fd5b6000601060003373ffffffffffffffffffffffffffffffffffffffff1673ffffffffffffffffffffffffffffffffffffffff168152602001908152602001600020544060001c9050601060003373ffffffffffffffffffffffffffffffffffffffff1673ffffffffffffffffffffffffffffffffffffffff16815260200190815260200160002060009055610fbb600b611e63565b6000610fc7600b611e79565b9050604051806101400160405280610fdd611e87565b610fe684611ec4565b604051602001610ff7929190613b83565b60405160208183030381529060405261100e611f92565b60405160200161101f929190613b83565b60405160208183030381529060405281526020016064846110409190613bd6565b60ff1681526020016064600785901c6110599190613bd6565b60ff1681526020016064600e85901c6110729190613bd6565b60ff168152602001601c601385901c61108b9190613bd6565b60ff168152602001601c601885901c6110a49190613bd6565b60ff168152602001601c601d85901c6110bd9190613bd6565b60ff168152602001601c602285901c6110d69190613bd6565b60ff168152602001601c602785901c6110ef9190613bd6565b60ff168152602001601c602c85901c6111089190613bd6565b60ff168152506011600083815260200190815260200160002060008201518160000190816111369190613db3565b5060208201518160010160006101000a81548160ff021916908360ff16021790555060408201518160010160016101000a81548160ff021916908360ff16021790555060608201518160010160026101000a81548160ff021916908360ff16021790555060808201518160010160036101000a81548160ff021916908360ff16021790555060a08201518160010160046101000a81548160ff021916908360ff16021790555060c08201518160010160056101000a81548160ff021916908360ff16021790555060e08201518160010160066101000a81548160ff021916908360ff1602179055506101008201518160010160076101000a81548160ff021916908360ff1602179055506101208201518160010160086101000a81548160ff021916908360ff16021790555090505061126f3382611fcf565b5050565b600080601060003373ffffffffffffffffffffffffffffffffffffffff1673ffffffffffffffffffffffffffffffffffffffff1681526020019081526020016000205411905090565b6112c4612bed565b60116000838152602001908152602001600020604051806101400160405290816000820180546112f3906133a6565b80601f016020809104026020016040519081016040528092919081815260200182805461131f906133a6565b801561136c5780601f106113415761010080835404028352916020019161136c565b820191906000526020600020905b81548152906001019060200180831161134f57829003601f168201915b505050505081526020016001820160009054906101000a900460ff1660ff1660ff1681526020016001820160019054906101000a900460ff1660ff1660ff1681526020016001820160029054906101000a900460ff1660ff1660ff1681526020016001820160039054906101000a900460ff1660ff1660ff1681526020016001820160049054906101000a900460ff1660ff1660ff1681526020016001820160059054906101000a900460ff1660ff1660ff1681526020016001820160069054906101000a900460ff1660ff1660ff1681526020016001820160079054906101000a900460ff1660ff1660ff1681526020016001820160089054906101000a900460ff1660ff1660ff16815250509050919050565b61149261148c611727565b836117e8565b6114d1576040517f08c379a00000000000000000000000000000000000000000000000000000000081526004016114c89061356d565b60405180910390fd5b6114dd84848484611fed565b50505050565b60606114ee826116dc565b60006114f8612049565b905060008151116115185760405180602001604052806000815250611543565b8061152284611ec4565b604051602001611533929190613b83565b6040516020818303038152906040525b915050919050565b6000600560008473ffffffffffffffffffffffffffffffffffffffff1673ffffffffffffffffffffffffffffffffffffffff16815260200190815260200160002060008373ffffffffffffffffffffffffffffffffffffffff1673ffffffffffffffffffffffffffffffffffffffff16815260200190815260200160002060009054906101000a900460ff16905092915050565b6115e7611bb3565b600073ffffffffffffffffffffffffffffffffffffffff168173ffffffffffffffffffffffffffffffffffffffff1603611656576040517f08c379a000000000000000000000000000000000000000000000000000000000815260040161164d90613ef7565b60405180910390fd5b61165f81611c31565b50565b60007f780e9d63000000000000000000000000000000000000000000000000000000007bffffffffffffffffffffffffffffffffffffffffffffffffffffffff1916827bffffffffffffffffffffffffffffffffffffffffffffffffffffffff191614806116d557506116d482612069565b5b9050919050565b6116e58161214b565b611724576040517f08c379a000000000000000000000000000000000000000000000000000000000815260040161171b9061390e565b60405180910390fd5b50565b600033905090565b816004600083815260200190815260200160002060006101000a81548173ffffffffffffffffffffffffffffffffffffffff021916908373ffffffffffffffffffffffffffffffffffffffff160217905550808273ffffffffffffffffffffffffffffffffffffffff166117a283610be8565b73ffffffffffffffffffffffffffffffffffffffff167f8c5be1e5ebec7d5bd14f71427d1e84f3dd0314c0f7b2291e5b200ac8c7c3b92560405160405180910390a45050565b6000806117f483610be8565b90508073ffffffffffffffffffffffffffffffffffffffff168473ffffffffffffffffffffffffffffffffffffffff1614806118365750611835818561154b565b5b8061187457508373ffffffffffffffffffffffffffffffffffffffff1661185c8461068f565b73ffffffffffffffffffffffffffffffffffffffff16145b91505092915050565b8273ffffffffffffffffffffffffffffffffffffffff1661189d82610be8565b73ffffffffffffffffffffffffffffffffffffffff16146118f3576040517f08c379a00000000000000000000000000000000000000000000000000000000081526004016118ea90613f89565b60405180910390fd5b600073ffffffffffffffffffffffffffffffffffffffff168273ffffffffffffffffffffffffffffffffffffffff1603611962576040517f08c379a00000000000000000000000000000000000000000000000000000000081526004016119599061401b565b60405180910390fd5b61196f838383600161218c565b8273ffffffffffffffffffffffffffffffffffffffff1661198f82610be8565b73ffffffffffffffffffffffffffffffffffffffff16146119e5576040517f08c379a00000000000000000000000000000000000000000000000000000000081526004016119dc90613f89565b60405180910390fd5b6004600082815260200190815260200160002060006101000a81549073ffffffffffffffffffffffffffffffffffffffff02191690556001600360008573ffffffffffffffffffffffffffffffffffffffff1673ffffffffffffffffffffffffffffffffffffffff168152602001908152602001600020600082825403925050819055506001600360008473ffffffffffffffffffffffffffffffffffffffff1673ffffffffffffffffffffffffffffffffffffffff16815260200190815260200160002060008282540192505081905550816002600083815260200190815260200160002060006101000a81548173ffffffffffffffffffffffffffffffffffffffff021916908373ffffffffffffffffffffffffffffffffffffffff160217905550808273ffffffffffffffffffffffffffffffffffffffff168473ffffffffffffffffffffffffffffffffffffffff167fddf252ad1be2c89b69c2b068fc378daa952ba7f163c4a11628f55a4df523b3ef60405160405180910390a4611b71838383600161219e565b505050565b60006002600083815260200190815260200160002060009054906101000a900473ffffffffffffffffffffffffffffffffffffffff169050919050565b611bbb611727565b73ffffffffffffffffffffffffffffffffffffffff16611bd9610d43565b73ffffffffffffffffffffffffffffffffffffffff1614611c2f576040517f08c379a0000000000000000000000000000000000000000000000000000000008152600401611c2690614087565b60405180910390fd5b565b6000600a60009054906101000a900473ffffffffffffffffffffffffffffffffffffffff16905081600a60006101000a81548173ffffffffffffffffffffffffffffffffffffffff021916908373ffffffffffffffffffffffffffffffffffffffff1602179055508173ffffffffffffffffffffffffffffffffffffffff168173ffffffffffffffffffffffffffffffffffffffff167f8be0079c531659141344cd1fd0a4f28419497f9722a3daafe3b4186f6b6457e060405160405180910390a35050565b8173ffffffffffffffffffffffffffffffffffffffff168373ffffffffffffffffffffffffffffffffffffffff1603611d65576040517f08c379a0000000000000000000000000000000000000000000000000000000008152600401611d5c906140f3565b60405180910390fd5b80600560008573ffffffffffffffffffffffffffffffffffffffff1673ffffffffffffffffffffffffffffffffffffffff16815260200190815260200160002060008473ffffffffffffffffffffffffffffffffffffffff1673ffffffffffffffffffffffffffffffffffffffff16815260200190815260200160002060006101000a81548160ff0219169083151502179055508173ffffffffffffffffffffffffffffffffffffffff168373ffffffffffffffffffffffffffffffffffffffff167f17307eab39ab6107e8899845ad3d59bd9653f200f220920489ca2b5937696c3183604051611e569190612d0f565b60405180910390a3505050565b6001816000016000828254019250508190555050565b600081600001549050919050565b60606040518060400160405280601e81526020017f68747470733a2f2f6e797865756d2e76657263656c2e6170702f6e66742f0000815250905090565b606060006001611ed3846121a4565b01905060008167ffffffffffffffff811115611ef257611ef1613189565b5b6040519080825280601f01601f191660200182016040528015611f245781602001600182028036833780820191505090505b509050600082602001820190505b600115611f87578080600190039150507f3031323334353637383961626364656600000000000000000000000000000000600a86061a8153600a8581611f7b57611f7a613ba7565b5b04945060008503611f32575b819350505050919050565b60606040518060400160405280600481526020017f2e706e6700000000000000000000000000000000000000000000000000000000815250905090565b611fe98282604051806020016040528060008152506122f7565b5050565b611ff884848461187d565b61200484848484612352565b612043576040517f08c379a000000000000000000000000000000000000000000000000000000000815260040161203a90614185565b60405180910390fd5b50505050565b606060405180606001604052806022815260200161445660229139905090565b60007f80ac58cd000000000000000000000000000000000000000000000000000000007bffffffffffffffffffffffffffffffffffffffffffffffffffffffff1916827bffffffffffffffffffffffffffffffffffffffffffffffffffffffff1916148061213457507f5b5e139f000000000000000000000000000000000000000000000000000000007bffffffffffffffffffffffffffffffffffffffffffffffffffffffff1916827bffffffffffffffffffffffffffffffffffffffffffffffffffffffff1916145b806121445750612143826124d9565b5b9050919050565b60008073ffffffffffffffffffffffffffffffffffffffff1661216d83611b76565b73ffffffffffffffffffffffffffffffffffffffff1614159050919050565b61219884848484612543565b50505050565b50505050565b600080600090507a184f03e93ff9f4daa797ed6e38ed64bf6a1f0100000000000000008310612202577a184f03e93ff9f4daa797ed6e38ed64bf6a1f01000000000000000083816121f8576121f7613ba7565b5b0492506040810190505b6d04ee2d6d415b85acef8100000000831061223f576d04ee2d6d415b85acef8100000000838161223557612234613ba7565b5b0492506020810190505b662386f26fc10000831061226e57662386f26fc10000838161226457612263613ba7565b5b0492506010810190505b6305f5e1008310612297576305f5e100838161228d5761228c613ba7565b5b0492506008810190505b61271083106122bc5761271083816122b2576122b1613ba7565b5b0492506004810190505b606483106122df57606483816122d5576122d4613ba7565b5b0492506002810190505b600a83106122ee576001810190505b80915050919050565b61230183836126a1565b61230e6000848484612352565b61234d576040517f08c379a000000000000000000000000000000000000000000000000000000000815260040161234490614185565b60405180910390fd5b505050565b60006123738473ffffffffffffffffffffffffffffffffffffffff166128be565b156124cc578373ffffffffffffffffffffffffffffffffffffffff1663150b7a0261239c611727565b8786866040518563ffffffff1660e01b81526004016123be94939291906141fa565b6020604051808303816000875af19250505080156123fa57506040513d601f19601f820116820180604052508101906123f7919061425b565b60015b61247c573d806000811461242a576040519150601f19603f3d011682016040523d82523d6000602084013e61242f565b606091505b506000815103612474576040517f08c379a000000000000000000000000000000000000000000000000000000000815260040161246b90614185565b60405180910390fd5b805181602001fd5b63150b7a0260e01b7bffffffffffffffffffffffffffffffffffffffffffffffffffffffff1916817bffffffffffffffffffffffffffffffffffffffffffffffffffffffff1916149150506124d1565b600190505b949350505050565b60007f01ffc9a7000000000000000000000000000000000000000000000000000000007bffffffffffffffffffffffffffffffffffffffffffffffffffffffff1916827bffffffffffffffffffffffffffffffffffffffffffffffffffffffff1916149050919050565b61254f848484846128e1565b6001811115612593576040517f08c379a000000000000000000000000000000000000000000000000000000000815260040161258a906142fa565b60405180910390fd5b6000829050600073ffffffffffffffffffffffffffffffffffffffff168573ffffffffffffffffffffffffffffffffffffffff16036125da576125d5816128e7565b612619565b8373ffffffffffffffffffffffffffffffffffffffff168573ffffffffffffffffffffffffffffffffffffffff1614612618576126178582612930565b5b5b600073ffffffffffffffffffffffffffffffffffffffff168473ffffffffffffffffffffffffffffffffffffffff160361265b5761265681612a9d565b61269a565b8473ffffffffffffffffffffffffffffffffffffffff168473ffffffffffffffffffffffffffffffffffffffff1614612699576126988482612b6e565b5b5b5050505050565b600073ffffffffffffffffffffffffffffffffffffffff168273ffffffffffffffffffffffffffffffffffffffff1603612710576040517f08c379a000000000000000000000000000000000000000000000000000000000815260040161270790614366565b60405180910390fd5b6127198161214b565b15612759576040517f08c379a0000000000000000000000000000000000000000000000000000000008152600401612750906143d2565b60405180910390fd5b61276760008383600161218c565b6127708161214b565b156127b0576040517f08c379a00000000000000000000000000000000000000000000000000000000081526004016127a7906143d2565b60405180910390fd5b6001600360008473ffffffffffffffffffffffffffffffffffffffff1673ffffffffffffffffffffffffffffffffffffffff16815260200190815260200160002060008282540192505081905550816002600083815260200190815260200160002060006101000a81548173ffffffffffffffffffffffffffffffffffffffff021916908373ffffffffffffffffffffffffffffffffffffffff160217905550808273ffffffffffffffffffffffffffffffffffffffff16600073ffffffffffffffffffffffffffffffffffffffff167fddf252ad1be2c89b69c2b068fc378daa952ba7f163c4a11628f55a4df523b3ef60405160405180910390a46128ba60008383600161219e565b5050565b6000808273ffffffffffffffffffffffffffffffffffffffff163b119050919050565b50505050565b6008805490506009600083815260200190815260200160002081905550600881908060018154018082558091505060019003906000526020600020016000909190919091505550565b6000600161293d84610c6e565b61294791906143f2565b9050600060076000848152602001908152602001600020549050818114612a2c576000600660008673ffffffffffffffffffffffffffffffffffffffff1673ffffffffffffffffffffffffffffffffffffffff168152602001908152602001600020600084815260200190815260200160002054905080600660008773ffffffffffffffffffffffffffffffffffffffff1673ffffffffffffffffffffffffffffffffffffffff168152602001908152602001600020600084815260200190815260200160002081905550816007600083815260200190815260200160002081905550505b6007600084815260200190815260200160002060009055600660008573ffffffffffffffffffffffffffffffffffffffff1673ffffffffffffffffffffffffffffffffffffffff16815260200190815260200160002060008381526020019081526020016000206000905550505050565b60006001600880549050612ab191906143f2565b9050600060096000848152602001908152602001600020549050600060088381548110612ae157612ae0613893565b5b906000526020600020015490508060088381548110612b0357612b02613893565b5b906000526020600020018190555081600960008381526020019081526020016000208190555060096000858152602001908152602001600020600090556008805480612b5257612b51614426565b5b6001900381819060005260206000200160009055905550505050565b6000612b7983610c6e565b905081600660008573ffffffffffffffffffffffffffffffffffffffff1673ffffffffffffffffffffffffffffffffffffffff168152602001908152602001600020600083815260200190815260200160002081905550806007600084815260200190815260200160002081905550505050565b60405180610140016040528060608152602001600060ff168152602001600060ff168152602001600060ff168152602001600060ff168152602001600060ff168152602001600060ff168152602001600060ff168152602001600060ff168152602001600060ff1681525090565b6000604051905090565b600080fd5b600080fd5b60007fffffffff0000000000000000000000000000000000000000000000000000000082169050919050565b612ca481612c6f565b8114612caf57600080fd5b50565b600081359050612cc181612c9b565b92915050565b600060208284031215612cdd57612cdc612c65565b5b6000612ceb84828501612cb2565b91505092915050565b60008115159050919050565b612d0981612cf4565b82525050565b6000602082019050612d246000830184612d00565b92915050565b600081519050919050565b600082825260208201905092915050565b60005b83811015612d64578082015181840152602081019050612d49565b60008484015250505050565b6000601f19601f8301169050919050565b6000612d8c82612d2a565b612d968185612d35565b9350612da6818560208601612d46565b612daf81612d70565b840191505092915050565b60006020820190508181036000830152612dd48184612d81565b905092915050565b6000819050919050565b612def81612ddc565b8114612dfa57600080fd5b50565b600081359050612e0c81612de6565b92915050565b600060208284031215612e2857612e27612c65565b5b6000612e3684828501612dfd565b91505092915050565b600073ffffffffffffffffffffffffffffffffffffffff82169050919050565b6000612e6a82612e3f565b9050919050565b612e7a81612e5f565b82525050565b6000602082019050612e956000830184612e71565b92915050565b612ea481612e5f565b8114612eaf57600080fd5b50565b600081359050612ec181612e9b565b92915050565b60008060408385031215612ede57612edd612c65565b5b6000612eec85828601612eb2565b9250506020612efd85828601612dfd565b9150509250929050565b612f1081612ddc565b82525050565b6000602082019050612f2b6000830184612f07565b92915050565b600080600060608486031215612f4a57612f49612c65565b5b6000612f5886828701612eb2565b9350506020612f6986828701612eb2565b9250506040612f7a86828701612dfd565b9150509250925092565b600060208284031215612f9a57612f99612c65565b5b6000612fa884828501612eb2565b91505092915050565b612fba81612cf4565b8114612fc557600080fd5b50565b600081359050612fd781612fb1565b92915050565b60008060408385031215612ff457612ff3612c65565b5b600061300285828601612eb2565b925050602061301385828601612fc8565b9150509250929050565b600082825260208201905092915050565b600061303982612d2a565b613043818561301d565b9350613053818560208601612d46565b61305c81612d70565b840191505092915050565b600060ff82169050919050565b61307d81613067565b82525050565b60006101408301600083015184820360008601526130a1828261302e565b91505060208301516130b66020860182613074565b5060408301516130c96040860182613074565b5060608301516130dc6060860182613074565b5060808301516130ef6080860182613074565b5060a083015161310260a0860182613074565b5060c083015161311560c0860182613074565b5060e083015161312860e0860182613074565b5061010083015161313d610100860182613074565b50610120830151613152610120860182613074565b508091505092915050565b600060208201905081810360008301526131778184613083565b905092915050565b600080fd5b600080fd5b7f4e487b7100000000000000000000000000000000000000000000000000000000600052604160045260246000fd5b6131c182612d70565b810181811067ffffffffffffffff821117156131e0576131df613189565b5b80604052505050565b60006131f3612c5b565b90506131ff82826131b8565b919050565b600067ffffffffffffffff82111561321f5761321e613189565b5b61322882612d70565b9050602081019050919050565b82818337600083830152505050565b600061325761325284613204565b6131e9565b90508281526020810184848401111561327357613272613184565b5b61327e848285613235565b509392505050565b600082601f83011261329b5761329a61317f565b5b81356132ab848260208601613244565b91505092915050565b600080600080608085870312156132ce576132cd612c65565b5b60006132dc87828801612eb2565b94505060206132ed87828801612eb2565b93505060406132fe87828801612dfd565b925050606085013567ffffffffffffffff81111561331f5761331e612c6a565b5b61332b87828801613286565b91505092959194509250565b6000806040838503121561334e5761334d612c65565b5b600061335c85828601612eb2565b925050602061336d85828601612eb2565b9150509250929050565b7f4e487b7100000000000000000000000000000000000000000000000000000000600052602260045260246000fd5b600060028204905060018216806133be57607f821691505b6020821081036133d1576133d0613377565b5b50919050565b7f4552433732313a20617070726f76616c20746f2063757272656e74206f776e6560008201527f7200000000000000000000000000000000000000000000000000000000000000602082015250565b6000613433602183612d35565b915061343e826133d7565b604082019050919050565b6000602082019050818103600083015261346281613426565b9050919050565b7f4552433732313a20617070726f76652063616c6c6572206973206e6f7420746f60008201527f6b656e206f776e6572206f7220617070726f76656420666f7220616c6c000000602082015250565b60006134c5603d83612d35565b91506134d082613469565b604082019050919050565b600060208201905081810360008301526134f4816134b8565b9050919050565b7f4552433732313a2063616c6c6572206973206e6f7420746f6b656e206f776e6560008201527f72206f7220617070726f76656400000000000000000000000000000000000000602082015250565b6000613557602d83612d35565b9150613562826134fb565b604082019050919050565b600060208201905081810360008301526135868161354a565b9050919050565b7f455243373231456e756d657261626c653a206f776e657220696e646578206f7560008201527f74206f6620626f756e6473000000000000000000000000000000000000000000602082015250565b60006135e9602b83612d35565b91506135f48261358d565b604082019050919050565b60006020820190508181036000830152613618816135dc565b9050919050565b60006040820190506136346000830185612e71565b6136416020830184612e71565b9392505050565b60008151905061365781612de6565b92915050565b60006020828403121561367357613672612c65565b5b600061368184828501613648565b91505092915050565b7f436865636b204e595820616c6c6f77616e636500000000000000000000000000600082015250565b60006136c0601383612d35565b91506136cb8261368a565b602082019050919050565b600060208201905081810360008301526136ef816136b3565b9050919050565b7f596f75206861766520616c72656164792061206368617261637465722072657160008201527f7565737465642100000000000000000000000000000000000000000000000000602082015250565b6000613752602783612d35565b915061375d826136f6565b604082019050919050565b6000602082019050818103600083015261378181613745565b9050919050565b600060608201905061379d6000830186612e71565b6137aa6020830185612e71565b6137b76040830184612f07565b949350505050565b6000815190506137ce81612fb1565b92915050565b6000602082840312156137ea576137e9612c65565b5b60006137f8848285016137bf565b91505092915050565b7f455243373231456e756d657261626c653a20676c6f62616c20696e646578206f60008201527f7574206f6620626f756e64730000000000000000000000000000000000000000602082015250565b600061385d602c83612d35565b915061386882613801565b604082019050919050565b6000602082019050818103600083015261388c81613850565b9050919050565b7f4e487b7100000000000000000000000000000000000000000000000000000000600052603260045260246000fd5b7f4552433732313a20696e76616c696420746f6b656e2049440000000000000000600082015250565b60006138f8601883612d35565b9150613903826138c2565b602082019050919050565b60006020820190508181036000830152613927816138eb565b9050919050565b7f4552433732313a2061646472657373207a65726f206973206e6f74206120766160008201527f6c6964206f776e65720000000000000000000000000000000000000000000000602082015250565b600061398a602983612d35565b91506139958261392e565b604082019050919050565b600060208201905081810360008301526139b98161397d565b9050919050565b7f596f75206e65656420746f20726571756573742061206368617261637465722060008201527f6669727374210000000000000000000000000000000000000000000000000000602082015250565b6000613a1c602683612d35565b9150613a27826139c0565b604082019050919050565b60006020820190508181036000830152613a4b81613a0f565b9050919050565b7f4e487b7100000000000000000000000000000000000000000000000000000000600052601160045260246000fd5b6000613a8c82612ddc565b9150613a9783612ddc565b9250828201905080821115613aaf57613aae613a52565b5b92915050565b7f596f75206e65656420746f2077616974206120626974206265666f726520726560008201527f7665616c696e6720796f75722063686172616374657200000000000000000000602082015250565b6000613b11603683612d35565b9150613b1c82613ab5565b604082019050919050565b60006020820190508181036000830152613b4081613b04565b9050919050565b600081905092915050565b6000613b5d82612d2a565b613b678185613b47565b9350613b77818560208601612d46565b80840191505092915050565b6000613b8f8285613b52565b9150613b9b8284613b52565b91508190509392505050565b7f4e487b7100000000000000000000000000000000000000000000000000000000600052601260045260246000fd5b6000613be182612ddc565b9150613bec83612ddc565b925082613bfc57613bfb613ba7565b5b828206905092915050565b60008190508160005260206000209050919050565b60006020601f8301049050919050565b600082821b905092915050565b600060088302613c697fffffffffffffffffffffffffffffffffffffffffffffffffffffffffffffffff82613c2c565b613c738683613c2c565b95508019841693508086168417925050509392505050565b6000819050919050565b6000613cb0613cab613ca684612ddc565b613c8b565b612ddc565b9050919050565b6000819050919050565b613cca83613c95565b613cde613cd682613cb7565b848454613c39565b825550505050565b600090565b613cf3613ce6565b613cfe818484613cc1565b505050565b5b81811015613d2257613d17600082613ceb565b600181019050613d04565b5050565b601f821115613d6757613d3881613c07565b613d4184613c1c565b81016020851015613d50578190505b613d64613d5c85613c1c565b830182613d03565b50505b505050565b600082821c905092915050565b6000613d8a60001984600802613d6c565b1980831691505092915050565b6000613da38383613d79565b9150826002028217905092915050565b613dbc82612d2a565b67ffffffffffffffff811115613dd557613dd4613189565b5b613ddf82546133a6565b613dea828285613d26565b600060209050601f831160018114613e1d5760008415613e0b578287015190505b613e158582613d97565b865550613e7d565b601f198416613e2b86613c07565b60005b82811015613e5357848901518255600182019150602085019450602081019050613e2e565b86831015613e705784890151613e6c601f891682613d79565b8355505b6001600288020188555050505b505050505050565b7f4f776e61626c653a206e6577206f776e657220697320746865207a65726f206160008201527f6464726573730000000000000000000000000000000000000000000000000000602082015250565b6000613ee1602683612d35565b9150613eec82613e85565b604082019050919050565b60006020820190508181036000830152613f1081613ed4565b9050919050565b7f4552433732313a207472616e736665722066726f6d20696e636f72726563742060008201527f6f776e6572000000000000000000000000000000000000000000000000000000602082015250565b6000613f73602583612d35565b9150613f7e82613f17565b604082019050919050565b60006020820190508181036000830152613fa281613f66565b9050919050565b7f4552433732313a207472616e7366657220746f20746865207a65726f2061646460008201527f7265737300000000000000000000000000000000000000000000000000000000602082015250565b6000614005602483612d35565b915061401082613fa9565b604082019050919050565b6000602082019050818103600083015261403481613ff8565b9050919050565b7f4f776e61626c653a2063616c6c6572206973206e6f7420746865206f776e6572600082015250565b6000614071602083612d35565b915061407c8261403b565b602082019050919050565b600060208201905081810360008301526140a081614064565b9050919050565b7f4552433732313a20617070726f766520746f2063616c6c657200000000000000600082015250565b60006140dd601983612d35565b91506140e8826140a7565b602082019050919050565b6000602082019050818103600083015261410c816140d0565b9050919050565b7f4552433732313a207472616e7366657220746f206e6f6e20455243373231526560008201527f63656976657220696d706c656d656e7465720000000000000000000000000000602082015250565b600061416f603283612d35565b915061417a82614113565b604082019050919050565b6000602082019050818103600083015261419e81614162565b9050919050565b600081519050919050565b600082825260208201905092915050565b60006141cc826141a5565b6141d681856141b0565b93506141e6818560208601612d46565b6141ef81612d70565b840191505092915050565b600060808201905061420f6000830187612e71565b61421c6020830186612e71565b6142296040830185612f07565b818103606083015261423b81846141c1565b905095945050505050565b60008151905061425581612c9b565b92915050565b60006020828403121561427157614270612c65565b5b600061427f84828501614246565b91505092915050565b7f455243373231456e756d657261626c653a20636f6e736563757469766520747260008201527f616e7366657273206e6f7420737570706f727465640000000000000000000000602082015250565b60006142e4603583612d35565b91506142ef82614288565b604082019050919050565b60006020820190508181036000830152614313816142d7565b9050919050565b7f4552433732313a206d696e7420746f20746865207a65726f2061646472657373600082015250565b6000614350602083612d35565b915061435b8261431a565b602082019050919050565b6000602082019050818103600083015261437f81614343565b9050919050565b7f4552433732313a20746f6b656e20616c7265616479206d696e74656400000000600082015250565b60006143bc601c83612d35565b91506143c782614386565b602082019050919050565b600060208201905081810360008301526143eb816143af565b9050919050565b60006143fd82612ddc565b915061440883612ddc565b92508282039050818111156144205761441f613a52565b5b92915050565b7f4e487b7100000000000000000000000000000000000000000000000000000000600052603160045260246000fdfe68747470733a2f2f6e797865756d2e76657263656c2e6170702f6170692f6e66742fa2646970667358221220ca0459b2ea7c92e13d9f9ecc2cf59c3db821a4419f57dbc44ebd64d204c0d2c264736f6c63430008120033",
  "linkReferences": {},
  "deployedLinkReferences": {}
}