{
  "_format": "hh-sol-artifact-1",
  "contractName": "HeroesOfNyxeum",
  "sourceName": "contracts/HeroesOfNyxeum.sol",
  "abi": [
    {
      "inputs": [
        {
          "internalType": "uint256",
          "name": "tokenLimit",
          "type": "uint256"
        }
      ],
      "stateMutability": "nonpayable",
      "type": "constructor"
    },
    {
      "anonymous": false,
      "inputs": [
        {
          "indexed": true,
          "internalType": "address",
          "name": "owner",
          "type": "address"
        },
        {
          "indexed": true,
          "internalType": "address",
          "name": "approved",
          "type": "address"
        },
        {
          "indexed": true,
          "internalType": "uint256",
          "name": "tokenId",
          "type": "uint256"
        }
      ],
      "name": "Approval",
      "type": "event"
    },
    {
      "anonymous": false,
      "inputs": [
        {
          "indexed": true,
          "internalType": "address",
          "name": "owner",
          "type": "address"
        },
        {
          "indexed": true,
          "internalType": "address",
          "name": "operator",
          "type": "address"
        },
        {
          "indexed": false,
          "internalType": "bool",
          "name": "approved",
          "type": "bool"
        }
      ],
      "name": "ApprovalForAll",
      "type": "event"
    },
    {
      "anonymous": false,
      "inputs": [
        {
          "indexed": true,
          "internalType": "address",
          "name": "previousOwner",
          "type": "address"
        },
        {
          "indexed": true,
          "internalType": "address",
          "name": "newOwner",
          "type": "address"
        }
      ],
      "name": "OwnershipTransferred",
      "type": "event"
    },
    {
      "anonymous": false,
      "inputs": [
        {
          "indexed": true,
          "internalType": "address",
          "name": "from",
          "type": "address"
        },
        {
          "indexed": true,
          "internalType": "address",
          "name": "to",
          "type": "address"
        },
        {
          "indexed": true,
          "internalType": "uint256",
          "name": "tokenId",
          "type": "uint256"
        }
      ],
      "name": "Transfer",
      "type": "event"
    },
    {
      "inputs": [
        {
          "internalType": "address",
          "name": "to",
          "type": "address"
        },
        {
          "internalType": "uint256",
          "name": "tokenId",
          "type": "uint256"
        }
      ],
      "name": "approve",
      "outputs": [],
      "stateMutability": "nonpayable",
      "type": "function"
    },
    {
      "inputs": [
        {
          "internalType": "address",
          "name": "owner",
          "type": "address"
        }
      ],
      "name": "balanceOf",
      "outputs": [
        {
          "internalType": "uint256",
          "name": "",
          "type": "uint256"
        }
      ],
      "stateMutability": "view",
      "type": "function"
    },
    {
      "inputs": [
        {
          "internalType": "uint256",
          "name": "tokenId",
          "type": "uint256"
        }
      ],
      "name": "getApproved",
      "outputs": [
        {
          "internalType": "address",
          "name": "",
          "type": "address"
        }
      ],
      "stateMutability": "view",
      "type": "function"
    },
    {
      "inputs": [
        {
          "internalType": "uint256",
          "name": "index",
          "type": "uint256"
        }
      ],
      "name": "getNftMetadata",
      "outputs": [
        {
          "components": [
            {
              "internalType": "uint8",
              "name": "strength",
              "type": "uint8"
            },
            {
              "internalType": "uint8",
              "name": "dexterity",
              "type": "uint8"
            },
            {
              "internalType": "uint8",
              "name": "intelligence",
              "type": "uint8"
            },
            {
              "internalType": "uint8",
              "name": "tough",
              "type": "uint8"
            },
            {
              "internalType": "uint8",
              "name": "powerful",
              "type": "uint8"
            },
            {
              "internalType": "uint8",
              "name": "precise",
              "type": "uint8"
            },
            {
              "internalType": "uint8",
              "name": "skilled",
              "type": "uint8"
            },
            {
              "internalType": "uint8",
              "name": "sharp",
              "type": "uint8"
            },
            {
              "internalType": "uint8",
              "name": "oracle",
              "type": "uint8"
            }
          ],
          "internalType": "struct HeroesOfNyxeum.NftMetadata",
          "name": "",
          "type": "tuple"
        }
      ],
      "stateMutability": "view",
      "type": "function"
    },
    {
      "inputs": [],
      "name": "getTokenLimit",
      "outputs": [
        {
          "internalType": "uint256",
          "name": "",
          "type": "uint256"
        }
      ],
      "stateMutability": "view",
      "type": "function"
    },
    {
      "inputs": [
        {
          "internalType": "address",
          "name": "owner",
          "type": "address"
        },
        {
          "internalType": "address",
          "name": "operator",
          "type": "address"
        }
      ],
      "name": "isApprovedForAll",
      "outputs": [
        {
          "internalType": "bool",
          "name": "",
          "type": "bool"
        }
      ],
      "stateMutability": "view",
      "type": "function"
    },
    {
      "inputs": [
        {
          "internalType": "address",
          "name": "buyer",
          "type": "address"
        },
        {
          "internalType": "uint256",
          "name": "seed",
          "type": "uint256"
        }
      ],
      "name": "mint",
      "outputs": [
        {
          "internalType": "uint256",
          "name": "tokenId",
          "type": "uint256"
        }
      ],
      "stateMutability": "nonpayable",
      "type": "function"
    },
    {
      "inputs": [],
      "name": "name",
      "outputs": [
        {
          "internalType": "string",
          "name": "",
          "type": "string"
        }
      ],
      "stateMutability": "view",
      "type": "function"
    },
    {
      "inputs": [],
      "name": "owner",
      "outputs": [
        {
          "internalType": "address",
          "name": "",
          "type": "address"
        }
      ],
      "stateMutability": "view",
      "type": "function"
    },
    {
      "inputs": [
        {
          "internalType": "uint256",
          "name": "tokenId",
          "type": "uint256"
        }
      ],
      "name": "ownerOf",
      "outputs": [
        {
          "internalType": "address",
          "name": "",
          "type": "address"
        }
      ],
      "stateMutability": "view",
      "type": "function"
    },
    {
      "inputs": [],
      "name": "renounceOwnership",
      "outputs": [],
      "stateMutability": "nonpayable",
      "type": "function"
    },
    {
      "inputs": [
        {
          "internalType": "address",
          "name": "from",
          "type": "address"
        },
        {
          "internalType": "address",
          "name": "to",
          "type": "address"
        },
        {
          "internalType": "uint256",
          "name": "tokenId",
          "type": "uint256"
        }
      ],
      "name": "safeTransferFrom",
      "outputs": [],
      "stateMutability": "nonpayable",
      "type": "function"
    },
    {
      "inputs": [
        {
          "internalType": "address",
          "name": "from",
          "type": "address"
        },
        {
          "internalType": "address",
          "name": "to",
          "type": "address"
        },
        {
          "internalType": "uint256",
          "name": "tokenId",
          "type": "uint256"
        },
        {
          "internalType": "bytes",
          "name": "data",
          "type": "bytes"
        }
      ],
      "name": "safeTransferFrom",
      "outputs": [],
      "stateMutability": "nonpayable",
      "type": "function"
    },
    {
      "inputs": [
        {
          "internalType": "address",
          "name": "operator",
          "type": "address"
        },
        {
          "internalType": "bool",
          "name": "approved",
          "type": "bool"
        }
      ],
      "name": "setApprovalForAll",
      "outputs": [],
      "stateMutability": "nonpayable",
      "type": "function"
    },
    {
      "inputs": [
        {
          "internalType": "address",
          "name": "minterAddress",
          "type": "address"
        }
      ],
      "name": "setMinter",
      "outputs": [],
      "stateMutability": "nonpayable",
      "type": "function"
    },
    {
      "inputs": [
        {
          "internalType": "uint256",
          "name": "tokenLimit",
          "type": "uint256"
        }
      ],
      "name": "setTokenLimit",
      "outputs": [],
      "stateMutability": "nonpayable",
      "type": "function"
    },
    {
      "inputs": [
        {
          "internalType": "bytes4",
          "name": "interfaceId",
          "type": "bytes4"
        }
      ],
      "name": "supportsInterface",
      "outputs": [
        {
          "internalType": "bool",
          "name": "",
          "type": "bool"
        }
      ],
      "stateMutability": "view",
      "type": "function"
    },
    {
      "inputs": [],
      "name": "symbol",
      "outputs": [
        {
          "internalType": "string",
          "name": "",
          "type": "string"
        }
      ],
      "stateMutability": "view",
      "type": "function"
    },
    {
      "inputs": [
        {
          "internalType": "uint256",
          "name": "index",
          "type": "uint256"
        }
      ],
      "name": "tokenByIndex",
      "outputs": [
        {
          "internalType": "uint256",
          "name": "",
          "type": "uint256"
        }
      ],
      "stateMutability": "view",
      "type": "function"
    },
    {
      "inputs": [
        {
          "internalType": "address",
          "name": "owner",
          "type": "address"
        },
        {
          "internalType": "uint256",
          "name": "index",
          "type": "uint256"
        }
      ],
      "name": "tokenOfOwnerByIndex",
      "outputs": [
        {
          "internalType": "uint256",
          "name": "",
          "type": "uint256"
        }
      ],
      "stateMutability": "view",
      "type": "function"
    },
    {
      "inputs": [
        {
          "internalType": "uint256",
          "name": "tokenId",
          "type": "uint256"
        }
      ],
      "name": "tokenURI",
      "outputs": [
        {
          "internalType": "string",
          "name": "",
          "type": "string"
        }
      ],
      "stateMutability": "view",
      "type": "function"
    },
    {
      "inputs": [],
      "name": "totalSupply",
      "outputs": [
        {
          "internalType": "uint256",
          "name": "",
          "type": "uint256"
        }
      ],
      "stateMutability": "view",
      "type": "function"
    },
    {
      "inputs": [
        {
          "internalType": "address",
          "name": "from",
          "type": "address"
        },
        {
          "internalType": "address",
          "name": "to",
          "type": "address"
        },
        {
          "internalType": "uint256",
          "name": "tokenId",
          "type": "uint256"
        }
      ],
      "name": "transferFrom",
      "outputs": [],
      "stateMutability": "nonpayable",
      "type": "function"
    },
    {
      "inputs": [
        {
          "internalType": "address",
          "name": "newOwner",
          "type": "address"
        }
      ],
      "name": "transferOwnership",
      "outputs": [],
      "stateMutability": "nonpayable",
      "type": "function"
    }
  ],
  "bytecode": "0x60806040523480156200001157600080fd5b5060405162003f6738038062003f67833981810160405281019062000037919062000205565b6040518060400160405280601081526020017f4865726f6573206f66204e797865756d000000000000000000000000000000008152506040518060400160405280600381526020017f484f4e00000000000000000000000000000000000000000000000000000000008152508160009081620000b49190620004a7565b508060019081620000c69190620004a7565b505050620000e9620000dd620000f760201b60201c565b620000ff60201b60201c565b80600d81905550506200058e565b600033905090565b6000600a60009054906101000a900473ffffffffffffffffffffffffffffffffffffffff16905081600a60006101000a81548173ffffffffffffffffffffffffffffffffffffffff021916908373ffffffffffffffffffffffffffffffffffffffff1602179055508173ffffffffffffffffffffffffffffffffffffffff168173ffffffffffffffffffffffffffffffffffffffff167f8be0079c531659141344cd1fd0a4f28419497f9722a3daafe3b4186f6b6457e060405160405180910390a35050565b600080fd5b6000819050919050565b620001df81620001ca565b8114620001eb57600080fd5b50565b600081519050620001ff81620001d4565b92915050565b6000602082840312156200021e576200021d620001c5565b5b60006200022e84828501620001ee565b91505092915050565b600081519050919050565b7f4e487b7100000000000000000000000000000000000000000000000000000000600052604160045260246000fd5b7f4e487b7100000000000000000000000000000000000000000000000000000000600052602260045260246000fd5b60006002820490506001821680620002b957607f821691505b602082108103620002cf57620002ce62000271565b5b50919050565b60008190508160005260206000209050919050565b60006020601f8301049050919050565b600082821b905092915050565b600060088302620003397fffffffffffffffffffffffffffffffffffffffffffffffffffffffffffffffff82620002fa565b620003458683620002fa565b95508019841693508086168417925050509392505050565b6000819050919050565b600062000388620003826200037c84620001ca565b6200035d565b620001ca565b9050919050565b6000819050919050565b620003a48362000367565b620003bc620003b3826200038f565b84845462000307565b825550505050565b600090565b620003d3620003c4565b620003e081848462000399565b505050565b5b818110156200040857620003fc600082620003c9565b600181019050620003e6565b5050565b601f82111562000457576200042181620002d5565b6200042c84620002ea565b810160208510156200043c578190505b620004546200044b85620002ea565b830182620003e5565b50505b505050565b600082821c905092915050565b60006200047c600019846008026200045c565b1980831691505092915050565b600062000497838362000469565b9150826002028217905092915050565b620004b28262000237565b67ffffffffffffffff811115620004ce57620004cd62000242565b5b620004da8254620002a0565b620004e78282856200040c565b600060209050601f8311600181146200051f57600084156200050a578287015190505b62000516858262000489565b86555062000586565b601f1984166200052f86620002d5565b60005b82811015620005595784890151825560018201915060208501945060208101905062000532565b8683101562000579578489015162000575601f89168262000469565b8355505b6001600288020188555050505b505050505050565b6139c9806200059e6000396000f3fe608060405234801561001057600080fd5b50600436106101585760003560e01c806370a08231116100c3578063b88d4fde1161007c578063b88d4fde146103ed578063c0e68fec14610409578063c87b56dd14610425578063e985e9c514610455578063f2fde38b14610485578063fca3b5aa146104a157610158565b806370a082311461032b578063715018a61461035b5780638da5cb5b1461036557806395d89b4114610383578063a22cb465146103a1578063ad27314b146103bd57610158565b8063284855861161011557806328485586146102315780632f745c591461024f57806340c10f191461027f57806342842e0e146102af5780634f6ccce7146102cb5780636352211e146102fb57610158565b806301ffc9a71461015d57806306fdde031461018d578063081812fc146101ab578063095ea7b3146101db57806318160ddd146101f757806323b872dd14610215575b600080fd5b61017760048036038101906101729190612710565b6104bd565b6040516101849190612758565b60405180910390f35b6101956104cf565b6040516101a29190612803565b60405180910390f35b6101c560048036038101906101c0919061285b565b610561565b6040516101d291906128c9565b60405180910390f35b6101f560048036038101906101f09190612910565b6105a7565b005b6101ff6106be565b60405161020c919061295f565b60405180910390f35b61022f600480360381019061022a919061297a565b6106cb565b005b61023961072b565b604051610246919061295f565b60405180910390f35b61026960048036038101906102649190612910565b610735565b604051610276919061295f565b60405180910390f35b61029960048036038101906102949190612910565b6107da565b6040516102a6919061295f565b60405180910390f35b6102c960048036038101906102c4919061297a565b610b06565b005b6102e560048036038101906102e0919061285b565b610b26565b6040516102f2919061295f565b60405180910390f35b6103156004803603810190610310919061285b565b610b97565b60405161032291906128c9565b60405180910390f35b610345600480360381019061034091906129cd565b610c1d565b604051610352919061295f565b60405180910390f35b610363610cd4565b005b61036d610ce8565b60405161037a91906128c9565b60405180910390f35b61038b610d12565b6040516103989190612803565b60405180910390f35b6103bb60048036038101906103b69190612a26565b610da4565b005b6103d760048036038101906103d2919061285b565b610dba565b6040516103e49190612b39565b60405180910390f35b61040760048036038101906104029190612c8a565b610eed565b005b610423600480360381019061041e919061285b565b610f4f565b005b61043f600480360381019061043a919061285b565b610f61565b60405161044c9190612803565b60405180910390f35b61046f600480360381019061046a9190612d0d565b610fc9565b60405161047c9190612758565b60405180910390f35b61049f600480360381019061049a91906129cd565b61105d565b005b6104bb60048036038101906104b691906129cd565b6110e0565b005b60006104c88261112c565b9050919050565b6060600080546104de90612d7c565b80601f016020809104026020016040519081016040528092919081815260200182805461050a90612d7c565b80156105575780601f1061052c57610100808354040283529160200191610557565b820191906000526020600020905b81548152906001019060200180831161053a57829003601f168201915b5050505050905090565b600061056c826111a6565b6004600083815260200190815260200160002060009054906101000a900473ffffffffffffffffffffffffffffffffffffffff169050919050565b60006105b282610b97565b90508073ffffffffffffffffffffffffffffffffffffffff168373ffffffffffffffffffffffffffffffffffffffff1603610622576040517f08c379a000000000000000000000000000000000000000000000000000000000815260040161061990612e1f565b60405180910390fd5b8073ffffffffffffffffffffffffffffffffffffffff166106416111f1565b73ffffffffffffffffffffffffffffffffffffffff161480610670575061066f8161066a6111f1565b610fc9565b5b6106af576040517f08c379a00000000000000000000000000000000000000000000000000000000081526004016106a690612eb1565b60405180910390fd5b6106b983836111f9565b505050565b6000600880549050905090565b6106dc6106d66111f1565b826112b2565b61071b576040517f08c379a000000000000000000000000000000000000000000000000000000000815260040161071290612f43565b60405180910390fd5b610726838383611347565b505050565b6000600d54905090565b600061074083610c1d565b8210610781576040517f08c379a000000000000000000000000000000000000000000000000000000000815260040161077890612fd5565b60405180910390fd5b600660008473ffffffffffffffffffffffffffffffffffffffff1673ffffffffffffffffffffffffffffffffffffffff168152602001908152602001600020600083815260200190815260200160002054905092915050565b6000600b60009054906101000a900473ffffffffffffffffffffffffffffffffffffffff1673ffffffffffffffffffffffffffffffffffffffff163373ffffffffffffffffffffffffffffffffffffffff161461086c576040517f08c379a000000000000000000000000000000000000000000000000000000000815260040161086390613067565b60405180910390fd5b600d54610879600c611640565b106108b9576040517f08c379a00000000000000000000000000000000000000000000000000000000081526004016108b0906130d3565b60405180910390fd5b6108c3600c61164e565b6108cd600c611640565b90506040518061012001604052806064846108e89190613122565b60ff1681526020016064600785901c6109019190613122565b60ff1681526020016064600e85901c61091a9190613122565b60ff168152602001601c601385901c6109339190613122565b60ff168152602001601c601885901c61094c9190613122565b60ff168152602001601c601d85901c6109659190613122565b60ff168152602001601c602285901c61097e9190613122565b60ff168152602001601c602785901c6109979190613122565b60ff168152602001601c602c85901c6109b09190613122565b60ff16815250600e600083815260200190815260200160002060008201518160000160006101000a81548160ff021916908360ff16021790555060208201518160000160016101000a81548160ff021916908360ff16021790555060408201518160000160026101000a81548160ff021916908360ff16021790555060608201518160000160036101000a81548160ff021916908360ff16021790555060808201518160000160046101000a81548160ff021916908360ff16021790555060a08201518160000160056101000a81548160ff021916908360ff16021790555060c08201518160000160066101000a81548160ff021916908360ff16021790555060e08201518160000160076101000a81548160ff021916908360ff1602179055506101008201518160000160086101000a81548160ff021916908360ff160217905550905050610b008382611664565b92915050565b610b2183838360405180602001604052806000815250610eed565b505050565b6000610b306106be565b8210610b71576040517f08c379a0000000000000000000000000000000000000000000000000000000008152600401610b68906131c5565b60405180910390fd5b60088281548110610b8557610b846131e5565b5b90600052602060002001549050919050565b600080610ba383611682565b9050600073ffffffffffffffffffffffffffffffffffffffff168173ffffffffffffffffffffffffffffffffffffffff1603610c14576040517f08c379a0000000000000000000000000000000000000000000000000000000008152600401610c0b90613260565b60405180910390fd5b80915050919050565b60008073ffffffffffffffffffffffffffffffffffffffff168273ffffffffffffffffffffffffffffffffffffffff1603610c8d576040517f08c379a0000000000000000000000000000000000000000000000000000000008152600401610c84906132f2565b60405180910390fd5b600360008373ffffffffffffffffffffffffffffffffffffffff1673ffffffffffffffffffffffffffffffffffffffff168152602001908152602001600020549050919050565b610cdc6116bf565b610ce6600061173d565b565b6000600a60009054906101000a900473ffffffffffffffffffffffffffffffffffffffff16905090565b606060018054610d2190612d7c565b80601f0160208091040260200160405190810160405280929190818152602001828054610d4d90612d7c565b8015610d9a5780601f10610d6f57610100808354040283529160200191610d9a565b820191906000526020600020905b815481529060010190602001808311610d7d57829003601f168201915b5050505050905090565b610db6610daf6111f1565b8383611803565b5050565b610dc261263d565b600e6000838152602001908152602001600020604051806101200160405290816000820160009054906101000a900460ff1660ff1660ff1681526020016000820160019054906101000a900460ff1660ff1660ff1681526020016000820160029054906101000a900460ff1660ff1660ff1681526020016000820160039054906101000a900460ff1660ff1660ff1681526020016000820160049054906101000a900460ff1660ff1660ff1681526020016000820160059054906101000a900460ff1660ff1660ff1681526020016000820160069054906101000a900460ff1660ff1660ff1681526020016000820160079054906101000a900460ff1660ff1660ff1681526020016000820160089054906101000a900460ff1660ff1660ff16815250509050919050565b610efe610ef86111f1565b836112b2565b610f3d576040517f08c379a0000000000000000000000000000000000000000000000000000000008152600401610f3490612f43565b60405180910390fd5b610f498484848461196f565b50505050565b610f576116bf565b80600d8190555050565b6060610f6c826111a6565b6000610f766119cb565b90506000815111610f965760405180602001604052806000815250610fc1565b80610fa0846119eb565b604051602001610fb192919061334e565b6040516020818303038152906040525b915050919050565b6000600560008473ffffffffffffffffffffffffffffffffffffffff1673ffffffffffffffffffffffffffffffffffffffff16815260200190815260200160002060008373ffffffffffffffffffffffffffffffffffffffff1673ffffffffffffffffffffffffffffffffffffffff16815260200190815260200160002060009054906101000a900460ff16905092915050565b6110656116bf565b600073ffffffffffffffffffffffffffffffffffffffff168173ffffffffffffffffffffffffffffffffffffffff16036110d4576040517f08c379a00000000000000000000000000000000000000000000000000000000081526004016110cb906133e4565b60405180910390fd5b6110dd8161173d565b50565b6110e86116bf565b80600b60006101000a81548173ffffffffffffffffffffffffffffffffffffffff021916908373ffffffffffffffffffffffffffffffffffffffff16021790555050565b60007f780e9d63000000000000000000000000000000000000000000000000000000007bffffffffffffffffffffffffffffffffffffffffffffffffffffffff1916827bffffffffffffffffffffffffffffffffffffffffffffffffffffffff1916148061119f575061119e82611ab9565b5b9050919050565b6111af81611b9b565b6111ee576040517f08c379a00000000000000000000000000000000000000000000000000000000081526004016111e590613260565b60405180910390fd5b50565b600033905090565b816004600083815260200190815260200160002060006101000a81548173ffffffffffffffffffffffffffffffffffffffff021916908373ffffffffffffffffffffffffffffffffffffffff160217905550808273ffffffffffffffffffffffffffffffffffffffff1661126c83610b97565b73ffffffffffffffffffffffffffffffffffffffff167f8c5be1e5ebec7d5bd14f71427d1e84f3dd0314c0f7b2291e5b200ac8c7c3b92560405160405180910390a45050565b6000806112be83610b97565b90508073ffffffffffffffffffffffffffffffffffffffff168473ffffffffffffffffffffffffffffffffffffffff16148061130057506112ff8185610fc9565b5b8061133e57508373ffffffffffffffffffffffffffffffffffffffff1661132684610561565b73ffffffffffffffffffffffffffffffffffffffff16145b91505092915050565b8273ffffffffffffffffffffffffffffffffffffffff1661136782610b97565b73ffffffffffffffffffffffffffffffffffffffff16146113bd576040517f08c379a00000000000000000000000000000000000000000000000000000000081526004016113b490613476565b60405180910390fd5b600073ffffffffffffffffffffffffffffffffffffffff168273ffffffffffffffffffffffffffffffffffffffff160361142c576040517f08c379a000000000000000000000000000000000000000000000000000000000815260040161142390613508565b60405180910390fd5b6114398383836001611bdc565b8273ffffffffffffffffffffffffffffffffffffffff1661145982610b97565b73ffffffffffffffffffffffffffffffffffffffff16146114af576040517f08c379a00000000000000000000000000000000000000000000000000000000081526004016114a690613476565b60405180910390fd5b6004600082815260200190815260200160002060006101000a81549073ffffffffffffffffffffffffffffffffffffffff02191690556001600360008573ffffffffffffffffffffffffffffffffffffffff1673ffffffffffffffffffffffffffffffffffffffff168152602001908152602001600020600082825403925050819055506001600360008473ffffffffffffffffffffffffffffffffffffffff1673ffffffffffffffffffffffffffffffffffffffff16815260200190815260200160002060008282540192505081905550816002600083815260200190815260200160002060006101000a81548173ffffffffffffffffffffffffffffffffffffffff021916908373ffffffffffffffffffffffffffffffffffffffff160217905550808273ffffffffffffffffffffffffffffffffffffffff168473ffffffffffffffffffffffffffffffffffffffff167fddf252ad1be2c89b69c2b068fc378daa952ba7f163c4a11628f55a4df523b3ef60405160405180910390a461163b8383836001611bee565b505050565b600081600001549050919050565b6001816000016000828254019250508190555050565b61167e828260405180602001604052806000815250611bf4565b5050565b60006002600083815260200190815260200160002060009054906101000a900473ffffffffffffffffffffffffffffffffffffffff169050919050565b6116c76111f1565b73ffffffffffffffffffffffffffffffffffffffff166116e5610ce8565b73ffffffffffffffffffffffffffffffffffffffff161461173b576040517f08c379a000000000000000000000000000000000000000000000000000000000815260040161173290613574565b60405180910390fd5b565b6000600a60009054906101000a900473ffffffffffffffffffffffffffffffffffffffff16905081600a60006101000a81548173ffffffffffffffffffffffffffffffffffffffff021916908373ffffffffffffffffffffffffffffffffffffffff1602179055508173ffffffffffffffffffffffffffffffffffffffff168173ffffffffffffffffffffffffffffffffffffffff167f8be0079c531659141344cd1fd0a4f28419497f9722a3daafe3b4186f6b6457e060405160405180910390a35050565b8173ffffffffffffffffffffffffffffffffffffffff168373ffffffffffffffffffffffffffffffffffffffff1603611871576040517f08c379a0000000000000000000000000000000000000000000000000000000008152600401611868906135e0565b60405180910390fd5b80600560008573ffffffffffffffffffffffffffffffffffffffff1673ffffffffffffffffffffffffffffffffffffffff16815260200190815260200160002060008473ffffffffffffffffffffffffffffffffffffffff1673ffffffffffffffffffffffffffffffffffffffff16815260200190815260200160002060006101000a81548160ff0219169083151502179055508173ffffffffffffffffffffffffffffffffffffffff168373ffffffffffffffffffffffffffffffffffffffff167f17307eab39ab6107e8899845ad3d59bd9653f200f220920489ca2b5937696c31836040516119629190612758565b60405180910390a3505050565b61197a848484611347565b61198684848484611c4f565b6119c5576040517f08c379a00000000000000000000000000000000000000000000000000000000081526004016119bc90613672565b60405180910390fd5b50505050565b606060405180606001604052806022815260200161397260229139905090565b6060600060016119fa84611dd6565b01905060008167ffffffffffffffff811115611a1957611a18612b5f565b5b6040519080825280601f01601f191660200182016040528015611a4b5781602001600182028036833780820191505090505b509050600082602001820190505b600115611aae578080600190039150507f3031323334353637383961626364656600000000000000000000000000000000600a86061a8153600a8581611aa257611aa16130f3565b5b04945060008503611a59575b819350505050919050565b60007f80ac58cd000000000000000000000000000000000000000000000000000000007bffffffffffffffffffffffffffffffffffffffffffffffffffffffff1916827bffffffffffffffffffffffffffffffffffffffffffffffffffffffff19161480611b8457507f5b5e139f000000000000000000000000000000000000000000000000000000007bffffffffffffffffffffffffffffffffffffffffffffffffffffffff1916827bffffffffffffffffffffffffffffffffffffffffffffffffffffffff1916145b80611b945750611b9382611f29565b5b9050919050565b60008073ffffffffffffffffffffffffffffffffffffffff16611bbd83611682565b73ffffffffffffffffffffffffffffffffffffffff1614159050919050565b611be884848484611f93565b50505050565b50505050565b611bfe83836120f1565b611c0b6000848484611c4f565b611c4a576040517f08c379a0000000000000000000000000000000000000000000000000000000008152600401611c4190613672565b60405180910390fd5b505050565b6000611c708473ffffffffffffffffffffffffffffffffffffffff1661230e565b15611dc9578373ffffffffffffffffffffffffffffffffffffffff1663150b7a02611c996111f1565b8786866040518563ffffffff1660e01b8152600401611cbb94939291906136e7565b6020604051808303816000875af1925050508015611cf757506040513d601f19601f82011682018060405250810190611cf49190613748565b60015b611d79573d8060008114611d27576040519150601f19603f3d011682016040523d82523d6000602084013e611d2c565b606091505b506000815103611d71576040517f08c379a0000000000000000000000000000000000000000000000000000000008152600401611d6890613672565b60405180910390fd5b805181602001fd5b63150b7a0260e01b7bffffffffffffffffffffffffffffffffffffffffffffffffffffffff1916817bffffffffffffffffffffffffffffffffffffffffffffffffffffffff191614915050611dce565b600190505b949350505050565b600080600090507a184f03e93ff9f4daa797ed6e38ed64bf6a1f0100000000000000008310611e34577a184f03e93ff9f4daa797ed6e38ed64bf6a1f0100000000000000008381611e2a57611e296130f3565b5b0492506040810190505b6d04ee2d6d415b85acef81000000008310611e71576d04ee2d6d415b85acef81000000008381611e6757611e666130f3565b5b0492506020810190505b662386f26fc100008310611ea057662386f26fc100008381611e9657611e956130f3565b5b0492506010810190505b6305f5e1008310611ec9576305f5e1008381611ebf57611ebe6130f3565b5b0492506008810190505b6127108310611eee576127108381611ee457611ee36130f3565b5b0492506004810190505b60648310611f115760648381611f0757611f066130f3565b5b0492506002810190505b600a8310611f20576001810190505b80915050919050565b60007f01ffc9a7000000000000000000000000000000000000000000000000000000007bffffffffffffffffffffffffffffffffffffffffffffffffffffffff1916827bffffffffffffffffffffffffffffffffffffffffffffffffffffffff1916149050919050565b611f9f84848484612331565b6001811115611fe3576040517f08c379a0000000000000000000000000000000000000000000000000000000008152600401611fda906137e7565b60405180910390fd5b6000829050600073ffffffffffffffffffffffffffffffffffffffff168573ffffffffffffffffffffffffffffffffffffffff160361202a5761202581612337565b612069565b8373ffffffffffffffffffffffffffffffffffffffff168573ffffffffffffffffffffffffffffffffffffffff1614612068576120678582612380565b5b5b600073ffffffffffffffffffffffffffffffffffffffff168473ffffffffffffffffffffffffffffffffffffffff16036120ab576120a6816124ed565b6120ea565b8473ffffffffffffffffffffffffffffffffffffffff168473ffffffffffffffffffffffffffffffffffffffff16146120e9576120e884826125be565b5b5b5050505050565b600073ffffffffffffffffffffffffffffffffffffffff168273ffffffffffffffffffffffffffffffffffffffff1603612160576040517f08c379a000000000000000000000000000000000000000000000000000000000815260040161215790613853565b60405180910390fd5b61216981611b9b565b156121a9576040517f08c379a00000000000000000000000000000000000000000000000000000000081526004016121a0906138bf565b60405180910390fd5b6121b7600083836001611bdc565b6121c081611b9b565b15612200576040517f08c379a00000000000000000000000000000000000000000000000000000000081526004016121f7906138bf565b60405180910390fd5b6001600360008473ffffffffffffffffffffffffffffffffffffffff1673ffffffffffffffffffffffffffffffffffffffff16815260200190815260200160002060008282540192505081905550816002600083815260200190815260200160002060006101000a81548173ffffffffffffffffffffffffffffffffffffffff021916908373ffffffffffffffffffffffffffffffffffffffff160217905550808273ffffffffffffffffffffffffffffffffffffffff16600073ffffffffffffffffffffffffffffffffffffffff167fddf252ad1be2c89b69c2b068fc378daa952ba7f163c4a11628f55a4df523b3ef60405160405180910390a461230a600083836001611bee565b5050565b6000808273ffffffffffffffffffffffffffffffffffffffff163b119050919050565b50505050565b6008805490506009600083815260200190815260200160002081905550600881908060018154018082558091505060019003906000526020600020016000909190919091505550565b6000600161238d84610c1d565b612397919061390e565b905060006007600084815260200190815260200160002054905081811461247c576000600660008673ffffffffffffffffffffffffffffffffffffffff1673ffffffffffffffffffffffffffffffffffffffff168152602001908152602001600020600084815260200190815260200160002054905080600660008773ffffffffffffffffffffffffffffffffffffffff1673ffffffffffffffffffffffffffffffffffffffff168152602001908152602001600020600084815260200190815260200160002081905550816007600083815260200190815260200160002081905550505b6007600084815260200190815260200160002060009055600660008573ffffffffffffffffffffffffffffffffffffffff1673ffffffffffffffffffffffffffffffffffffffff16815260200190815260200160002060008381526020019081526020016000206000905550505050565b60006001600880549050612501919061390e565b9050600060096000848152602001908152602001600020549050600060088381548110612531576125306131e5565b5b906000526020600020015490508060088381548110612553576125526131e5565b5b9060005260206000200181905550816009600083815260200190815260200160002081905550600960008581526020019081526020016000206000905560088054806125a2576125a1613942565b5b6001900381819060005260206000200160009055905550505050565b60006125c983610c1d565b905081600660008573ffffffffffffffffffffffffffffffffffffffff1673ffffffffffffffffffffffffffffffffffffffff168152602001908152602001600020600083815260200190815260200160002081905550806007600084815260200190815260200160002081905550505050565b604051806101200160405280600060ff168152602001600060ff168152602001600060ff168152602001600060ff168152602001600060ff168152602001600060ff168152602001600060ff168152602001600060ff168152602001600060ff1681525090565b6000604051905090565b600080fd5b600080fd5b60007fffffffff0000000000000000000000000000000000000000000000000000000082169050919050565b6126ed816126b8565b81146126f857600080fd5b50565b60008135905061270a816126e4565b92915050565b600060208284031215612726576127256126ae565b5b6000612734848285016126fb565b91505092915050565b60008115159050919050565b6127528161273d565b82525050565b600060208201905061276d6000830184612749565b92915050565b600081519050919050565b600082825260208201905092915050565b60005b838110156127ad578082015181840152602081019050612792565b60008484015250505050565b6000601f19601f8301169050919050565b60006127d582612773565b6127df818561277e565b93506127ef81856020860161278f565b6127f8816127b9565b840191505092915050565b6000602082019050818103600083015261281d81846127ca565b905092915050565b6000819050919050565b61283881612825565b811461284357600080fd5b50565b6000813590506128558161282f565b92915050565b600060208284031215612871576128706126ae565b5b600061287f84828501612846565b91505092915050565b600073ffffffffffffffffffffffffffffffffffffffff82169050919050565b60006128b382612888565b9050919050565b6128c3816128a8565b82525050565b60006020820190506128de60008301846128ba565b92915050565b6128ed816128a8565b81146128f857600080fd5b50565b60008135905061290a816128e4565b92915050565b60008060408385031215612927576129266126ae565b5b6000612935858286016128fb565b925050602061294685828601612846565b9150509250929050565b61295981612825565b82525050565b60006020820190506129746000830184612950565b92915050565b600080600060608486031215612993576129926126ae565b5b60006129a1868287016128fb565b93505060206129b2868287016128fb565b92505060406129c386828701612846565b9150509250925092565b6000602082840312156129e3576129e26126ae565b5b60006129f1848285016128fb565b91505092915050565b612a038161273d565b8114612a0e57600080fd5b50565b600081359050612a20816129fa565b92915050565b60008060408385031215612a3d57612a3c6126ae565b5b6000612a4b858286016128fb565b9250506020612a5c85828601612a11565b9150509250929050565b600060ff82169050919050565b612a7c81612a66565b82525050565b61012082016000820151612a996000850182612a73565b506020820151612aac6020850182612a73565b506040820151612abf6040850182612a73565b506060820151612ad26060850182612a73565b506080820151612ae56080850182612a73565b5060a0820151612af860a0850182612a73565b5060c0820151612b0b60c0850182612a73565b5060e0820151612b1e60e0850182612a73565b50610100820151612b33610100850182612a73565b50505050565b600061012082019050612b4f6000830184612a82565b92915050565b600080fd5b600080fd5b7f4e487b7100000000000000000000000000000000000000000000000000000000600052604160045260246000fd5b612b97826127b9565b810181811067ffffffffffffffff82111715612bb657612bb5612b5f565b5b80604052505050565b6000612bc96126a4565b9050612bd58282612b8e565b919050565b600067ffffffffffffffff821115612bf557612bf4612b5f565b5b612bfe826127b9565b9050602081019050919050565b82818337600083830152505050565b6000612c2d612c2884612bda565b612bbf565b905082815260208101848484011115612c4957612c48612b5a565b5b612c54848285612c0b565b509392505050565b600082601f830112612c7157612c70612b55565b5b8135612c81848260208601612c1a565b91505092915050565b60008060008060808587031215612ca457612ca36126ae565b5b6000612cb2878288016128fb565b9450506020612cc3878288016128fb565b9350506040612cd487828801612846565b925050606085013567ffffffffffffffff811115612cf557612cf46126b3565b5b612d0187828801612c5c565b91505092959194509250565b60008060408385031215612d2457612d236126ae565b5b6000612d32858286016128fb565b9250506020612d43858286016128fb565b9150509250929050565b7f4e487b7100000000000000000000000000000000000000000000000000000000600052602260045260246000fd5b60006002820490506001821680612d9457607f821691505b602082108103612da757612da6612d4d565b5b50919050565b7f4552433732313a20617070726f76616c20746f2063757272656e74206f776e6560008201527f7200000000000000000000000000000000000000000000000000000000000000602082015250565b6000612e0960218361277e565b9150612e1482612dad565b604082019050919050565b60006020820190508181036000830152612e3881612dfc565b9050919050565b7f4552433732313a20617070726f76652063616c6c6572206973206e6f7420746f60008201527f6b656e206f776e6572206f7220617070726f76656420666f7220616c6c000000602082015250565b6000612e9b603d8361277e565b9150612ea682612e3f565b604082019050919050565b60006020820190508181036000830152612eca81612e8e565b9050919050565b7f4552433732313a2063616c6c6572206973206e6f7420746f6b656e206f776e6560008201527f72206f7220617070726f76656400000000000000000000000000000000000000602082015250565b6000612f2d602d8361277e565b9150612f3882612ed1565b604082019050919050565b60006020820190508181036000830152612f5c81612f20565b9050919050565b7f455243373231456e756d657261626c653a206f776e657220696e646578206f7560008201527f74206f6620626f756e6473000000000000000000000000000000000000000000602082015250565b6000612fbf602b8361277e565b9150612fca82612f63565b604082019050919050565b60006020820190508181036000830152612fee81612fb2565b9050919050565b7f6f6e6c794d696e7465722e20596f7520617265206e6f7420746865206d696e7460008201527f6572206f66207468697320636f6c6c656374696f6e2100000000000000000000602082015250565b600061305160368361277e565b915061305c82612ff5565b604082019050919050565b6000602082019050818103600083015261308081613044565b9050919050565b7f4d617820616d6f756e74206f6620746f6b656e73207265616368656400000000600082015250565b60006130bd601c8361277e565b91506130c882613087565b602082019050919050565b600060208201905081810360008301526130ec816130b0565b9050919050565b7f4e487b7100000000000000000000000000000000000000000000000000000000600052601260045260246000fd5b600061312d82612825565b915061313883612825565b925082613148576131476130f3565b5b828206905092915050565b7f455243373231456e756d657261626c653a20676c6f62616c20696e646578206f60008201527f7574206f6620626f756e64730000000000000000000000000000000000000000602082015250565b60006131af602c8361277e565b91506131ba82613153565b604082019050919050565b600060208201905081810360008301526131de816131a2565b9050919050565b7f4e487b7100000000000000000000000000000000000000000000000000000000600052603260045260246000fd5b7f4552433732313a20696e76616c696420746f6b656e2049440000000000000000600082015250565b600061324a60188361277e565b915061325582613214565b602082019050919050565b600060208201905081810360008301526132798161323d565b9050919050565b7f4552433732313a2061646472657373207a65726f206973206e6f74206120766160008201527f6c6964206f776e65720000000000000000000000000000000000000000000000602082015250565b60006132dc60298361277e565b91506132e782613280565b604082019050919050565b6000602082019050818103600083015261330b816132cf565b9050919050565b600081905092915050565b600061332882612773565b6133328185613312565b935061334281856020860161278f565b80840191505092915050565b600061335a828561331d565b9150613366828461331d565b91508190509392505050565b7f4f776e61626c653a206e6577206f776e657220697320746865207a65726f206160008201527f6464726573730000000000000000000000000000000000000000000000000000602082015250565b60006133ce60268361277e565b91506133d982613372565b604082019050919050565b600060208201905081810360008301526133fd816133c1565b9050919050565b7f4552433732313a207472616e736665722066726f6d20696e636f72726563742060008201527f6f776e6572000000000000000000000000000000000000000000000000000000602082015250565b600061346060258361277e565b915061346b82613404565b604082019050919050565b6000602082019050818103600083015261348f81613453565b9050919050565b7f4552433732313a207472616e7366657220746f20746865207a65726f2061646460008201527f7265737300000000000000000000000000000000000000000000000000000000602082015250565b60006134f260248361277e565b91506134fd82613496565b604082019050919050565b60006020820190508181036000830152613521816134e5565b9050919050565b7f4f776e61626c653a2063616c6c6572206973206e6f7420746865206f776e6572600082015250565b600061355e60208361277e565b915061356982613528565b602082019050919050565b6000602082019050818103600083015261358d81613551565b9050919050565b7f4552433732313a20617070726f766520746f2063616c6c657200000000000000600082015250565b60006135ca60198361277e565b91506135d582613594565b602082019050919050565b600060208201905081810360008301526135f9816135bd565b9050919050565b7f4552433732313a207472616e7366657220746f206e6f6e20455243373231526560008201527f63656976657220696d706c656d656e7465720000000000000000000000000000602082015250565b600061365c60328361277e565b915061366782613600565b604082019050919050565b6000602082019050818103600083015261368b8161364f565b9050919050565b600081519050919050565b600082825260208201905092915050565b60006136b982613692565b6136c3818561369d565b93506136d381856020860161278f565b6136dc816127b9565b840191505092915050565b60006080820190506136fc60008301876128ba565b61370960208301866128ba565b6137166040830185612950565b818103606083015261372881846136ae565b905095945050505050565b600081519050613742816126e4565b92915050565b60006020828403121561375e5761375d6126ae565b5b600061376c84828501613733565b91505092915050565b7f455243373231456e756d657261626c653a20636f6e736563757469766520747260008201527f616e7366657273206e6f7420737570706f727465640000000000000000000000602082015250565b60006137d160358361277e565b91506137dc82613775565b604082019050919050565b60006020820190508181036000830152613800816137c4565b9050919050565b7f4552433732313a206d696e7420746f20746865207a65726f2061646472657373600082015250565b600061383d60208361277e565b915061384882613807565b602082019050919050565b6000602082019050818103600083015261386c81613830565b9050919050565b7f4552433732313a20746f6b656e20616c7265616479206d696e74656400000000600082015250565b60006138a9601c8361277e565b91506138b482613873565b602082019050919050565b600060208201905081810360008301526138d88161389c565b9050919050565b7f4e487b7100000000000000000000000000000000000000000000000000000000600052601160045260246000fd5b600061391982612825565b915061392483612825565b925082820390508181111561393c5761393b6138df565b5b92915050565b7f4e487b7100000000000000000000000000000000000000000000000000000000600052603160045260246000fdfe68747470733a2f2f6e797865756d2e76657263656c2e6170702f6170692f6e66742fa2646970667358221220dc7eaa0837e3ef11083accf8641a7642a97fdfd136aff1d3475a75d72f45569264736f6c63430008120033",
  "linkReferences": {},
  "deployedLinkReferences": {}
}