{
  "_format": "hh-sol-artifact-1",
  "contractName": "HeroesOfNyxeum",
  "sourceName": "contracts/HeroesOfNyxeum.sol",
  "abi": [
    {
      "inputs": [
        {
          "internalType": "address",
          "name": "nyxEssenceAddress",
          "type": "address"
        }
      ],
      "stateMutability": "nonpayable",
      "type": "constructor"
    },
    {
      "anonymous": false,
      "inputs": [
        {
          "indexed": true,
          "internalType": "address",
          "name": "owner",
          "type": "address"
        },
        {
          "indexed": true,
          "internalType": "address",
          "name": "approved",
          "type": "address"
        },
        {
          "indexed": true,
          "internalType": "uint256",
          "name": "tokenId",
          "type": "uint256"
        }
      ],
      "name": "Approval",
      "type": "event"
    },
    {
      "anonymous": false,
      "inputs": [
        {
          "indexed": true,
          "internalType": "address",
          "name": "owner",
          "type": "address"
        },
        {
          "indexed": true,
          "internalType": "address",
          "name": "operator",
          "type": "address"
        },
        {
          "indexed": false,
          "internalType": "bool",
          "name": "approved",
          "type": "bool"
        }
      ],
      "name": "ApprovalForAll",
      "type": "event"
    },
    {
      "anonymous": false,
      "inputs": [
        {
          "indexed": true,
          "internalType": "address",
          "name": "previousOwner",
          "type": "address"
        },
        {
          "indexed": true,
          "internalType": "address",
          "name": "newOwner",
          "type": "address"
        }
      ],
      "name": "OwnershipTransferred",
      "type": "event"
    },
    {
      "anonymous": false,
      "inputs": [
        {
          "indexed": true,
          "internalType": "address",
          "name": "from",
          "type": "address"
        },
        {
          "indexed": true,
          "internalType": "address",
          "name": "to",
          "type": "address"
        },
        {
          "indexed": true,
          "internalType": "uint256",
          "name": "tokenId",
          "type": "uint256"
        }
      ],
      "name": "Transfer",
      "type": "event"
    },
    {
      "inputs": [
        {
          "internalType": "address",
          "name": "to",
          "type": "address"
        },
        {
          "internalType": "uint256",
          "name": "tokenId",
          "type": "uint256"
        }
      ],
      "name": "approve",
      "outputs": [],
      "stateMutability": "nonpayable",
      "type": "function"
    },
    {
      "inputs": [
        {
          "internalType": "address",
          "name": "owner",
          "type": "address"
        }
      ],
      "name": "balanceOf",
      "outputs": [
        {
          "internalType": "uint256",
          "name": "",
          "type": "uint256"
        }
      ],
      "stateMutability": "view",
      "type": "function"
    },
    {
      "inputs": [
        {
          "internalType": "uint256",
          "name": "tokenId",
          "type": "uint256"
        }
      ],
      "name": "getApproved",
      "outputs": [
        {
          "internalType": "address",
          "name": "",
          "type": "address"
        }
      ],
      "stateMutability": "view",
      "type": "function"
    },
    {
      "inputs": [
        {
          "internalType": "uint256",
          "name": "index",
          "type": "uint256"
        }
      ],
      "name": "getNftMetadata",
      "outputs": [
        {
          "components": [
            {
              "internalType": "uint8",
              "name": "strength",
              "type": "uint8"
            },
            {
              "internalType": "uint8",
              "name": "dexterity",
              "type": "uint8"
            },
            {
              "internalType": "uint8",
              "name": "intelligence",
              "type": "uint8"
            },
            {
              "internalType": "uint8",
              "name": "tough",
              "type": "uint8"
            },
            {
              "internalType": "uint8",
              "name": "powerful",
              "type": "uint8"
            },
            {
              "internalType": "uint8",
              "name": "precise",
              "type": "uint8"
            },
            {
              "internalType": "uint8",
              "name": "skilled",
              "type": "uint8"
            },
            {
              "internalType": "uint8",
              "name": "sharp",
              "type": "uint8"
            },
            {
              "internalType": "uint8",
              "name": "oracle",
              "type": "uint8"
            }
          ],
          "internalType": "struct HeroesOfNyxeum.NftMetadata",
          "name": "",
          "type": "tuple"
        }
      ],
      "stateMutability": "view",
      "type": "function"
    },
    {
      "inputs": [
        {
          "internalType": "address",
          "name": "owner",
          "type": "address"
        },
        {
          "internalType": "address",
          "name": "operator",
          "type": "address"
        }
      ],
      "name": "isApprovedForAll",
      "outputs": [
        {
          "internalType": "bool",
          "name": "",
          "type": "bool"
        }
      ],
      "stateMutability": "view",
      "type": "function"
    },
    {
      "inputs": [
        {
          "internalType": "address",
          "name": "buyer",
          "type": "address"
        },
        {
          "internalType": "uint256",
          "name": "seed",
          "type": "uint256"
        }
      ],
      "name": "mint",
      "outputs": [
        {
          "internalType": "uint256",
          "name": "tokenId",
          "type": "uint256"
        }
      ],
      "stateMutability": "nonpayable",
      "type": "function"
    },
    {
      "inputs": [],
      "name": "name",
      "outputs": [
        {
          "internalType": "string",
          "name": "",
          "type": "string"
        }
      ],
      "stateMutability": "view",
      "type": "function"
    },
    {
      "inputs": [],
      "name": "owner",
      "outputs": [
        {
          "internalType": "address",
          "name": "",
          "type": "address"
        }
      ],
      "stateMutability": "view",
      "type": "function"
    },
    {
      "inputs": [
        {
          "internalType": "uint256",
          "name": "tokenId",
          "type": "uint256"
        }
      ],
      "name": "ownerOf",
      "outputs": [
        {
          "internalType": "address",
          "name": "",
          "type": "address"
        }
      ],
      "stateMutability": "view",
      "type": "function"
    },
    {
      "inputs": [],
      "name": "renounceOwnership",
      "outputs": [],
      "stateMutability": "nonpayable",
      "type": "function"
    },
    {
      "inputs": [
        {
          "internalType": "address",
          "name": "from",
          "type": "address"
        },
        {
          "internalType": "address",
          "name": "to",
          "type": "address"
        },
        {
          "internalType": "uint256",
          "name": "tokenId",
          "type": "uint256"
        }
      ],
      "name": "safeTransferFrom",
      "outputs": [],
      "stateMutability": "nonpayable",
      "type": "function"
    },
    {
      "inputs": [
        {
          "internalType": "address",
          "name": "from",
          "type": "address"
        },
        {
          "internalType": "address",
          "name": "to",
          "type": "address"
        },
        {
          "internalType": "uint256",
          "name": "tokenId",
          "type": "uint256"
        },
        {
          "internalType": "bytes",
          "name": "data",
          "type": "bytes"
        }
      ],
      "name": "safeTransferFrom",
      "outputs": [],
      "stateMutability": "nonpayable",
      "type": "function"
    },
    {
      "inputs": [
        {
          "internalType": "address",
          "name": "operator",
          "type": "address"
        },
        {
          "internalType": "bool",
          "name": "approved",
          "type": "bool"
        }
      ],
      "name": "setApprovalForAll",
      "outputs": [],
      "stateMutability": "nonpayable",
      "type": "function"
    },
    {
      "inputs": [
        {
          "internalType": "address",
          "name": "minterAddress",
          "type": "address"
        }
      ],
      "name": "setMinter",
      "outputs": [],
      "stateMutability": "nonpayable",
      "type": "function"
    },
    {
      "inputs": [
        {
          "internalType": "bytes4",
          "name": "interfaceId",
          "type": "bytes4"
        }
      ],
      "name": "supportsInterface",
      "outputs": [
        {
          "internalType": "bool",
          "name": "",
          "type": "bool"
        }
      ],
      "stateMutability": "view",
      "type": "function"
    },
    {
      "inputs": [],
      "name": "symbol",
      "outputs": [
        {
          "internalType": "string",
          "name": "",
          "type": "string"
        }
      ],
      "stateMutability": "view",
      "type": "function"
    },
    {
      "inputs": [
        {
          "internalType": "uint256",
          "name": "index",
          "type": "uint256"
        }
      ],
      "name": "tokenByIndex",
      "outputs": [
        {
          "internalType": "uint256",
          "name": "",
          "type": "uint256"
        }
      ],
      "stateMutability": "view",
      "type": "function"
    },
    {
      "inputs": [
        {
          "internalType": "address",
          "name": "owner",
          "type": "address"
        },
        {
          "internalType": "uint256",
          "name": "index",
          "type": "uint256"
        }
      ],
      "name": "tokenOfOwnerByIndex",
      "outputs": [
        {
          "internalType": "uint256",
          "name": "",
          "type": "uint256"
        }
      ],
      "stateMutability": "view",
      "type": "function"
    },
    {
      "inputs": [
        {
          "internalType": "uint256",
          "name": "tokenId",
          "type": "uint256"
        }
      ],
      "name": "tokenURI",
      "outputs": [
        {
          "internalType": "string",
          "name": "",
          "type": "string"
        }
      ],
      "stateMutability": "view",
      "type": "function"
    },
    {
      "inputs": [],
      "name": "totalSupply",
      "outputs": [
        {
          "internalType": "uint256",
          "name": "",
          "type": "uint256"
        }
      ],
      "stateMutability": "view",
      "type": "function"
    },
    {
      "inputs": [
        {
          "internalType": "address",
          "name": "from",
          "type": "address"
        },
        {
          "internalType": "address",
          "name": "to",
          "type": "address"
        },
        {
          "internalType": "uint256",
          "name": "tokenId",
          "type": "uint256"
        }
      ],
      "name": "transferFrom",
      "outputs": [],
      "stateMutability": "nonpayable",
      "type": "function"
    },
    {
      "inputs": [
        {
          "internalType": "address",
          "name": "newOwner",
          "type": "address"
        }
      ],
      "name": "transferOwnership",
      "outputs": [],
      "stateMutability": "nonpayable",
      "type": "function"
    }
  ],
  "bytecode": "0x60806040523480156200001157600080fd5b5060405162003e6f38038062003e6f833981810160405281019062000037919062000228565b6040518060400160405280601081526020017f4865726f6573206f66204e797865756d000000000000000000000000000000008152506040518060400160405280600481526020017f484e5958000000000000000000000000000000000000000000000000000000008152508160009081620000b49190620004d4565b508060019081620000c69190620004d4565b505050620000e9620000dd620000f060201b60201c565b620000f860201b60201c565b50620005bb565b600033905090565b6000600a60009054906101000a900473ffffffffffffffffffffffffffffffffffffffff16905081600a60006101000a81548173ffffffffffffffffffffffffffffffffffffffff021916908373ffffffffffffffffffffffffffffffffffffffff1602179055508173ffffffffffffffffffffffffffffffffffffffff168173ffffffffffffffffffffffffffffffffffffffff167f8be0079c531659141344cd1fd0a4f28419497f9722a3daafe3b4186f6b6457e060405160405180910390a35050565b600080fd5b600073ffffffffffffffffffffffffffffffffffffffff82169050919050565b6000620001f082620001c3565b9050919050565b6200020281620001e3565b81146200020e57600080fd5b50565b6000815190506200022281620001f7565b92915050565b600060208284031215620002415762000240620001be565b5b6000620002518482850162000211565b91505092915050565b600081519050919050565b7f4e487b7100000000000000000000000000000000000000000000000000000000600052604160045260246000fd5b7f4e487b7100000000000000000000000000000000000000000000000000000000600052602260045260246000fd5b60006002820490506001821680620002dc57607f821691505b602082108103620002f257620002f162000294565b5b50919050565b60008190508160005260206000209050919050565b60006020601f8301049050919050565b600082821b905092915050565b6000600883026200035c7fffffffffffffffffffffffffffffffffffffffffffffffffffffffffffffffff826200031d565b6200036886836200031d565b95508019841693508086168417925050509392505050565b6000819050919050565b6000819050919050565b6000620003b5620003af620003a98462000380565b6200038a565b62000380565b9050919050565b6000819050919050565b620003d18362000394565b620003e9620003e082620003bc565b8484546200032a565b825550505050565b600090565b62000400620003f1565b6200040d818484620003c6565b505050565b5b81811015620004355762000429600082620003f6565b60018101905062000413565b5050565b601f82111562000484576200044e81620002f8565b62000459846200030d565b8101602085101562000469578190505b6200048162000478856200030d565b83018262000412565b50505b505050565b600082821c905092915050565b6000620004a96000198460080262000489565b1980831691505092915050565b6000620004c4838362000496565b9150826002028217905092915050565b620004df826200025a565b67ffffffffffffffff811115620004fb57620004fa62000265565b5b620005078254620002c3565b6200051482828562000439565b600060209050601f8311600181146200054c576000841562000537578287015190505b620005438582620004b6565b865550620005b3565b601f1984166200055c86620002f8565b60005b8281101562000586578489015182556001820191506020850194506020810190506200055f565b86831015620005a65784890151620005a2601f89168262000496565b8355505b6001600288020188555050505b505050505050565b6138a480620005cb6000396000f3fe608060405234801561001057600080fd5b50600436106101425760003560e01c806370a08231116100b8578063ad27314b1161007c578063ad27314b14610389578063b88d4fde146103b9578063c87b56dd146103d5578063e985e9c514610405578063f2fde38b14610435578063fca3b5aa1461045157610142565b806370a08231146102f7578063715018a6146103275780638da5cb5b1461033157806395d89b411461034f578063a22cb4651461036d57610142565b806323b872dd1161010a57806323b872dd146101ff5780632f745c591461021b57806340c10f191461024b57806342842e0e1461027b5780634f6ccce7146102975780636352211e146102c757610142565b806301ffc9a71461014757806306fdde0314610177578063081812fc14610195578063095ea7b3146101c557806318160ddd146101e1575b600080fd5b610161600480360381019061015c9190612657565b61046d565b60405161016e919061269f565b60405180910390f35b61017f61047f565b60405161018c919061274a565b60405180910390f35b6101af60048036038101906101aa91906127a2565b610511565b6040516101bc9190612810565b60405180910390f35b6101df60048036038101906101da9190612857565b610557565b005b6101e961066e565b6040516101f691906128a6565b60405180910390f35b610219600480360381019061021491906128c1565b61067b565b005b61023560048036038101906102309190612857565b6106db565b60405161024291906128a6565b60405180910390f35b61026560048036038101906102609190612857565b610780565b60405161027291906128a6565b60405180910390f35b610295600480360381019061029091906128c1565b610a5f565b005b6102b160048036038101906102ac91906127a2565b610a7f565b6040516102be91906128a6565b60405180910390f35b6102e160048036038101906102dc91906127a2565b610af0565b6040516102ee9190612810565b60405180910390f35b610311600480360381019061030c9190612914565b610b76565b60405161031e91906128a6565b60405180910390f35b61032f610c2d565b005b610339610c41565b6040516103469190612810565b60405180910390f35b610357610c6b565b604051610364919061274a565b60405180910390f35b6103876004803603810190610382919061296d565b610cfd565b005b6103a3600480360381019061039e91906127a2565b610d13565b6040516103b09190612a80565b60405180910390f35b6103d360048036038101906103ce9190612bd1565b610e46565b005b6103ef60048036038101906103ea91906127a2565b610ea8565b6040516103fc919061274a565b60405180910390f35b61041f600480360381019061041a9190612c54565b610f10565b60405161042c919061269f565b60405180910390f35b61044f600480360381019061044a9190612914565b610fa4565b005b61046b60048036038101906104669190612914565b611027565b005b600061047882611073565b9050919050565b60606000805461048e90612cc3565b80601f01602080910402602001604051908101604052809291908181526020018280546104ba90612cc3565b80156105075780601f106104dc57610100808354040283529160200191610507565b820191906000526020600020905b8154815290600101906020018083116104ea57829003601f168201915b5050505050905090565b600061051c826110ed565b6004600083815260200190815260200160002060009054906101000a900473ffffffffffffffffffffffffffffffffffffffff169050919050565b600061056282610af0565b90508073ffffffffffffffffffffffffffffffffffffffff168373ffffffffffffffffffffffffffffffffffffffff16036105d2576040517f08c379a00000000000000000000000000000000000000000000000000000000081526004016105c990612d66565b60405180910390fd5b8073ffffffffffffffffffffffffffffffffffffffff166105f1611138565b73ffffffffffffffffffffffffffffffffffffffff161480610620575061061f8161061a611138565b610f10565b5b61065f576040517f08c379a000000000000000000000000000000000000000000000000000000000815260040161065690612df8565b60405180910390fd5b6106698383611140565b505050565b6000600880549050905090565b61068c610686611138565b826111f9565b6106cb576040517f08c379a00000000000000000000000000000000000000000000000000000000081526004016106c290612e8a565b60405180910390fd5b6106d683838361128e565b505050565b60006106e683610b76565b8210610727576040517f08c379a000000000000000000000000000000000000000000000000000000000815260040161071e90612f1c565b60405180910390fd5b600660008473ffffffffffffffffffffffffffffffffffffffff1673ffffffffffffffffffffffffffffffffffffffff168152602001908152602001600020600083815260200190815260200160002054905092915050565b6000600b60009054906101000a900473ffffffffffffffffffffffffffffffffffffffff1673ffffffffffffffffffffffffffffffffffffffff163373ffffffffffffffffffffffffffffffffffffffff1614610812576040517f08c379a000000000000000000000000000000000000000000000000000000000815260040161080990612fae565b60405180910390fd5b61081c600c611587565b610826600c61159d565b90506040518061012001604052806064846108419190612ffd565b60ff1681526020016064600785901c61085a9190612ffd565b60ff1681526020016064600e85901c6108739190612ffd565b60ff168152602001601c601385901c61088c9190612ffd565b60ff168152602001601c601885901c6108a59190612ffd565b60ff168152602001601c601d85901c6108be9190612ffd565b60ff168152602001601c602285901c6108d79190612ffd565b60ff168152602001601c602785901c6108f09190612ffd565b60ff168152602001601c602c85901c6109099190612ffd565b60ff16815250600d600083815260200190815260200160002060008201518160000160006101000a81548160ff021916908360ff16021790555060208201518160000160016101000a81548160ff021916908360ff16021790555060408201518160000160026101000a81548160ff021916908360ff16021790555060608201518160000160036101000a81548160ff021916908360ff16021790555060808201518160000160046101000a81548160ff021916908360ff16021790555060a08201518160000160056101000a81548160ff021916908360ff16021790555060c08201518160000160066101000a81548160ff021916908360ff16021790555060e08201518160000160076101000a81548160ff021916908360ff1602179055506101008201518160000160086101000a81548160ff021916908360ff160217905550905050610a5983826115ab565b92915050565b610a7a83838360405180602001604052806000815250610e46565b505050565b6000610a8961066e565b8210610aca576040517f08c379a0000000000000000000000000000000000000000000000000000000008152600401610ac1906130a0565b60405180910390fd5b60088281548110610ade57610add6130c0565b5b90600052602060002001549050919050565b600080610afc836115c9565b9050600073ffffffffffffffffffffffffffffffffffffffff168173ffffffffffffffffffffffffffffffffffffffff1603610b6d576040517f08c379a0000000000000000000000000000000000000000000000000000000008152600401610b649061313b565b60405180910390fd5b80915050919050565b60008073ffffffffffffffffffffffffffffffffffffffff168273ffffffffffffffffffffffffffffffffffffffff1603610be6576040517f08c379a0000000000000000000000000000000000000000000000000000000008152600401610bdd906131cd565b60405180910390fd5b600360008373ffffffffffffffffffffffffffffffffffffffff1673ffffffffffffffffffffffffffffffffffffffff168152602001908152602001600020549050919050565b610c35611606565b610c3f6000611684565b565b6000600a60009054906101000a900473ffffffffffffffffffffffffffffffffffffffff16905090565b606060018054610c7a90612cc3565b80601f0160208091040260200160405190810160405280929190818152602001828054610ca690612cc3565b8015610cf35780601f10610cc857610100808354040283529160200191610cf3565b820191906000526020600020905b815481529060010190602001808311610cd657829003601f168201915b5050505050905090565b610d0f610d08611138565b838361174a565b5050565b610d1b612584565b600d6000838152602001908152602001600020604051806101200160405290816000820160009054906101000a900460ff1660ff1660ff1681526020016000820160019054906101000a900460ff1660ff1660ff1681526020016000820160029054906101000a900460ff1660ff1660ff1681526020016000820160039054906101000a900460ff1660ff1660ff1681526020016000820160049054906101000a900460ff1660ff1660ff1681526020016000820160059054906101000a900460ff1660ff1660ff1681526020016000820160069054906101000a900460ff1660ff1660ff1681526020016000820160079054906101000a900460ff1660ff1660ff1681526020016000820160089054906101000a900460ff1660ff1660ff16815250509050919050565b610e57610e51611138565b836111f9565b610e96576040517f08c379a0000000000000000000000000000000000000000000000000000000008152600401610e8d90612e8a565b60405180910390fd5b610ea2848484846118b6565b50505050565b6060610eb3826110ed565b6000610ebd611912565b90506000815111610edd5760405180602001604052806000815250610f08565b80610ee784611932565b604051602001610ef8929190613229565b6040516020818303038152906040525b915050919050565b6000600560008473ffffffffffffffffffffffffffffffffffffffff1673ffffffffffffffffffffffffffffffffffffffff16815260200190815260200160002060008373ffffffffffffffffffffffffffffffffffffffff1673ffffffffffffffffffffffffffffffffffffffff16815260200190815260200160002060009054906101000a900460ff16905092915050565b610fac611606565b600073ffffffffffffffffffffffffffffffffffffffff168173ffffffffffffffffffffffffffffffffffffffff160361101b576040517f08c379a0000000000000000000000000000000000000000000000000000000008152600401611012906132bf565b60405180910390fd5b61102481611684565b50565b61102f611606565b80600b60006101000a81548173ffffffffffffffffffffffffffffffffffffffff021916908373ffffffffffffffffffffffffffffffffffffffff16021790555050565b60007f780e9d63000000000000000000000000000000000000000000000000000000007bffffffffffffffffffffffffffffffffffffffffffffffffffffffff1916827bffffffffffffffffffffffffffffffffffffffffffffffffffffffff191614806110e657506110e582611a00565b5b9050919050565b6110f681611ae2565b611135576040517f08c379a000000000000000000000000000000000000000000000000000000000815260040161112c9061313b565b60405180910390fd5b50565b600033905090565b816004600083815260200190815260200160002060006101000a81548173ffffffffffffffffffffffffffffffffffffffff021916908373ffffffffffffffffffffffffffffffffffffffff160217905550808273ffffffffffffffffffffffffffffffffffffffff166111b383610af0565b73ffffffffffffffffffffffffffffffffffffffff167f8c5be1e5ebec7d5bd14f71427d1e84f3dd0314c0f7b2291e5b200ac8c7c3b92560405160405180910390a45050565b60008061120583610af0565b90508073ffffffffffffffffffffffffffffffffffffffff168473ffffffffffffffffffffffffffffffffffffffff16148061124757506112468185610f10565b5b8061128557508373ffffffffffffffffffffffffffffffffffffffff1661126d84610511565b73ffffffffffffffffffffffffffffffffffffffff16145b91505092915050565b8273ffffffffffffffffffffffffffffffffffffffff166112ae82610af0565b73ffffffffffffffffffffffffffffffffffffffff1614611304576040517f08c379a00000000000000000000000000000000000000000000000000000000081526004016112fb90613351565b60405180910390fd5b600073ffffffffffffffffffffffffffffffffffffffff168273ffffffffffffffffffffffffffffffffffffffff1603611373576040517f08c379a000000000000000000000000000000000000000000000000000000000815260040161136a906133e3565b60405180910390fd5b6113808383836001611b23565b8273ffffffffffffffffffffffffffffffffffffffff166113a082610af0565b73ffffffffffffffffffffffffffffffffffffffff16146113f6576040517f08c379a00000000000000000000000000000000000000000000000000000000081526004016113ed90613351565b60405180910390fd5b6004600082815260200190815260200160002060006101000a81549073ffffffffffffffffffffffffffffffffffffffff02191690556001600360008573ffffffffffffffffffffffffffffffffffffffff1673ffffffffffffffffffffffffffffffffffffffff168152602001908152602001600020600082825403925050819055506001600360008473ffffffffffffffffffffffffffffffffffffffff1673ffffffffffffffffffffffffffffffffffffffff16815260200190815260200160002060008282540192505081905550816002600083815260200190815260200160002060006101000a81548173ffffffffffffffffffffffffffffffffffffffff021916908373ffffffffffffffffffffffffffffffffffffffff160217905550808273ffffffffffffffffffffffffffffffffffffffff168473ffffffffffffffffffffffffffffffffffffffff167fddf252ad1be2c89b69c2b068fc378daa952ba7f163c4a11628f55a4df523b3ef60405160405180910390a46115828383836001611b35565b505050565b6001816000016000828254019250508190555050565b600081600001549050919050565b6115c5828260405180602001604052806000815250611b3b565b5050565b60006002600083815260200190815260200160002060009054906101000a900473ffffffffffffffffffffffffffffffffffffffff169050919050565b61160e611138565b73ffffffffffffffffffffffffffffffffffffffff1661162c610c41565b73ffffffffffffffffffffffffffffffffffffffff1614611682576040517f08c379a00000000000000000000000000000000000000000000000000000000081526004016116799061344f565b60405180910390fd5b565b6000600a60009054906101000a900473ffffffffffffffffffffffffffffffffffffffff16905081600a60006101000a81548173ffffffffffffffffffffffffffffffffffffffff021916908373ffffffffffffffffffffffffffffffffffffffff1602179055508173ffffffffffffffffffffffffffffffffffffffff168173ffffffffffffffffffffffffffffffffffffffff167f8be0079c531659141344cd1fd0a4f28419497f9722a3daafe3b4186f6b6457e060405160405180910390a35050565b8173ffffffffffffffffffffffffffffffffffffffff168373ffffffffffffffffffffffffffffffffffffffff16036117b8576040517f08c379a00000000000000000000000000000000000000000000000000000000081526004016117af906134bb565b60405180910390fd5b80600560008573ffffffffffffffffffffffffffffffffffffffff1673ffffffffffffffffffffffffffffffffffffffff16815260200190815260200160002060008473ffffffffffffffffffffffffffffffffffffffff1673ffffffffffffffffffffffffffffffffffffffff16815260200190815260200160002060006101000a81548160ff0219169083151502179055508173ffffffffffffffffffffffffffffffffffffffff168373ffffffffffffffffffffffffffffffffffffffff167f17307eab39ab6107e8899845ad3d59bd9653f200f220920489ca2b5937696c31836040516118a9919061269f565b60405180910390a3505050565b6118c184848461128e565b6118cd84848484611b96565b61190c576040517f08c379a00000000000000000000000000000000000000000000000000000000081526004016119039061354d565b60405180910390fd5b50505050565b606060405180606001604052806022815260200161384d60229139905090565b60606000600161194184611d1d565b01905060008167ffffffffffffffff8111156119605761195f612aa6565b5b6040519080825280601f01601f1916602001820160405280156119925781602001600182028036833780820191505090505b509050600082602001820190505b6001156119f5578080600190039150507f3031323334353637383961626364656600000000000000000000000000000000600a86061a8153600a85816119e9576119e8612fce565b5b049450600085036119a0575b819350505050919050565b60007f80ac58cd000000000000000000000000000000000000000000000000000000007bffffffffffffffffffffffffffffffffffffffffffffffffffffffff1916827bffffffffffffffffffffffffffffffffffffffffffffffffffffffff19161480611acb57507f5b5e139f000000000000000000000000000000000000000000000000000000007bffffffffffffffffffffffffffffffffffffffffffffffffffffffff1916827bffffffffffffffffffffffffffffffffffffffffffffffffffffffff1916145b80611adb5750611ada82611e70565b5b9050919050565b60008073ffffffffffffffffffffffffffffffffffffffff16611b04836115c9565b73ffffffffffffffffffffffffffffffffffffffff1614159050919050565b611b2f84848484611eda565b50505050565b50505050565b611b458383612038565b611b526000848484611b96565b611b91576040517f08c379a0000000000000000000000000000000000000000000000000000000008152600401611b889061354d565b60405180910390fd5b505050565b6000611bb78473ffffffffffffffffffffffffffffffffffffffff16612255565b15611d10578373ffffffffffffffffffffffffffffffffffffffff1663150b7a02611be0611138565b8786866040518563ffffffff1660e01b8152600401611c0294939291906135c2565b6020604051808303816000875af1925050508015611c3e57506040513d601f19601f82011682018060405250810190611c3b9190613623565b60015b611cc0573d8060008114611c6e576040519150601f19603f3d011682016040523d82523d6000602084013e611c73565b606091505b506000815103611cb8576040517f08c379a0000000000000000000000000000000000000000000000000000000008152600401611caf9061354d565b60405180910390fd5b805181602001fd5b63150b7a0260e01b7bffffffffffffffffffffffffffffffffffffffffffffffffffffffff1916817bffffffffffffffffffffffffffffffffffffffffffffffffffffffff191614915050611d15565b600190505b949350505050565b600080600090507a184f03e93ff9f4daa797ed6e38ed64bf6a1f0100000000000000008310611d7b577a184f03e93ff9f4daa797ed6e38ed64bf6a1f0100000000000000008381611d7157611d70612fce565b5b0492506040810190505b6d04ee2d6d415b85acef81000000008310611db8576d04ee2d6d415b85acef81000000008381611dae57611dad612fce565b5b0492506020810190505b662386f26fc100008310611de757662386f26fc100008381611ddd57611ddc612fce565b5b0492506010810190505b6305f5e1008310611e10576305f5e1008381611e0657611e05612fce565b5b0492506008810190505b6127108310611e35576127108381611e2b57611e2a612fce565b5b0492506004810190505b60648310611e585760648381611e4e57611e4d612fce565b5b0492506002810190505b600a8310611e67576001810190505b80915050919050565b60007f01ffc9a7000000000000000000000000000000000000000000000000000000007bffffffffffffffffffffffffffffffffffffffffffffffffffffffff1916827bffffffffffffffffffffffffffffffffffffffffffffffffffffffff1916149050919050565b611ee684848484612278565b6001811115611f2a576040517f08c379a0000000000000000000000000000000000000000000000000000000008152600401611f21906136c2565b60405180910390fd5b6000829050600073ffffffffffffffffffffffffffffffffffffffff168573ffffffffffffffffffffffffffffffffffffffff1603611f7157611f6c8161227e565b611fb0565b8373ffffffffffffffffffffffffffffffffffffffff168573ffffffffffffffffffffffffffffffffffffffff1614611faf57611fae85826122c7565b5b5b600073ffffffffffffffffffffffffffffffffffffffff168473ffffffffffffffffffffffffffffffffffffffff1603611ff257611fed81612434565b612031565b8473ffffffffffffffffffffffffffffffffffffffff168473ffffffffffffffffffffffffffffffffffffffff16146120305761202f8482612505565b5b5b5050505050565b600073ffffffffffffffffffffffffffffffffffffffff168273ffffffffffffffffffffffffffffffffffffffff16036120a7576040517f08c379a000000000000000000000000000000000000000000000000000000000815260040161209e9061372e565b60405180910390fd5b6120b081611ae2565b156120f0576040517f08c379a00000000000000000000000000000000000000000000000000000000081526004016120e79061379a565b60405180910390fd5b6120fe600083836001611b23565b61210781611ae2565b15612147576040517f08c379a000000000000000000000000000000000000000000000000000000000815260040161213e9061379a565b60405180910390fd5b6001600360008473ffffffffffffffffffffffffffffffffffffffff1673ffffffffffffffffffffffffffffffffffffffff16815260200190815260200160002060008282540192505081905550816002600083815260200190815260200160002060006101000a81548173ffffffffffffffffffffffffffffffffffffffff021916908373ffffffffffffffffffffffffffffffffffffffff160217905550808273ffffffffffffffffffffffffffffffffffffffff16600073ffffffffffffffffffffffffffffffffffffffff167fddf252ad1be2c89b69c2b068fc378daa952ba7f163c4a11628f55a4df523b3ef60405160405180910390a4612251600083836001611b35565b5050565b6000808273ffffffffffffffffffffffffffffffffffffffff163b119050919050565b50505050565b6008805490506009600083815260200190815260200160002081905550600881908060018154018082558091505060019003906000526020600020016000909190919091505550565b600060016122d484610b76565b6122de91906137e9565b90506000600760008481526020019081526020016000205490508181146123c3576000600660008673ffffffffffffffffffffffffffffffffffffffff1673ffffffffffffffffffffffffffffffffffffffff168152602001908152602001600020600084815260200190815260200160002054905080600660008773ffffffffffffffffffffffffffffffffffffffff1673ffffffffffffffffffffffffffffffffffffffff168152602001908152602001600020600084815260200190815260200160002081905550816007600083815260200190815260200160002081905550505b6007600084815260200190815260200160002060009055600660008573ffffffffffffffffffffffffffffffffffffffff1673ffffffffffffffffffffffffffffffffffffffff16815260200190815260200160002060008381526020019081526020016000206000905550505050565b6000600160088054905061244891906137e9565b9050600060096000848152602001908152602001600020549050600060088381548110612478576124776130c0565b5b90600052602060002001549050806008838154811061249a576124996130c0565b5b9060005260206000200181905550816009600083815260200190815260200160002081905550600960008581526020019081526020016000206000905560088054806124e9576124e861381d565b5b6001900381819060005260206000200160009055905550505050565b600061251083610b76565b905081600660008573ffffffffffffffffffffffffffffffffffffffff1673ffffffffffffffffffffffffffffffffffffffff168152602001908152602001600020600083815260200190815260200160002081905550806007600084815260200190815260200160002081905550505050565b604051806101200160405280600060ff168152602001600060ff168152602001600060ff168152602001600060ff168152602001600060ff168152602001600060ff168152602001600060ff168152602001600060ff168152602001600060ff1681525090565b6000604051905090565b600080fd5b600080fd5b60007fffffffff0000000000000000000000000000000000000000000000000000000082169050919050565b612634816125ff565b811461263f57600080fd5b50565b6000813590506126518161262b565b92915050565b60006020828403121561266d5761266c6125f5565b5b600061267b84828501612642565b91505092915050565b60008115159050919050565b61269981612684565b82525050565b60006020820190506126b46000830184612690565b92915050565b600081519050919050565b600082825260208201905092915050565b60005b838110156126f45780820151818401526020810190506126d9565b60008484015250505050565b6000601f19601f8301169050919050565b600061271c826126ba565b61272681856126c5565b93506127368185602086016126d6565b61273f81612700565b840191505092915050565b600060208201905081810360008301526127648184612711565b905092915050565b6000819050919050565b61277f8161276c565b811461278a57600080fd5b50565b60008135905061279c81612776565b92915050565b6000602082840312156127b8576127b76125f5565b5b60006127c68482850161278d565b91505092915050565b600073ffffffffffffffffffffffffffffffffffffffff82169050919050565b60006127fa826127cf565b9050919050565b61280a816127ef565b82525050565b60006020820190506128256000830184612801565b92915050565b612834816127ef565b811461283f57600080fd5b50565b6000813590506128518161282b565b92915050565b6000806040838503121561286e5761286d6125f5565b5b600061287c85828601612842565b925050602061288d8582860161278d565b9150509250929050565b6128a08161276c565b82525050565b60006020820190506128bb6000830184612897565b92915050565b6000806000606084860312156128da576128d96125f5565b5b60006128e886828701612842565b93505060206128f986828701612842565b925050604061290a8682870161278d565b9150509250925092565b60006020828403121561292a576129296125f5565b5b600061293884828501612842565b91505092915050565b61294a81612684565b811461295557600080fd5b50565b60008135905061296781612941565b92915050565b60008060408385031215612984576129836125f5565b5b600061299285828601612842565b92505060206129a385828601612958565b9150509250929050565b600060ff82169050919050565b6129c3816129ad565b82525050565b610120820160008201516129e060008501826129ba565b5060208201516129f360208501826129ba565b506040820151612a0660408501826129ba565b506060820151612a1960608501826129ba565b506080820151612a2c60808501826129ba565b5060a0820151612a3f60a08501826129ba565b5060c0820151612a5260c08501826129ba565b5060e0820151612a6560e08501826129ba565b50610100820151612a7a6101008501826129ba565b50505050565b600061012082019050612a9660008301846129c9565b92915050565b600080fd5b600080fd5b7f4e487b7100000000000000000000000000000000000000000000000000000000600052604160045260246000fd5b612ade82612700565b810181811067ffffffffffffffff82111715612afd57612afc612aa6565b5b80604052505050565b6000612b106125eb565b9050612b1c8282612ad5565b919050565b600067ffffffffffffffff821115612b3c57612b3b612aa6565b5b612b4582612700565b9050602081019050919050565b82818337600083830152505050565b6000612b74612b6f84612b21565b612b06565b905082815260208101848484011115612b9057612b8f612aa1565b5b612b9b848285612b52565b509392505050565b600082601f830112612bb857612bb7612a9c565b5b8135612bc8848260208601612b61565b91505092915050565b60008060008060808587031215612beb57612bea6125f5565b5b6000612bf987828801612842565b9450506020612c0a87828801612842565b9350506040612c1b8782880161278d565b925050606085013567ffffffffffffffff811115612c3c57612c3b6125fa565b5b612c4887828801612ba3565b91505092959194509250565b60008060408385031215612c6b57612c6a6125f5565b5b6000612c7985828601612842565b9250506020612c8a85828601612842565b9150509250929050565b7f4e487b7100000000000000000000000000000000000000000000000000000000600052602260045260246000fd5b60006002820490506001821680612cdb57607f821691505b602082108103612cee57612ced612c94565b5b50919050565b7f4552433732313a20617070726f76616c20746f2063757272656e74206f776e6560008201527f7200000000000000000000000000000000000000000000000000000000000000602082015250565b6000612d506021836126c5565b9150612d5b82612cf4565b604082019050919050565b60006020820190508181036000830152612d7f81612d43565b9050919050565b7f4552433732313a20617070726f76652063616c6c6572206973206e6f7420746f60008201527f6b656e206f776e6572206f7220617070726f76656420666f7220616c6c000000602082015250565b6000612de2603d836126c5565b9150612ded82612d86565b604082019050919050565b60006020820190508181036000830152612e1181612dd5565b9050919050565b7f4552433732313a2063616c6c6572206973206e6f7420746f6b656e206f776e6560008201527f72206f7220617070726f76656400000000000000000000000000000000000000602082015250565b6000612e74602d836126c5565b9150612e7f82612e18565b604082019050919050565b60006020820190508181036000830152612ea381612e67565b9050919050565b7f455243373231456e756d657261626c653a206f776e657220696e646578206f7560008201527f74206f6620626f756e6473000000000000000000000000000000000000000000602082015250565b6000612f06602b836126c5565b9150612f1182612eaa565b604082019050919050565b60006020820190508181036000830152612f3581612ef9565b9050919050565b7f6f6e6c794d696e7465722e20596f7520617265206e6f7420746865206d696e7460008201527f6572206f66207468697320636f6c6c656374696f6e2100000000000000000000602082015250565b6000612f986036836126c5565b9150612fa382612f3c565b604082019050919050565b60006020820190508181036000830152612fc781612f8b565b9050919050565b7f4e487b7100000000000000000000000000000000000000000000000000000000600052601260045260246000fd5b60006130088261276c565b91506130138361276c565b92508261302357613022612fce565b5b828206905092915050565b7f455243373231456e756d657261626c653a20676c6f62616c20696e646578206f60008201527f7574206f6620626f756e64730000000000000000000000000000000000000000602082015250565b600061308a602c836126c5565b91506130958261302e565b604082019050919050565b600060208201905081810360008301526130b98161307d565b9050919050565b7f4e487b7100000000000000000000000000000000000000000000000000000000600052603260045260246000fd5b7f4552433732313a20696e76616c696420746f6b656e2049440000000000000000600082015250565b60006131256018836126c5565b9150613130826130ef565b602082019050919050565b6000602082019050818103600083015261315481613118565b9050919050565b7f4552433732313a2061646472657373207a65726f206973206e6f74206120766160008201527f6c6964206f776e65720000000000000000000000000000000000000000000000602082015250565b60006131b76029836126c5565b91506131c28261315b565b604082019050919050565b600060208201905081810360008301526131e6816131aa565b9050919050565b600081905092915050565b6000613203826126ba565b61320d81856131ed565b935061321d8185602086016126d6565b80840191505092915050565b600061323582856131f8565b915061324182846131f8565b91508190509392505050565b7f4f776e61626c653a206e6577206f776e657220697320746865207a65726f206160008201527f6464726573730000000000000000000000000000000000000000000000000000602082015250565b60006132a96026836126c5565b91506132b48261324d565b604082019050919050565b600060208201905081810360008301526132d88161329c565b9050919050565b7f4552433732313a207472616e736665722066726f6d20696e636f72726563742060008201527f6f776e6572000000000000000000000000000000000000000000000000000000602082015250565b600061333b6025836126c5565b9150613346826132df565b604082019050919050565b6000602082019050818103600083015261336a8161332e565b9050919050565b7f4552433732313a207472616e7366657220746f20746865207a65726f2061646460008201527f7265737300000000000000000000000000000000000000000000000000000000602082015250565b60006133cd6024836126c5565b91506133d882613371565b604082019050919050565b600060208201905081810360008301526133fc816133c0565b9050919050565b7f4f776e61626c653a2063616c6c6572206973206e6f7420746865206f776e6572600082015250565b60006134396020836126c5565b915061344482613403565b602082019050919050565b600060208201905081810360008301526134688161342c565b9050919050565b7f4552433732313a20617070726f766520746f2063616c6c657200000000000000600082015250565b60006134a56019836126c5565b91506134b08261346f565b602082019050919050565b600060208201905081810360008301526134d481613498565b9050919050565b7f4552433732313a207472616e7366657220746f206e6f6e20455243373231526560008201527f63656976657220696d706c656d656e7465720000000000000000000000000000602082015250565b60006135376032836126c5565b9150613542826134db565b604082019050919050565b600060208201905081810360008301526135668161352a565b9050919050565b600081519050919050565b600082825260208201905092915050565b60006135948261356d565b61359e8185613578565b93506135ae8185602086016126d6565b6135b781612700565b840191505092915050565b60006080820190506135d76000830187612801565b6135e46020830186612801565b6135f16040830185612897565b81810360608301526136038184613589565b905095945050505050565b60008151905061361d8161262b565b92915050565b600060208284031215613639576136386125f5565b5b60006136478482850161360e565b91505092915050565b7f455243373231456e756d657261626c653a20636f6e736563757469766520747260008201527f616e7366657273206e6f7420737570706f727465640000000000000000000000602082015250565b60006136ac6035836126c5565b91506136b782613650565b604082019050919050565b600060208201905081810360008301526136db8161369f565b9050919050565b7f4552433732313a206d696e7420746f20746865207a65726f2061646472657373600082015250565b60006137186020836126c5565b9150613723826136e2565b602082019050919050565b600060208201905081810360008301526137478161370b565b9050919050565b7f4552433732313a20746f6b656e20616c7265616479206d696e74656400000000600082015250565b6000613784601c836126c5565b915061378f8261374e565b602082019050919050565b600060208201905081810360008301526137b381613777565b9050919050565b7f4e487b7100000000000000000000000000000000000000000000000000000000600052601160045260246000fd5b60006137f48261276c565b91506137ff8361276c565b9250828203905081811115613817576138166137ba565b5b92915050565b7f4e487b7100000000000000000000000000000000000000000000000000000000600052603160045260246000fdfe68747470733a2f2f6e797865756d2e76657263656c2e6170702f6170692f6e66742fa26469706673582212209a1a3909b09a2ba670f00a1a6bd3b277fd9b4b4e35f06cc4d1192caab0f43eac64736f6c63430008120033",
  "linkReferences": {},
  "deployedLinkReferences": {}
}