{
  "_format": "hh-sol-artifact-1",
  "contractName": "HeroesOfNyxeum",
  "sourceName": "contracts/HeroesOfNyxeum.sol",
  "abi": [
    {
      "inputs": [
        {
          "internalType": "address",
          "name": "nyxEssenceAddress",
          "type": "address"
        }
      ],
      "stateMutability": "nonpayable",
      "type": "constructor"
    },
    {
      "anonymous": false,
      "inputs": [
        {
          "indexed": true,
          "internalType": "address",
          "name": "owner",
          "type": "address"
        },
        {
          "indexed": true,
          "internalType": "address",
          "name": "approved",
          "type": "address"
        },
        {
          "indexed": true,
          "internalType": "uint256",
          "name": "tokenId",
          "type": "uint256"
        }
      ],
      "name": "Approval",
      "type": "event"
    },
    {
      "anonymous": false,
      "inputs": [
        {
          "indexed": true,
          "internalType": "address",
          "name": "owner",
          "type": "address"
        },
        {
          "indexed": true,
          "internalType": "address",
          "name": "operator",
          "type": "address"
        },
        {
          "indexed": false,
          "internalType": "bool",
          "name": "approved",
          "type": "bool"
        }
      ],
      "name": "ApprovalForAll",
      "type": "event"
    },
    {
      "anonymous": false,
      "inputs": [
        {
          "indexed": true,
          "internalType": "address",
          "name": "previousOwner",
          "type": "address"
        },
        {
          "indexed": true,
          "internalType": "address",
          "name": "newOwner",
          "type": "address"
        }
      ],
      "name": "OwnershipTransferred",
      "type": "event"
    },
    {
      "anonymous": false,
      "inputs": [
        {
          "indexed": true,
          "internalType": "address",
          "name": "from",
          "type": "address"
        },
        {
          "indexed": true,
          "internalType": "address",
          "name": "to",
          "type": "address"
        },
        {
          "indexed": true,
          "internalType": "uint256",
          "name": "tokenId",
          "type": "uint256"
        }
      ],
      "name": "Transfer",
      "type": "event"
    },
    {
      "inputs": [
        {
          "internalType": "address",
          "name": "to",
          "type": "address"
        },
        {
          "internalType": "uint256",
          "name": "tokenId",
          "type": "uint256"
        }
      ],
      "name": "approve",
      "outputs": [],
      "stateMutability": "nonpayable",
      "type": "function"
    },
    {
      "inputs": [
        {
          "internalType": "address",
          "name": "owner",
          "type": "address"
        }
      ],
      "name": "balanceOf",
      "outputs": [
        {
          "internalType": "uint256",
          "name": "",
          "type": "uint256"
        }
      ],
      "stateMutability": "view",
      "type": "function"
    },
    {
      "inputs": [],
      "name": "canReveal",
      "outputs": [
        {
          "internalType": "bool",
          "name": "",
          "type": "bool"
        }
      ],
      "stateMutability": "view",
      "type": "function"
    },
    {
      "inputs": [],
      "name": "commit",
      "outputs": [],
      "stateMutability": "payable",
      "type": "function"
    },
    {
      "inputs": [
        {
          "internalType": "uint256",
          "name": "tokenId",
          "type": "uint256"
        }
      ],
      "name": "getApproved",
      "outputs": [
        {
          "internalType": "address",
          "name": "",
          "type": "address"
        }
      ],
      "stateMutability": "view",
      "type": "function"
    },
    {
      "inputs": [],
      "name": "getCommitPrice",
      "outputs": [
        {
          "internalType": "uint256",
          "name": "",
          "type": "uint256"
        }
      ],
      "stateMutability": "view",
      "type": "function"
    },
    {
      "inputs": [
        {
          "internalType": "uint256",
          "name": "index",
          "type": "uint256"
        }
      ],
      "name": "getNftMetadata",
      "outputs": [
        {
          "components": [
            {
              "internalType": "uint8",
              "name": "strength",
              "type": "uint8"
            },
            {
              "internalType": "uint8",
              "name": "dexterity",
              "type": "uint8"
            },
            {
              "internalType": "uint8",
              "name": "intelligence",
              "type": "uint8"
            },
            {
              "internalType": "uint8",
              "name": "tough",
              "type": "uint8"
            },
            {
              "internalType": "uint8",
              "name": "powerful",
              "type": "uint8"
            },
            {
              "internalType": "uint8",
              "name": "precise",
              "type": "uint8"
            },
            {
              "internalType": "uint8",
              "name": "skilled",
              "type": "uint8"
            },
            {
              "internalType": "uint8",
              "name": "sharp",
              "type": "uint8"
            },
            {
              "internalType": "uint8",
              "name": "oracle",
              "type": "uint8"
            }
          ],
          "internalType": "struct HeroesOfNyxeum.NftMetadata",
          "name": "",
          "type": "tuple"
        }
      ],
      "stateMutability": "view",
      "type": "function"
    },
    {
      "inputs": [],
      "name": "getRevealPrice",
      "outputs": [
        {
          "internalType": "uint256",
          "name": "",
          "type": "uint256"
        }
      ],
      "stateMutability": "view",
      "type": "function"
    },
    {
      "inputs": [
        {
          "internalType": "address",
          "name": "owner",
          "type": "address"
        },
        {
          "internalType": "address",
          "name": "operator",
          "type": "address"
        }
      ],
      "name": "isApprovedForAll",
      "outputs": [
        {
          "internalType": "bool",
          "name": "",
          "type": "bool"
        }
      ],
      "stateMutability": "view",
      "type": "function"
    },
    {
      "inputs": [],
      "name": "name",
      "outputs": [
        {
          "internalType": "string",
          "name": "",
          "type": "string"
        }
      ],
      "stateMutability": "view",
      "type": "function"
    },
    {
      "inputs": [],
      "name": "owner",
      "outputs": [
        {
          "internalType": "address",
          "name": "",
          "type": "address"
        }
      ],
      "stateMutability": "view",
      "type": "function"
    },
    {
      "inputs": [
        {
          "internalType": "uint256",
          "name": "tokenId",
          "type": "uint256"
        }
      ],
      "name": "ownerOf",
      "outputs": [
        {
          "internalType": "address",
          "name": "",
          "type": "address"
        }
      ],
      "stateMutability": "view",
      "type": "function"
    },
    {
      "inputs": [],
      "name": "renounceOwnership",
      "outputs": [],
      "stateMutability": "nonpayable",
      "type": "function"
    },
    {
      "inputs": [],
      "name": "reveal",
      "outputs": [],
      "stateMutability": "nonpayable",
      "type": "function"
    },
    {
      "inputs": [
        {
          "internalType": "address",
          "name": "from",
          "type": "address"
        },
        {
          "internalType": "address",
          "name": "to",
          "type": "address"
        },
        {
          "internalType": "uint256",
          "name": "tokenId",
          "type": "uint256"
        }
      ],
      "name": "safeTransferFrom",
      "outputs": [],
      "stateMutability": "nonpayable",
      "type": "function"
    },
    {
      "inputs": [
        {
          "internalType": "address",
          "name": "from",
          "type": "address"
        },
        {
          "internalType": "address",
          "name": "to",
          "type": "address"
        },
        {
          "internalType": "uint256",
          "name": "tokenId",
          "type": "uint256"
        },
        {
          "internalType": "bytes",
          "name": "data",
          "type": "bytes"
        }
      ],
      "name": "safeTransferFrom",
      "outputs": [],
      "stateMutability": "nonpayable",
      "type": "function"
    },
    {
      "inputs": [
        {
          "internalType": "address",
          "name": "operator",
          "type": "address"
        },
        {
          "internalType": "bool",
          "name": "approved",
          "type": "bool"
        }
      ],
      "name": "setApprovalForAll",
      "outputs": [],
      "stateMutability": "nonpayable",
      "type": "function"
    },
    {
      "inputs": [
        {
          "internalType": "bytes4",
          "name": "interfaceId",
          "type": "bytes4"
        }
      ],
      "name": "supportsInterface",
      "outputs": [
        {
          "internalType": "bool",
          "name": "",
          "type": "bool"
        }
      ],
      "stateMutability": "view",
      "type": "function"
    },
    {
      "inputs": [],
      "name": "symbol",
      "outputs": [
        {
          "internalType": "string",
          "name": "",
          "type": "string"
        }
      ],
      "stateMutability": "view",
      "type": "function"
    },
    {
      "inputs": [
        {
          "internalType": "uint256",
          "name": "index",
          "type": "uint256"
        }
      ],
      "name": "tokenByIndex",
      "outputs": [
        {
          "internalType": "uint256",
          "name": "",
          "type": "uint256"
        }
      ],
      "stateMutability": "view",
      "type": "function"
    },
    {
      "inputs": [
        {
          "internalType": "address",
          "name": "owner",
          "type": "address"
        },
        {
          "internalType": "uint256",
          "name": "index",
          "type": "uint256"
        }
      ],
      "name": "tokenOfOwnerByIndex",
      "outputs": [
        {
          "internalType": "uint256",
          "name": "",
          "type": "uint256"
        }
      ],
      "stateMutability": "view",
      "type": "function"
    },
    {
      "inputs": [
        {
          "internalType": "uint256",
          "name": "tokenId",
          "type": "uint256"
        }
      ],
      "name": "tokenURI",
      "outputs": [
        {
          "internalType": "string",
          "name": "",
          "type": "string"
        }
      ],
      "stateMutability": "view",
      "type": "function"
    },
    {
      "inputs": [],
      "name": "totalSupply",
      "outputs": [
        {
          "internalType": "uint256",
          "name": "",
          "type": "uint256"
        }
      ],
      "stateMutability": "view",
      "type": "function"
    },
    {
      "inputs": [
        {
          "internalType": "address",
          "name": "from",
          "type": "address"
        },
        {
          "internalType": "address",
          "name": "to",
          "type": "address"
        },
        {
          "internalType": "uint256",
          "name": "tokenId",
          "type": "uint256"
        }
      ],
      "name": "transferFrom",
      "outputs": [],
      "stateMutability": "nonpayable",
      "type": "function"
    },
    {
      "inputs": [
        {
          "internalType": "address",
          "name": "newOwner",
          "type": "address"
        }
      ],
      "name": "transferOwnership",
      "outputs": [],
      "stateMutability": "nonpayable",
      "type": "function"
    }
  ],
  "bytecode": "0x6080604052674563918244f40000600d556000600e556001600f553480156200002757600080fd5b50604051620046563803806200465683398181016040528101906200004d91906200027f565b6040518060400160405280601081526020017f4865726f6573206f66204e797865756d000000000000000000000000000000008152506040518060400160405280600481526020017f484e5958000000000000000000000000000000000000000000000000000000008152508160009081620000ca91906200052b565b508060019081620000dc91906200052b565b505050620000ff620000f36200014760201b60201c565b6200014f60201b60201c565b80600c60006101000a81548173ffffffffffffffffffffffffffffffffffffffff021916908373ffffffffffffffffffffffffffffffffffffffff1602179055505062000612565b600033905090565b6000600a60009054906101000a900473ffffffffffffffffffffffffffffffffffffffff16905081600a60006101000a81548173ffffffffffffffffffffffffffffffffffffffff021916908373ffffffffffffffffffffffffffffffffffffffff1602179055508173ffffffffffffffffffffffffffffffffffffffff168173ffffffffffffffffffffffffffffffffffffffff167f8be0079c531659141344cd1fd0a4f28419497f9722a3daafe3b4186f6b6457e060405160405180910390a35050565b600080fd5b600073ffffffffffffffffffffffffffffffffffffffff82169050919050565b600062000247826200021a565b9050919050565b62000259816200023a565b81146200026557600080fd5b50565b60008151905062000279816200024e565b92915050565b60006020828403121562000298576200029762000215565b5b6000620002a88482850162000268565b91505092915050565b600081519050919050565b7f4e487b7100000000000000000000000000000000000000000000000000000000600052604160045260246000fd5b7f4e487b7100000000000000000000000000000000000000000000000000000000600052602260045260246000fd5b600060028204905060018216806200033357607f821691505b602082108103620003495762000348620002eb565b5b50919050565b60008190508160005260206000209050919050565b60006020601f8301049050919050565b600082821b905092915050565b600060088302620003b37fffffffffffffffffffffffffffffffffffffffffffffffffffffffffffffffff8262000374565b620003bf868362000374565b95508019841693508086168417925050509392505050565b6000819050919050565b6000819050919050565b60006200040c620004066200040084620003d7565b620003e1565b620003d7565b9050919050565b6000819050919050565b6200042883620003eb565b62000440620004378262000413565b84845462000381565b825550505050565b600090565b6200045762000448565b620004648184846200041d565b505050565b5b818110156200048c57620004806000826200044d565b6001810190506200046a565b5050565b601f821115620004db57620004a5816200034f565b620004b08462000364565b81016020851015620004c0578190505b620004d8620004cf8562000364565b83018262000469565b50505b505050565b600082821c905092915050565b60006200050060001984600802620004e0565b1980831691505092915050565b60006200051b8383620004ed565b9150826002028217905092915050565b6200053682620002b1565b67ffffffffffffffff811115620005525762000551620002bc565b5b6200055e82546200031a565b6200056b82828562000490565b600060209050601f831160018114620005a357600084156200058e578287015190505b6200059a85826200050d565b8655506200060a565b601f198416620005b3866200034f565b60005b82811015620005dd57848901518255600182019150602085019450602081019050620005b6565b86831015620005fd5784890151620005f9601f891682620004ed565b8355505b6001600288020188555050505b505050505050565b61403480620006226000396000f3fe6080604052600436106101665760003560e01c806370a08231116100d1578063a475b5dd1161008a578063b88d4fde11610064578063b88d4fde1461051f578063c87b56dd14610548578063e985e9c514610585578063f2fde38b146105c257610166565b8063a475b5dd146104a0578063a9842610146104b7578063ad27314b146104e257610166565b806370a08231146103a2578063715018a6146103df5780637af43952146103f65780638da5cb5b1461042157806395d89b411461044c578063a22cb4651461047757610166565b80632f745c59116101235780632f745c591461028d5780633c7a3aff146102ca5780633cbef428146102d457806342842e0e146102ff5780634f6ccce7146103285780636352211e1461036557610166565b806301ffc9a71461016b57806306fdde03146101a8578063081812fc146101d3578063095ea7b31461021057806318160ddd1461023957806323b872dd14610264575b600080fd5b34801561017757600080fd5b50610192600480360381019061018d9190612b3f565b6105eb565b60405161019f9190612b87565b60405180910390f35b3480156101b457600080fd5b506101bd6105fd565b6040516101ca9190612c32565b60405180910390f35b3480156101df57600080fd5b506101fa60048036038101906101f59190612c8a565b61068f565b6040516102079190612cf8565b60405180910390f35b34801561021c57600080fd5b5061023760048036038101906102329190612d3f565b6106d5565b005b34801561024557600080fd5b5061024e6107ec565b60405161025b9190612d8e565b60405180910390f35b34801561027057600080fd5b5061028b60048036038101906102869190612da9565b6107f9565b005b34801561029957600080fd5b506102b460048036038101906102af9190612d3f565b610859565b6040516102c19190612d8e565b60405180910390f35b6102d26108fe565b005b3480156102e057600080fd5b506102e9610b4d565b6040516102f69190612d8e565b60405180910390f35b34801561030b57600080fd5b5061032660048036038101906103219190612da9565b610b57565b005b34801561033457600080fd5b5061034f600480360381019061034a9190612c8a565b610b77565b60405161035c9190612d8e565b60405180910390f35b34801561037157600080fd5b5061038c60048036038101906103879190612c8a565b610be8565b6040516103999190612cf8565b60405180910390f35b3480156103ae57600080fd5b506103c960048036038101906103c49190612dfc565b610c6e565b6040516103d69190612d8e565b60405180910390f35b3480156103eb57600080fd5b506103f4610d25565b005b34801561040257600080fd5b5061040b610d39565b6040516104189190612d8e565b60405180910390f35b34801561042d57600080fd5b50610436610d43565b6040516104439190612cf8565b60405180910390f35b34801561045857600080fd5b50610461610d6d565b60405161046e9190612c32565b60405180910390f35b34801561048357600080fd5b5061049e60048036038101906104999190612e55565b610dff565b005b3480156104ac57600080fd5b506104b5610e15565b005b3480156104c357600080fd5b506104cc6111fe565b6040516104d99190612b87565b60405180910390f35b3480156104ee57600080fd5b5061050960048036038101906105049190612c8a565b611247565b6040516105169190612f68565b60405180910390f35b34801561052b57600080fd5b50610546600480360381019061054191906130b9565b61137a565b005b34801561055457600080fd5b5061056f600480360381019061056a9190612c8a565b6113dc565b60405161057c9190612c32565b60405180910390f35b34801561059157600080fd5b506105ac60048036038101906105a7919061313c565b611444565b6040516105b99190612b87565b60405180910390f35b3480156105ce57600080fd5b506105e960048036038101906105e49190612dfc565b6114d8565b005b60006105f68261155b565b9050919050565b60606000805461060c906131ab565b80601f0160208091040260200160405190810160405280929190818152602001828054610638906131ab565b80156106855780601f1061065a57610100808354040283529160200191610685565b820191906000526020600020905b81548152906001019060200180831161066857829003601f168201915b5050505050905090565b600061069a826115d5565b6004600083815260200190815260200160002060009054906101000a900473ffffffffffffffffffffffffffffffffffffffff169050919050565b60006106e082610be8565b90508073ffffffffffffffffffffffffffffffffffffffff168373ffffffffffffffffffffffffffffffffffffffff1603610750576040517f08c379a00000000000000000000000000000000000000000000000000000000081526004016107479061324e565b60405180910390fd5b8073ffffffffffffffffffffffffffffffffffffffff1661076f611620565b73ffffffffffffffffffffffffffffffffffffffff16148061079e575061079d81610798611620565b611444565b5b6107dd576040517f08c379a00000000000000000000000000000000000000000000000000000000081526004016107d4906132e0565b60405180910390fd5b6107e78383611628565b505050565b6000600880549050905090565b61080a610804611620565b826116e1565b610849576040517f08c379a000000000000000000000000000000000000000000000000000000000815260040161084090613372565b60405180910390fd5b610854838383611776565b505050565b600061086483610c6e565b82106108a5576040517f08c379a000000000000000000000000000000000000000000000000000000000815260040161089c90613404565b60405180910390fd5b600660008473ffffffffffffffffffffffffffffffffffffffff1673ffffffffffffffffffffffffffffffffffffffff168152602001908152602001600020600083815260200190815260200160002054905092915050565b600d54600c60009054906101000a900473ffffffffffffffffffffffffffffffffffffffff1673ffffffffffffffffffffffffffffffffffffffff1663dd62ed3e33306040518363ffffffff1660e01b815260040161095e929190613424565b602060405180830381865afa15801561097b573d6000803e3d6000fd5b505050506040513d601f19601f8201168201806040525081019061099f9190613462565b10156109e0576040517f08c379a00000000000000000000000000000000000000000000000000000000081526004016109d7906134db565b60405180910390fd5b6000601060003373ffffffffffffffffffffffffffffffffffffffff1673ffffffffffffffffffffffffffffffffffffffff1681526020019081526020016000205414610a62576040517f08c379a0000000000000000000000000000000000000000000000000000000008152600401610a599061356d565b60405180910390fd5b600c60009054906101000a900473ffffffffffffffffffffffffffffffffffffffff1673ffffffffffffffffffffffffffffffffffffffff166323b872dd3330600d546040518463ffffffff1660e01b8152600401610ac39392919061358d565b6020604051808303816000875af1158015610ae2573d6000803e3d6000fd5b505050506040513d601f19601f82011682018060405250810190610b0691906135d9565b5043601060003373ffffffffffffffffffffffffffffffffffffffff1673ffffffffffffffffffffffffffffffffffffffff16815260200190815260200160002081905550565b6000600d54905090565b610b728383836040518060200160405280600081525061137a565b505050565b6000610b816107ec565b8210610bc2576040517f08c379a0000000000000000000000000000000000000000000000000000000008152600401610bb990613678565b60405180910390fd5b60088281548110610bd657610bd5613698565b5b90600052602060002001549050919050565b600080610bf483611a6f565b9050600073ffffffffffffffffffffffffffffffffffffffff168173ffffffffffffffffffffffffffffffffffffffff1603610c65576040517f08c379a0000000000000000000000000000000000000000000000000000000008152600401610c5c90613713565b60405180910390fd5b80915050919050565b60008073ffffffffffffffffffffffffffffffffffffffff168273ffffffffffffffffffffffffffffffffffffffff1603610cde576040517f08c379a0000000000000000000000000000000000000000000000000000000008152600401610cd5906137a5565b60405180910390fd5b600360008373ffffffffffffffffffffffffffffffffffffffff1673ffffffffffffffffffffffffffffffffffffffff168152602001908152602001600020549050919050565b610d2d611aac565b610d376000611b2a565b565b6000600e54905090565b6000600a60009054906101000a900473ffffffffffffffffffffffffffffffffffffffff16905090565b606060018054610d7c906131ab565b80601f0160208091040260200160405190810160405280929190818152602001828054610da8906131ab565b8015610df55780601f10610dca57610100808354040283529160200191610df5565b820191906000526020600020905b815481529060010190602001808311610dd857829003601f168201915b5050505050905090565b610e11610e0a611620565b8383611bf0565b5050565b6000601060003373ffffffffffffffffffffffffffffffffffffffff1673ffffffffffffffffffffffffffffffffffffffff1681526020019081526020016000205403610e97576040517f08c379a0000000000000000000000000000000000000000000000000000000008152600401610e8e90613837565b60405180910390fd5b43600f54601060003373ffffffffffffffffffffffffffffffffffffffff1673ffffffffffffffffffffffffffffffffffffffff16815260200190815260200160002054610ee59190613886565b1015610f26576040517f08c379a0000000000000000000000000000000000000000000000000000000008152600401610f1d9061392c565b60405180910390fd5b6000601060003373ffffffffffffffffffffffffffffffffffffffff1673ffffffffffffffffffffffffffffffffffffffff168152602001908152602001600020544060001c9050601060003373ffffffffffffffffffffffffffffffffffffffff1673ffffffffffffffffffffffffffffffffffffffff16815260200190815260200160002060009055610fbb600b611d5c565b6000610fc7600b611d72565b9050604051806101200160405280606484610fe2919061397b565b60ff1681526020016064600785901c610ffb919061397b565b60ff1681526020016064600e85901c611014919061397b565b60ff168152602001601c601385901c61102d919061397b565b60ff168152602001601c601885901c611046919061397b565b60ff168152602001601c601d85901c61105f919061397b565b60ff168152602001601c602285901c611078919061397b565b60ff168152602001601c602785901c611091919061397b565b60ff168152602001601c602c85901c6110aa919061397b565b60ff168152506011600083815260200190815260200160002060008201518160000160006101000a81548160ff021916908360ff16021790555060208201518160000160016101000a81548160ff021916908360ff16021790555060408201518160000160026101000a81548160ff021916908360ff16021790555060608201518160000160036101000a81548160ff021916908360ff16021790555060808201518160000160046101000a81548160ff021916908360ff16021790555060a08201518160000160056101000a81548160ff021916908360ff16021790555060c08201518160000160066101000a81548160ff021916908360ff16021790555060e08201518160000160076101000a81548160ff021916908360ff1602179055506101008201518160000160086101000a81548160ff021916908360ff1602179055509050506111fa3382611d80565b5050565b600080601060003373ffffffffffffffffffffffffffffffffffffffff1673ffffffffffffffffffffffffffffffffffffffff1681526020019081526020016000205411905090565b61124f612a6c565b60116000838152602001908152602001600020604051806101200160405290816000820160009054906101000a900460ff1660ff1660ff1681526020016000820160019054906101000a900460ff1660ff1660ff1681526020016000820160029054906101000a900460ff1660ff1660ff1681526020016000820160039054906101000a900460ff1660ff1660ff1681526020016000820160049054906101000a900460ff1660ff1660ff1681526020016000820160059054906101000a900460ff1660ff1660ff1681526020016000820160069054906101000a900460ff1660ff1660ff1681526020016000820160079054906101000a900460ff1660ff1660ff1681526020016000820160089054906101000a900460ff1660ff1660ff16815250509050919050565b61138b611385611620565b836116e1565b6113ca576040517f08c379a00000000000000000000000000000000000000000000000000000000081526004016113c190613372565b60405180910390fd5b6113d684848484611d9e565b50505050565b60606113e7826115d5565b60006113f1611dfa565b90506000815111611411576040518060200160405280600081525061143c565b8061141b84611e1a565b60405160200161142c9291906139e8565b6040516020818303038152906040525b915050919050565b6000600560008473ffffffffffffffffffffffffffffffffffffffff1673ffffffffffffffffffffffffffffffffffffffff16815260200190815260200160002060008373ffffffffffffffffffffffffffffffffffffffff1673ffffffffffffffffffffffffffffffffffffffff16815260200190815260200160002060009054906101000a900460ff16905092915050565b6114e0611aac565b600073ffffffffffffffffffffffffffffffffffffffff168173ffffffffffffffffffffffffffffffffffffffff160361154f576040517f08c379a000000000000000000000000000000000000000000000000000000000815260040161154690613a7e565b60405180910390fd5b61155881611b2a565b50565b60007f780e9d63000000000000000000000000000000000000000000000000000000007bffffffffffffffffffffffffffffffffffffffffffffffffffffffff1916827bffffffffffffffffffffffffffffffffffffffffffffffffffffffff191614806115ce57506115cd82611ee8565b5b9050919050565b6115de81611fca565b61161d576040517f08c379a000000000000000000000000000000000000000000000000000000000815260040161161490613713565b60405180910390fd5b50565b600033905090565b816004600083815260200190815260200160002060006101000a81548173ffffffffffffffffffffffffffffffffffffffff021916908373ffffffffffffffffffffffffffffffffffffffff160217905550808273ffffffffffffffffffffffffffffffffffffffff1661169b83610be8565b73ffffffffffffffffffffffffffffffffffffffff167f8c5be1e5ebec7d5bd14f71427d1e84f3dd0314c0f7b2291e5b200ac8c7c3b92560405160405180910390a45050565b6000806116ed83610be8565b90508073ffffffffffffffffffffffffffffffffffffffff168473ffffffffffffffffffffffffffffffffffffffff16148061172f575061172e8185611444565b5b8061176d57508373ffffffffffffffffffffffffffffffffffffffff166117558461068f565b73ffffffffffffffffffffffffffffffffffffffff16145b91505092915050565b8273ffffffffffffffffffffffffffffffffffffffff1661179682610be8565b73ffffffffffffffffffffffffffffffffffffffff16146117ec576040517f08c379a00000000000000000000000000000000000000000000000000000000081526004016117e390613b10565b60405180910390fd5b600073ffffffffffffffffffffffffffffffffffffffff168273ffffffffffffffffffffffffffffffffffffffff160361185b576040517f08c379a000000000000000000000000000000000000000000000000000000000815260040161185290613ba2565b60405180910390fd5b611868838383600161200b565b8273ffffffffffffffffffffffffffffffffffffffff1661188882610be8565b73ffffffffffffffffffffffffffffffffffffffff16146118de576040517f08c379a00000000000000000000000000000000000000000000000000000000081526004016118d590613b10565b60405180910390fd5b6004600082815260200190815260200160002060006101000a81549073ffffffffffffffffffffffffffffffffffffffff02191690556001600360008573ffffffffffffffffffffffffffffffffffffffff1673ffffffffffffffffffffffffffffffffffffffff168152602001908152602001600020600082825403925050819055506001600360008473ffffffffffffffffffffffffffffffffffffffff1673ffffffffffffffffffffffffffffffffffffffff16815260200190815260200160002060008282540192505081905550816002600083815260200190815260200160002060006101000a81548173ffffffffffffffffffffffffffffffffffffffff021916908373ffffffffffffffffffffffffffffffffffffffff160217905550808273ffffffffffffffffffffffffffffffffffffffff168473ffffffffffffffffffffffffffffffffffffffff167fddf252ad1be2c89b69c2b068fc378daa952ba7f163c4a11628f55a4df523b3ef60405160405180910390a4611a6a838383600161201d565b505050565b60006002600083815260200190815260200160002060009054906101000a900473ffffffffffffffffffffffffffffffffffffffff169050919050565b611ab4611620565b73ffffffffffffffffffffffffffffffffffffffff16611ad2610d43565b73ffffffffffffffffffffffffffffffffffffffff1614611b28576040517f08c379a0000000000000000000000000000000000000000000000000000000008152600401611b1f90613c0e565b60405180910390fd5b565b6000600a60009054906101000a900473ffffffffffffffffffffffffffffffffffffffff16905081600a60006101000a81548173ffffffffffffffffffffffffffffffffffffffff021916908373ffffffffffffffffffffffffffffffffffffffff1602179055508173ffffffffffffffffffffffffffffffffffffffff168173ffffffffffffffffffffffffffffffffffffffff167f8be0079c531659141344cd1fd0a4f28419497f9722a3daafe3b4186f6b6457e060405160405180910390a35050565b8173ffffffffffffffffffffffffffffffffffffffff168373ffffffffffffffffffffffffffffffffffffffff1603611c5e576040517f08c379a0000000000000000000000000000000000000000000000000000000008152600401611c5590613c7a565b60405180910390fd5b80600560008573ffffffffffffffffffffffffffffffffffffffff1673ffffffffffffffffffffffffffffffffffffffff16815260200190815260200160002060008473ffffffffffffffffffffffffffffffffffffffff1673ffffffffffffffffffffffffffffffffffffffff16815260200190815260200160002060006101000a81548160ff0219169083151502179055508173ffffffffffffffffffffffffffffffffffffffff168373ffffffffffffffffffffffffffffffffffffffff167f17307eab39ab6107e8899845ad3d59bd9653f200f220920489ca2b5937696c3183604051611d4f9190612b87565b60405180910390a3505050565b6001816000016000828254019250508190555050565b600081600001549050919050565b611d9a828260405180602001604052806000815250612023565b5050565b611da9848484611776565b611db58484848461207e565b611df4576040517f08c379a0000000000000000000000000000000000000000000000000000000008152600401611deb90613d0c565b60405180910390fd5b50505050565b6060604051806060016040528060228152602001613fdd60229139905090565b606060006001611e2984612205565b01905060008167ffffffffffffffff811115611e4857611e47612f8e565b5b6040519080825280601f01601f191660200182016040528015611e7a5781602001600182028036833780820191505090505b509050600082602001820190505b600115611edd578080600190039150507f3031323334353637383961626364656600000000000000000000000000000000600a86061a8153600a8581611ed157611ed061394c565b5b04945060008503611e88575b819350505050919050565b60007f80ac58cd000000000000000000000000000000000000000000000000000000007bffffffffffffffffffffffffffffffffffffffffffffffffffffffff1916827bffffffffffffffffffffffffffffffffffffffffffffffffffffffff19161480611fb357507f5b5e139f000000000000000000000000000000000000000000000000000000007bffffffffffffffffffffffffffffffffffffffffffffffffffffffff1916827bffffffffffffffffffffffffffffffffffffffffffffffffffffffff1916145b80611fc35750611fc282612358565b5b9050919050565b60008073ffffffffffffffffffffffffffffffffffffffff16611fec83611a6f565b73ffffffffffffffffffffffffffffffffffffffff1614159050919050565b612017848484846123c2565b50505050565b50505050565b61202d8383612520565b61203a600084848461207e565b612079576040517f08c379a000000000000000000000000000000000000000000000000000000000815260040161207090613d0c565b60405180910390fd5b505050565b600061209f8473ffffffffffffffffffffffffffffffffffffffff1661273d565b156121f8578373ffffffffffffffffffffffffffffffffffffffff1663150b7a026120c8611620565b8786866040518563ffffffff1660e01b81526004016120ea9493929190613d81565b6020604051808303816000875af192505050801561212657506040513d601f19601f820116820180604052508101906121239190613de2565b60015b6121a8573d8060008114612156576040519150601f19603f3d011682016040523d82523d6000602084013e61215b565b606091505b5060008151036121a0576040517f08c379a000000000000000000000000000000000000000000000000000000000815260040161219790613d0c565b60405180910390fd5b805181602001fd5b63150b7a0260e01b7bffffffffffffffffffffffffffffffffffffffffffffffffffffffff1916817bffffffffffffffffffffffffffffffffffffffffffffffffffffffff1916149150506121fd565b600190505b949350505050565b600080600090507a184f03e93ff9f4daa797ed6e38ed64bf6a1f0100000000000000008310612263577a184f03e93ff9f4daa797ed6e38ed64bf6a1f01000000000000000083816122595761225861394c565b5b0492506040810190505b6d04ee2d6d415b85acef810000000083106122a0576d04ee2d6d415b85acef810000000083816122965761229561394c565b5b0492506020810190505b662386f26fc1000083106122cf57662386f26fc1000083816122c5576122c461394c565b5b0492506010810190505b6305f5e10083106122f8576305f5e10083816122ee576122ed61394c565b5b0492506008810190505b612710831061231d5761271083816123135761231261394c565b5b0492506004810190505b6064831061234057606483816123365761233561394c565b5b0492506002810190505b600a831061234f576001810190505b80915050919050565b60007f01ffc9a7000000000000000000000000000000000000000000000000000000007bffffffffffffffffffffffffffffffffffffffffffffffffffffffff1916827bffffffffffffffffffffffffffffffffffffffffffffffffffffffff1916149050919050565b6123ce84848484612760565b6001811115612412576040517f08c379a000000000000000000000000000000000000000000000000000000000815260040161240990613e81565b60405180910390fd5b6000829050600073ffffffffffffffffffffffffffffffffffffffff168573ffffffffffffffffffffffffffffffffffffffff16036124595761245481612766565b612498565b8373ffffffffffffffffffffffffffffffffffffffff168573ffffffffffffffffffffffffffffffffffffffff16146124975761249685826127af565b5b5b600073ffffffffffffffffffffffffffffffffffffffff168473ffffffffffffffffffffffffffffffffffffffff16036124da576124d58161291c565b612519565b8473ffffffffffffffffffffffffffffffffffffffff168473ffffffffffffffffffffffffffffffffffffffff16146125185761251784826129ed565b5b5b5050505050565b600073ffffffffffffffffffffffffffffffffffffffff168273ffffffffffffffffffffffffffffffffffffffff160361258f576040517f08c379a000000000000000000000000000000000000000000000000000000000815260040161258690613eed565b60405180910390fd5b61259881611fca565b156125d8576040517f08c379a00000000000000000000000000000000000000000000000000000000081526004016125cf90613f59565b60405180910390fd5b6125e660008383600161200b565b6125ef81611fca565b1561262f576040517f08c379a000000000000000000000000000000000000000000000000000000000815260040161262690613f59565b60405180910390fd5b6001600360008473ffffffffffffffffffffffffffffffffffffffff1673ffffffffffffffffffffffffffffffffffffffff16815260200190815260200160002060008282540192505081905550816002600083815260200190815260200160002060006101000a81548173ffffffffffffffffffffffffffffffffffffffff021916908373ffffffffffffffffffffffffffffffffffffffff160217905550808273ffffffffffffffffffffffffffffffffffffffff16600073ffffffffffffffffffffffffffffffffffffffff167fddf252ad1be2c89b69c2b068fc378daa952ba7f163c4a11628f55a4df523b3ef60405160405180910390a461273960008383600161201d565b5050565b6000808273ffffffffffffffffffffffffffffffffffffffff163b119050919050565b50505050565b6008805490506009600083815260200190815260200160002081905550600881908060018154018082558091505060019003906000526020600020016000909190919091505550565b600060016127bc84610c6e565b6127c69190613f79565b90506000600760008481526020019081526020016000205490508181146128ab576000600660008673ffffffffffffffffffffffffffffffffffffffff1673ffffffffffffffffffffffffffffffffffffffff168152602001908152602001600020600084815260200190815260200160002054905080600660008773ffffffffffffffffffffffffffffffffffffffff1673ffffffffffffffffffffffffffffffffffffffff168152602001908152602001600020600084815260200190815260200160002081905550816007600083815260200190815260200160002081905550505b6007600084815260200190815260200160002060009055600660008573ffffffffffffffffffffffffffffffffffffffff1673ffffffffffffffffffffffffffffffffffffffff16815260200190815260200160002060008381526020019081526020016000206000905550505050565b600060016008805490506129309190613f79565b90506000600960008481526020019081526020016000205490506000600883815481106129605761295f613698565b5b90600052602060002001549050806008838154811061298257612981613698565b5b9060005260206000200181905550816009600083815260200190815260200160002081905550600960008581526020019081526020016000206000905560088054806129d1576129d0613fad565b5b6001900381819060005260206000200160009055905550505050565b60006129f883610c6e565b905081600660008573ffffffffffffffffffffffffffffffffffffffff1673ffffffffffffffffffffffffffffffffffffffff168152602001908152602001600020600083815260200190815260200160002081905550806007600084815260200190815260200160002081905550505050565b604051806101200160405280600060ff168152602001600060ff168152602001600060ff168152602001600060ff168152602001600060ff168152602001600060ff168152602001600060ff168152602001600060ff168152602001600060ff1681525090565b6000604051905090565b600080fd5b600080fd5b60007fffffffff0000000000000000000000000000000000000000000000000000000082169050919050565b612b1c81612ae7565b8114612b2757600080fd5b50565b600081359050612b3981612b13565b92915050565b600060208284031215612b5557612b54612add565b5b6000612b6384828501612b2a565b91505092915050565b60008115159050919050565b612b8181612b6c565b82525050565b6000602082019050612b9c6000830184612b78565b92915050565b600081519050919050565b600082825260208201905092915050565b60005b83811015612bdc578082015181840152602081019050612bc1565b60008484015250505050565b6000601f19601f8301169050919050565b6000612c0482612ba2565b612c0e8185612bad565b9350612c1e818560208601612bbe565b612c2781612be8565b840191505092915050565b60006020820190508181036000830152612c4c8184612bf9565b905092915050565b6000819050919050565b612c6781612c54565b8114612c7257600080fd5b50565b600081359050612c8481612c5e565b92915050565b600060208284031215612ca057612c9f612add565b5b6000612cae84828501612c75565b91505092915050565b600073ffffffffffffffffffffffffffffffffffffffff82169050919050565b6000612ce282612cb7565b9050919050565b612cf281612cd7565b82525050565b6000602082019050612d0d6000830184612ce9565b92915050565b612d1c81612cd7565b8114612d2757600080fd5b50565b600081359050612d3981612d13565b92915050565b60008060408385031215612d5657612d55612add565b5b6000612d6485828601612d2a565b9250506020612d7585828601612c75565b9150509250929050565b612d8881612c54565b82525050565b6000602082019050612da36000830184612d7f565b92915050565b600080600060608486031215612dc257612dc1612add565b5b6000612dd086828701612d2a565b9350506020612de186828701612d2a565b9250506040612df286828701612c75565b9150509250925092565b600060208284031215612e1257612e11612add565b5b6000612e2084828501612d2a565b91505092915050565b612e3281612b6c565b8114612e3d57600080fd5b50565b600081359050612e4f81612e29565b92915050565b60008060408385031215612e6c57612e6b612add565b5b6000612e7a85828601612d2a565b9250506020612e8b85828601612e40565b9150509250929050565b600060ff82169050919050565b612eab81612e95565b82525050565b61012082016000820151612ec86000850182612ea2565b506020820151612edb6020850182612ea2565b506040820151612eee6040850182612ea2565b506060820151612f016060850182612ea2565b506080820151612f146080850182612ea2565b5060a0820151612f2760a0850182612ea2565b5060c0820151612f3a60c0850182612ea2565b5060e0820151612f4d60e0850182612ea2565b50610100820151612f62610100850182612ea2565b50505050565b600061012082019050612f7e6000830184612eb1565b92915050565b600080fd5b600080fd5b7f4e487b7100000000000000000000000000000000000000000000000000000000600052604160045260246000fd5b612fc682612be8565b810181811067ffffffffffffffff82111715612fe557612fe4612f8e565b5b80604052505050565b6000612ff8612ad3565b90506130048282612fbd565b919050565b600067ffffffffffffffff82111561302457613023612f8e565b5b61302d82612be8565b9050602081019050919050565b82818337600083830152505050565b600061305c61305784613009565b612fee565b90508281526020810184848401111561307857613077612f89565b5b61308384828561303a565b509392505050565b600082601f8301126130a05761309f612f84565b5b81356130b0848260208601613049565b91505092915050565b600080600080608085870312156130d3576130d2612add565b5b60006130e187828801612d2a565b94505060206130f287828801612d2a565b935050604061310387828801612c75565b925050606085013567ffffffffffffffff81111561312457613123612ae2565b5b6131308782880161308b565b91505092959194509250565b6000806040838503121561315357613152612add565b5b600061316185828601612d2a565b925050602061317285828601612d2a565b9150509250929050565b7f4e487b7100000000000000000000000000000000000000000000000000000000600052602260045260246000fd5b600060028204905060018216806131c357607f821691505b6020821081036131d6576131d561317c565b5b50919050565b7f4552433732313a20617070726f76616c20746f2063757272656e74206f776e6560008201527f7200000000000000000000000000000000000000000000000000000000000000602082015250565b6000613238602183612bad565b9150613243826131dc565b604082019050919050565b600060208201905081810360008301526132678161322b565b9050919050565b7f4552433732313a20617070726f76652063616c6c6572206973206e6f7420746f60008201527f6b656e206f776e6572206f7220617070726f76656420666f7220616c6c000000602082015250565b60006132ca603d83612bad565b91506132d58261326e565b604082019050919050565b600060208201905081810360008301526132f9816132bd565b9050919050565b7f4552433732313a2063616c6c6572206973206e6f7420746f6b656e206f776e6560008201527f72206f7220617070726f76656400000000000000000000000000000000000000602082015250565b600061335c602d83612bad565b915061336782613300565b604082019050919050565b6000602082019050818103600083015261338b8161334f565b9050919050565b7f455243373231456e756d657261626c653a206f776e657220696e646578206f7560008201527f74206f6620626f756e6473000000000000000000000000000000000000000000602082015250565b60006133ee602b83612bad565b91506133f982613392565b604082019050919050565b6000602082019050818103600083015261341d816133e1565b9050919050565b60006040820190506134396000830185612ce9565b6134466020830184612ce9565b9392505050565b60008151905061345c81612c5e565b92915050565b60006020828403121561347857613477612add565b5b60006134868482850161344d565b91505092915050565b7f436865636b204e595820616c6c6f77616e636500000000000000000000000000600082015250565b60006134c5601383612bad565b91506134d08261348f565b602082019050919050565b600060208201905081810360008301526134f4816134b8565b9050919050565b7f596f75206861766520616c72656164792061206368617261637465722072657160008201527f7565737465642100000000000000000000000000000000000000000000000000602082015250565b6000613557602783612bad565b9150613562826134fb565b604082019050919050565b600060208201905081810360008301526135868161354a565b9050919050565b60006060820190506135a26000830186612ce9565b6135af6020830185612ce9565b6135bc6040830184612d7f565b949350505050565b6000815190506135d381612e29565b92915050565b6000602082840312156135ef576135ee612add565b5b60006135fd848285016135c4565b91505092915050565b7f455243373231456e756d657261626c653a20676c6f62616c20696e646578206f60008201527f7574206f6620626f756e64730000000000000000000000000000000000000000602082015250565b6000613662602c83612bad565b915061366d82613606565b604082019050919050565b6000602082019050818103600083015261369181613655565b9050919050565b7f4e487b7100000000000000000000000000000000000000000000000000000000600052603260045260246000fd5b7f4552433732313a20696e76616c696420746f6b656e2049440000000000000000600082015250565b60006136fd601883612bad565b9150613708826136c7565b602082019050919050565b6000602082019050818103600083015261372c816136f0565b9050919050565b7f4552433732313a2061646472657373207a65726f206973206e6f74206120766160008201527f6c6964206f776e65720000000000000000000000000000000000000000000000602082015250565b600061378f602983612bad565b915061379a82613733565b604082019050919050565b600060208201905081810360008301526137be81613782565b9050919050565b7f596f75206e65656420746f20726571756573742061206368617261637465722060008201527f6669727374210000000000000000000000000000000000000000000000000000602082015250565b6000613821602683612bad565b915061382c826137c5565b604082019050919050565b6000602082019050818103600083015261385081613814565b9050919050565b7f4e487b7100000000000000000000000000000000000000000000000000000000600052601160045260246000fd5b600061389182612c54565b915061389c83612c54565b92508282019050808211156138b4576138b3613857565b5b92915050565b7f596f75206e65656420746f2077616974206120626974206265666f726520726560008201527f7665616c696e6720796f75722063686172616374657200000000000000000000602082015250565b6000613916603683612bad565b9150613921826138ba565b604082019050919050565b6000602082019050818103600083015261394581613909565b9050919050565b7f4e487b7100000000000000000000000000000000000000000000000000000000600052601260045260246000fd5b600061398682612c54565b915061399183612c54565b9250826139a1576139a061394c565b5b828206905092915050565b600081905092915050565b60006139c282612ba2565b6139cc81856139ac565b93506139dc818560208601612bbe565b80840191505092915050565b60006139f482856139b7565b9150613a0082846139b7565b91508190509392505050565b7f4f776e61626c653a206e6577206f776e657220697320746865207a65726f206160008201527f6464726573730000000000000000000000000000000000000000000000000000602082015250565b6000613a68602683612bad565b9150613a7382613a0c565b604082019050919050565b60006020820190508181036000830152613a9781613a5b565b9050919050565b7f4552433732313a207472616e736665722066726f6d20696e636f72726563742060008201527f6f776e6572000000000000000000000000000000000000000000000000000000602082015250565b6000613afa602583612bad565b9150613b0582613a9e565b604082019050919050565b60006020820190508181036000830152613b2981613aed565b9050919050565b7f4552433732313a207472616e7366657220746f20746865207a65726f2061646460008201527f7265737300000000000000000000000000000000000000000000000000000000602082015250565b6000613b8c602483612bad565b9150613b9782613b30565b604082019050919050565b60006020820190508181036000830152613bbb81613b7f565b9050919050565b7f4f776e61626c653a2063616c6c6572206973206e6f7420746865206f776e6572600082015250565b6000613bf8602083612bad565b9150613c0382613bc2565b602082019050919050565b60006020820190508181036000830152613c2781613beb565b9050919050565b7f4552433732313a20617070726f766520746f2063616c6c657200000000000000600082015250565b6000613c64601983612bad565b9150613c6f82613c2e565b602082019050919050565b60006020820190508181036000830152613c9381613c57565b9050919050565b7f4552433732313a207472616e7366657220746f206e6f6e20455243373231526560008201527f63656976657220696d706c656d656e7465720000000000000000000000000000602082015250565b6000613cf6603283612bad565b9150613d0182613c9a565b604082019050919050565b60006020820190508181036000830152613d2581613ce9565b9050919050565b600081519050919050565b600082825260208201905092915050565b6000613d5382613d2c565b613d5d8185613d37565b9350613d6d818560208601612bbe565b613d7681612be8565b840191505092915050565b6000608082019050613d966000830187612ce9565b613da36020830186612ce9565b613db06040830185612d7f565b8181036060830152613dc28184613d48565b905095945050505050565b600081519050613ddc81612b13565b92915050565b600060208284031215613df857613df7612add565b5b6000613e0684828501613dcd565b91505092915050565b7f455243373231456e756d657261626c653a20636f6e736563757469766520747260008201527f616e7366657273206e6f7420737570706f727465640000000000000000000000602082015250565b6000613e6b603583612bad565b9150613e7682613e0f565b604082019050919050565b60006020820190508181036000830152613e9a81613e5e565b9050919050565b7f4552433732313a206d696e7420746f20746865207a65726f2061646472657373600082015250565b6000613ed7602083612bad565b9150613ee282613ea1565b602082019050919050565b60006020820190508181036000830152613f0681613eca565b9050919050565b7f4552433732313a20746f6b656e20616c7265616479206d696e74656400000000600082015250565b6000613f43601c83612bad565b9150613f4e82613f0d565b602082019050919050565b60006020820190508181036000830152613f7281613f36565b9050919050565b6000613f8482612c54565b9150613f8f83612c54565b9250828203905081811115613fa757613fa6613857565b5b92915050565b7f4e487b7100000000000000000000000000000000000000000000000000000000600052603160045260246000fdfe68747470733a2f2f6e797865756d2e76657263656c2e6170702f6170692f6e66742fa2646970667358221220ab141fb779eea8c6d856cb2f377b8f19c169fa8c15148bad89bc5cd3141b05a764736f6c63430008120033",
  "linkReferences": {},
  "deployedLinkReferences": {}
}