{
  "_format": "hh-sol-artifact-1",
  "contractName": "NyxeumGameV1",
  "sourceName": "contracts/NyxeumGameV1.sol",
  "abi": [
    {
      "anonymous": false,
      "inputs": [
        {
          "indexed": false,
          "internalType": "address",
          "name": "account",
          "type": "address"
        },
        {
          "indexed": false,
          "internalType": "uint256",
          "name": "attackerId",
          "type": "uint256"
        },
        {
          "indexed": false,
          "internalType": "uint256",
          "name": "targetId",
          "type": "uint256"
        }
      ],
      "name": "BeginAttack",
      "type": "event"
    },
    {
      "anonymous": false,
      "inputs": [
        {
          "indexed": false,
          "internalType": "address",
          "name": "account",
          "type": "address"
        }
      ],
      "name": "BeginExploration",
      "type": "event"
    },
    {
      "anonymous": false,
      "inputs": [
        {
          "indexed": false,
          "internalType": "address",
          "name": "account",
          "type": "address"
        }
      ],
      "name": "BeginMint",
      "type": "event"
    },
    {
      "anonymous": false,
      "inputs": [
        {
          "indexed": false,
          "internalType": "address",
          "name": "account",
          "type": "address"
        },
        {
          "indexed": false,
          "internalType": "uint256",
          "name": "attackerId",
          "type": "uint256"
        },
        {
          "indexed": false,
          "internalType": "uint256",
          "name": "targetId",
          "type": "uint256"
        },
        {
          "indexed": false,
          "internalType": "uint256",
          "name": "nyx",
          "type": "uint256"
        },
        {
          "indexed": false,
          "internalType": "string",
          "name": "logs",
          "type": "string"
        }
      ],
      "name": "EndAttack",
      "type": "event"
    },
    {
      "anonymous": false,
      "inputs": [
        {
          "indexed": false,
          "internalType": "address",
          "name": "account",
          "type": "address"
        },
        {
          "indexed": false,
          "internalType": "uint256",
          "name": "nyx",
          "type": "uint256"
        }
      ],
      "name": "EndExploration",
      "type": "event"
    },
    {
      "anonymous": false,
      "inputs": [
        {
          "indexed": false,
          "internalType": "address",
          "name": "account",
          "type": "address"
        },
        {
          "indexed": false,
          "internalType": "uint256",
          "name": "tokenId",
          "type": "uint256"
        }
      ],
      "name": "EndMint",
      "type": "event"
    },
    {
      "anonymous": false,
      "inputs": [
        {
          "indexed": false,
          "internalType": "uint8",
          "name": "version",
          "type": "uint8"
        }
      ],
      "name": "Initialized",
      "type": "event"
    },
    {
      "anonymous": false,
      "inputs": [
        {
          "indexed": false,
          "internalType": "uint256",
          "name": "success",
          "type": "uint256"
        },
        {
          "indexed": false,
          "internalType": "uint256",
          "name": "error",
          "type": "uint256"
        }
      ],
      "name": "NyxTribute",
      "type": "event"
    },
    {
      "inputs": [
        {
          "internalType": "uint256",
          "name": "attackerId",
          "type": "uint256"
        },
        {
          "internalType": "uint256",
          "name": "targetId",
          "type": "uint256"
        }
      ],
      "name": "attackCommit",
      "outputs": [],
      "stateMutability": "payable",
      "type": "function"
    },
    {
      "inputs": [
        {
          "internalType": "uint256",
          "name": "attackerId",
          "type": "uint256"
        }
      ],
      "name": "attackReveal",
      "outputs": [],
      "stateMutability": "nonpayable",
      "type": "function"
    },
    {
      "inputs": [
        {
          "internalType": "bytes",
          "name": "",
          "type": "bytes"
        }
      ],
      "name": "checkUpkeep",
      "outputs": [
        {
          "internalType": "bool",
          "name": "upkeepNeeded",
          "type": "bool"
        },
        {
          "internalType": "bytes",
          "name": "performData",
          "type": "bytes"
        }
      ],
      "stateMutability": "view",
      "type": "function"
    },
    {
      "inputs": [
        {
          "internalType": "uint256",
          "name": "tokenId",
          "type": "uint256"
        }
      ],
      "name": "exploreCommit",
      "outputs": [],
      "stateMutability": "payable",
      "type": "function"
    },
    {
      "inputs": [
        {
          "internalType": "uint256",
          "name": "tokenId",
          "type": "uint256"
        }
      ],
      "name": "exploreReveal",
      "outputs": [],
      "stateMutability": "nonpayable",
      "type": "function"
    },
    {
      "inputs": [],
      "name": "getMintHeroCommitPrice",
      "outputs": [
        {
          "internalType": "uint256",
          "name": "",
          "type": "uint256"
        }
      ],
      "stateMutability": "view",
      "type": "function"
    },
    {
      "inputs": [],
      "name": "getMintHeroRevealPrice",
      "outputs": [
        {
          "internalType": "uint256",
          "name": "",
          "type": "uint256"
        }
      ],
      "stateMutability": "view",
      "type": "function"
    },
    {
      "inputs": [
        {
          "internalType": "address",
          "name": "nyxEssenceAddress",
          "type": "address"
        },
        {
          "internalType": "address",
          "name": "heroesOfNyxeumAddress",
          "type": "address"
        }
      ],
      "name": "initialize",
      "outputs": [],
      "stateMutability": "nonpayable",
      "type": "function"
    },
    {
      "inputs": [
        {
          "internalType": "uint256",
          "name": "attackerId",
          "type": "uint256"
        }
      ],
      "name": "isAttacking",
      "outputs": [
        {
          "internalType": "bool",
          "name": "",
          "type": "bool"
        }
      ],
      "stateMutability": "view",
      "type": "function"
    },
    {
      "inputs": [
        {
          "internalType": "uint256",
          "name": "tokenId",
          "type": "uint256"
        }
      ],
      "name": "isExploring",
      "outputs": [
        {
          "internalType": "bool",
          "name": "",
          "type": "bool"
        }
      ],
      "stateMutability": "view",
      "type": "function"
    },
    {
      "inputs": [],
      "name": "isHeroMinted",
      "outputs": [
        {
          "internalType": "bool",
          "name": "",
          "type": "bool"
        }
      ],
      "stateMutability": "view",
      "type": "function"
    },
    {
      "inputs": [],
      "name": "mintHeroCommit",
      "outputs": [],
      "stateMutability": "payable",
      "type": "function"
    },
    {
      "inputs": [],
      "name": "mintHeroReveal",
      "outputs": [],
      "stateMutability": "nonpayable",
      "type": "function"
    },
    {
      "inputs": [],
      "name": "payNyxTribute",
      "outputs": [],
      "stateMutability": "nonpayable",
      "type": "function"
    },
    {
      "inputs": [
        {
          "internalType": "bytes",
          "name": "",
          "type": "bytes"
        }
      ],
      "name": "performUpkeep",
      "outputs": [],
      "stateMutability": "nonpayable",
      "type": "function"
    },
    {
      "inputs": [],
      "name": "withdrawProfits",
      "outputs": [],
      "stateMutability": "nonpayable",
      "type": "function"
    }
  ],
  "bytecode": "0x608060405234801561001057600080fd5b506148b5806100206000396000f3fe6080604052600436106100f35760003560e01c8063b78bb5d91161008a578063cb1fca4111610059578063cb1fca41146102c6578063ce5cbc2c14610303578063d99d93bf1461031a578063ef1d0c8b14610331576100f3565b8063b78bb5d91461023a578063c1de474a14610244578063c6b717b21461026d578063c86dca5a14610289576100f3565b80636e04ff0d116100c65780636e04ff0d1461017d5780636ed69b5b146101bb578063885132e9146101e6578063ae3452eb14610211576100f3565b806339913e09146100f85780634585e33b1461010f57806346e21b3414610138578063485cc95514610154575b600080fd5b34801561010457600080fd5b5061010d61035c565b005b34801561011b57600080fd5b50610136600480360381019061013191906129d4565b6104ff565b005b610152600480360381019061014d9190612a57565b610522565b005b34801561016057600080fd5b5061017b60048036038101906101769190612ae2565b61085a565b005b34801561018957600080fd5b506101a4600480360381019061019f91906129d4565b610ad2565b6040516101b2929190612bcd565b60405180910390f35b3480156101c757600080fd5b506101d0610b04565b6040516101dd9190612c0c565b60405180910390f35b3480156101f257600080fd5b506101fb610b0e565b6040516102089190612c27565b60405180910390f35b34801561021d57600080fd5b5061023860048036038101906102339190612a57565b610b57565b005b610242611053565b005b34801561025057600080fd5b5061026b60048036038101906102669190612a57565b6112d9565b005b61028760048036038101906102829190612c42565b611649565b005b34801561029557600080fd5b506102b060048036038101906102ab9190612a57565b611ab9565b6040516102bd9190612c27565b60405180910390f35b3480156102d257600080fd5b506102ed60048036038101906102e89190612a57565b611ad8565b6040516102fa9190612c27565b60405180910390f35b34801561030f57600080fd5b50610318611afa565b005b34801561032657600080fd5b5061032f611c8c565b005b34801561033d57600080fd5b50610346611f31565b6040516103539190612c0c565b60405180910390f35b600060029054906101000a900473ffffffffffffffffffffffffffffffffffffffff1673ffffffffffffffffffffffffffffffffffffffff163373ffffffffffffffffffffffffffffffffffffffff16146103ec576040517f08c379a00000000000000000000000000000000000000000000000000000000081526004016103e390612d05565b60405180910390fd5b6000471161042f576040517f08c379a000000000000000000000000000000000000000000000000000000000815260040161042690612dbd565b60405180910390fd5b60008060029054906101000a900473ffffffffffffffffffffffffffffffffffffffff1673ffffffffffffffffffffffffffffffffffffffff164760405161047690612e0e565b60006040518083038185875af1925050503d80600081146104b3576040519150601f19603f3d011682016040523d82523d6000602084013e6104b8565b606091505b50509050806104fc576040517f08c379a00000000000000000000000000000000000000000000000000000000081526004016104f390612e95565b60405180910390fd5b50565b601054600f5461050f9190612ee4565b421061051e5761051d611afa565b5b5050565b600754600160009054906101000a900473ffffffffffffffffffffffffffffffffffffffff1673ffffffffffffffffffffffffffffffffffffffff1663dd62ed3e33306040518363ffffffff1660e01b8152600401610582929190612f27565b602060405180830381865afa15801561059f573d6000803e3d6000fd5b505050506040513d601f19601f820116820180604052508101906105c39190612f65565b1015610604576040517f08c379a00000000000000000000000000000000000000000000000000000000081526004016105fb90613004565b60405180910390fd5b3373ffffffffffffffffffffffffffffffffffffffff16600260009054906101000a900473ffffffffffffffffffffffffffffffffffffffff1673ffffffffffffffffffffffffffffffffffffffff16636352211e836040518263ffffffff1660e01b81526004016106769190612c0c565b602060405180830381865afa158015610693573d6000803e3d6000fd5b505050506040513d601f19601f820116820180604052508101906106b79190613039565b73ffffffffffffffffffffffffffffffffffffffff161461070d576040517f08c379a0000000000000000000000000000000000000000000000000000000008152600401610704906130d8565b60405180910390fd5b6000600a60008381526020019081526020016000205414610763576040517f08c379a000000000000000000000000000000000000000000000000000000000815260040161075a9061316a565b60405180910390fd5b600160009054906101000a900473ffffffffffffffffffffffffffffffffffffffff1673ffffffffffffffffffffffffffffffffffffffff166323b872dd33306007546040518463ffffffff1660e01b81526004016107c49392919061318a565b6020604051808303816000875af11580156107e3573d6000803e3d6000fd5b505050506040513d601f19601f8201168201806040525081019061080791906131ed565b5043600a6000838152602001908152602001600020819055507f2fff9fbae38097da283c7eb3b6d225ae0b0732d43a2a40399643364056d185b43360405161084f919061321a565b60405180910390a150565b60008060019054906101000a900460ff1615905080801561088b5750600160008054906101000a900460ff1660ff16105b806108b8575061089a30611f3b565b1580156108b75750600160008054906101000a900460ff1660ff16145b5b6108f7576040517f08c379a00000000000000000000000000000000000000000000000000000000081526004016108ee906132a7565b60405180910390fd5b60016000806101000a81548160ff021916908360ff1602179055508015610934576001600060016101000a81548160ff0219169083151502179055505b33600060026101000a81548173ffffffffffffffffffffffffffffffffffffffff021916908373ffffffffffffffffffffffffffffffffffffffff16021790555042600f8190555062015180601081905550670de0b6b3a764000060118190555082600160006101000a81548173ffffffffffffffffffffffffffffffffffffffff021916908373ffffffffffffffffffffffffffffffffffffffff16021790555081600260006101000a81548173ffffffffffffffffffffffffffffffffffffffff021916908373ffffffffffffffffffffffffffffffffffffffff160217905550674563918244f4000060038190555060006004819055506001600581905550670de0b6b3a764000060078190555060006008819055506001600981905550670de0b6b3a7640000600b819055506000600c819055506001600d819055508015610acd5760008060016101000a81548160ff0219169083151502179055507f7f26b83ff96e1f2b6a682f133852f6798a09c465da95921460cefb38474024986001604051610ac49190613319565b60405180910390a15b505050565b60006060601054600f54610ae69190612ee4565b42101591506040518060200160405280600081525090509250929050565b6000600454905090565b600080600660003373ffffffffffffffffffffffffffffffffffffffff1673ffffffffffffffffffffffffffffffffffffffff1681526020019081526020016000205411905090565b3373ffffffffffffffffffffffffffffffffffffffff16600260009054906101000a900473ffffffffffffffffffffffffffffffffffffffff1673ffffffffffffffffffffffffffffffffffffffff16636352211e836040518263ffffffff1660e01b8152600401610bc99190612c0c565b602060405180830381865afa158015610be6573d6000803e3d6000fd5b505050506040513d601f19601f82011682018060405250810190610c0a9190613039565b73ffffffffffffffffffffffffffffffffffffffff1614610c60576040517f08c379a0000000000000000000000000000000000000000000000000000000008152600401610c57906133a6565b60405180910390fd5b6000600e60008381526020019081526020016000206001015403610cb9576040517f08c379a0000000000000000000000000000000000000000000000000000000008152600401610cb090613438565b60405180910390fd5b600d54600e600083815260200190815260200160002060010154610cdd9190612ee4565b431015610d1f576040517f08c379a0000000000000000000000000000000000000000000000000000000008152600401610d16906134f0565b60405180910390fd5b6000600e60008381526020019081526020016000206000015490506000600260009054906101000a900473ffffffffffffffffffffffffffffffffffffffff1673ffffffffffffffffffffffffffffffffffffffff1663ad27314b846040518263ffffffff1660e01b8152600401610d979190612c0c565b61012060405180830381865afa158015610db5573d6000803e3d6000fd5b505050506040513d601f19601f82011682018060405250810190610dd9919061369c565b90506000600260009054906101000a900473ffffffffffffffffffffffffffffffffffffffff1673ffffffffffffffffffffffffffffffffffffffff1663ad27314b846040518263ffffffff1660e01b8152600401610e389190612c0c565b61012060405180830381865afa158015610e56573d6000803e3d6000fd5b505050506040513d601f19601f82011682018060405250810190610e7a919061369c565b9050600033610e8886611f5e565b610e9186611f5e565b600e60008981526020019081526020016000206001015440604051602001610ebc9493929190613784565b6040516020818303038152906040528051906020012060001c9050600e6000868152602001908152602001600020600080820160009055600182016000905550506000600382610f0c91906137f9565b90506000610f1a858361202c565b90506000610f28858461202c565b9050600082600886901c610f3c919061382a565b9050600082601087901c610f50919061382a565b90506000610f5f8a848461207f565b905060006110048c8c89878a888b89600160009054906101000a900473ffffffffffffffffffffffffffffffffffffffff1673ffffffffffffffffffffffffffffffffffffffff1663313ce5676040518163ffffffff1660e01b8152600401602060405180830381865afa158015610fdb573d6000803e3d6000fd5b505050506040513d601f19601f82011682018060405250810190610fff919061385b565b6122fa565b90507fca55264b705c673f3b77d48a609b1c55e83f7df11bbac3ae1afc63744e0b58e3338d8d858560405161103d9594939291906138c1565b60405180910390a1505050505050505050505050565b600354600160009054906101000a900473ffffffffffffffffffffffffffffffffffffffff1673ffffffffffffffffffffffffffffffffffffffff1663dd62ed3e33306040518363ffffffff1660e01b81526004016110b3929190612f27565b602060405180830381865afa1580156110d0573d6000803e3d6000fd5b505050506040513d601f19601f820116820180604052508101906110f49190612f65565b1015611135576040517f08c379a000000000000000000000000000000000000000000000000000000000815260040161112c9061398d565b60405180910390fd5b6000600660003373ffffffffffffffffffffffffffffffffffffffff1673ffffffffffffffffffffffffffffffffffffffff16815260200190815260200160002054146111b7576040517f08c379a00000000000000000000000000000000000000000000000000000000081526004016111ae90613a1f565b60405180910390fd5b600160009054906101000a900473ffffffffffffffffffffffffffffffffffffffff1673ffffffffffffffffffffffffffffffffffffffff166323b872dd33306003546040518463ffffffff1660e01b81526004016112189392919061318a565b6020604051808303816000875af1158015611237573d6000803e3d6000fd5b505050506040513d601f19601f8201168201806040525081019061125b91906131ed565b5043600660003373ffffffffffffffffffffffffffffffffffffffff1673ffffffffffffffffffffffffffffffffffffffff168152602001908152602001600020819055507fd35897783c92f3ac0c8c3d18fa7b6ca76264d08728414c6875759e7253e86850336040516112cf919061321a565b60405180910390a1565b3373ffffffffffffffffffffffffffffffffffffffff16600260009054906101000a900473ffffffffffffffffffffffffffffffffffffffff1673ffffffffffffffffffffffffffffffffffffffff16636352211e836040518263ffffffff1660e01b815260040161134b9190612c0c565b602060405180830381865afa158015611368573d6000803e3d6000fd5b505050506040513d601f19601f8201168201806040525081019061138c9190613039565b73ffffffffffffffffffffffffffffffffffffffff16146113e2576040517f08c379a00000000000000000000000000000000000000000000000000000000081526004016113d990613ab1565b60405180910390fd5b6000600a60008381526020019081526020016000205403611438576040517f08c379a000000000000000000000000000000000000000000000000000000000815260040161142f90613b43565b60405180910390fd5b600954600a6000838152602001908152602001600020546114599190612ee4565b43101561149b576040517f08c379a000000000000000000000000000000000000000000000000000000000815260040161149290613bfb565b60405180910390fd5b600033600a600084815260200190815260200160002054406040516020016114c4929190613c1b565b6040516020818303038152906040528051906020012060001c9050600a600083815260200190815260200160002060009055600067016345785d8a0000600b8361150e91906137f9565b600261151a9190613c47565b6115249190613c47565b90506000600160009054906101000a900473ffffffffffffffffffffffffffffffffffffffff1673ffffffffffffffffffffffffffffffffffffffff1663a9059cbb33846040518363ffffffff1660e01b8152600401611585929190613c89565b6020604051808303816000875af11580156115a4573d6000803e3d6000fd5b505050506040513d601f19601f820116820180604052508101906115c891906131ed565b90508061160a576040517f08c379a000000000000000000000000000000000000000000000000000000000815260040161160190613cfe565b60405180910390fd5b7f1f4c26e9d30b2cd4f2b79e41290b5db5a0d05adf3e99e97261a2f28b2ff27204338360405161163b929190613c89565b60405180910390a150505050565b600b54600160009054906101000a900473ffffffffffffffffffffffffffffffffffffffff1673ffffffffffffffffffffffffffffffffffffffff1663dd62ed3e33306040518363ffffffff1660e01b81526004016116a9929190612f27565b602060405180830381865afa1580156116c6573d6000803e3d6000fd5b505050506040513d601f19601f820116820180604052508101906116ea9190612f65565b101561172b576040517f08c379a000000000000000000000000000000000000000000000000000000000815260040161172290613d90565b60405180910390fd5b3373ffffffffffffffffffffffffffffffffffffffff16600260009054906101000a900473ffffffffffffffffffffffffffffffffffffffff1673ffffffffffffffffffffffffffffffffffffffff16636352211e846040518263ffffffff1660e01b815260040161179d9190612c0c565b602060405180830381865afa1580156117ba573d6000803e3d6000fd5b505050506040513d601f19601f820116820180604052508101906117de9190613039565b73ffffffffffffffffffffffffffffffffffffffff1614611834576040517f08c379a000000000000000000000000000000000000000000000000000000000815260040161182b90613e22565b60405180910390fd5b3373ffffffffffffffffffffffffffffffffffffffff16600260009054906101000a900473ffffffffffffffffffffffffffffffffffffffff1673ffffffffffffffffffffffffffffffffffffffff16636352211e836040518263ffffffff1660e01b81526004016118a69190612c0c565b602060405180830381865afa1580156118c3573d6000803e3d6000fd5b505050506040513d601f19601f820116820180604052508101906118e79190613039565b73ffffffffffffffffffffffffffffffffffffffff160361193d576040517f08c379a000000000000000000000000000000000000000000000000000000000815260040161193490613eb4565b60405180910390fd5b6000600e60008481526020019081526020016000206001015414611996576040517f08c379a000000000000000000000000000000000000000000000000000000000815260040161198d90613f46565b60405180910390fd5b600160009054906101000a900473ffffffffffffffffffffffffffffffffffffffff1673ffffffffffffffffffffffffffffffffffffffff166323b872dd3330600b546040518463ffffffff1660e01b81526004016119f79392919061318a565b6020604051808303816000875af1158015611a16573d6000803e3d6000fd5b505050506040513d601f19601f82011682018060405250810190611a3a91906131ed565b50604051806040016040528082815260200143815250600e600084815260200190815260200160002060008201518160000155602082015181600101559050507facb334074a0ad14881e0a65bdccb54b9da0d2f863669e5459dc8023a5aebe5ee338383604051611aad93929190613f66565b60405180910390a15050565b600080600a600084815260200190815260200160002054119050919050565b600080600e600084815260200190815260200160002060010154119050919050565b601054600f54611b0a9190612ee4565b421015611b4c576040517f08c379a0000000000000000000000000000000000000000000000000000000008152600401611b439061400f565b60405180910390fd5b6000600260009054906101000a900473ffffffffffffffffffffffffffffffffffffffff1673ffffffffffffffffffffffffffffffffffffffff166318160ddd6040518163ffffffff1660e01b8152600401602060405180830381865afa158015611bbb573d6000803e3d6000fd5b505050506040513d601f19601f82011682018060405250810190611bdf9190612f65565b90506000806000600190505b838111611c3757611bfb816124d3565b15611c1457600183611c0d9190612ee4565b9250611c24565b600182611c219190612ee4565b91505b8080611c2f9061402f565b915050611beb565b507f5fbc000f336c0c57f42eaba00c1f6dd7dec17ac4022415ddb0705dd352c58caf8282604051611c69929190614077565b60405180910390a1601054600f54611c819190612ee4565b600f81905550505050565b6000600660003373ffffffffffffffffffffffffffffffffffffffff1673ffffffffffffffffffffffffffffffffffffffff1681526020019081526020016000205403611d0e576040517f08c379a0000000000000000000000000000000000000000000000000000000008152600401611d0590614112565b60405180910390fd5b600554600660003373ffffffffffffffffffffffffffffffffffffffff1673ffffffffffffffffffffffffffffffffffffffff16815260200190815260200160002054611d5b9190612ee4565b431015611d9d576040517f08c379a0000000000000000000000000000000000000000000000000000000008152600401611d94906141ca565b60405180910390fd5b600033600660003373ffffffffffffffffffffffffffffffffffffffff1673ffffffffffffffffffffffffffffffffffffffff1681526020019081526020016000205440604051602001611df2929190613c1b565b6040516020818303038152906040528051906020012060001c9050600660003373ffffffffffffffffffffffffffffffffffffffff1673ffffffffffffffffffffffffffffffffffffffff168152602001908152602001600020600090556000600260009054906101000a900473ffffffffffffffffffffffffffffffffffffffff1673ffffffffffffffffffffffffffffffffffffffff166340c10f1933846040518363ffffffff1660e01b8152600401611eaf929190613c89565b6020604051808303816000875af1158015611ece573d6000803e3d6000fd5b505050506040513d601f19601f82011682018060405250810190611ef29190612f65565b90507f947b6fba38e610db2f2ee0e997726f5a848d91ca12a98a65e81643952d4bc3093382604051611f25929190613c89565b60405180910390a15050565b6000600354905090565b6000808273ffffffffffffffffffffffffffffffffffffffff163b119050919050565b606060006001611f6d84612781565b01905060008167ffffffffffffffff811115611f8c57611f8b613515565b5b6040519080825280601f01601f191660200182016040528015611fbe5781602001600182028036833780820191505090505b509050600082602001820190505b600115612021578080600190039150507f3031323334353637383961626364656600000000000000000000000000000000600a86061a8153600a8581612015576120146137ca565b5b04945060008503611fcc575b819350505050919050565b6000808260ff16036120445782600001519050612079565b60018260ff160361205b5782602001519050612078565b60028260ff16036120725782604001519050612077565b600090505b5b5b92915050565b60008160ff168360ff1611156120be5767016345785d8a000082846120a491906141ea565b60ff166120b19190614233565b67ffffffffffffffff1690505b6000600260009054906101000a900473ffffffffffffffffffffffffffffffffffffffff1673ffffffffffffffffffffffffffffffffffffffff16636352211e866040518263ffffffff1660e01b815260040161211b9190612c0c565b602060405180830381865afa158015612138573d6000803e3d6000fd5b505050506040513d601f19601f8201168201806040525081019061215c9190613039565b90506000600160009054906101000a900473ffffffffffffffffffffffffffffffffffffffff1673ffffffffffffffffffffffffffffffffffffffff166370a08231836040518263ffffffff1660e01b81526004016121bb919061321a565b602060405180830381865afa1580156121d8573d6000803e3d6000fd5b505050506040513d601f19601f820116820180604052508101906121fc9190612f65565b90508281101561220a578092505b6000600160009054906101000a900473ffffffffffffffffffffffffffffffffffffffff1673ffffffffffffffffffffffffffffffffffffffff166323b872dd8433876040518463ffffffff1660e01b815260040161226b9392919061318a565b6020604051808303816000875af115801561228a573d6000803e3d6000fd5b505050506040513d601f19601f820116820180604052508101906122ae91906131ed565b9050806122f0576040517f08c379a00000000000000000000000000000000000000000000000000000000081526004016122e7906142bc565b60405180910390fd5b5050509392505050565b60608060008960ff1603612345576040518060400160405280601481526020017f426174746c6520747970653a20535452202f2f2000000000000000000000000081525090506123d3565b60018960ff160361238d576040518060400160405280601481526020017f426174746c6520747970653a20444558202f2f2000000000000000000000000081525090506123d2565b60028960ff16036123d1576040518060400160405280601481526020017f426174746c6520747970653a20494e54202f2f2000000000000000000000000081525090505b5b5b60006123de8c611f5e565b6123ea8a60ff16611f5e565b6123f68a60ff16611f5e565b6040516020016124089392919061440c565b604051602081830303815290604052905060006124248c611f5e565b6124308960ff16611f5e565b61243c8960ff16611f5e565b60405160200161244e93929190614501565b6040516020818303038152906040529050600061247960028888600a6124749190614691565b6128d4565b6040516020016124899190614728565b6040516020818303038152906040529050838383836040516020016124b1949392919061474a565b6040516020818303038152906040529450505050509998505050505050505050565b600080600260009054906101000a900473ffffffffffffffffffffffffffffffffffffffff1673ffffffffffffffffffffffffffffffffffffffff16636352211e846040518263ffffffff1660e01b81526004016125319190612c0c565b602060405180830381865afa15801561254e573d6000803e3d6000fd5b505050506040513d601f19601f820116820180604052508101906125729190613039565b9050601154600160009054906101000a900473ffffffffffffffffffffffffffffffffffffffff1673ffffffffffffffffffffffffffffffffffffffff1663dd62ed3e83306040518363ffffffff1660e01b81526004016125d4929190612f27565b602060405180830381865afa1580156125f1573d6000803e3d6000fd5b505050506040513d601f19601f820116820180604052508101906126159190612f65565b101561262557600091505061277c565b601154600160009054906101000a900473ffffffffffffffffffffffffffffffffffffffff1673ffffffffffffffffffffffffffffffffffffffff166370a08231836040518263ffffffff1660e01b8152600401612683919061321a565b602060405180830381865afa1580156126a0573d6000803e3d6000fd5b505050506040513d601f19601f820116820180604052508101906126c49190612f65565b10156126d457600091505061277c565b600160009054906101000a900473ffffffffffffffffffffffffffffffffffffffff1673ffffffffffffffffffffffffffffffffffffffff166323b872dd82306011546040518463ffffffff1660e01b81526004016127359392919061318a565b6020604051808303816000875af1158015612754573d6000803e3d6000fd5b505050506040513d601f19601f8201168201806040525081019061277891906131ed565b9150505b919050565b600080600090507a184f03e93ff9f4daa797ed6e38ed64bf6a1f01000000000000000083106127df577a184f03e93ff9f4daa797ed6e38ed64bf6a1f01000000000000000083816127d5576127d46137ca565b5b0492506040810190505b6d04ee2d6d415b85acef8100000000831061281c576d04ee2d6d415b85acef81000000008381612812576128116137ca565b5b0492506020810190505b662386f26fc10000831061284b57662386f26fc100008381612841576128406137ca565b5b0492506010810190505b6305f5e1008310612874576305f5e100838161286a576128696137ca565b5b0492506008810190505b612710831061289957612710838161288f5761288e6137ca565b5b0492506004810190505b606483106128bc57606483816128b2576128b16137ca565b5b0492506002810190505b600a83106128cb576001810190505b80915050919050565b6060600084600a6128e59190614788565b9050600083856128f591906147d3565b90506000828584886129079190613c47565b61291191906147d3565b61291b91906137f9565b905061292682611f5e565b61292f82611f5e565b604051602001612940929190614850565b60405160208183030381529060405293505050509392505050565b6000604051905090565b600080fd5b600080fd5b600080fd5b600080fd5b600080fd5b60008083601f8401126129945761299361296f565b5b8235905067ffffffffffffffff8111156129b1576129b0612974565b5b6020830191508360018202830111156129cd576129cc612979565b5b9250929050565b600080602083850312156129eb576129ea612965565b5b600083013567ffffffffffffffff811115612a0957612a0861296a565b5b612a158582860161297e565b92509250509250929050565b6000819050919050565b612a3481612a21565b8114612a3f57600080fd5b50565b600081359050612a5181612a2b565b92915050565b600060208284031215612a6d57612a6c612965565b5b6000612a7b84828501612a42565b91505092915050565b600073ffffffffffffffffffffffffffffffffffffffff82169050919050565b6000612aaf82612a84565b9050919050565b612abf81612aa4565b8114612aca57600080fd5b50565b600081359050612adc81612ab6565b92915050565b60008060408385031215612af957612af8612965565b5b6000612b0785828601612acd565b9250506020612b1885828601612acd565b9150509250929050565b60008115159050919050565b612b3781612b22565b82525050565b600081519050919050565b600082825260208201905092915050565b60005b83811015612b77578082015181840152602081019050612b5c565b60008484015250505050565b6000601f19601f8301169050919050565b6000612b9f82612b3d565b612ba98185612b48565b9350612bb9818560208601612b59565b612bc281612b83565b840191505092915050565b6000604082019050612be26000830185612b2e565b8181036020830152612bf48184612b94565b90509392505050565b612c0681612a21565b82525050565b6000602082019050612c216000830184612bfd565b92915050565b6000602082019050612c3c6000830184612b2e565b92915050565b60008060408385031215612c5957612c58612965565b5b6000612c6785828601612a42565b9250506020612c7885828601612a42565b9150509250929050565b600082825260208201905092915050565b7f6f6e6c794f776e65722e20596f7520617265206e6f7420746865206f776e657260008201527f206f66207468697320636f6e7472616374210000000000000000000000000000602082015250565b6000612cef603283612c82565b9150612cfa82612c93565b604082019050919050565b60006020820190508181036000830152612d1e81612ce2565b9050919050565b7f776974686472617750726f666974732e2050726f66697473206d75737420626560008201527f2067726561746572207468616e203020696e206f7264657220746f207769746860208201527f6472617721000000000000000000000000000000000000000000000000000000604082015250565b6000612da7604583612c82565b9150612db282612d25565b606082019050919050565b60006020820190508181036000830152612dd681612d9a565b9050919050565b600081905092915050565b50565b6000612df8600083612ddd565b9150612e0382612de8565b600082019050919050565b6000612e1982612deb565b9150819050919050565b7f776974686472617750726f666974732e204661696c656420746f2073656e642060008201527f6574686572000000000000000000000000000000000000000000000000000000602082015250565b6000612e7f602583612c82565b9150612e8a82612e23565b604082019050919050565b60006020820190508181036000830152612eae81612e72565b9050919050565b7f4e487b7100000000000000000000000000000000000000000000000000000000600052601160045260246000fd5b6000612eef82612a21565b9150612efa83612a21565b9250828201905080821115612f1257612f11612eb5565b5b92915050565b612f2181612aa4565b82525050565b6000604082019050612f3c6000830185612f18565b612f496020830184612f18565b9392505050565b600081519050612f5f81612a2b565b92915050565b600060208284031215612f7b57612f7a612965565b5b6000612f8984828501612f50565b91505092915050565b7f6578706c6f7265436f6d6d69742e20436865636b204e595820616c6c6f77616e60008201527f6365000000000000000000000000000000000000000000000000000000000000602082015250565b6000612fee602283612c82565b9150612ff982612f92565b604082019050919050565b6000602082019050818103600083015261301d81612fe1565b9050919050565b60008151905061303381612ab6565b92915050565b60006020828403121561304f5761304e612965565b5b600061305d84828501613024565b91505092915050565b7f6578706c6f7265436f6d6d69742e20596f7520617265206e6f7420746865206f60008201527f776e6572206f66207468697320746f6b656e0000000000000000000000000000602082015250565b60006130c2603283612c82565b91506130cd82613066565b604082019050919050565b600060208201905081810360008301526130f1816130b5565b9050919050565b7f6578706c6f7265436f6d6d69742e2054686973206865726f20697320616c726560008201527f616479206578706c6f72696e6721000000000000000000000000000000000000602082015250565b6000613154602e83612c82565b915061315f826130f8565b604082019050919050565b6000602082019050818103600083015261318381613147565b9050919050565b600060608201905061319f6000830186612f18565b6131ac6020830185612f18565b6131b96040830184612bfd565b949350505050565b6131ca81612b22565b81146131d557600080fd5b50565b6000815190506131e7816131c1565b92915050565b60006020828403121561320357613202612965565b5b6000613211848285016131d8565b91505092915050565b600060208201905061322f6000830184612f18565b92915050565b7f496e697469616c697a61626c653a20636f6e747261637420697320616c72656160008201527f647920696e697469616c697a6564000000000000000000000000000000000000602082015250565b6000613291602e83612c82565b915061329c82613235565b604082019050919050565b600060208201905081810360008301526132c081613284565b9050919050565b6000819050919050565b600060ff82169050919050565b6000819050919050565b60006133036132fe6132f9846132c7565b6132de565b6132d1565b9050919050565b613313816132e8565b82525050565b600060208201905061332e600083018461330a565b92915050565b7f61747461636b52657665616c2e20596f7520617265206e6f7420746865206f7760008201527f6e6572206f66207468697320746f6b656e000000000000000000000000000000602082015250565b6000613390603183612c82565b915061339b82613334565b604082019050919050565b600060208201905081810360008301526133bf81613383565b9050919050565b7f61747461636b52657665616c2e2054686973206865726f206973206e6f74206160008201527f747461636b696e67210000000000000000000000000000000000000000000000602082015250565b6000613422602983612c82565b915061342d826133c6565b604082019050919050565b6000602082019050818103600083015261345181613415565b9050919050565b7f61747461636b52657665616c2e20596f75206e65656420746f2077616974206160008201527f2062697420746f2072657665616c20796f75722061747461636b20726573756c60208201527f7473210000000000000000000000000000000000000000000000000000000000604082015250565b60006134da604383612c82565b91506134e582613458565b606082019050919050565b60006020820190508181036000830152613509816134cd565b9050919050565b600080fd5b7f4e487b7100000000000000000000000000000000000000000000000000000000600052604160045260246000fd5b61354d82612b83565b810181811067ffffffffffffffff8211171561356c5761356b613515565b5b80604052505050565b600061357f61295b565b905061358b8282613544565b919050565b613599816132d1565b81146135a457600080fd5b50565b6000815190506135b681613590565b92915050565b600061012082840312156135d3576135d2613510565b5b6135de610120613575565b905060006135ee848285016135a7565b6000830152506020613602848285016135a7565b6020830152506040613616848285016135a7565b604083015250606061362a848285016135a7565b606083015250608061363e848285016135a7565b60808301525060a0613652848285016135a7565b60a08301525060c0613666848285016135a7565b60c08301525060e061367a848285016135a7565b60e08301525061010061368f848285016135a7565b6101008301525092915050565b600061012082840312156136b3576136b2612965565b5b60006136c1848285016135bc565b91505092915050565b60008160601b9050919050565b60006136e2826136ca565b9050919050565b60006136f4826136d7565b9050919050565b61370c61370782612aa4565b6136e9565b82525050565b600081519050919050565b600081905092915050565b600061373382613712565b61373d818561371d565b935061374d818560208601612b59565b80840191505092915050565b6000819050919050565b6000819050919050565b61377e61377982613759565b613763565b82525050565b600061379082876136fb565b6014820191506137a08286613728565b91506137ac8285613728565b91506137b8828461376d565b60208201915081905095945050505050565b7f4e487b7100000000000000000000000000000000000000000000000000000000600052601260045260246000fd5b600061380482612a21565b915061380f83612a21565b92508261381f5761381e6137ca565b5b828206905092915050565b6000613835826132d1565b9150613840836132d1565b9250826138505761384f6137ca565b5b828206905092915050565b60006020828403121561387157613870612965565b5b600061387f848285016135a7565b91505092915050565b600061389382613712565b61389d8185612c82565b93506138ad818560208601612b59565b6138b681612b83565b840191505092915050565b600060a0820190506138d66000830188612f18565b6138e36020830187612bfd565b6138f06040830186612bfd565b6138fd6060830185612bfd565b818103608083015261390f8184613888565b90509695505050505050565b7f6d696e744865726f436f6d6d69742e20436865636b204e595820616c6c6f776160008201527f6e63650000000000000000000000000000000000000000000000000000000000602082015250565b6000613977602383612c82565b91506139828261391b565b604082019050919050565b600060208201905081810360008301526139a68161396a565b9050919050565b7f6d696e744865726f436f6d6d69742e20596f75206861766520616c726561647960008201527f2061206368617261637465722072657175657374656421000000000000000000602082015250565b6000613a09603783612c82565b9150613a14826139ad565b604082019050919050565b60006020820190508181036000830152613a38816139fc565b9050919050565b7f6578706c6f726552657665616c2e20596f7520617265206e6f7420746865206f60008201527f776e6572206f66207468697320746f6b656e0000000000000000000000000000602082015250565b6000613a9b603283612c82565b9150613aa682613a3f565b604082019050919050565b60006020820190508181036000830152613aca81613a8e565b9050919050565b7f6578706c6f726552657665616c2e2054686973206865726f206973206e6f742060008201527f6578706c6f72696e672100000000000000000000000000000000000000000000602082015250565b6000613b2d602a83612c82565b9150613b3882613ad1565b604082019050919050565b60006020820190508181036000830152613b5c81613b20565b9050919050565b7f6578706c6f726552657665616c2e20596f75206e65656420746f20776169742060008201527f6120626974206265666f72652072657475726e696e672066726f6d206578706c60208201527f6f72696e67000000000000000000000000000000000000000000000000000000604082015250565b6000613be5604583612c82565b9150613bf082613b63565b606082019050919050565b60006020820190508181036000830152613c1481613bd8565b9050919050565b6000613c2782856136fb565b601482019150613c37828461376d565b6020820191508190509392505050565b6000613c5282612a21565b9150613c5d83612a21565b9250828202613c6b81612a21565b91508282048414831517613c8257613c81612eb5565b5b5092915050565b6000604082019050613c9e6000830185612f18565b613cab6020830184612bfd565b9392505050565b7f6578706c6f726552657665616c2e204e6f7420656e6f756768204e5958210000600082015250565b6000613ce8601e83612c82565b9150613cf382613cb2565b602082019050919050565b60006020820190508181036000830152613d1781613cdb565b9050919050565b7f61747461636b436f6d6d69742e20436865636b204e595820616c6c6f77616e6360008201527f6500000000000000000000000000000000000000000000000000000000000000602082015250565b6000613d7a602183612c82565b9150613d8582613d1e565b604082019050919050565b60006020820190508181036000830152613da981613d6d565b9050919050565b7f61747461636b436f6d6d69742e20596f7520617265206e6f7420746865206f7760008201527f6e6572206f66207468652061747461636b657220746f6b656e00000000000000602082015250565b6000613e0c603983612c82565b9150613e1782613db0565b604082019050919050565b60006020820190508181036000830152613e3b81613dff565b9050919050565b7f61747461636b436f6d6d69742e20596f752061726520746865206f776e65722060008201527f6f66207468652074617267657421000000000000000000000000000000000000602082015250565b6000613e9e602e83612c82565b9150613ea982613e42565b604082019050919050565b60006020820190508181036000830152613ecd81613e91565b9050919050565b7f61747461636b436f6d6d69742e2054686973206865726f20697320616c72656160008201527f64792061747461636b696e672100000000000000000000000000000000000000602082015250565b6000613f30602d83612c82565b9150613f3b82613ed4565b604082019050919050565b60006020820190508181036000830152613f5f81613f23565b9050919050565b6000606082019050613f7b6000830186612f18565b613f886020830185612bfd565b613f956040830184612bfd565b949350505050565b7f7061794e7978547269627574652e204974206973206e6f74207468652074696d60008201527f65207965742e0000000000000000000000000000000000000000000000000000602082015250565b6000613ff9602683612c82565b915061400482613f9d565b604082019050919050565b6000602082019050818103600083015261402881613fec565b9050919050565b600061403a82612a21565b91507fffffffffffffffffffffffffffffffffffffffffffffffffffffffffffffffff820361406c5761406b612eb5565b5b600182019050919050565b600060408201905061408c6000830185612bfd565b6140996020830184612bfd565b9392505050565b7f6d696e744865726f52657665616c2e20596f75206e65656420746f207265717560008201527f6573742061206368617261637465722066697273742100000000000000000000602082015250565b60006140fc603683612c82565b9150614107826140a0565b604082019050919050565b6000602082019050818103600083015261412b816140ef565b9050919050565b7f6d696e744865726f52657665616c2e20596f75206e65656420746f207761697460008201527f206120626974206265666f72652072657665616c696e6720796f75722063686160208201527f7261637465720000000000000000000000000000000000000000000000000000604082015250565b60006141b4604683612c82565b91506141bf82614132565b606082019050919050565b600060208201905081810360008301526141e3816141a7565b9050919050565b60006141f5826132d1565b9150614200836132d1565b9250828203905060ff81111561421957614218612eb5565b5b92915050565b600067ffffffffffffffff82169050919050565b600061423e8261421f565b91506142498361421f565b92508282026142578161421f565b915080821461426957614268612eb5565b5b5092915050565b7f61747461636b52657665616c2e204e6f7420656e6f756768204e595821000000600082015250565b60006142a6601d83612c82565b91506142b182614270565b602082019050919050565b600060208201905081810360008301526142d581614299565b9050919050565b7f41747461636b65723a204865726f204f66204e797865756d2023000000000000600082015250565b6000614312601a8361371d565b915061431d826142dc565b601a82019050919050565b7f202f2f2041747461636b657220526f6c6c3a2000000000000000000000000000600082015250565b600061435e60138361371d565b915061436982614328565b601382019050919050565b7f206f662000000000000000000000000000000000000000000000000000000000600082015250565b60006143aa60048361371d565b91506143b582614374565b600482019050919050565b7f202f2f2000000000000000000000000000000000000000000000000000000000600082015250565b60006143f660048361371d565b9150614401826143c0565b600482019050919050565b600061441782614305565b91506144238286613728565b915061442e82614351565b915061443a8285613728565b91506144458261439d565b91506144518284613728565b915061445c826143e9565b9150819050949350505050565b7f5461726765743a204865726f204f66204e797865756d20230000000000000000600082015250565b600061449f60188361371d565b91506144aa82614469565b601882019050919050565b7f202f2f2054617267657420526f6c6c3a20000000000000000000000000000000600082015250565b60006144eb60118361371d565b91506144f6826144b5565b601182019050919050565b600061450c82614492565b91506145188286613728565b9150614523826144de565b915061452f8285613728565b915061453a8261439d565b91506145468284613728565b9150614551826143e9565b9150819050949350505050565b60008160011c9050919050565b6000808291508390505b60018511156145b55780860481111561459157614590612eb5565b5b60018516156145a05780820291505b80810290506145ae8561455e565b9450614575565b94509492505050565b6000826145ce576001905061468a565b816145dc576000905061468a565b81600181146145f257600281146145fc5761462b565b600191505061468a565b60ff84111561460e5761460d612eb5565b5b8360020a91508482111561462557614624612eb5565b5b5061468a565b5060208310610133831016604e8410600b84101617156146605782820a90508381111561465b5761465a612eb5565b5b61468a565b61466d848484600161456b565b9250905081840481111561468457614683612eb5565b5b81810290505b9392505050565b600061469c82612a21565b91506146a7836132d1565b92506146d47fffffffffffffffffffffffffffffffffffffffffffffffffffffffffffffffff84846145be565b905092915050565b7f53746f6c656e204e59583a200000000000000000000000000000000000000000600082015250565b6000614712600c8361371d565b915061471d826146dc565b600c82019050919050565b600061473382614705565b915061473f8284613728565b915081905092915050565b60006147568287613728565b91506147628286613728565b915061476e8285613728565b915061477a8284613728565b915081905095945050505050565b600061479382612a21565b915061479e83612a21565b92506147cb7fffffffffffffffffffffffffffffffffffffffffffffffffffffffffffffffff84846145be565b905092915050565b60006147de82612a21565b91506147e983612a21565b9250826147f9576147f86137ca565b5b828204905092915050565b7f2e00000000000000000000000000000000000000000000000000000000000000600082015250565b600061483a60018361371d565b915061484582614804565b600182019050919050565b600061485c8285613728565b91506148678261482d565b91506148738284613728565b9150819050939250505056fea264697066735822122017753a004cded5f6b2e2e9dcba81d415b19bf476f546f310cd9c37a476d6541664736f6c63430008120033",
  "linkReferences": {},
  "deployedLinkReferences": {}
}