{
  "_format": "hh-sol-artifact-1",
  "contractName": "NyxeumGameV1",
  "sourceName": "contracts/NyxeumGameV1.sol",
  "abi": [
    {
      "anonymous": false,
      "inputs": [
        {
          "indexed": false,
          "internalType": "address",
          "name": "account",
          "type": "address"
        },
        {
          "indexed": false,
          "internalType": "uint256",
          "name": "attackerId",
          "type": "uint256"
        },
        {
          "indexed": false,
          "internalType": "uint256",
          "name": "targetId",
          "type": "uint256"
        }
      ],
      "name": "BeginAttack",
      "type": "event"
    },
    {
      "anonymous": false,
      "inputs": [
        {
          "indexed": false,
          "internalType": "address",
          "name": "account",
          "type": "address"
        }
      ],
      "name": "BeginExploration",
      "type": "event"
    },
    {
      "anonymous": false,
      "inputs": [
        {
          "indexed": false,
          "internalType": "address",
          "name": "account",
          "type": "address"
        }
      ],
      "name": "BeginMint",
      "type": "event"
    },
    {
      "anonymous": false,
      "inputs": [
        {
          "indexed": false,
          "internalType": "address",
          "name": "account",
          "type": "address"
        },
        {
          "indexed": false,
          "internalType": "uint256",
          "name": "attackerId",
          "type": "uint256"
        },
        {
          "indexed": false,
          "internalType": "uint256",
          "name": "targetId",
          "type": "uint256"
        },
        {
          "indexed": false,
          "internalType": "uint256",
          "name": "nyx",
          "type": "uint256"
        },
        {
          "indexed": false,
          "internalType": "string",
          "name": "logs",
          "type": "string"
        }
      ],
      "name": "EndAttack",
      "type": "event"
    },
    {
      "anonymous": false,
      "inputs": [
        {
          "indexed": false,
          "internalType": "address",
          "name": "account",
          "type": "address"
        },
        {
          "indexed": false,
          "internalType": "uint256",
          "name": "nyx",
          "type": "uint256"
        }
      ],
      "name": "EndExploration",
      "type": "event"
    },
    {
      "anonymous": false,
      "inputs": [
        {
          "indexed": false,
          "internalType": "address",
          "name": "account",
          "type": "address"
        },
        {
          "indexed": false,
          "internalType": "uint256",
          "name": "tokenId",
          "type": "uint256"
        }
      ],
      "name": "EndMint",
      "type": "event"
    },
    {
      "anonymous": false,
      "inputs": [
        {
          "indexed": false,
          "internalType": "uint8",
          "name": "version",
          "type": "uint8"
        }
      ],
      "name": "Initialized",
      "type": "event"
    },
    {
      "inputs": [
        {
          "internalType": "uint256",
          "name": "attackerId",
          "type": "uint256"
        },
        {
          "internalType": "uint256",
          "name": "targetId",
          "type": "uint256"
        }
      ],
      "name": "attackCommit",
      "outputs": [],
      "stateMutability": "payable",
      "type": "function"
    },
    {
      "inputs": [
        {
          "internalType": "uint256",
          "name": "attackerId",
          "type": "uint256"
        }
      ],
      "name": "attackReveal",
      "outputs": [],
      "stateMutability": "nonpayable",
      "type": "function"
    },
    {
      "inputs": [
        {
          "internalType": "uint256",
          "name": "tokenId",
          "type": "uint256"
        }
      ],
      "name": "exploreCommit",
      "outputs": [],
      "stateMutability": "payable",
      "type": "function"
    },
    {
      "inputs": [
        {
          "internalType": "uint256",
          "name": "tokenId",
          "type": "uint256"
        }
      ],
      "name": "exploreReveal",
      "outputs": [],
      "stateMutability": "nonpayable",
      "type": "function"
    },
    {
      "inputs": [],
      "name": "getMintHeroCommitPrice",
      "outputs": [
        {
          "internalType": "uint256",
          "name": "",
          "type": "uint256"
        }
      ],
      "stateMutability": "view",
      "type": "function"
    },
    {
      "inputs": [],
      "name": "getMintHeroRevealPrice",
      "outputs": [
        {
          "internalType": "uint256",
          "name": "",
          "type": "uint256"
        }
      ],
      "stateMutability": "view",
      "type": "function"
    },
    {
      "inputs": [
        {
          "internalType": "address",
          "name": "nyxEssenceAddress",
          "type": "address"
        },
        {
          "internalType": "address",
          "name": "heroesOfNyxeumAddress",
          "type": "address"
        }
      ],
      "name": "initialize",
      "outputs": [],
      "stateMutability": "nonpayable",
      "type": "function"
    },
    {
      "inputs": [
        {
          "internalType": "uint256",
          "name": "attackerId",
          "type": "uint256"
        }
      ],
      "name": "isAttacking",
      "outputs": [
        {
          "internalType": "bool",
          "name": "",
          "type": "bool"
        }
      ],
      "stateMutability": "view",
      "type": "function"
    },
    {
      "inputs": [
        {
          "internalType": "uint256",
          "name": "tokenId",
          "type": "uint256"
        }
      ],
      "name": "isExploring",
      "outputs": [
        {
          "internalType": "bool",
          "name": "",
          "type": "bool"
        }
      ],
      "stateMutability": "view",
      "type": "function"
    },
    {
      "inputs": [],
      "name": "isHeroMinted",
      "outputs": [
        {
          "internalType": "bool",
          "name": "",
          "type": "bool"
        }
      ],
      "stateMutability": "view",
      "type": "function"
    },
    {
      "inputs": [],
      "name": "mintHeroCommit",
      "outputs": [],
      "stateMutability": "payable",
      "type": "function"
    },
    {
      "inputs": [],
      "name": "mintHeroReveal",
      "outputs": [],
      "stateMutability": "nonpayable",
      "type": "function"
    },
    {
      "inputs": [],
      "name": "withdrawProfits",
      "outputs": [],
      "stateMutability": "nonpayable",
      "type": "function"
    }
  ],
  "bytecode": "0x608060405234801561001057600080fd5b50614112806100206000396000f3fe6080604052600436106100c25760003560e01c8063b78bb5d91161007f578063c86dca5a11610059578063c86dca5a146101f1578063cb1fca411461022e578063d99d93bf1461026b578063ef1d0c8b14610282576100c2565b8063b78bb5d9146101a2578063c1de474a146101ac578063c6b717b2146101d5576100c2565b806339913e09146100c757806346e21b34146100de578063485cc955146100fa5780636ed69b5b14610123578063885132e91461014e578063ae3452eb14610179575b600080fd5b3480156100d357600080fd5b506100dc6102ad565b005b6100f860048036038101906100f3919061243c565b610450565b005b34801561010657600080fd5b50610121600480360381019061011c91906124c7565b610788565b005b34801561012f57600080fd5b506101386109e0565b6040516101459190612516565b60405180910390f35b34801561015a57600080fd5b506101636109ea565b604051610170919061254c565b60405180910390f35b34801561018557600080fd5b506101a0600480360381019061019b919061243c565b610a33565b005b6101aa610f2f565b005b3480156101b857600080fd5b506101d360048036038101906101ce919061243c565b6111b5565b005b6101ef60048036038101906101ea9190612567565b611525565b005b3480156101fd57600080fd5b506102186004803603810190610213919061243c565b611995565b604051610225919061254c565b60405180910390f35b34801561023a57600080fd5b506102556004803603810190610250919061243c565b6119b4565b604051610262919061254c565b60405180910390f35b34801561027757600080fd5b506102806119d6565b005b34801561028e57600080fd5b50610297611c7b565b6040516102a49190612516565b60405180910390f35b600060029054906101000a900473ffffffffffffffffffffffffffffffffffffffff1673ffffffffffffffffffffffffffffffffffffffff163373ffffffffffffffffffffffffffffffffffffffff161461033d576040517f08c379a00000000000000000000000000000000000000000000000000000000081526004016103349061262a565b60405180910390fd5b60004711610380576040517f08c379a0000000000000000000000000000000000000000000000000000000008152600401610377906126e2565b60405180910390fd5b60008060029054906101000a900473ffffffffffffffffffffffffffffffffffffffff1673ffffffffffffffffffffffffffffffffffffffff16476040516103c790612733565b60006040518083038185875af1925050503d8060008114610404576040519150601f19603f3d011682016040523d82523d6000602084013e610409565b606091505b505090508061044d576040517f08c379a0000000000000000000000000000000000000000000000000000000008152600401610444906127ba565b60405180910390fd5b50565b600754600160009054906101000a900473ffffffffffffffffffffffffffffffffffffffff1673ffffffffffffffffffffffffffffffffffffffff1663dd62ed3e33306040518363ffffffff1660e01b81526004016104b09291906127e9565b602060405180830381865afa1580156104cd573d6000803e3d6000fd5b505050506040513d601f19601f820116820180604052508101906104f19190612827565b1015610532576040517f08c379a0000000000000000000000000000000000000000000000000000000008152600401610529906128c6565b60405180910390fd5b3373ffffffffffffffffffffffffffffffffffffffff16600260009054906101000a900473ffffffffffffffffffffffffffffffffffffffff1673ffffffffffffffffffffffffffffffffffffffff16636352211e836040518263ffffffff1660e01b81526004016105a49190612516565b602060405180830381865afa1580156105c1573d6000803e3d6000fd5b505050506040513d601f19601f820116820180604052508101906105e591906128fb565b73ffffffffffffffffffffffffffffffffffffffff161461063b576040517f08c379a00000000000000000000000000000000000000000000000000000000081526004016106329061299a565b60405180910390fd5b6000600a60008381526020019081526020016000205414610691576040517f08c379a000000000000000000000000000000000000000000000000000000000815260040161068890612a2c565b60405180910390fd5b600160009054906101000a900473ffffffffffffffffffffffffffffffffffffffff1673ffffffffffffffffffffffffffffffffffffffff166323b872dd33306007546040518463ffffffff1660e01b81526004016106f293929190612a4c565b6020604051808303816000875af1158015610711573d6000803e3d6000fd5b505050506040513d601f19601f820116820180604052508101906107359190612aaf565b5043600a6000838152602001908152602001600020819055507f2fff9fbae38097da283c7eb3b6d225ae0b0732d43a2a40399643364056d185b43360405161077d9190612adc565b60405180910390a150565b60008060019054906101000a900460ff161590508080156107b95750600160008054906101000a900460ff1660ff16105b806107e657506107c830611c85565b1580156107e55750600160008054906101000a900460ff1660ff16145b5b610825576040517f08c379a000000000000000000000000000000000000000000000000000000000815260040161081c90612b69565b60405180910390fd5b60016000806101000a81548160ff021916908360ff1602179055508015610862576001600060016101000a81548160ff0219169083151502179055505b33600060026101000a81548173ffffffffffffffffffffffffffffffffffffffff021916908373ffffffffffffffffffffffffffffffffffffffff16021790555082600160006101000a81548173ffffffffffffffffffffffffffffffffffffffff021916908373ffffffffffffffffffffffffffffffffffffffff16021790555081600260006101000a81548173ffffffffffffffffffffffffffffffffffffffff021916908373ffffffffffffffffffffffffffffffffffffffff160217905550674563918244f4000060038190555060006004819055506001600581905550670de0b6b3a764000060078190555060006008819055506001600981905550670de0b6b3a7640000600b819055506000600c819055506001600d8190555080156109db5760008060016101000a81548160ff0219169083151502179055507f7f26b83ff96e1f2b6a682f133852f6798a09c465da95921460cefb384740249860016040516109d29190612bdb565b60405180910390a15b505050565b6000600454905090565b600080600660003373ffffffffffffffffffffffffffffffffffffffff1673ffffffffffffffffffffffffffffffffffffffff1681526020019081526020016000205411905090565b3373ffffffffffffffffffffffffffffffffffffffff16600260009054906101000a900473ffffffffffffffffffffffffffffffffffffffff1673ffffffffffffffffffffffffffffffffffffffff16636352211e836040518263ffffffff1660e01b8152600401610aa59190612516565b602060405180830381865afa158015610ac2573d6000803e3d6000fd5b505050506040513d601f19601f82011682018060405250810190610ae691906128fb565b73ffffffffffffffffffffffffffffffffffffffff1614610b3c576040517f08c379a0000000000000000000000000000000000000000000000000000000008152600401610b3390612c68565b60405180910390fd5b6000600e60008381526020019081526020016000206001015403610b95576040517f08c379a0000000000000000000000000000000000000000000000000000000008152600401610b8c90612cfa565b60405180910390fd5b600d54600e600083815260200190815260200160002060010154610bb99190612d49565b431015610bfb576040517f08c379a0000000000000000000000000000000000000000000000000000000008152600401610bf290612e15565b60405180910390fd5b6000600e60008381526020019081526020016000206000015490506000600260009054906101000a900473ffffffffffffffffffffffffffffffffffffffff1673ffffffffffffffffffffffffffffffffffffffff1663ad27314b846040518263ffffffff1660e01b8152600401610c739190612516565b61012060405180830381865afa158015610c91573d6000803e3d6000fd5b505050506040513d601f19601f82011682018060405250810190610cb59190612fd2565b90506000600260009054906101000a900473ffffffffffffffffffffffffffffffffffffffff1673ffffffffffffffffffffffffffffffffffffffff1663ad27314b846040518263ffffffff1660e01b8152600401610d149190612516565b61012060405180830381865afa158015610d32573d6000803e3d6000fd5b505050506040513d601f19601f82011682018060405250810190610d569190612fd2565b9050600033610d6486611ca8565b610d6d86611ca8565b600e60008981526020019081526020016000206001015440604051602001610d9894939291906130e4565b6040516020818303038152906040528051906020012060001c9050600e6000868152602001908152602001600020600080820160009055600182016000905550506000600382610de89190613159565b90506000610df68583611d76565b90506000610e048584611d76565b9050600082600886901c610e18919061318a565b9050600082601087901c610e2c919061318a565b90506000610e3b8a8484611dc9565b90506000610ee08c8c89878a888b89600160009054906101000a900473ffffffffffffffffffffffffffffffffffffffff1673ffffffffffffffffffffffffffffffffffffffff1663313ce5676040518163ffffffff1660e01b8152600401602060405180830381865afa158015610eb7573d6000803e3d6000fd5b505050506040513d601f19601f82011682018060405250810190610edb91906131bb565b612044565b90507fca55264b705c673f3b77d48a609b1c55e83f7df11bbac3ae1afc63744e0b58e3338d8d8585604051610f19959493929190613221565b60405180910390a1505050505050505050505050565b600354600160009054906101000a900473ffffffffffffffffffffffffffffffffffffffff1673ffffffffffffffffffffffffffffffffffffffff1663dd62ed3e33306040518363ffffffff1660e01b8152600401610f8f9291906127e9565b602060405180830381865afa158015610fac573d6000803e3d6000fd5b505050506040513d601f19601f82011682018060405250810190610fd09190612827565b1015611011576040517f08c379a0000000000000000000000000000000000000000000000000000000008152600401611008906132ed565b60405180910390fd5b6000600660003373ffffffffffffffffffffffffffffffffffffffff1673ffffffffffffffffffffffffffffffffffffffff1681526020019081526020016000205414611093576040517f08c379a000000000000000000000000000000000000000000000000000000000815260040161108a9061337f565b60405180910390fd5b600160009054906101000a900473ffffffffffffffffffffffffffffffffffffffff1673ffffffffffffffffffffffffffffffffffffffff166323b872dd33306003546040518463ffffffff1660e01b81526004016110f493929190612a4c565b6020604051808303816000875af1158015611113573d6000803e3d6000fd5b505050506040513d601f19601f820116820180604052508101906111379190612aaf565b5043600660003373ffffffffffffffffffffffffffffffffffffffff1673ffffffffffffffffffffffffffffffffffffffff168152602001908152602001600020819055507fd35897783c92f3ac0c8c3d18fa7b6ca76264d08728414c6875759e7253e86850336040516111ab9190612adc565b60405180910390a1565b3373ffffffffffffffffffffffffffffffffffffffff16600260009054906101000a900473ffffffffffffffffffffffffffffffffffffffff1673ffffffffffffffffffffffffffffffffffffffff16636352211e836040518263ffffffff1660e01b81526004016112279190612516565b602060405180830381865afa158015611244573d6000803e3d6000fd5b505050506040513d601f19601f8201168201806040525081019061126891906128fb565b73ffffffffffffffffffffffffffffffffffffffff16146112be576040517f08c379a00000000000000000000000000000000000000000000000000000000081526004016112b590613411565b60405180910390fd5b6000600a60008381526020019081526020016000205403611314576040517f08c379a000000000000000000000000000000000000000000000000000000000815260040161130b906134a3565b60405180910390fd5b600954600a6000838152602001908152602001600020546113359190612d49565b431015611377576040517f08c379a000000000000000000000000000000000000000000000000000000000815260040161136e9061355b565b60405180910390fd5b600033600a600084815260200190815260200160002054406040516020016113a092919061357b565b6040516020818303038152906040528051906020012060001c9050600a600083815260200190815260200160002060009055600067016345785d8a0000600b836113ea9190613159565b60026113f691906135a7565b61140091906135a7565b90506000600160009054906101000a900473ffffffffffffffffffffffffffffffffffffffff1673ffffffffffffffffffffffffffffffffffffffff1663a9059cbb33846040518363ffffffff1660e01b81526004016114619291906135e9565b6020604051808303816000875af1158015611480573d6000803e3d6000fd5b505050506040513d601f19601f820116820180604052508101906114a49190612aaf565b9050806114e6576040517f08c379a00000000000000000000000000000000000000000000000000000000081526004016114dd9061365e565b60405180910390fd5b7f1f4c26e9d30b2cd4f2b79e41290b5db5a0d05adf3e99e97261a2f28b2ff2720433836040516115179291906135e9565b60405180910390a150505050565b600b54600160009054906101000a900473ffffffffffffffffffffffffffffffffffffffff1673ffffffffffffffffffffffffffffffffffffffff1663dd62ed3e33306040518363ffffffff1660e01b81526004016115859291906127e9565b602060405180830381865afa1580156115a2573d6000803e3d6000fd5b505050506040513d601f19601f820116820180604052508101906115c69190612827565b1015611607576040517f08c379a00000000000000000000000000000000000000000000000000000000081526004016115fe906136f0565b60405180910390fd5b3373ffffffffffffffffffffffffffffffffffffffff16600260009054906101000a900473ffffffffffffffffffffffffffffffffffffffff1673ffffffffffffffffffffffffffffffffffffffff16636352211e846040518263ffffffff1660e01b81526004016116799190612516565b602060405180830381865afa158015611696573d6000803e3d6000fd5b505050506040513d601f19601f820116820180604052508101906116ba91906128fb565b73ffffffffffffffffffffffffffffffffffffffff1614611710576040517f08c379a000000000000000000000000000000000000000000000000000000000815260040161170790613782565b60405180910390fd5b3373ffffffffffffffffffffffffffffffffffffffff16600260009054906101000a900473ffffffffffffffffffffffffffffffffffffffff1673ffffffffffffffffffffffffffffffffffffffff16636352211e836040518263ffffffff1660e01b81526004016117829190612516565b602060405180830381865afa15801561179f573d6000803e3d6000fd5b505050506040513d601f19601f820116820180604052508101906117c391906128fb565b73ffffffffffffffffffffffffffffffffffffffff1603611819576040517f08c379a000000000000000000000000000000000000000000000000000000000815260040161181090613814565b60405180910390fd5b6000600e60008481526020019081526020016000206001015414611872576040517f08c379a0000000000000000000000000000000000000000000000000000000008152600401611869906138a6565b60405180910390fd5b600160009054906101000a900473ffffffffffffffffffffffffffffffffffffffff1673ffffffffffffffffffffffffffffffffffffffff166323b872dd3330600b546040518463ffffffff1660e01b81526004016118d393929190612a4c565b6020604051808303816000875af11580156118f2573d6000803e3d6000fd5b505050506040513d601f19601f820116820180604052508101906119169190612aaf565b50604051806040016040528082815260200143815250600e600084815260200190815260200160002060008201518160000155602082015181600101559050507facb334074a0ad14881e0a65bdccb54b9da0d2f863669e5459dc8023a5aebe5ee338383604051611989939291906138c6565b60405180910390a15050565b600080600a600084815260200190815260200160002054119050919050565b600080600e600084815260200190815260200160002060010154119050919050565b6000600660003373ffffffffffffffffffffffffffffffffffffffff1673ffffffffffffffffffffffffffffffffffffffff1681526020019081526020016000205403611a58576040517f08c379a0000000000000000000000000000000000000000000000000000000008152600401611a4f9061396f565b60405180910390fd5b600554600660003373ffffffffffffffffffffffffffffffffffffffff1673ffffffffffffffffffffffffffffffffffffffff16815260200190815260200160002054611aa59190612d49565b431015611ae7576040517f08c379a0000000000000000000000000000000000000000000000000000000008152600401611ade90613a27565b60405180910390fd5b600033600660003373ffffffffffffffffffffffffffffffffffffffff1673ffffffffffffffffffffffffffffffffffffffff1681526020019081526020016000205440604051602001611b3c92919061357b565b6040516020818303038152906040528051906020012060001c9050600660003373ffffffffffffffffffffffffffffffffffffffff1673ffffffffffffffffffffffffffffffffffffffff168152602001908152602001600020600090556000600260009054906101000a900473ffffffffffffffffffffffffffffffffffffffff1673ffffffffffffffffffffffffffffffffffffffff166340c10f1933846040518363ffffffff1660e01b8152600401611bf99291906135e9565b6020604051808303816000875af1158015611c18573d6000803e3d6000fd5b505050506040513d601f19601f82011682018060405250810190611c3c9190612827565b90507f947b6fba38e610db2f2ee0e997726f5a848d91ca12a98a65e81643952d4bc3093382604051611c6f9291906135e9565b60405180910390a15050565b6000600354905090565b6000808273ffffffffffffffffffffffffffffffffffffffff163b119050919050565b606060006001611cb78461221d565b01905060008167ffffffffffffffff811115611cd657611cd5612e4b565b5b6040519080825280601f01601f191660200182016040528015611d085781602001600182028036833780820191505090505b509050600082602001820190505b600115611d6b578080600190039150507f3031323334353637383961626364656600000000000000000000000000000000600a86061a8153600a8581611d5f57611d5e61312a565b5b04945060008503611d16575b819350505050919050565b6000808260ff1603611d8e5782600001519050611dc3565b60018260ff1603611da55782602001519050611dc2565b60028260ff1603611dbc5782604001519050611dc1565b600090505b5b5b92915050565b60008160ff168360ff161115611e085767016345785d8a00008284611dee9190613a47565b60ff16611dfb9190613a90565b67ffffffffffffffff1690505b6000600260009054906101000a900473ffffffffffffffffffffffffffffffffffffffff1673ffffffffffffffffffffffffffffffffffffffff16636352211e866040518263ffffffff1660e01b8152600401611e659190612516565b602060405180830381865afa158015611e82573d6000803e3d6000fd5b505050506040513d601f19601f82011682018060405250810190611ea691906128fb565b90506000600160009054906101000a900473ffffffffffffffffffffffffffffffffffffffff1673ffffffffffffffffffffffffffffffffffffffff166370a08231836040518263ffffffff1660e01b8152600401611f059190612adc565b602060405180830381865afa158015611f22573d6000803e3d6000fd5b505050506040513d601f19601f82011682018060405250810190611f469190612827565b905082811015611f54578092505b6000600160009054906101000a900473ffffffffffffffffffffffffffffffffffffffff1673ffffffffffffffffffffffffffffffffffffffff166323b872dd8433876040518463ffffffff1660e01b8152600401611fb593929190612a4c565b6020604051808303816000875af1158015611fd4573d6000803e3d6000fd5b505050506040513d601f19601f82011682018060405250810190611ff89190612aaf565b90508061203a576040517f08c379a000000000000000000000000000000000000000000000000000000000815260040161203190613b19565b60405180910390fd5b5050509392505050565b60608060008960ff160361208f576040518060400160405280601481526020017f426174746c6520747970653a20535452202f2f20000000000000000000000000815250905061211d565b60018960ff16036120d7576040518060400160405280601481526020017f426174746c6520747970653a20444558202f2f20000000000000000000000000815250905061211c565b60028960ff160361211b576040518060400160405280601481526020017f426174746c6520747970653a20494e54202f2f2000000000000000000000000081525090505b5b5b60006121288c611ca8565b6121348a60ff16611ca8565b6121408a60ff16611ca8565b60405160200161215293929190613c69565b6040516020818303038152906040529050600061216e8c611ca8565b61217a8960ff16611ca8565b6121868960ff16611ca8565b60405160200161219893929190613d5e565b604051602081830303815290604052905060006121c360028888600a6121be9190613eee565b612370565b6040516020016121d39190613f85565b6040516020818303038152906040529050838383836040516020016121fb9493929190613fa7565b6040516020818303038152906040529450505050509998505050505050505050565b600080600090507a184f03e93ff9f4daa797ed6e38ed64bf6a1f010000000000000000831061227b577a184f03e93ff9f4daa797ed6e38ed64bf6a1f01000000000000000083816122715761227061312a565b5b0492506040810190505b6d04ee2d6d415b85acef810000000083106122b8576d04ee2d6d415b85acef810000000083816122ae576122ad61312a565b5b0492506020810190505b662386f26fc1000083106122e757662386f26fc1000083816122dd576122dc61312a565b5b0492506010810190505b6305f5e1008310612310576305f5e10083816123065761230561312a565b5b0492506008810190505b612710831061233557612710838161232b5761232a61312a565b5b0492506004810190505b60648310612358576064838161234e5761234d61312a565b5b0492506002810190505b600a8310612367576001810190505b80915050919050565b6060600084600a6123819190613fe5565b9050600083856123919190614030565b90506000828584886123a391906135a7565b6123ad9190614030565b6123b79190613159565b90506123c282611ca8565b6123cb82611ca8565b6040516020016123dc9291906140ad565b60405160208183030381529060405293505050509392505050565b6000604051905090565b600080fd5b6000819050919050565b61241981612406565b811461242457600080fd5b50565b60008135905061243681612410565b92915050565b60006020828403121561245257612451612401565b5b600061246084828501612427565b91505092915050565b600073ffffffffffffffffffffffffffffffffffffffff82169050919050565b600061249482612469565b9050919050565b6124a481612489565b81146124af57600080fd5b50565b6000813590506124c18161249b565b92915050565b600080604083850312156124de576124dd612401565b5b60006124ec858286016124b2565b92505060206124fd858286016124b2565b9150509250929050565b61251081612406565b82525050565b600060208201905061252b6000830184612507565b92915050565b60008115159050919050565b61254681612531565b82525050565b6000602082019050612561600083018461253d565b92915050565b6000806040838503121561257e5761257d612401565b5b600061258c85828601612427565b925050602061259d85828601612427565b9150509250929050565b600082825260208201905092915050565b7f6f6e6c794f776e65722e20596f7520617265206e6f7420746865206f776e657260008201527f206f66207468697320636f6e7472616374210000000000000000000000000000602082015250565b60006126146032836125a7565b915061261f826125b8565b604082019050919050565b6000602082019050818103600083015261264381612607565b9050919050565b7f776974686472617750726f666974732e2050726f66697473206d75737420626560008201527f2067726561746572207468616e203020696e206f7264657220746f207769746860208201527f6472617721000000000000000000000000000000000000000000000000000000604082015250565b60006126cc6045836125a7565b91506126d78261264a565b606082019050919050565b600060208201905081810360008301526126fb816126bf565b9050919050565b600081905092915050565b50565b600061271d600083612702565b91506127288261270d565b600082019050919050565b600061273e82612710565b9150819050919050565b7f776974686472617750726f666974732e204661696c656420746f2073656e642060008201527f6574686572000000000000000000000000000000000000000000000000000000602082015250565b60006127a46025836125a7565b91506127af82612748565b604082019050919050565b600060208201905081810360008301526127d381612797565b9050919050565b6127e381612489565b82525050565b60006040820190506127fe60008301856127da565b61280b60208301846127da565b9392505050565b60008151905061282181612410565b92915050565b60006020828403121561283d5761283c612401565b5b600061284b84828501612812565b91505092915050565b7f6578706c6f7265436f6d6d69742e20436865636b204e595820616c6c6f77616e60008201527f6365000000000000000000000000000000000000000000000000000000000000602082015250565b60006128b06022836125a7565b91506128bb82612854565b604082019050919050565b600060208201905081810360008301526128df816128a3565b9050919050565b6000815190506128f58161249b565b92915050565b60006020828403121561291157612910612401565b5b600061291f848285016128e6565b91505092915050565b7f6578706c6f7265436f6d6d69742e20596f7520617265206e6f7420746865206f60008201527f776e6572206f66207468697320746f6b656e0000000000000000000000000000602082015250565b60006129846032836125a7565b915061298f82612928565b604082019050919050565b600060208201905081810360008301526129b381612977565b9050919050565b7f6578706c6f7265436f6d6d69742e2054686973206865726f20697320616c726560008201527f616479206578706c6f72696e6721000000000000000000000000000000000000602082015250565b6000612a16602e836125a7565b9150612a21826129ba565b604082019050919050565b60006020820190508181036000830152612a4581612a09565b9050919050565b6000606082019050612a6160008301866127da565b612a6e60208301856127da565b612a7b6040830184612507565b949350505050565b612a8c81612531565b8114612a9757600080fd5b50565b600081519050612aa981612a83565b92915050565b600060208284031215612ac557612ac4612401565b5b6000612ad384828501612a9a565b91505092915050565b6000602082019050612af160008301846127da565b92915050565b7f496e697469616c697a61626c653a20636f6e747261637420697320616c72656160008201527f647920696e697469616c697a6564000000000000000000000000000000000000602082015250565b6000612b53602e836125a7565b9150612b5e82612af7565b604082019050919050565b60006020820190508181036000830152612b8281612b46565b9050919050565b6000819050919050565b600060ff82169050919050565b6000819050919050565b6000612bc5612bc0612bbb84612b89565b612ba0565b612b93565b9050919050565b612bd581612baa565b82525050565b6000602082019050612bf06000830184612bcc565b92915050565b7f61747461636b52657665616c2e20596f7520617265206e6f7420746865206f7760008201527f6e6572206f66207468697320746f6b656e000000000000000000000000000000602082015250565b6000612c526031836125a7565b9150612c5d82612bf6565b604082019050919050565b60006020820190508181036000830152612c8181612c45565b9050919050565b7f61747461636b52657665616c2e2054686973206865726f206973206e6f74206160008201527f747461636b696e67210000000000000000000000000000000000000000000000602082015250565b6000612ce46029836125a7565b9150612cef82612c88565b604082019050919050565b60006020820190508181036000830152612d1381612cd7565b9050919050565b7f4e487b7100000000000000000000000000000000000000000000000000000000600052601160045260246000fd5b6000612d5482612406565b9150612d5f83612406565b9250828201905080821115612d7757612d76612d1a565b5b92915050565b7f61747461636b52657665616c2e20596f75206e65656420746f2077616974206160008201527f2062697420746f2072657665616c20796f75722061747461636b20726573756c60208201527f7473210000000000000000000000000000000000000000000000000000000000604082015250565b6000612dff6043836125a7565b9150612e0a82612d7d565b606082019050919050565b60006020820190508181036000830152612e2e81612df2565b9050919050565b600080fd5b6000601f19601f8301169050919050565b7f4e487b7100000000000000000000000000000000000000000000000000000000600052604160045260246000fd5b612e8382612e3a565b810181811067ffffffffffffffff82111715612ea257612ea1612e4b565b5b80604052505050565b6000612eb56123f7565b9050612ec18282612e7a565b919050565b612ecf81612b93565b8114612eda57600080fd5b50565b600081519050612eec81612ec6565b92915050565b60006101208284031215612f0957612f08612e35565b5b612f14610120612eab565b90506000612f2484828501612edd565b6000830152506020612f3884828501612edd565b6020830152506040612f4c84828501612edd565b6040830152506060612f6084828501612edd565b6060830152506080612f7484828501612edd565b60808301525060a0612f8884828501612edd565b60a08301525060c0612f9c84828501612edd565b60c08301525060e0612fb084828501612edd565b60e083015250610100612fc584828501612edd565b6101008301525092915050565b60006101208284031215612fe957612fe8612401565b5b6000612ff784828501612ef2565b91505092915050565b60008160601b9050919050565b600061301882613000565b9050919050565b600061302a8261300d565b9050919050565b61304261303d82612489565b61301f565b82525050565b600081519050919050565b600081905092915050565b60005b8381101561307c578082015181840152602081019050613061565b60008484015250505050565b600061309382613048565b61309d8185613053565b93506130ad81856020860161305e565b80840191505092915050565b6000819050919050565b6000819050919050565b6130de6130d9826130b9565b6130c3565b82525050565b60006130f08287613031565b6014820191506131008286613088565b915061310c8285613088565b915061311882846130cd565b60208201915081905095945050505050565b7f4e487b7100000000000000000000000000000000000000000000000000000000600052601260045260246000fd5b600061316482612406565b915061316f83612406565b92508261317f5761317e61312a565b5b828206905092915050565b600061319582612b93565b91506131a083612b93565b9250826131b0576131af61312a565b5b828206905092915050565b6000602082840312156131d1576131d0612401565b5b60006131df84828501612edd565b91505092915050565b60006131f382613048565b6131fd81856125a7565b935061320d81856020860161305e565b61321681612e3a565b840191505092915050565b600060a08201905061323660008301886127da565b6132436020830187612507565b6132506040830186612507565b61325d6060830185612507565b818103608083015261326f81846131e8565b90509695505050505050565b7f6d696e744865726f436f6d6d69742e20436865636b204e595820616c6c6f776160008201527f6e63650000000000000000000000000000000000000000000000000000000000602082015250565b60006132d76023836125a7565b91506132e28261327b565b604082019050919050565b60006020820190508181036000830152613306816132ca565b9050919050565b7f6d696e744865726f436f6d6d69742e20596f75206861766520616c726561647960008201527f2061206368617261637465722072657175657374656421000000000000000000602082015250565b60006133696037836125a7565b91506133748261330d565b604082019050919050565b600060208201905081810360008301526133988161335c565b9050919050565b7f6578706c6f726552657665616c2e20596f7520617265206e6f7420746865206f60008201527f776e6572206f66207468697320746f6b656e0000000000000000000000000000602082015250565b60006133fb6032836125a7565b91506134068261339f565b604082019050919050565b6000602082019050818103600083015261342a816133ee565b9050919050565b7f6578706c6f726552657665616c2e2054686973206865726f206973206e6f742060008201527f6578706c6f72696e672100000000000000000000000000000000000000000000602082015250565b600061348d602a836125a7565b915061349882613431565b604082019050919050565b600060208201905081810360008301526134bc81613480565b9050919050565b7f6578706c6f726552657665616c2e20596f75206e65656420746f20776169742060008201527f6120626974206265666f72652072657475726e696e672066726f6d206578706c60208201527f6f72696e67000000000000000000000000000000000000000000000000000000604082015250565b60006135456045836125a7565b9150613550826134c3565b606082019050919050565b6000602082019050818103600083015261357481613538565b9050919050565b60006135878285613031565b60148201915061359782846130cd565b6020820191508190509392505050565b60006135b282612406565b91506135bd83612406565b92508282026135cb81612406565b915082820484148315176135e2576135e1612d1a565b5b5092915050565b60006040820190506135fe60008301856127da565b61360b6020830184612507565b9392505050565b7f6578706c6f726552657665616c2e204e6f7420656e6f756768204e5958210000600082015250565b6000613648601e836125a7565b915061365382613612565b602082019050919050565b600060208201905081810360008301526136778161363b565b9050919050565b7f61747461636b436f6d6d69742e20436865636b204e595820616c6c6f77616e6360008201527f6500000000000000000000000000000000000000000000000000000000000000602082015250565b60006136da6021836125a7565b91506136e58261367e565b604082019050919050565b60006020820190508181036000830152613709816136cd565b9050919050565b7f61747461636b436f6d6d69742e20596f7520617265206e6f7420746865206f7760008201527f6e6572206f66207468652061747461636b657220746f6b656e00000000000000602082015250565b600061376c6039836125a7565b915061377782613710565b604082019050919050565b6000602082019050818103600083015261379b8161375f565b9050919050565b7f61747461636b436f6d6d69742e20596f752061726520746865206f776e65722060008201527f6f66207468652074617267657421000000000000000000000000000000000000602082015250565b60006137fe602e836125a7565b9150613809826137a2565b604082019050919050565b6000602082019050818103600083015261382d816137f1565b9050919050565b7f61747461636b436f6d6d69742e2054686973206865726f20697320616c72656160008201527f64792061747461636b696e672100000000000000000000000000000000000000602082015250565b6000613890602d836125a7565b915061389b82613834565b604082019050919050565b600060208201905081810360008301526138bf81613883565b9050919050565b60006060820190506138db60008301866127da565b6138e86020830185612507565b6138f56040830184612507565b949350505050565b7f6d696e744865726f52657665616c2e20596f75206e65656420746f207265717560008201527f6573742061206368617261637465722066697273742100000000000000000000602082015250565b60006139596036836125a7565b9150613964826138fd565b604082019050919050565b600060208201905081810360008301526139888161394c565b9050919050565b7f6d696e744865726f52657665616c2e20596f75206e65656420746f207761697460008201527f206120626974206265666f72652072657665616c696e6720796f75722063686160208201527f7261637465720000000000000000000000000000000000000000000000000000604082015250565b6000613a116046836125a7565b9150613a1c8261398f565b606082019050919050565b60006020820190508181036000830152613a4081613a04565b9050919050565b6000613a5282612b93565b9150613a5d83612b93565b9250828203905060ff811115613a7657613a75612d1a565b5b92915050565b600067ffffffffffffffff82169050919050565b6000613a9b82613a7c565b9150613aa683613a7c565b9250828202613ab481613a7c565b9150808214613ac657613ac5612d1a565b5b5092915050565b7f61747461636b52657665616c2e204e6f7420656e6f756768204e595821000000600082015250565b6000613b03601d836125a7565b9150613b0e82613acd565b602082019050919050565b60006020820190508181036000830152613b3281613af6565b9050919050565b7f41747461636b65723a204865726f204f66204e797865756d2023000000000000600082015250565b6000613b6f601a83613053565b9150613b7a82613b39565b601a82019050919050565b7f202f2f2041747461636b657220526f6c6c3a2000000000000000000000000000600082015250565b6000613bbb601383613053565b9150613bc682613b85565b601382019050919050565b7f206f662000000000000000000000000000000000000000000000000000000000600082015250565b6000613c07600483613053565b9150613c1282613bd1565b600482019050919050565b7f202f2f2000000000000000000000000000000000000000000000000000000000600082015250565b6000613c53600483613053565b9150613c5e82613c1d565b600482019050919050565b6000613c7482613b62565b9150613c808286613088565b9150613c8b82613bae565b9150613c978285613088565b9150613ca282613bfa565b9150613cae8284613088565b9150613cb982613c46565b9150819050949350505050565b7f5461726765743a204865726f204f66204e797865756d20230000000000000000600082015250565b6000613cfc601883613053565b9150613d0782613cc6565b601882019050919050565b7f202f2f2054617267657420526f6c6c3a20000000000000000000000000000000600082015250565b6000613d48601183613053565b9150613d5382613d12565b601182019050919050565b6000613d6982613cef565b9150613d758286613088565b9150613d8082613d3b565b9150613d8c8285613088565b9150613d9782613bfa565b9150613da38284613088565b9150613dae82613c46565b9150819050949350505050565b60008160011c9050919050565b6000808291508390505b6001851115613e1257808604811115613dee57613ded612d1a565b5b6001851615613dfd5780820291505b8081029050613e0b85613dbb565b9450613dd2565b94509492505050565b600082613e2b5760019050613ee7565b81613e395760009050613ee7565b8160018114613e4f5760028114613e5957613e88565b6001915050613ee7565b60ff841115613e6b57613e6a612d1a565b5b8360020a915084821115613e8257613e81612d1a565b5b50613ee7565b5060208310610133831016604e8410600b8410161715613ebd5782820a905083811115613eb857613eb7612d1a565b5b613ee7565b613eca8484846001613dc8565b92509050818404811115613ee157613ee0612d1a565b5b81810290505b9392505050565b6000613ef982612406565b9150613f0483612b93565b9250613f317fffffffffffffffffffffffffffffffffffffffffffffffffffffffffffffffff8484613e1b565b905092915050565b7f53746f6c656e204e59583a200000000000000000000000000000000000000000600082015250565b6000613f6f600c83613053565b9150613f7a82613f39565b600c82019050919050565b6000613f9082613f62565b9150613f9c8284613088565b915081905092915050565b6000613fb38287613088565b9150613fbf8286613088565b9150613fcb8285613088565b9150613fd78284613088565b915081905095945050505050565b6000613ff082612406565b9150613ffb83612406565b92506140287fffffffffffffffffffffffffffffffffffffffffffffffffffffffffffffffff8484613e1b565b905092915050565b600061403b82612406565b915061404683612406565b9250826140565761405561312a565b5b828204905092915050565b7f2e00000000000000000000000000000000000000000000000000000000000000600082015250565b6000614097600183613053565b91506140a282614061565b600182019050919050565b60006140b98285613088565b91506140c48261408a565b91506140d08284613088565b9150819050939250505056fea264697066735822122080749dcc4df58047da15da07be82024688eb349d3012f4a79e932814348d2cca64736f6c63430008120033",
  "linkReferences": {},
  "deployedLinkReferences": {}
}