{
  "_format": "hh-sol-artifact-1",
  "contractName": "NyxeumGameV1",
  "sourceName": "contracts/NyxeumGameV1.sol",
  "abi": [
    {
      "anonymous": false,
      "inputs": [
        {
          "indexed": false,
          "internalType": "address",
          "name": "account",
          "type": "address"
        },
        {
          "indexed": false,
          "internalType": "uint256",
          "name": "attackerId",
          "type": "uint256"
        },
        {
          "indexed": false,
          "internalType": "uint256",
          "name": "targetId",
          "type": "uint256"
        }
      ],
      "name": "BeginAttack",
      "type": "event"
    },
    {
      "anonymous": false,
      "inputs": [
        {
          "indexed": false,
          "internalType": "address",
          "name": "account",
          "type": "address"
        }
      ],
      "name": "BeginExploration",
      "type": "event"
    },
    {
      "anonymous": false,
      "inputs": [
        {
          "indexed": false,
          "internalType": "address",
          "name": "account",
          "type": "address"
        }
      ],
      "name": "BeginMint",
      "type": "event"
    },
    {
      "anonymous": false,
      "inputs": [
        {
          "indexed": false,
          "internalType": "address",
          "name": "account",
          "type": "address"
        },
        {
          "indexed": false,
          "internalType": "uint256",
          "name": "attackerId",
          "type": "uint256"
        },
        {
          "indexed": false,
          "internalType": "uint256",
          "name": "targetId",
          "type": "uint256"
        },
        {
          "indexed": false,
          "internalType": "uint256",
          "name": "nyx",
          "type": "uint256"
        },
        {
          "indexed": false,
          "internalType": "string",
          "name": "logs",
          "type": "string"
        }
      ],
      "name": "EndAttack",
      "type": "event"
    },
    {
      "anonymous": false,
      "inputs": [
        {
          "indexed": false,
          "internalType": "address",
          "name": "account",
          "type": "address"
        },
        {
          "indexed": false,
          "internalType": "uint256",
          "name": "nyx",
          "type": "uint256"
        }
      ],
      "name": "EndExploration",
      "type": "event"
    },
    {
      "anonymous": false,
      "inputs": [
        {
          "indexed": false,
          "internalType": "address",
          "name": "account",
          "type": "address"
        },
        {
          "indexed": false,
          "internalType": "uint256",
          "name": "tokenId",
          "type": "uint256"
        }
      ],
      "name": "EndMint",
      "type": "event"
    },
    {
      "anonymous": false,
      "inputs": [
        {
          "indexed": false,
          "internalType": "uint8",
          "name": "version",
          "type": "uint8"
        }
      ],
      "name": "Initialized",
      "type": "event"
    },
    {
      "inputs": [
        {
          "internalType": "uint256",
          "name": "attackerId",
          "type": "uint256"
        },
        {
          "internalType": "uint256",
          "name": "targetId",
          "type": "uint256"
        }
      ],
      "name": "attackCommit",
      "outputs": [],
      "stateMutability": "payable",
      "type": "function"
    },
    {
      "inputs": [
        {
          "internalType": "uint256",
          "name": "attackerId",
          "type": "uint256"
        }
      ],
      "name": "attackReveal",
      "outputs": [],
      "stateMutability": "nonpayable",
      "type": "function"
    },
    {
      "inputs": [
        {
          "internalType": "uint256",
          "name": "tokenId",
          "type": "uint256"
        }
      ],
      "name": "exploreCommit",
      "outputs": [],
      "stateMutability": "payable",
      "type": "function"
    },
    {
      "inputs": [
        {
          "internalType": "uint256",
          "name": "tokenId",
          "type": "uint256"
        }
      ],
      "name": "exploreReveal",
      "outputs": [],
      "stateMutability": "nonpayable",
      "type": "function"
    },
    {
      "inputs": [],
      "name": "getMintHeroCommitPrice",
      "outputs": [
        {
          "internalType": "uint256",
          "name": "",
          "type": "uint256"
        }
      ],
      "stateMutability": "view",
      "type": "function"
    },
    {
      "inputs": [],
      "name": "getMintHeroRevealPrice",
      "outputs": [
        {
          "internalType": "uint256",
          "name": "",
          "type": "uint256"
        }
      ],
      "stateMutability": "view",
      "type": "function"
    },
    {
      "inputs": [
        {
          "internalType": "address",
          "name": "nyxEssenceAddress",
          "type": "address"
        },
        {
          "internalType": "address",
          "name": "heroesOfNyxeumAddress",
          "type": "address"
        }
      ],
      "name": "initialize",
      "outputs": [],
      "stateMutability": "nonpayable",
      "type": "function"
    },
    {
      "inputs": [
        {
          "internalType": "uint256",
          "name": "attackerId",
          "type": "uint256"
        }
      ],
      "name": "isAttacking",
      "outputs": [
        {
          "internalType": "bool",
          "name": "",
          "type": "bool"
        }
      ],
      "stateMutability": "view",
      "type": "function"
    },
    {
      "inputs": [
        {
          "internalType": "uint256",
          "name": "tokenId",
          "type": "uint256"
        }
      ],
      "name": "isExploring",
      "outputs": [
        {
          "internalType": "bool",
          "name": "",
          "type": "bool"
        }
      ],
      "stateMutability": "view",
      "type": "function"
    },
    {
      "inputs": [],
      "name": "isHeroMinted",
      "outputs": [
        {
          "internalType": "bool",
          "name": "",
          "type": "bool"
        }
      ],
      "stateMutability": "view",
      "type": "function"
    },
    {
      "inputs": [],
      "name": "mintHeroCommit",
      "outputs": [],
      "stateMutability": "payable",
      "type": "function"
    },
    {
      "inputs": [],
      "name": "mintHeroReveal",
      "outputs": [],
      "stateMutability": "nonpayable",
      "type": "function"
    },
    {
      "inputs": [],
      "name": "withdrawProfits",
      "outputs": [],
      "stateMutability": "nonpayable",
      "type": "function"
    }
  ],
  "bytecode": "0x608060405234801561001057600080fd5b50613eb2806100206000396000f3fe6080604052600436106100c25760003560e01c8063b78bb5d91161007f578063c86dca5a11610059578063c86dca5a146101f1578063cb1fca411461022e578063d99d93bf1461026b578063ef1d0c8b14610282576100c2565b8063b78bb5d9146101a2578063c1de474a146101ac578063c6b717b2146101d5576100c2565b806339913e09146100c757806346e21b34146100de578063485cc955146100fa5780636ed69b5b14610123578063885132e91461014e578063ae3452eb14610179575b600080fd5b3480156100d357600080fd5b506100dc6102ad565b005b6100f860048036038101906100f391906122f6565b610450565b005b34801561010657600080fd5b50610121600480360381019061011c9190612381565b610788565b005b34801561012f57600080fd5b506101386109e0565b60405161014591906123d0565b60405180910390f35b34801561015a57600080fd5b506101636109ea565b6040516101709190612406565b60405180910390f35b34801561018557600080fd5b506101a0600480360381019061019b91906122f6565b610a33565b005b6101aa610f2d565b005b3480156101b857600080fd5b506101d360048036038101906101ce91906122f6565b6111b3565b005b6101ef60048036038101906101ea9190612421565b611523565b005b3480156101fd57600080fd5b50610218600480360381019061021391906122f6565b61188a565b6040516102259190612406565b60405180910390f35b34801561023a57600080fd5b50610255600480360381019061025091906122f6565b6118a9565b6040516102629190612406565b60405180910390f35b34801561027757600080fd5b506102806118cb565b005b34801561028e57600080fd5b50610297611b70565b6040516102a491906123d0565b60405180910390f35b600060029054906101000a900473ffffffffffffffffffffffffffffffffffffffff1673ffffffffffffffffffffffffffffffffffffffff163373ffffffffffffffffffffffffffffffffffffffff161461033d576040517f08c379a0000000000000000000000000000000000000000000000000000000008152600401610334906124e4565b60405180910390fd5b60004711610380576040517f08c379a00000000000000000000000000000000000000000000000000000000081526004016103779061259c565b60405180910390fd5b60008060029054906101000a900473ffffffffffffffffffffffffffffffffffffffff1673ffffffffffffffffffffffffffffffffffffffff16476040516103c7906125ed565b60006040518083038185875af1925050503d8060008114610404576040519150601f19603f3d011682016040523d82523d6000602084013e610409565b606091505b505090508061044d576040517f08c379a000000000000000000000000000000000000000000000000000000000815260040161044490612674565b60405180910390fd5b50565b600754600160009054906101000a900473ffffffffffffffffffffffffffffffffffffffff1673ffffffffffffffffffffffffffffffffffffffff1663dd62ed3e33306040518363ffffffff1660e01b81526004016104b09291906126a3565b602060405180830381865afa1580156104cd573d6000803e3d6000fd5b505050506040513d601f19601f820116820180604052508101906104f191906126e1565b1015610532576040517f08c379a000000000000000000000000000000000000000000000000000000000815260040161052990612780565b60405180910390fd5b3373ffffffffffffffffffffffffffffffffffffffff16600260009054906101000a900473ffffffffffffffffffffffffffffffffffffffff1673ffffffffffffffffffffffffffffffffffffffff16636352211e836040518263ffffffff1660e01b81526004016105a491906123d0565b602060405180830381865afa1580156105c1573d6000803e3d6000fd5b505050506040513d601f19601f820116820180604052508101906105e591906127b5565b73ffffffffffffffffffffffffffffffffffffffff161461063b576040517f08c379a000000000000000000000000000000000000000000000000000000000815260040161063290612854565b60405180910390fd5b6000600a60008381526020019081526020016000205414610691576040517f08c379a0000000000000000000000000000000000000000000000000000000008152600401610688906128e6565b60405180910390fd5b600160009054906101000a900473ffffffffffffffffffffffffffffffffffffffff1673ffffffffffffffffffffffffffffffffffffffff166323b872dd33306007546040518463ffffffff1660e01b81526004016106f293929190612906565b6020604051808303816000875af1158015610711573d6000803e3d6000fd5b505050506040513d601f19601f820116820180604052508101906107359190612969565b5043600a6000838152602001908152602001600020819055507f2fff9fbae38097da283c7eb3b6d225ae0b0732d43a2a40399643364056d185b43360405161077d9190612996565b60405180910390a150565b60008060019054906101000a900460ff161590508080156107b95750600160008054906101000a900460ff1660ff16105b806107e657506107c830611b7a565b1580156107e55750600160008054906101000a900460ff1660ff16145b5b610825576040517f08c379a000000000000000000000000000000000000000000000000000000000815260040161081c90612a23565b60405180910390fd5b60016000806101000a81548160ff021916908360ff1602179055508015610862576001600060016101000a81548160ff0219169083151502179055505b33600060026101000a81548173ffffffffffffffffffffffffffffffffffffffff021916908373ffffffffffffffffffffffffffffffffffffffff16021790555082600160006101000a81548173ffffffffffffffffffffffffffffffffffffffff021916908373ffffffffffffffffffffffffffffffffffffffff16021790555081600260006101000a81548173ffffffffffffffffffffffffffffffffffffffff021916908373ffffffffffffffffffffffffffffffffffffffff160217905550674563918244f4000060038190555060006004819055506001600581905550670de0b6b3a764000060078190555060006008819055506001600981905550670de0b6b3a7640000600b819055506000600c819055506001600d8190555080156109db5760008060016101000a81548160ff0219169083151502179055507f7f26b83ff96e1f2b6a682f133852f6798a09c465da95921460cefb384740249860016040516109d29190612a95565b60405180910390a15b505050565b6000600454905090565b600080600660003373ffffffffffffffffffffffffffffffffffffffff1673ffffffffffffffffffffffffffffffffffffffff1681526020019081526020016000205411905090565b3373ffffffffffffffffffffffffffffffffffffffff16600260009054906101000a900473ffffffffffffffffffffffffffffffffffffffff1673ffffffffffffffffffffffffffffffffffffffff16636352211e836040518263ffffffff1660e01b8152600401610aa591906123d0565b602060405180830381865afa158015610ac2573d6000803e3d6000fd5b505050506040513d601f19601f82011682018060405250810190610ae691906127b5565b73ffffffffffffffffffffffffffffffffffffffff1614610b3c576040517f08c379a0000000000000000000000000000000000000000000000000000000008152600401610b3390612b22565b60405180910390fd5b6000600e60008381526020019081526020016000206001015403610b95576040517f08c379a0000000000000000000000000000000000000000000000000000000008152600401610b8c90612bb4565b60405180910390fd5b600d54600e600083815260200190815260200160002060010154610bb99190612c03565b431015610bfb576040517f08c379a0000000000000000000000000000000000000000000000000000000008152600401610bf290612ccf565b60405180910390fd5b6000600e60008381526020019081526020016000206000015490506000600260009054906101000a900473ffffffffffffffffffffffffffffffffffffffff1673ffffffffffffffffffffffffffffffffffffffff1663ad27314b846040518263ffffffff1660e01b8152600401610c7391906123d0565b61012060405180830381865afa158015610c91573d6000803e3d6000fd5b505050506040513d601f19601f82011682018060405250810190610cb59190612e8c565b90506000600260009054906101000a900473ffffffffffffffffffffffffffffffffffffffff1673ffffffffffffffffffffffffffffffffffffffff1663ad27314b846040518263ffffffff1660e01b8152600401610d1491906123d0565b61012060405180830381865afa158015610d32573d6000803e3d6000fd5b505050506040513d601f19601f82011682018060405250810190610d569190612e8c565b9050600033610d6486611b9d565b610d6d86611b9d565b600e60008981526020019081526020016000206001015440604051602001610d989493929190612f9e565b6040516020818303038152906040528051906020012060001c9050600e6000868152602001908152602001600020600080820160009055600182016000905550506000600382610de89190613013565b90506000610df68583611c6b565b90506000610e048584611c6b565b9050600082600886901c610e189190613044565b9050600082601087901c610e2c9190613044565b90506000610e3b8a8484611cbe565b90506000610ede8c8c89878787600160009054906101000a900473ffffffffffffffffffffffffffffffffffffffff1673ffffffffffffffffffffffffffffffffffffffff1663313ce5676040518163ffffffff1660e01b8152600401602060405180830381865afa158015610eb5573d6000803e3d6000fd5b505050506040513d601f19601f82011682018060405250810190610ed99190613075565b611f39565b90507fca55264b705c673f3b77d48a609b1c55e83f7df11bbac3ae1afc63744e0b58e3338d8d8585604051610f179594939291906130db565b60405180910390a1505050505050505050505050565b600354600160009054906101000a900473ffffffffffffffffffffffffffffffffffffffff1673ffffffffffffffffffffffffffffffffffffffff1663dd62ed3e33306040518363ffffffff1660e01b8152600401610f8d9291906126a3565b602060405180830381865afa158015610faa573d6000803e3d6000fd5b505050506040513d601f19601f82011682018060405250810190610fce91906126e1565b101561100f576040517f08c379a0000000000000000000000000000000000000000000000000000000008152600401611006906131a7565b60405180910390fd5b6000600660003373ffffffffffffffffffffffffffffffffffffffff1673ffffffffffffffffffffffffffffffffffffffff1681526020019081526020016000205414611091576040517f08c379a000000000000000000000000000000000000000000000000000000000815260040161108890613239565b60405180910390fd5b600160009054906101000a900473ffffffffffffffffffffffffffffffffffffffff1673ffffffffffffffffffffffffffffffffffffffff166323b872dd33306003546040518463ffffffff1660e01b81526004016110f293929190612906565b6020604051808303816000875af1158015611111573d6000803e3d6000fd5b505050506040513d601f19601f820116820180604052508101906111359190612969565b5043600660003373ffffffffffffffffffffffffffffffffffffffff1673ffffffffffffffffffffffffffffffffffffffff168152602001908152602001600020819055507fd35897783c92f3ac0c8c3d18fa7b6ca76264d08728414c6875759e7253e86850336040516111a99190612996565b60405180910390a1565b3373ffffffffffffffffffffffffffffffffffffffff16600260009054906101000a900473ffffffffffffffffffffffffffffffffffffffff1673ffffffffffffffffffffffffffffffffffffffff16636352211e836040518263ffffffff1660e01b815260040161122591906123d0565b602060405180830381865afa158015611242573d6000803e3d6000fd5b505050506040513d601f19601f8201168201806040525081019061126691906127b5565b73ffffffffffffffffffffffffffffffffffffffff16146112bc576040517f08c379a00000000000000000000000000000000000000000000000000000000081526004016112b3906132cb565b60405180910390fd5b6000600a60008381526020019081526020016000205403611312576040517f08c379a00000000000000000000000000000000000000000000000000000000081526004016113099061335d565b60405180910390fd5b600954600a6000838152602001908152602001600020546113339190612c03565b431015611375576040517f08c379a000000000000000000000000000000000000000000000000000000000815260040161136c90613415565b60405180910390fd5b600033600a6000848152602001908152602001600020544060405160200161139e929190613435565b6040516020818303038152906040528051906020012060001c9050600a600083815260200190815260200160002060009055600067016345785d8a0000600b836113e89190613013565b60026113f49190613461565b6113fe9190613461565b90506000600160009054906101000a900473ffffffffffffffffffffffffffffffffffffffff1673ffffffffffffffffffffffffffffffffffffffff1663a9059cbb33846040518363ffffffff1660e01b815260040161145f9291906134a3565b6020604051808303816000875af115801561147e573d6000803e3d6000fd5b505050506040513d601f19601f820116820180604052508101906114a29190612969565b9050806114e4576040517f08c379a00000000000000000000000000000000000000000000000000000000081526004016114db90613518565b60405180910390fd5b7f1f4c26e9d30b2cd4f2b79e41290b5db5a0d05adf3e99e97261a2f28b2ff2720433836040516115159291906134a3565b60405180910390a150505050565b600b54600160009054906101000a900473ffffffffffffffffffffffffffffffffffffffff1673ffffffffffffffffffffffffffffffffffffffff1663dd62ed3e33306040518363ffffffff1660e01b81526004016115839291906126a3565b602060405180830381865afa1580156115a0573d6000803e3d6000fd5b505050506040513d601f19601f820116820180604052508101906115c491906126e1565b1015611605576040517f08c379a00000000000000000000000000000000000000000000000000000000081526004016115fc906135aa565b60405180910390fd5b3373ffffffffffffffffffffffffffffffffffffffff16600260009054906101000a900473ffffffffffffffffffffffffffffffffffffffff1673ffffffffffffffffffffffffffffffffffffffff16636352211e846040518263ffffffff1660e01b815260040161167791906123d0565b602060405180830381865afa158015611694573d6000803e3d6000fd5b505050506040513d601f19601f820116820180604052508101906116b891906127b5565b73ffffffffffffffffffffffffffffffffffffffff161461170e576040517f08c379a00000000000000000000000000000000000000000000000000000000081526004016117059061363c565b60405180910390fd5b6000600e60008481526020019081526020016000206001015414611767576040517f08c379a000000000000000000000000000000000000000000000000000000000815260040161175e906136ce565b60405180910390fd5b600160009054906101000a900473ffffffffffffffffffffffffffffffffffffffff1673ffffffffffffffffffffffffffffffffffffffff166323b872dd3330600b546040518463ffffffff1660e01b81526004016117c893929190612906565b6020604051808303816000875af11580156117e7573d6000803e3d6000fd5b505050506040513d601f19601f8201168201806040525081019061180b9190612969565b50604051806040016040528082815260200143815250600e600084815260200190815260200160002060008201518160000155602082015181600101559050507facb334074a0ad14881e0a65bdccb54b9da0d2f863669e5459dc8023a5aebe5ee33838360405161187e939291906136ee565b60405180910390a15050565b600080600a600084815260200190815260200160002054119050919050565b600080600e600084815260200190815260200160002060010154119050919050565b6000600660003373ffffffffffffffffffffffffffffffffffffffff1673ffffffffffffffffffffffffffffffffffffffff168152602001908152602001600020540361194d576040517f08c379a000000000000000000000000000000000000000000000000000000000815260040161194490613797565b60405180910390fd5b600554600660003373ffffffffffffffffffffffffffffffffffffffff1673ffffffffffffffffffffffffffffffffffffffff1681526020019081526020016000205461199a9190612c03565b4310156119dc576040517f08c379a00000000000000000000000000000000000000000000000000000000081526004016119d39061384f565b60405180910390fd5b600033600660003373ffffffffffffffffffffffffffffffffffffffff1673ffffffffffffffffffffffffffffffffffffffff1681526020019081526020016000205440604051602001611a31929190613435565b6040516020818303038152906040528051906020012060001c9050600660003373ffffffffffffffffffffffffffffffffffffffff1673ffffffffffffffffffffffffffffffffffffffff168152602001908152602001600020600090556000600260009054906101000a900473ffffffffffffffffffffffffffffffffffffffff1673ffffffffffffffffffffffffffffffffffffffff166340c10f1933846040518363ffffffff1660e01b8152600401611aee9291906134a3565b6020604051808303816000875af1158015611b0d573d6000803e3d6000fd5b505050506040513d601f19601f82011682018060405250810190611b3191906126e1565b90507f947b6fba38e610db2f2ee0e997726f5a848d91ca12a98a65e81643952d4bc3093382604051611b649291906134a3565b60405180910390a15050565b6000600354905090565b6000808273ffffffffffffffffffffffffffffffffffffffff163b119050919050565b606060006001611bac846120d7565b01905060008167ffffffffffffffff811115611bcb57611bca612d05565b5b6040519080825280601f01601f191660200182016040528015611bfd5781602001600182028036833780820191505090505b509050600082602001820190505b600115611c60578080600190039150507f3031323334353637383961626364656600000000000000000000000000000000600a86061a8153600a8581611c5457611c53612fe4565b5b04945060008503611c0b575b819350505050919050565b6000808260ff1603611c835782600001519050611cb8565b60018260ff1603611c9a5782602001519050611cb7565b60028260ff1603611cb15782604001519050611cb6565b600090505b5b5b92915050565b60008160ff168360ff161115611cfd5767016345785d8a00008284611ce3919061386f565b60ff16611cf091906138b8565b67ffffffffffffffff1690505b6000600260009054906101000a900473ffffffffffffffffffffffffffffffffffffffff1673ffffffffffffffffffffffffffffffffffffffff16636352211e866040518263ffffffff1660e01b8152600401611d5a91906123d0565b602060405180830381865afa158015611d77573d6000803e3d6000fd5b505050506040513d601f19601f82011682018060405250810190611d9b91906127b5565b90506000600160009054906101000a900473ffffffffffffffffffffffffffffffffffffffff1673ffffffffffffffffffffffffffffffffffffffff166370a08231836040518263ffffffff1660e01b8152600401611dfa9190612996565b602060405180830381865afa158015611e17573d6000803e3d6000fd5b505050506040513d601f19601f82011682018060405250810190611e3b91906126e1565b905082811015611e49578092505b6000600160009054906101000a900473ffffffffffffffffffffffffffffffffffffffff1673ffffffffffffffffffffffffffffffffffffffff166323b872dd8433876040518463ffffffff1660e01b8152600401611eaa93929190612906565b6020604051808303816000875af1158015611ec9573d6000803e3d6000fd5b505050506040513d601f19601f82011682018060405250810190611eed9190612969565b905080611f2f576040517f08c379a0000000000000000000000000000000000000000000000000000000008152600401611f2690613941565b60405180910390fd5b5050509392505050565b60608060008760ff1603611f84576040518060400160405280600f81526020017f537472656e6774682066696768742e00000000000000000000000000000000008152509050612012565b60018760ff1603611fcc576040518060400160405280601081526020017f4465787465726974792066696768742e000000000000000000000000000000008152509050612011565b60028760ff1603612010576040518060400160405280601381526020017f496e74656c6c6967656e63652066696768742e0000000000000000000000000081525090505b5b5b600061201d8a611b9d565b6120298860ff16611b9d565b60405160200161203a929190613a45565b604051602081830303815290604052905060006120568a611b9d565b6120628860ff16611b9d565b604051602001612073929190613ad6565b604051602081830303815290604052905060008383836120a160028b8b600a61209c9190613c4e565b61222a565b6040516020016120b49493929190613d31565b604051602081830303815290604052905080945050505050979650505050505050565b600080600090507a184f03e93ff9f4daa797ed6e38ed64bf6a1f0100000000000000008310612135577a184f03e93ff9f4daa797ed6e38ed64bf6a1f010000000000000000838161212b5761212a612fe4565b5b0492506040810190505b6d04ee2d6d415b85acef81000000008310612172576d04ee2d6d415b85acef8100000000838161216857612167612fe4565b5b0492506020810190505b662386f26fc1000083106121a157662386f26fc10000838161219757612196612fe4565b5b0492506010810190505b6305f5e10083106121ca576305f5e10083816121c0576121bf612fe4565b5b0492506008810190505b61271083106121ef5761271083816121e5576121e4612fe4565b5b0492506004810190505b60648310612212576064838161220857612207612fe4565b5b0492506002810190505b600a8310612221576001810190505b80915050919050565b6060600084600a61223b9190613d85565b90506000838561224b9190613dd0565b905060008285848861225d9190613461565b6122679190613dd0565b6122719190613013565b905061227c82611b9d565b61228582611b9d565b604051602001612296929190613e4d565b60405160208183030381529060405293505050509392505050565b6000604051905090565b600080fd5b6000819050919050565b6122d3816122c0565b81146122de57600080fd5b50565b6000813590506122f0816122ca565b92915050565b60006020828403121561230c5761230b6122bb565b5b600061231a848285016122e1565b91505092915050565b600073ffffffffffffffffffffffffffffffffffffffff82169050919050565b600061234e82612323565b9050919050565b61235e81612343565b811461236957600080fd5b50565b60008135905061237b81612355565b92915050565b60008060408385031215612398576123976122bb565b5b60006123a68582860161236c565b92505060206123b78582860161236c565b9150509250929050565b6123ca816122c0565b82525050565b60006020820190506123e560008301846123c1565b92915050565b60008115159050919050565b612400816123eb565b82525050565b600060208201905061241b60008301846123f7565b92915050565b60008060408385031215612438576124376122bb565b5b6000612446858286016122e1565b9250506020612457858286016122e1565b9150509250929050565b600082825260208201905092915050565b7f6f6e6c794f776e65722e20596f7520617265206e6f7420746865206f776e657260008201527f206f66207468697320636f6e7472616374210000000000000000000000000000602082015250565b60006124ce603283612461565b91506124d982612472565b604082019050919050565b600060208201905081810360008301526124fd816124c1565b9050919050565b7f776974686472617750726f666974732e2050726f66697473206d75737420626560008201527f2067726561746572207468616e203020696e206f7264657220746f207769746860208201527f6472617721000000000000000000000000000000000000000000000000000000604082015250565b6000612586604583612461565b915061259182612504565b606082019050919050565b600060208201905081810360008301526125b581612579565b9050919050565b600081905092915050565b50565b60006125d76000836125bc565b91506125e2826125c7565b600082019050919050565b60006125f8826125ca565b9150819050919050565b7f776974686472617750726f666974732e204661696c656420746f2073656e642060008201527f6574686572000000000000000000000000000000000000000000000000000000602082015250565b600061265e602583612461565b915061266982612602565b604082019050919050565b6000602082019050818103600083015261268d81612651565b9050919050565b61269d81612343565b82525050565b60006040820190506126b86000830185612694565b6126c56020830184612694565b9392505050565b6000815190506126db816122ca565b92915050565b6000602082840312156126f7576126f66122bb565b5b6000612705848285016126cc565b91505092915050565b7f6578706c6f7265436f6d6d69742e20436865636b204e595820616c6c6f77616e60008201527f6365000000000000000000000000000000000000000000000000000000000000602082015250565b600061276a602283612461565b91506127758261270e565b604082019050919050565b600060208201905081810360008301526127998161275d565b9050919050565b6000815190506127af81612355565b92915050565b6000602082840312156127cb576127ca6122bb565b5b60006127d9848285016127a0565b91505092915050565b7f6578706c6f7265436f6d6d69742e20596f7520617265206e6f7420746865206f60008201527f776e6572206f66207468697320746f6b656e0000000000000000000000000000602082015250565b600061283e603283612461565b9150612849826127e2565b604082019050919050565b6000602082019050818103600083015261286d81612831565b9050919050565b7f6578706c6f7265436f6d6d69742e2054686973206865726f20697320616c726560008201527f616479206578706c6f72696e6721000000000000000000000000000000000000602082015250565b60006128d0602e83612461565b91506128db82612874565b604082019050919050565b600060208201905081810360008301526128ff816128c3565b9050919050565b600060608201905061291b6000830186612694565b6129286020830185612694565b61293560408301846123c1565b949350505050565b612946816123eb565b811461295157600080fd5b50565b6000815190506129638161293d565b92915050565b60006020828403121561297f5761297e6122bb565b5b600061298d84828501612954565b91505092915050565b60006020820190506129ab6000830184612694565b92915050565b7f496e697469616c697a61626c653a20636f6e747261637420697320616c72656160008201527f647920696e697469616c697a6564000000000000000000000000000000000000602082015250565b6000612a0d602e83612461565b9150612a18826129b1565b604082019050919050565b60006020820190508181036000830152612a3c81612a00565b9050919050565b6000819050919050565b600060ff82169050919050565b6000819050919050565b6000612a7f612a7a612a7584612a43565b612a5a565b612a4d565b9050919050565b612a8f81612a64565b82525050565b6000602082019050612aaa6000830184612a86565b92915050565b7f61747461636b52657665616c2e20596f7520617265206e6f7420746865206f7760008201527f6e6572206f66207468697320746f6b656e000000000000000000000000000000602082015250565b6000612b0c603183612461565b9150612b1782612ab0565b604082019050919050565b60006020820190508181036000830152612b3b81612aff565b9050919050565b7f61747461636b52657665616c2e2054686973206865726f206973206e6f74206160008201527f747461636b696e67210000000000000000000000000000000000000000000000602082015250565b6000612b9e602983612461565b9150612ba982612b42565b604082019050919050565b60006020820190508181036000830152612bcd81612b91565b9050919050565b7f4e487b7100000000000000000000000000000000000000000000000000000000600052601160045260246000fd5b6000612c0e826122c0565b9150612c19836122c0565b9250828201905080821115612c3157612c30612bd4565b5b92915050565b7f61747461636b52657665616c2e20596f75206e65656420746f2077616974206160008201527f2062697420746f2072657665616c20796f75722061747461636b20726573756c60208201527f7473210000000000000000000000000000000000000000000000000000000000604082015250565b6000612cb9604383612461565b9150612cc482612c37565b606082019050919050565b60006020820190508181036000830152612ce881612cac565b9050919050565b600080fd5b6000601f19601f8301169050919050565b7f4e487b7100000000000000000000000000000000000000000000000000000000600052604160045260246000fd5b612d3d82612cf4565b810181811067ffffffffffffffff82111715612d5c57612d5b612d05565b5b80604052505050565b6000612d6f6122b1565b9050612d7b8282612d34565b919050565b612d8981612a4d565b8114612d9457600080fd5b50565b600081519050612da681612d80565b92915050565b60006101208284031215612dc357612dc2612cef565b5b612dce610120612d65565b90506000612dde84828501612d97565b6000830152506020612df284828501612d97565b6020830152506040612e0684828501612d97565b6040830152506060612e1a84828501612d97565b6060830152506080612e2e84828501612d97565b60808301525060a0612e4284828501612d97565b60a08301525060c0612e5684828501612d97565b60c08301525060e0612e6a84828501612d97565b60e083015250610100612e7f84828501612d97565b6101008301525092915050565b60006101208284031215612ea357612ea26122bb565b5b6000612eb184828501612dac565b91505092915050565b60008160601b9050919050565b6000612ed282612eba565b9050919050565b6000612ee482612ec7565b9050919050565b612efc612ef782612343565b612ed9565b82525050565b600081519050919050565b600081905092915050565b60005b83811015612f36578082015181840152602081019050612f1b565b60008484015250505050565b6000612f4d82612f02565b612f578185612f0d565b9350612f67818560208601612f18565b80840191505092915050565b6000819050919050565b6000819050919050565b612f98612f9382612f73565b612f7d565b82525050565b6000612faa8287612eeb565b601482019150612fba8286612f42565b9150612fc68285612f42565b9150612fd28284612f87565b60208201915081905095945050505050565b7f4e487b7100000000000000000000000000000000000000000000000000000000600052601260045260246000fd5b600061301e826122c0565b9150613029836122c0565b92508261303957613038612fe4565b5b828206905092915050565b600061304f82612a4d565b915061305a83612a4d565b92508261306a57613069612fe4565b5b828206905092915050565b60006020828403121561308b5761308a6122bb565b5b600061309984828501612d97565b91505092915050565b60006130ad82612f02565b6130b78185612461565b93506130c7818560208601612f18565b6130d081612cf4565b840191505092915050565b600060a0820190506130f06000830188612694565b6130fd60208301876123c1565b61310a60408301866123c1565b61311760608301856123c1565b818103608083015261312981846130a2565b90509695505050505050565b7f6d696e744865726f436f6d6d69742e20436865636b204e595820616c6c6f776160008201527f6e63650000000000000000000000000000000000000000000000000000000000602082015250565b6000613191602383612461565b915061319c82613135565b604082019050919050565b600060208201905081810360008301526131c081613184565b9050919050565b7f6d696e744865726f436f6d6d69742e20596f75206861766520616c726561647960008201527f2061206368617261637465722072657175657374656421000000000000000000602082015250565b6000613223603783612461565b915061322e826131c7565b604082019050919050565b6000602082019050818103600083015261325281613216565b9050919050565b7f6578706c6f726552657665616c2e20596f7520617265206e6f7420746865206f60008201527f776e6572206f66207468697320746f6b656e0000000000000000000000000000602082015250565b60006132b5603283612461565b91506132c082613259565b604082019050919050565b600060208201905081810360008301526132e4816132a8565b9050919050565b7f6578706c6f726552657665616c2e2054686973206865726f206973206e6f742060008201527f6578706c6f72696e672100000000000000000000000000000000000000000000602082015250565b6000613347602a83612461565b9150613352826132eb565b604082019050919050565b600060208201905081810360008301526133768161333a565b9050919050565b7f6578706c6f726552657665616c2e20596f75206e65656420746f20776169742060008201527f6120626974206265666f72652072657475726e696e672066726f6d206578706c60208201527f6f72696e67000000000000000000000000000000000000000000000000000000604082015250565b60006133ff604583612461565b915061340a8261337d565b606082019050919050565b6000602082019050818103600083015261342e816133f2565b9050919050565b60006134418285612eeb565b6014820191506134518284612f87565b6020820191508190509392505050565b600061346c826122c0565b9150613477836122c0565b9250828202613485816122c0565b9150828204841483151761349c5761349b612bd4565b5b5092915050565b60006040820190506134b86000830185612694565b6134c560208301846123c1565b9392505050565b7f6578706c6f726552657665616c2e204e6f7420656e6f756768204e5958210000600082015250565b6000613502601e83612461565b915061350d826134cc565b602082019050919050565b60006020820190508181036000830152613531816134f5565b9050919050565b7f61747461636b436f6d6d69742e20436865636b204e595820616c6c6f77616e6360008201527f6500000000000000000000000000000000000000000000000000000000000000602082015250565b6000613594602183612461565b915061359f82613538565b604082019050919050565b600060208201905081810360008301526135c381613587565b9050919050565b7f61747461636b436f6d6d69742e20596f7520617265206e6f7420746865206f7760008201527f6e6572206f66207468652061747461636b657220746f6b656e00000000000000602082015250565b6000613626603983612461565b9150613631826135ca565b604082019050919050565b6000602082019050818103600083015261365581613619565b9050919050565b7f61747461636b436f6d6d69742e2054686973206865726f20697320616c72656160008201527f64792061747461636b696e672100000000000000000000000000000000000000602082015250565b60006136b8602d83612461565b91506136c38261365c565b604082019050919050565b600060208201905081810360008301526136e7816136ab565b9050919050565b60006060820190506137036000830186612694565b61371060208301856123c1565b61371d60408301846123c1565b949350505050565b7f6d696e744865726f52657665616c2e20596f75206e65656420746f207265717560008201527f6573742061206368617261637465722066697273742100000000000000000000602082015250565b6000613781603683612461565b915061378c82613725565b604082019050919050565b600060208201905081810360008301526137b081613774565b9050919050565b7f6d696e744865726f52657665616c2e20596f75206e65656420746f207761697460008201527f206120626974206265666f72652072657665616c696e6720796f75722063686160208201527f7261637465720000000000000000000000000000000000000000000000000000604082015250565b6000613839604683612461565b9150613844826137b7565b606082019050919050565b600060208201905081810360008301526138688161382c565b9050919050565b600061387a82612a4d565b915061388583612a4d565b9250828203905060ff81111561389e5761389d612bd4565b5b92915050565b600067ffffffffffffffff82169050919050565b60006138c3826138a4565b91506138ce836138a4565b92508282026138dc816138a4565b91508082146138ee576138ed612bd4565b5b5092915050565b7f61747461636b52657665616c2e204e6f7420656e6f756768204e595821000000600082015250565b600061392b601d83612461565b9150613936826138f5565b602082019050919050565b6000602082019050818103600083015261395a8161391e565b9050919050565b7f204865726f204f66204e797865756d2023000000000000000000000000000000600082015250565b6000613997601183612f0d565b91506139a282613961565b601182019050919050565b7f205b000000000000000000000000000000000000000000000000000000000000600082015250565b60006139e3600283612f0d565b91506139ee826139ad565b600282019050919050565b7f5d00000000000000000000000000000000000000000000000000000000000000600082015250565b6000613a2f600183612f0d565b9150613a3a826139f9565b600182019050919050565b6000613a508261398a565b9150613a5c8285612f42565b9150613a67826139d6565b9150613a738284612f42565b9150613a7e82613a22565b91508190509392505050565b7f5d2e000000000000000000000000000000000000000000000000000000000000600082015250565b6000613ac0600283612f0d565b9150613acb82613a8a565b600282019050919050565b6000613ae18261398a565b9150613aed8285612f42565b9150613af8826139d6565b9150613b048284612f42565b9150613b0f82613ab3565b91508190509392505050565b60008160011c9050919050565b6000808291508390505b6001851115613b7257808604811115613b4e57613b4d612bd4565b5b6001851615613b5d5780820291505b8081029050613b6b85613b1b565b9450613b32565b94509492505050565b600082613b8b5760019050613c47565b81613b995760009050613c47565b8160018114613baf5760028114613bb957613be8565b6001915050613c47565b60ff841115613bcb57613bca612bd4565b5b8360020a915084821115613be257613be1612bd4565b5b50613c47565b5060208310610133831016604e8410600b8410161715613c1d5782820a905083811115613c1857613c17612bd4565b5b613c47565b613c2a8484846001613b28565b92509050818404811115613c4157613c40612bd4565b5b81810290505b9392505050565b6000613c59826122c0565b9150613c6483612a4d565b9250613c917fffffffffffffffffffffffffffffffffffffffffffffffffffffffffffffffff8484613b7b565b905092915050565b7f2076730000000000000000000000000000000000000000000000000000000000600082015250565b6000613ccf600383612f0d565b9150613cda82613c99565b600382019050919050565b7f2053746f6c656e204e59583a2000000000000000000000000000000000000000600082015250565b6000613d1b600d83612f0d565b9150613d2682613ce5565b600d82019050919050565b6000613d3d8287612f42565b9150613d498286612f42565b9150613d5482613cc2565b9150613d608285612f42565b9150613d6b82613d0e565b9150613d778284612f42565b915081905095945050505050565b6000613d90826122c0565b9150613d9b836122c0565b9250613dc87fffffffffffffffffffffffffffffffffffffffffffffffffffffffffffffffff8484613b7b565b905092915050565b6000613ddb826122c0565b9150613de6836122c0565b925082613df657613df5612fe4565b5b828204905092915050565b7f2e00000000000000000000000000000000000000000000000000000000000000600082015250565b6000613e37600183612f0d565b9150613e4282613e01565b600182019050919050565b6000613e598285612f42565b9150613e6482613e2a565b9150613e708284612f42565b9150819050939250505056fea2646970667358221220c291ddf605eebd5775ad56cf470cf0fe2bd33b858a6d63bc5d33c932932ed7a864736f6c63430008120033",
  "linkReferences": {},
  "deployedLinkReferences": {}
}