{
  "_format": "hh-sol-artifact-1",
  "contractName": "NyxeumGameV1",
  "sourceName": "contracts/NyxeumGameV1.sol",
  "abi": [
    {
      "anonymous": false,
      "inputs": [
        {
          "indexed": false,
          "internalType": "address",
          "name": "account",
          "type": "address"
        },
        {
          "indexed": false,
          "internalType": "uint256",
          "name": "attackerId",
          "type": "uint256"
        },
        {
          "indexed": false,
          "internalType": "uint256",
          "name": "targetId",
          "type": "uint256"
        }
      ],
      "name": "BeginAttack",
      "type": "event"
    },
    {
      "anonymous": false,
      "inputs": [
        {
          "indexed": false,
          "internalType": "address",
          "name": "account",
          "type": "address"
        }
      ],
      "name": "BeginExploration",
      "type": "event"
    },
    {
      "anonymous": false,
      "inputs": [
        {
          "indexed": false,
          "internalType": "address",
          "name": "account",
          "type": "address"
        }
      ],
      "name": "BeginMint",
      "type": "event"
    },
    {
      "anonymous": false,
      "inputs": [
        {
          "indexed": false,
          "internalType": "address",
          "name": "account",
          "type": "address"
        },
        {
          "indexed": false,
          "internalType": "uint256",
          "name": "attackerId",
          "type": "uint256"
        },
        {
          "indexed": false,
          "internalType": "uint256",
          "name": "targetId",
          "type": "uint256"
        },
        {
          "indexed": false,
          "internalType": "uint256",
          "name": "nyx",
          "type": "uint256"
        },
        {
          "indexed": false,
          "internalType": "string",
          "name": "logs",
          "type": "string"
        }
      ],
      "name": "EndAttack",
      "type": "event"
    },
    {
      "anonymous": false,
      "inputs": [
        {
          "indexed": false,
          "internalType": "address",
          "name": "account",
          "type": "address"
        },
        {
          "indexed": false,
          "internalType": "uint256",
          "name": "nyx",
          "type": "uint256"
        }
      ],
      "name": "EndExploration",
      "type": "event"
    },
    {
      "anonymous": false,
      "inputs": [
        {
          "indexed": false,
          "internalType": "address",
          "name": "account",
          "type": "address"
        },
        {
          "indexed": false,
          "internalType": "uint256",
          "name": "tokenId",
          "type": "uint256"
        }
      ],
      "name": "EndMint",
      "type": "event"
    },
    {
      "anonymous": false,
      "inputs": [
        {
          "indexed": false,
          "internalType": "uint8",
          "name": "version",
          "type": "uint8"
        }
      ],
      "name": "Initialized",
      "type": "event"
    },
    {
      "anonymous": false,
      "inputs": [
        {
          "indexed": false,
          "internalType": "uint256",
          "name": "success",
          "type": "uint256"
        },
        {
          "indexed": false,
          "internalType": "uint256",
          "name": "error",
          "type": "uint256"
        }
      ],
      "name": "NyxTribute",
      "type": "event"
    },
    {
      "inputs": [
        {
          "internalType": "uint256",
          "name": "attackerId",
          "type": "uint256"
        },
        {
          "internalType": "uint256",
          "name": "targetId",
          "type": "uint256"
        }
      ],
      "name": "attackCommit",
      "outputs": [],
      "stateMutability": "payable",
      "type": "function"
    },
    {
      "inputs": [
        {
          "internalType": "uint256",
          "name": "attackerId",
          "type": "uint256"
        }
      ],
      "name": "attackReveal",
      "outputs": [],
      "stateMutability": "nonpayable",
      "type": "function"
    },
    {
      "inputs": [
        {
          "internalType": "bytes",
          "name": "",
          "type": "bytes"
        }
      ],
      "name": "checkUpkeep",
      "outputs": [
        {
          "internalType": "bool",
          "name": "upkeepNeeded",
          "type": "bool"
        },
        {
          "internalType": "bytes",
          "name": "performData",
          "type": "bytes"
        }
      ],
      "stateMutability": "view",
      "type": "function"
    },
    {
      "inputs": [
        {
          "internalType": "uint256",
          "name": "tokenId",
          "type": "uint256"
        }
      ],
      "name": "exploreCommit",
      "outputs": [],
      "stateMutability": "payable",
      "type": "function"
    },
    {
      "inputs": [
        {
          "internalType": "uint256",
          "name": "tokenId",
          "type": "uint256"
        }
      ],
      "name": "exploreReveal",
      "outputs": [],
      "stateMutability": "nonpayable",
      "type": "function"
    },
    {
      "inputs": [
        {
          "internalType": "uint256",
          "name": "tokenId",
          "type": "uint256"
        }
      ],
      "name": "getAttackCooldown",
      "outputs": [
        {
          "internalType": "uint256",
          "name": "",
          "type": "uint256"
        }
      ],
      "stateMutability": "view",
      "type": "function"
    },
    {
      "inputs": [
        {
          "internalType": "uint256",
          "name": "tokenId",
          "type": "uint256"
        }
      ],
      "name": "getExploreCooldown",
      "outputs": [
        {
          "internalType": "uint256",
          "name": "",
          "type": "uint256"
        }
      ],
      "stateMutability": "view",
      "type": "function"
    },
    {
      "inputs": [],
      "name": "getMintHeroCommitPrice",
      "outputs": [
        {
          "internalType": "uint256",
          "name": "",
          "type": "uint256"
        }
      ],
      "stateMutability": "view",
      "type": "function"
    },
    {
      "inputs": [],
      "name": "getMintHeroRevealPrice",
      "outputs": [
        {
          "internalType": "uint256",
          "name": "",
          "type": "uint256"
        }
      ],
      "stateMutability": "view",
      "type": "function"
    },
    {
      "inputs": [
        {
          "internalType": "address",
          "name": "nyxEssenceAddress",
          "type": "address"
        },
        {
          "internalType": "address",
          "name": "heroesOfNyxeumAddress",
          "type": "address"
        }
      ],
      "name": "initialize",
      "outputs": [],
      "stateMutability": "nonpayable",
      "type": "function"
    },
    {
      "inputs": [
        {
          "internalType": "uint256",
          "name": "tokenId",
          "type": "uint256"
        }
      ],
      "name": "isAttacking",
      "outputs": [
        {
          "internalType": "bool",
          "name": "",
          "type": "bool"
        }
      ],
      "stateMutability": "view",
      "type": "function"
    },
    {
      "inputs": [
        {
          "internalType": "uint256",
          "name": "tokenId",
          "type": "uint256"
        }
      ],
      "name": "isExploring",
      "outputs": [
        {
          "internalType": "bool",
          "name": "",
          "type": "bool"
        }
      ],
      "stateMutability": "view",
      "type": "function"
    },
    {
      "inputs": [],
      "name": "isHeroMinted",
      "outputs": [
        {
          "internalType": "bool",
          "name": "",
          "type": "bool"
        }
      ],
      "stateMutability": "view",
      "type": "function"
    },
    {
      "inputs": [],
      "name": "mintHeroCommit",
      "outputs": [],
      "stateMutability": "payable",
      "type": "function"
    },
    {
      "inputs": [],
      "name": "mintHeroReveal",
      "outputs": [],
      "stateMutability": "nonpayable",
      "type": "function"
    },
    {
      "inputs": [],
      "name": "payNyxTribute",
      "outputs": [],
      "stateMutability": "nonpayable",
      "type": "function"
    },
    {
      "inputs": [
        {
          "internalType": "bytes",
          "name": "",
          "type": "bytes"
        }
      ],
      "name": "performUpkeep",
      "outputs": [],
      "stateMutability": "nonpayable",
      "type": "function"
    },
    {
      "inputs": [],
      "name": "withdrawProfits",
      "outputs": [],
      "stateMutability": "nonpayable",
      "type": "function"
    }
  ],
  "bytecode": "0x608060405234801561001057600080fd5b5061543a806100206000396000f3fe6080604052600436106101095760003560e01c8063b78bb5d911610095578063cb1fca4111610064578063cb1fca4114610319578063ce5cbc2c14610356578063d99d93bf1461036d578063ef1d0c8b14610384578063fea8b108146103af57610109565b8063b78bb5d91461028d578063c1de474a14610297578063c6b717b2146102c0578063c86dca5a146102dc57610109565b80636e04ff0d116100dc5780636e04ff0d146101935780636ed69b5b146101d1578063885132e9146101fc5780638fccaff614610227578063ae3452eb1461026457610109565b806339913e091461010e5780634585e33b1461012557806346e21b341461014e578063485cc9551461016a575b600080fd5b34801561011a57600080fd5b506101236103ec565b005b34801561013157600080fd5b5061014c60048036038101906101479190613161565b61058f565b005b610168600480360381019061016391906131e4565b6105b2565b005b34801561017657600080fd5b50610191600480360381019061018c919061326f565b610afe565b005b34801561019f57600080fd5b506101ba60048036038101906101b59190613161565b610d86565b6040516101c892919061335a565b60405180910390f35b3480156101dd57600080fd5b506101e6610db8565b6040516101f39190613399565b60405180910390f35b34801561020857600080fd5b50610211610dc2565b60405161021e91906133b4565b60405180910390f35b34801561023357600080fd5b5061024e600480360381019061024991906131e4565b610e0b565b60405161025b9190613399565b60405180910390f35b34801561027057600080fd5b5061028b600480360381019061028691906131e4565b610e2b565b005b61029561144b565b005b3480156102a357600080fd5b506102be60048036038101906102b991906131e4565b6116d1565b005b6102da60048036038101906102d591906133cf565b611b5f565b005b3480156102e857600080fd5b5061030360048036038101906102fe91906131e4565b6121c9565b60405161031091906133b4565b60405180910390f35b34801561032557600080fd5b50610340600480360381019061033b91906131e4565b612218565b60405161034d91906133b4565b60405180910390f35b34801561036257600080fd5b5061036b612267565b005b34801561037957600080fd5b506103826123f9565b005b34801561039057600080fd5b5061039961269e565b6040516103a69190613399565b60405180910390f35b3480156103bb57600080fd5b506103d660048036038101906103d191906131e4565b6126a8565b6040516103e39190613399565b60405180910390f35b600060029054906101000a900473ffffffffffffffffffffffffffffffffffffffff1673ffffffffffffffffffffffffffffffffffffffff163373ffffffffffffffffffffffffffffffffffffffff161461047c576040517f08c379a000000000000000000000000000000000000000000000000000000000815260040161047390613492565b60405180910390fd5b600047116104bf576040517f08c379a00000000000000000000000000000000000000000000000000000000081526004016104b69061354a565b60405180910390fd5b60008060029054906101000a900473ffffffffffffffffffffffffffffffffffffffff1673ffffffffffffffffffffffffffffffffffffffff16476040516105069061359b565b60006040518083038185875af1925050503d8060008114610543576040519150601f19603f3d011682016040523d82523d6000602084013e610548565b606091505b505090508061058c576040517f08c379a000000000000000000000000000000000000000000000000000000000815260040161058390613622565b60405180910390fd5b50565b60125460115461059f9190613671565b42106105ae576105ad612267565b5b5050565b600754600160009054906101000a900473ffffffffffffffffffffffffffffffffffffffff1673ffffffffffffffffffffffffffffffffffffffff1663dd62ed3e33306040518363ffffffff1660e01b81526004016106129291906136b4565b602060405180830381865afa15801561062f573d6000803e3d6000fd5b505050506040513d601f19601f8201168201806040525081019061065391906136f2565b1015610694576040517f08c379a000000000000000000000000000000000000000000000000000000000815260040161068b90613791565b60405180910390fd5b600754600160009054906101000a900473ffffffffffffffffffffffffffffffffffffffff1673ffffffffffffffffffffffffffffffffffffffff166370a08231336040518263ffffffff1660e01b81526004016106f291906137b1565b602060405180830381865afa15801561070f573d6000803e3d6000fd5b505050506040513d601f19601f8201168201806040525081019061073391906136f2565b1015610774576040517f08c379a000000000000000000000000000000000000000000000000000000000815260040161076b90613818565b60405180910390fd5b3373ffffffffffffffffffffffffffffffffffffffff16600260009054906101000a900473ffffffffffffffffffffffffffffffffffffffff1673ffffffffffffffffffffffffffffffffffffffff16636352211e836040518263ffffffff1660e01b81526004016107e69190613399565b602060405180830381865afa158015610803573d6000803e3d6000fd5b505050506040513d601f19601f82011682018060405250810190610827919061384d565b73ffffffffffffffffffffffffffffffffffffffff161461087d576040517f08c379a0000000000000000000000000000000000000000000000000000000008152600401610874906138ec565b60405180910390fd5b61088681612218565b156108c6576040517f08c379a00000000000000000000000000000000000000000000000000000000081526004016108bd9061397e565b60405180910390fd5b42600a600083815260200190815260200160002060010154111561091f576040517f08c379a000000000000000000000000000000000000000000000000000000000815260040161091690613a10565b60405180910390fd5b6000600a600083815260200190815260200160002060000154148061096b575060011515600a600083815260200190815260200160002060020160009054906101000a900460ff161515145b6109aa576040517f08c379a00000000000000000000000000000000000000000000000000000000081526004016109a190613aa2565b60405180910390fd5b600160009054906101000a900473ffffffffffffffffffffffffffffffffffffffff1673ffffffffffffffffffffffffffffffffffffffff166323b872dd33306007546040518463ffffffff1660e01b8152600401610a0b93929190613ac2565b6020604051808303816000875af1158015610a2a573d6000803e3d6000fd5b505050506040513d601f19601f82011682018060405250810190610a4e9190613b25565b506040518060600160405280438152602001600b5442610a6e9190613671565b815260200160001515815250600a6000838152602001908152602001600020600082015181600001556020820151816001015560408201518160020160006101000a81548160ff0219169083151502179055509050507f2fff9fbae38097da283c7eb3b6d225ae0b0732d43a2a40399643364056d185b433604051610af391906137b1565b60405180910390a150565b60008060019054906101000a900460ff16159050808015610b2f5750600160008054906101000a900460ff1660ff16105b80610b5c5750610b3e306126c8565b158015610b5b5750600160008054906101000a900460ff1660ff16145b5b610b9b576040517f08c379a0000000000000000000000000000000000000000000000000000000008152600401610b9290613bc4565b60405180910390fd5b60016000806101000a81548160ff021916908360ff1602179055508015610bd8576001600060016101000a81548160ff0219169083151502179055505b33600060026101000a81548173ffffffffffffffffffffffffffffffffffffffff021916908373ffffffffffffffffffffffffffffffffffffffff1602179055504260118190555062015180601281905550670de0b6b3a764000060138190555082600160006101000a81548173ffffffffffffffffffffffffffffffffffffffff021916908373ffffffffffffffffffffffffffffffffffffffff16021790555081600260006101000a81548173ffffffffffffffffffffffffffffffffffffffff021916908373ffffffffffffffffffffffffffffffffffffffff160217905550674563918244f4000060038190555060006004819055506001600581905550670de0b6b3a764000060078190555060006008819055506001600981905550603c600b81905550670de0b6b3a7640000600c819055506000600d819055506001600e8190555060b46010819055508015610d815760008060016101000a81548160ff0219169083151502179055507f7f26b83ff96e1f2b6a682f133852f6798a09c465da95921460cefb38474024986001604051610d789190613c36565b60405180910390a15b505050565b60006060601254601154610d9a9190613671565b42101591506040518060200160405280600081525090509250929050565b6000600454905090565b600080600660003373ffffffffffffffffffffffffffffffffffffffff1673ffffffffffffffffffffffffffffffffffffffff1681526020019081526020016000205411905090565b6000600a6000838152602001908152602001600020600101549050919050565b3373ffffffffffffffffffffffffffffffffffffffff16600260009054906101000a900473ffffffffffffffffffffffffffffffffffffffff1673ffffffffffffffffffffffffffffffffffffffff16636352211e836040518263ffffffff1660e01b8152600401610e9d9190613399565b602060405180830381865afa158015610eba573d6000803e3d6000fd5b505050506040513d601f19601f82011682018060405250810190610ede919061384d565b73ffffffffffffffffffffffffffffffffffffffff1614610f34576040517f08c379a0000000000000000000000000000000000000000000000000000000008152600401610f2b90613cc3565b60405180910390fd5b42600f6000838152602001908152602001600020600201541115610f8d576040517f08c379a0000000000000000000000000000000000000000000000000000000008152600401610f8490613d55565b60405180910390fd5b60001515600f600083815260200190815260200160002060030160009054906101000a900460ff16151514610ff7576040517f08c379a0000000000000000000000000000000000000000000000000000000008152600401610fee90613de7565b60405180910390fd5b600e54600f60008381526020019081526020016000206001015461101b9190613671565b43101561105d576040517f08c379a000000000000000000000000000000000000000000000000000000000815260040161105490613e79565b60405180910390fd5b6000600f60008381526020019081526020016000206000015490506000600260009054906101000a900473ffffffffffffffffffffffffffffffffffffffff1673ffffffffffffffffffffffffffffffffffffffff1663ad27314b846040518263ffffffff1660e01b81526004016110d59190613399565b61012060405180830381865afa1580156110f3573d6000803e3d6000fd5b505050506040513d601f19601f820116820180604052508101906111179190614025565b90506000600260009054906101000a900473ffffffffffffffffffffffffffffffffffffffff1673ffffffffffffffffffffffffffffffffffffffff1663ad27314b846040518263ffffffff1660e01b81526004016111769190613399565b61012060405180830381865afa158015611194573d6000803e3d6000fd5b505050506040513d601f19601f820116820180604052508101906111b89190614025565b90506000336111c6866126eb565b6111cf866126eb565b600f600089815260200190815260200160002060010154406040516020016111fa949392919061410d565b6040516020818303038152906040528051906020012060001c905060006003826112249190614182565b9050600061123285836127b9565b9050600061124085846127b9565b9050600082600886901c61125491906141b3565b9050600082601087901c61126891906141b3565b905060006112778a848461280c565b90506000600f60008d81526020019081526020016000206040518060800160405290816000820154815260200160018201548152602001600282015481526020016003820160009054906101000a900460ff1615151515815250509050604051806080016040528082600001518152602001826020015181526020018260400151815260200160011515815250600f60008e815260200190815260200160002060008201518160000155602082015181600101556040820151816002015560608201518160030160006101000a81548160ff02191690831515021790555090505060006113fb8d8d8a888b898c8a600160009054906101000a900473ffffffffffffffffffffffffffffffffffffffff1673ffffffffffffffffffffffffffffffffffffffff1663313ce5676040518163ffffffff1660e01b8152600401602060405180830381865afa1580156113d2573d6000803e3d6000fd5b505050506040513d601f19601f820116820180604052508101906113f691906141e4565b612a87565b90507fca55264b705c673f3b77d48a609b1c55e83f7df11bbac3ae1afc63744e0b58e3338e8e868560405161143495949392919061424a565b60405180910390a150505050505050505050505050565b600354600160009054906101000a900473ffffffffffffffffffffffffffffffffffffffff1673ffffffffffffffffffffffffffffffffffffffff1663dd62ed3e33306040518363ffffffff1660e01b81526004016114ab9291906136b4565b602060405180830381865afa1580156114c8573d6000803e3d6000fd5b505050506040513d601f19601f820116820180604052508101906114ec91906136f2565b101561152d576040517f08c379a000000000000000000000000000000000000000000000000000000000815260040161152490614316565b60405180910390fd5b6000600660003373ffffffffffffffffffffffffffffffffffffffff1673ffffffffffffffffffffffffffffffffffffffff16815260200190815260200160002054146115af576040517f08c379a00000000000000000000000000000000000000000000000000000000081526004016115a6906143a8565b60405180910390fd5b600160009054906101000a900473ffffffffffffffffffffffffffffffffffffffff1673ffffffffffffffffffffffffffffffffffffffff166323b872dd33306003546040518463ffffffff1660e01b815260040161161093929190613ac2565b6020604051808303816000875af115801561162f573d6000803e3d6000fd5b505050506040513d601f19601f820116820180604052508101906116539190613b25565b5043600660003373ffffffffffffffffffffffffffffffffffffffff1673ffffffffffffffffffffffffffffffffffffffff168152602001908152602001600020819055507fd35897783c92f3ac0c8c3d18fa7b6ca76264d08728414c6875759e7253e86850336040516116c791906137b1565b60405180910390a1565b3373ffffffffffffffffffffffffffffffffffffffff16600260009054906101000a900473ffffffffffffffffffffffffffffffffffffffff1673ffffffffffffffffffffffffffffffffffffffff16636352211e836040518263ffffffff1660e01b81526004016117439190613399565b602060405180830381865afa158015611760573d6000803e3d6000fd5b505050506040513d601f19601f82011682018060405250810190611784919061384d565b73ffffffffffffffffffffffffffffffffffffffff16146117da576040517f08c379a00000000000000000000000000000000000000000000000000000000081526004016117d19061443a565b60405180910390fd5b42600a6000838152602001908152602001600020600101541115611833576040517f08c379a000000000000000000000000000000000000000000000000000000000815260040161182a906144cc565b60405180910390fd5b60001515600a600083815260200190815260200160002060020160009054906101000a900460ff1615151461189d576040517f08c379a00000000000000000000000000000000000000000000000000000000081526004016118949061455e565b60405180910390fd5b600954600a6000838152602001908152602001600020600001546118c19190613671565b431015611903576040517f08c379a00000000000000000000000000000000000000000000000000000000081526004016118fa906145f0565b60405180910390fd5b600033600a6000848152602001908152602001600020600001544060405160200161192f929190614610565b6040516020818303038152906040528051906020012060001c9050600067016345785d8a0000600b836119629190614182565b600261196e919061463c565b611978919061463c565b90506000600160009054906101000a900473ffffffffffffffffffffffffffffffffffffffff1673ffffffffffffffffffffffffffffffffffffffff1663a9059cbb33846040518363ffffffff1660e01b81526004016119d992919061467e565b6020604051808303816000875af11580156119f8573d6000803e3d6000fd5b505050506040513d601f19601f82011682018060405250810190611a1c9190613b25565b905080611a5e576040517f08c379a0000000000000000000000000000000000000000000000000000000008152600401611a55906146f3565b60405180910390fd5b6000600a600086815260200190815260200160002060405180606001604052908160008201548152602001600182015481526020016002820160009054906101000a900460ff16151515158152505090506040518060600160405280826000015181526020018260200151815260200160011515815250600a6000878152602001908152602001600020600082015181600001556020820151816001015560408201518160020160006101000a81548160ff0219169083151502179055509050507f1f4c26e9d30b2cd4f2b79e41290b5db5a0d05adf3e99e97261a2f28b2ff272043384604051611b5092919061467e565b60405180910390a15050505050565b600c54600160009054906101000a900473ffffffffffffffffffffffffffffffffffffffff1673ffffffffffffffffffffffffffffffffffffffff1663dd62ed3e33306040518363ffffffff1660e01b8152600401611bbf9291906136b4565b602060405180830381865afa158015611bdc573d6000803e3d6000fd5b505050506040513d601f19601f82011682018060405250810190611c0091906136f2565b1015611c41576040517f08c379a0000000000000000000000000000000000000000000000000000000008152600401611c3890614785565b60405180910390fd5b600c54600160009054906101000a900473ffffffffffffffffffffffffffffffffffffffff1673ffffffffffffffffffffffffffffffffffffffff166370a08231336040518263ffffffff1660e01b8152600401611c9f91906137b1565b602060405180830381865afa158015611cbc573d6000803e3d6000fd5b505050506040513d601f19601f82011682018060405250810190611ce091906136f2565b1015611d21576040517f08c379a0000000000000000000000000000000000000000000000000000000008152600401611d18906147f1565b60405180910390fd5b3373ffffffffffffffffffffffffffffffffffffffff16600260009054906101000a900473ffffffffffffffffffffffffffffffffffffffff1673ffffffffffffffffffffffffffffffffffffffff16636352211e846040518263ffffffff1660e01b8152600401611d939190613399565b602060405180830381865afa158015611db0573d6000803e3d6000fd5b505050506040513d601f19601f82011682018060405250810190611dd4919061384d565b73ffffffffffffffffffffffffffffffffffffffff1614611e2a576040517f08c379a0000000000000000000000000000000000000000000000000000000008152600401611e2190614883565b60405180910390fd5b3373ffffffffffffffffffffffffffffffffffffffff16600260009054906101000a900473ffffffffffffffffffffffffffffffffffffffff1673ffffffffffffffffffffffffffffffffffffffff16636352211e836040518263ffffffff1660e01b8152600401611e9c9190613399565b602060405180830381865afa158015611eb9573d6000803e3d6000fd5b505050506040513d601f19601f82011682018060405250810190611edd919061384d565b73ffffffffffffffffffffffffffffffffffffffff1603611f33576040517f08c379a0000000000000000000000000000000000000000000000000000000008152600401611f2a90614915565b60405180910390fd5b611f3c826121c9565b15611f7c576040517f08c379a0000000000000000000000000000000000000000000000000000000008152600401611f73906149a7565b60405180910390fd5b42600f6000848152602001908152602001600020600201541115611fd5576040517f08c379a0000000000000000000000000000000000000000000000000000000008152600401611fcc90614a39565b60405180910390fd5b6000600f6000848152602001908152602001600020600101541480612021575060011515600f600084815260200190815260200160002060030160009054906101000a900460ff161515145b612060576040517f08c379a000000000000000000000000000000000000000000000000000000000815260040161205790614acb565b60405180910390fd5b600160009054906101000a900473ffffffffffffffffffffffffffffffffffffffff1673ffffffffffffffffffffffffffffffffffffffff166323b872dd3330600c546040518463ffffffff1660e01b81526004016120c193929190613ac2565b6020604051808303816000875af11580156120e0573d6000803e3d6000fd5b505050506040513d601f19601f820116820180604052508101906121049190613b25565b5060405180608001604052808281526020014381526020016010544261212a9190613671565b815260200160001515815250600f600084815260200190815260200160002060008201518160000155602082015181600101556040820151816002015560608201518160030160006101000a81548160ff0219169083151502179055509050507facb334074a0ad14881e0a65bdccb54b9da0d2f863669e5459dc8023a5aebe5ee3383836040516121bd93929190614aeb565b60405180910390a15050565b600080600a6000848152602001908152602001600020600001541180156122115750600a600083815260200190815260200160002060020160009054906101000a900460ff16155b9050919050565b600080600f6000848152602001908152602001600020600101541180156122605750600f600083815260200190815260200160002060030160009054906101000a900460ff16155b9050919050565b6012546011546122779190613671565b4210156122b9576040517f08c379a00000000000000000000000000000000000000000000000000000000081526004016122b090614b94565b60405180910390fd5b6000600260009054906101000a900473ffffffffffffffffffffffffffffffffffffffff1673ffffffffffffffffffffffffffffffffffffffff166318160ddd6040518163ffffffff1660e01b8152600401602060405180830381865afa158015612328573d6000803e3d6000fd5b505050506040513d601f19601f8201168201806040525081019061234c91906136f2565b90506000806000600190505b8381116123a45761236881612c60565b156123815760018361237a9190613671565b9250612391565b60018261238e9190613671565b91505b808061239c90614bb4565b915050612358565b507f5fbc000f336c0c57f42eaba00c1f6dd7dec17ac4022415ddb0705dd352c58caf82826040516123d6929190614bfc565b60405180910390a16012546011546123ee9190613671565b601181905550505050565b6000600660003373ffffffffffffffffffffffffffffffffffffffff1673ffffffffffffffffffffffffffffffffffffffff168152602001908152602001600020540361247b576040517f08c379a000000000000000000000000000000000000000000000000000000000815260040161247290614c97565b60405180910390fd5b600554600660003373ffffffffffffffffffffffffffffffffffffffff1673ffffffffffffffffffffffffffffffffffffffff168152602001908152602001600020546124c89190613671565b43101561250a576040517f08c379a000000000000000000000000000000000000000000000000000000000815260040161250190614d4f565b60405180910390fd5b600033600660003373ffffffffffffffffffffffffffffffffffffffff1673ffffffffffffffffffffffffffffffffffffffff168152602001908152602001600020544060405160200161255f929190614610565b6040516020818303038152906040528051906020012060001c9050600660003373ffffffffffffffffffffffffffffffffffffffff1673ffffffffffffffffffffffffffffffffffffffff168152602001908152602001600020600090556000600260009054906101000a900473ffffffffffffffffffffffffffffffffffffffff1673ffffffffffffffffffffffffffffffffffffffff166340c10f1933846040518363ffffffff1660e01b815260040161261c92919061467e565b6020604051808303816000875af115801561263b573d6000803e3d6000fd5b505050506040513d601f19601f8201168201806040525081019061265f91906136f2565b90507f947b6fba38e610db2f2ee0e997726f5a848d91ca12a98a65e81643952d4bc309338260405161269292919061467e565b60405180910390a15050565b6000600354905090565b6000600f6000838152602001908152602001600020600201549050919050565b6000808273ffffffffffffffffffffffffffffffffffffffff163b119050919050565b6060600060016126fa84612f0e565b01905060008167ffffffffffffffff81111561271957612718613e9e565b5b6040519080825280601f01601f19166020018201604052801561274b5781602001600182028036833780820191505090505b509050600082602001820190505b6001156127ae578080600190039150507f3031323334353637383961626364656600000000000000000000000000000000600a86061a8153600a85816127a2576127a1614153565b5b04945060008503612759575b819350505050919050565b6000808260ff16036127d15782600001519050612806565b60018260ff16036127e85782602001519050612805565b60028260ff16036127ff5782604001519050612804565b600090505b5b5b92915050565b60008160ff168360ff16111561284b5767016345785d8a000082846128319190614d6f565b60ff1661283e9190614db8565b67ffffffffffffffff1690505b6000600260009054906101000a900473ffffffffffffffffffffffffffffffffffffffff1673ffffffffffffffffffffffffffffffffffffffff16636352211e866040518263ffffffff1660e01b81526004016128a89190613399565b602060405180830381865afa1580156128c5573d6000803e3d6000fd5b505050506040513d601f19601f820116820180604052508101906128e9919061384d565b90506000600160009054906101000a900473ffffffffffffffffffffffffffffffffffffffff1673ffffffffffffffffffffffffffffffffffffffff166370a08231836040518263ffffffff1660e01b815260040161294891906137b1565b602060405180830381865afa158015612965573d6000803e3d6000fd5b505050506040513d601f19601f8201168201806040525081019061298991906136f2565b905082811015612997578092505b6000600160009054906101000a900473ffffffffffffffffffffffffffffffffffffffff1673ffffffffffffffffffffffffffffffffffffffff166323b872dd8433876040518463ffffffff1660e01b81526004016129f893929190613ac2565b6020604051808303816000875af1158015612a17573d6000803e3d6000fd5b505050506040513d601f19601f82011682018060405250810190612a3b9190613b25565b905080612a7d576040517f08c379a0000000000000000000000000000000000000000000000000000000008152600401612a7490614e41565b60405180910390fd5b5050509392505050565b60608060008960ff1603612ad2576040518060400160405280601481526020017f426174746c6520747970653a20535452202f2f200000000000000000000000008152509050612b60565b60018960ff1603612b1a576040518060400160405280601481526020017f426174746c6520747970653a20444558202f2f200000000000000000000000008152509050612b5f565b60028960ff1603612b5e576040518060400160405280601481526020017f426174746c6520747970653a20494e54202f2f2000000000000000000000000081525090505b5b5b6000612b6b8c6126eb565b612b778a60ff166126eb565b612b838a60ff166126eb565b604051602001612b9593929190614f91565b60405160208183030381529060405290506000612bb18c6126eb565b612bbd8960ff166126eb565b612bc98960ff166126eb565b604051602001612bdb93929190615086565b60405160208183030381529060405290506000612c0660028888600a612c019190615216565b613061565b604051602001612c1691906152ad565b604051602081830303815290604052905083838383604051602001612c3e94939291906152cf565b6040516020818303038152906040529450505050509998505050505050505050565b600080600260009054906101000a900473ffffffffffffffffffffffffffffffffffffffff1673ffffffffffffffffffffffffffffffffffffffff16636352211e846040518263ffffffff1660e01b8152600401612cbe9190613399565b602060405180830381865afa158015612cdb573d6000803e3d6000fd5b505050506040513d601f19601f82011682018060405250810190612cff919061384d565b9050601354600160009054906101000a900473ffffffffffffffffffffffffffffffffffffffff1673ffffffffffffffffffffffffffffffffffffffff1663dd62ed3e83306040518363ffffffff1660e01b8152600401612d619291906136b4565b602060405180830381865afa158015612d7e573d6000803e3d6000fd5b505050506040513d601f19601f82011682018060405250810190612da291906136f2565b1015612db2576000915050612f09565b601354600160009054906101000a900473ffffffffffffffffffffffffffffffffffffffff1673ffffffffffffffffffffffffffffffffffffffff166370a08231836040518263ffffffff1660e01b8152600401612e1091906137b1565b602060405180830381865afa158015612e2d573d6000803e3d6000fd5b505050506040513d601f19601f82011682018060405250810190612e5191906136f2565b1015612e61576000915050612f09565b600160009054906101000a900473ffffffffffffffffffffffffffffffffffffffff1673ffffffffffffffffffffffffffffffffffffffff166323b872dd82306013546040518463ffffffff1660e01b8152600401612ec293929190613ac2565b6020604051808303816000875af1158015612ee1573d6000803e3d6000fd5b505050506040513d601f19601f82011682018060405250810190612f059190613b25565b9150505b919050565b600080600090507a184f03e93ff9f4daa797ed6e38ed64bf6a1f0100000000000000008310612f6c577a184f03e93ff9f4daa797ed6e38ed64bf6a1f0100000000000000008381612f6257612f61614153565b5b0492506040810190505b6d04ee2d6d415b85acef81000000008310612fa9576d04ee2d6d415b85acef81000000008381612f9f57612f9e614153565b5b0492506020810190505b662386f26fc100008310612fd857662386f26fc100008381612fce57612fcd614153565b5b0492506010810190505b6305f5e1008310613001576305f5e1008381612ff757612ff6614153565b5b0492506008810190505b612710831061302657612710838161301c5761301b614153565b5b0492506004810190505b60648310613049576064838161303f5761303e614153565b5b0492506002810190505b600a8310613058576001810190505b80915050919050565b6060600084600a613072919061530d565b9050600083856130829190615358565b9050600082858488613094919061463c565b61309e9190615358565b6130a89190614182565b90506130b3826126eb565b6130bc826126eb565b6040516020016130cd9291906153d5565b60405160208183030381529060405293505050509392505050565b6000604051905090565b600080fd5b600080fd5b600080fd5b600080fd5b600080fd5b60008083601f840112613121576131206130fc565b5b8235905067ffffffffffffffff81111561313e5761313d613101565b5b60208301915083600182028301111561315a57613159613106565b5b9250929050565b60008060208385031215613178576131776130f2565b5b600083013567ffffffffffffffff811115613196576131956130f7565b5b6131a28582860161310b565b92509250509250929050565b6000819050919050565b6131c1816131ae565b81146131cc57600080fd5b50565b6000813590506131de816131b8565b92915050565b6000602082840312156131fa576131f96130f2565b5b6000613208848285016131cf565b91505092915050565b600073ffffffffffffffffffffffffffffffffffffffff82169050919050565b600061323c82613211565b9050919050565b61324c81613231565b811461325757600080fd5b50565b60008135905061326981613243565b92915050565b60008060408385031215613286576132856130f2565b5b60006132948582860161325a565b92505060206132a58582860161325a565b9150509250929050565b60008115159050919050565b6132c4816132af565b82525050565b600081519050919050565b600082825260208201905092915050565b60005b838110156133045780820151818401526020810190506132e9565b60008484015250505050565b6000601f19601f8301169050919050565b600061332c826132ca565b61333681856132d5565b93506133468185602086016132e6565b61334f81613310565b840191505092915050565b600060408201905061336f60008301856132bb565b81810360208301526133818184613321565b90509392505050565b613393816131ae565b82525050565b60006020820190506133ae600083018461338a565b92915050565b60006020820190506133c960008301846132bb565b92915050565b600080604083850312156133e6576133e56130f2565b5b60006133f4858286016131cf565b9250506020613405858286016131cf565b9150509250929050565b600082825260208201905092915050565b7f6f6e6c794f776e65722e20596f7520617265206e6f7420746865206f776e657260008201527f206f66207468697320636f6e7472616374210000000000000000000000000000602082015250565b600061347c60328361340f565b915061348782613420565b604082019050919050565b600060208201905081810360008301526134ab8161346f565b9050919050565b7f776974686472617750726f666974732e2050726f66697473206d75737420626560008201527f2067726561746572207468616e203020696e206f7264657220746f207769746860208201527f6472617721000000000000000000000000000000000000000000000000000000604082015250565b600061353460458361340f565b915061353f826134b2565b606082019050919050565b6000602082019050818103600083015261356381613527565b9050919050565b600081905092915050565b50565b600061358560008361356a565b915061359082613575565b600082019050919050565b60006135a682613578565b9150819050919050565b7f776974686472617750726f666974732e204661696c656420746f2073656e642060008201527f6574686572000000000000000000000000000000000000000000000000000000602082015250565b600061360c60258361340f565b9150613617826135b0565b604082019050919050565b6000602082019050818103600083015261363b816135ff565b9050919050565b7f4e487b7100000000000000000000000000000000000000000000000000000000600052601160045260246000fd5b600061367c826131ae565b9150613687836131ae565b925082820190508082111561369f5761369e613642565b5b92915050565b6136ae81613231565b82525050565b60006040820190506136c960008301856136a5565b6136d660208301846136a5565b9392505050565b6000815190506136ec816131b8565b92915050565b600060208284031215613708576137076130f2565b5b6000613716848285016136dd565b91505092915050565b7f6578706c6f7265436f6d6d69742e20436865636b204e595820616c6c6f77616e60008201527f6365000000000000000000000000000000000000000000000000000000000000602082015250565b600061377b60228361340f565b91506137868261371f565b604082019050919050565b600060208201905081810360008301526137aa8161376e565b9050919050565b60006020820190506137c660008301846136a5565b92915050565b7f6578706c6f7265436f6d6d69742e204e6f7420656e6f756768204e5958000000600082015250565b6000613802601d8361340f565b915061380d826137cc565b602082019050919050565b60006020820190508181036000830152613831816137f5565b9050919050565b60008151905061384781613243565b92915050565b600060208284031215613863576138626130f2565b5b600061387184828501613838565b91505092915050565b7f6578706c6f7265436f6d6d69742e20596f7520646f206e6f74206f776e20746860008201527f697320746f6b656e000000000000000000000000000000000000000000000000602082015250565b60006138d660288361340f565b91506138e18261387a565b604082019050919050565b60006020820190508181036000830152613905816138c9565b9050919050565b7f6578706c6f7265436f6d6d69742e2054686973206865726f206973206174746160008201527f636b696e67000000000000000000000000000000000000000000000000000000602082015250565b600061396860258361340f565b91506139738261390c565b604082019050919050565b600060208201905081810360008301526139978161395b565b9050919050565b7f6578706c6f7265436f6d6d69742e2054686973206865726f206861732065787060008201527f6c6f726520636f6f6c646f776e21000000000000000000000000000000000000602082015250565b60006139fa602e8361340f565b9150613a058261399e565b604082019050919050565b60006020820190508181036000830152613a29816139ed565b9050919050565b7f6578706c6f7265436f6d6d69742e2050726576696f7573206578706c6f72652060008201527f6e6f7420636c61696d6564210000000000000000000000000000000000000000602082015250565b6000613a8c602c8361340f565b9150613a9782613a30565b604082019050919050565b60006020820190508181036000830152613abb81613a7f565b9050919050565b6000606082019050613ad760008301866136a5565b613ae460208301856136a5565b613af1604083018461338a565b949350505050565b613b02816132af565b8114613b0d57600080fd5b50565b600081519050613b1f81613af9565b92915050565b600060208284031215613b3b57613b3a6130f2565b5b6000613b4984828501613b10565b91505092915050565b7f496e697469616c697a61626c653a20636f6e747261637420697320616c72656160008201527f647920696e697469616c697a6564000000000000000000000000000000000000602082015250565b6000613bae602e8361340f565b9150613bb982613b52565b604082019050919050565b60006020820190508181036000830152613bdd81613ba1565b9050919050565b6000819050919050565b600060ff82169050919050565b6000819050919050565b6000613c20613c1b613c1684613be4565b613bfb565b613bee565b9050919050565b613c3081613c05565b82525050565b6000602082019050613c4b6000830184613c27565b92915050565b7f61747461636b52657665616c2e20596f7520646f206e6f74206f776e2074686560008201527f2061747461636b65722100000000000000000000000000000000000000000000602082015250565b6000613cad602a8361340f565b9150613cb882613c51565b604082019050919050565b60006020820190508181036000830152613cdc81613ca0565b9050919050565b7f61747461636b52657665616c2e2054686973206865726f20686173206174746160008201527f636b20636f6f6c646f776e210000000000000000000000000000000000000000602082015250565b6000613d3f602c8361340f565b9150613d4a82613ce3565b604082019050919050565b60006020820190508181036000830152613d6e81613d32565b9050919050565b7f61747461636b52657665616c2e2041747461636b20616c726561647920636c6160008201527f696d656421000000000000000000000000000000000000000000000000000000602082015250565b6000613dd160258361340f565b9150613ddc82613d75565b604082019050919050565b60006020820190508181036000830152613e0081613dc4565b9050919050565b7f61747461636b52657665616c2e204e6f7420656e6f75676820626c6f636b206460008201527f656c617921000000000000000000000000000000000000000000000000000000602082015250565b6000613e6360258361340f565b9150613e6e82613e07565b604082019050919050565b60006020820190508181036000830152613e9281613e56565b9050919050565b600080fd5b7f4e487b7100000000000000000000000000000000000000000000000000000000600052604160045260246000fd5b613ed682613310565b810181811067ffffffffffffffff82111715613ef557613ef4613e9e565b5b80604052505050565b6000613f086130e8565b9050613f148282613ecd565b919050565b613f2281613bee565b8114613f2d57600080fd5b50565b600081519050613f3f81613f19565b92915050565b60006101208284031215613f5c57613f5b613e99565b5b613f67610120613efe565b90506000613f7784828501613f30565b6000830152506020613f8b84828501613f30565b6020830152506040613f9f84828501613f30565b6040830152506060613fb384828501613f30565b6060830152506080613fc784828501613f30565b60808301525060a0613fdb84828501613f30565b60a08301525060c0613fef84828501613f30565b60c08301525060e061400384828501613f30565b60e08301525061010061401884828501613f30565b6101008301525092915050565b6000610120828403121561403c5761403b6130f2565b5b600061404a84828501613f45565b91505092915050565b60008160601b9050919050565b600061406b82614053565b9050919050565b600061407d82614060565b9050919050565b61409561409082613231565b614072565b82525050565b600081519050919050565b600081905092915050565b60006140bc8261409b565b6140c681856140a6565b93506140d68185602086016132e6565b80840191505092915050565b6000819050919050565b6000819050919050565b614107614102826140e2565b6140ec565b82525050565b60006141198287614084565b60148201915061412982866140b1565b915061413582856140b1565b915061414182846140f6565b60208201915081905095945050505050565b7f4e487b7100000000000000000000000000000000000000000000000000000000600052601260045260246000fd5b600061418d826131ae565b9150614198836131ae565b9250826141a8576141a7614153565b5b828206905092915050565b60006141be82613bee565b91506141c983613bee565b9250826141d9576141d8614153565b5b828206905092915050565b6000602082840312156141fa576141f96130f2565b5b600061420884828501613f30565b91505092915050565b600061421c8261409b565b614226818561340f565b93506142368185602086016132e6565b61423f81613310565b840191505092915050565b600060a08201905061425f60008301886136a5565b61426c602083018761338a565b614279604083018661338a565b614286606083018561338a565b81810360808301526142988184614211565b90509695505050505050565b7f6d696e744865726f436f6d6d69742e20436865636b204e595820616c6c6f776160008201527f6e63650000000000000000000000000000000000000000000000000000000000602082015250565b600061430060238361340f565b915061430b826142a4565b604082019050919050565b6000602082019050818103600083015261432f816142f3565b9050919050565b7f6d696e744865726f436f6d6d69742e20596f75206861766520616c726561647960008201527f2061206368617261637465722072657175657374656421000000000000000000602082015250565b600061439260378361340f565b915061439d82614336565b604082019050919050565b600060208201905081810360008301526143c181614385565b9050919050565b7f6578706c6f726552657665616c2e20596f7520617265206e6f7420746865206f60008201527f776e6572206f66207468697320746f6b656e0000000000000000000000000000602082015250565b600061442460328361340f565b915061442f826143c8565b604082019050919050565b6000602082019050818103600083015261445381614417565b9050919050565b7f6578706c6f726552657665616c2e2054686973206865726f206861732065787060008201527f6c6f726520636f6f6c646f776e21000000000000000000000000000000000000602082015250565b60006144b6602e8361340f565b91506144c18261445a565b604082019050919050565b600060208201905081810360008301526144e5816144a9565b9050919050565b7f6578706c6f726552657665616c2e204578706c6f726520616c7265616479206360008201527f6c61696d65642100000000000000000000000000000000000000000000000000602082015250565b600061454860278361340f565b9150614553826144ec565b604082019050919050565b600060208201905081810360008301526145778161453b565b9050919050565b7f6578706c6f726552657665616c2e204e6f7420656e6f75676820626c6f636b2060008201527f64656c6179210000000000000000000000000000000000000000000000000000602082015250565b60006145da60268361340f565b91506145e58261457e565b604082019050919050565b60006020820190508181036000830152614609816145cd565b9050919050565b600061461c8285614084565b60148201915061462c82846140f6565b6020820191508190509392505050565b6000614647826131ae565b9150614652836131ae565b9250828202614660816131ae565b9150828204841483151761467757614676613642565b5b5092915050565b600060408201905061469360008301856136a5565b6146a0602083018461338a565b9392505050565b7f6578706c6f726552657665616c2e204e6f7420656e6f756768204e5958210000600082015250565b60006146dd601e8361340f565b91506146e8826146a7565b602082019050919050565b6000602082019050818103600083015261470c816146d0565b9050919050565b7f61747461636b436f6d6d69742e20436865636b204e595820616c6c6f77616e6360008201527f6500000000000000000000000000000000000000000000000000000000000000602082015250565b600061476f60218361340f565b915061477a82614713565b604082019050919050565b6000602082019050818103600083015261479e81614762565b9050919050565b7f61747461636b436f6d6d69742e204e6f7420656e6f756768204e595800000000600082015250565b60006147db601c8361340f565b91506147e6826147a5565b602082019050919050565b6000602082019050818103600083015261480a816147ce565b9050919050565b7f61747461636b436f6d6d69742e20596f7520646f206e6f74206f776e2074686560008201527f2061747461636b65722100000000000000000000000000000000000000000000602082015250565b600061486d602a8361340f565b915061487882614811565b604082019050919050565b6000602082019050818103600083015261489c81614860565b9050919050565b7f61747461636b436f6d6d69742e20596f75206f776e207468652074617267657460008201527f2100000000000000000000000000000000000000000000000000000000000000602082015250565b60006148ff60218361340f565b915061490a826148a3565b604082019050919050565b6000602082019050818103600083015261492e816148f2565b9050919050565b7f61747461636b436f6d6d69742e2054686973206865726f206973206578706c6f60008201527f72696e6700000000000000000000000000000000000000000000000000000000602082015250565b600061499160248361340f565b915061499c82614935565b604082019050919050565b600060208201905081810360008301526149c081614984565b9050919050565b7f61747461636b436f6d6d69742e2054686973206865726f20686173206174746160008201527f636b20636f6f6c646f776e210000000000000000000000000000000000000000602082015250565b6000614a23602c8361340f565b9150614a2e826149c7565b604082019050919050565b60006020820190508181036000830152614a5281614a16565b9050919050565b7f61747461636b436f6d6d69742e2050726576696f75732061747461636b206e6f60008201527f7420636c61696d65642100000000000000000000000000000000000000000000602082015250565b6000614ab5602a8361340f565b9150614ac082614a59565b604082019050919050565b60006020820190508181036000830152614ae481614aa8565b9050919050565b6000606082019050614b0060008301866136a5565b614b0d602083018561338a565b614b1a604083018461338a565b949350505050565b7f7061794e7978547269627574652e204974206973206e6f74207468652074696d60008201527f65207965742e0000000000000000000000000000000000000000000000000000602082015250565b6000614b7e60268361340f565b9150614b8982614b22565b604082019050919050565b60006020820190508181036000830152614bad81614b71565b9050919050565b6000614bbf826131ae565b91507fffffffffffffffffffffffffffffffffffffffffffffffffffffffffffffffff8203614bf157614bf0613642565b5b600182019050919050565b6000604082019050614c11600083018561338a565b614c1e602083018461338a565b9392505050565b7f6d696e744865726f52657665616c2e20596f75206e65656420746f207265717560008201527f6573742061206368617261637465722066697273742100000000000000000000602082015250565b6000614c8160368361340f565b9150614c8c82614c25565b604082019050919050565b60006020820190508181036000830152614cb081614c74565b9050919050565b7f6d696e744865726f52657665616c2e20596f75206e65656420746f207761697460008201527f206120626974206265666f72652072657665616c696e6720796f75722063686160208201527f7261637465720000000000000000000000000000000000000000000000000000604082015250565b6000614d3960468361340f565b9150614d4482614cb7565b606082019050919050565b60006020820190508181036000830152614d6881614d2c565b9050919050565b6000614d7a82613bee565b9150614d8583613bee565b9250828203905060ff811115614d9e57614d9d613642565b5b92915050565b600067ffffffffffffffff82169050919050565b6000614dc382614da4565b9150614dce83614da4565b9250828202614ddc81614da4565b9150808214614dee57614ded613642565b5b5092915050565b7f61747461636b52657665616c2e204e6f7420656e6f756768204e595821000000600082015250565b6000614e2b601d8361340f565b9150614e3682614df5565b602082019050919050565b60006020820190508181036000830152614e5a81614e1e565b9050919050565b7f41747461636b65723a204865726f204f66204e797865756d2023000000000000600082015250565b6000614e97601a836140a6565b9150614ea282614e61565b601a82019050919050565b7f202f2f2041747461636b657220526f6c6c3a2000000000000000000000000000600082015250565b6000614ee36013836140a6565b9150614eee82614ead565b601382019050919050565b7f206f662000000000000000000000000000000000000000000000000000000000600082015250565b6000614f2f6004836140a6565b9150614f3a82614ef9565b600482019050919050565b7f202f2f2000000000000000000000000000000000000000000000000000000000600082015250565b6000614f7b6004836140a6565b9150614f8682614f45565b600482019050919050565b6000614f9c82614e8a565b9150614fa882866140b1565b9150614fb382614ed6565b9150614fbf82856140b1565b9150614fca82614f22565b9150614fd682846140b1565b9150614fe182614f6e565b9150819050949350505050565b7f5461726765743a204865726f204f66204e797865756d20230000000000000000600082015250565b60006150246018836140a6565b915061502f82614fee565b601882019050919050565b7f202f2f2054617267657420526f6c6c3a20000000000000000000000000000000600082015250565b60006150706011836140a6565b915061507b8261503a565b601182019050919050565b600061509182615017565b915061509d82866140b1565b91506150a882615063565b91506150b482856140b1565b91506150bf82614f22565b91506150cb82846140b1565b91506150d682614f6e565b9150819050949350505050565b60008160011c9050919050565b6000808291508390505b600185111561513a5780860481111561511657615115613642565b5b60018516156151255780820291505b8081029050615133856150e3565b94506150fa565b94509492505050565b600082615153576001905061520f565b81615161576000905061520f565b81600181146151775760028114615181576151b0565b600191505061520f565b60ff84111561519357615192613642565b5b8360020a9150848211156151aa576151a9613642565b5b5061520f565b5060208310610133831016604e8410600b84101617156151e55782820a9050838111156151e0576151df613642565b5b61520f565b6151f284848460016150f0565b9250905081840481111561520957615208613642565b5b81810290505b9392505050565b6000615221826131ae565b915061522c83613bee565b92506152597fffffffffffffffffffffffffffffffffffffffffffffffffffffffffffffffff8484615143565b905092915050565b7f53746f6c656e204e59583a200000000000000000000000000000000000000000600082015250565b6000615297600c836140a6565b91506152a282615261565b600c82019050919050565b60006152b88261528a565b91506152c482846140b1565b915081905092915050565b60006152db82876140b1565b91506152e782866140b1565b91506152f382856140b1565b91506152ff82846140b1565b915081905095945050505050565b6000615318826131ae565b9150615323836131ae565b92506153507fffffffffffffffffffffffffffffffffffffffffffffffffffffffffffffffff8484615143565b905092915050565b6000615363826131ae565b915061536e836131ae565b92508261537e5761537d614153565b5b828204905092915050565b7f2e00000000000000000000000000000000000000000000000000000000000000600082015250565b60006153bf6001836140a6565b91506153ca82615389565b600182019050919050565b60006153e182856140b1565b91506153ec826153b2565b91506153f882846140b1565b9150819050939250505056fea2646970667358221220a8ece98dc33820807d14b22ac704265ccc97a9f1cf270b83a8e1b916c4fb880264736f6c63430008120033",
  "linkReferences": {},
  "deployedLinkReferences": {}
}