{
  "_format": "hh-sol-artifact-1",
  "contractName": "NyxeumGameV1",
  "sourceName": "contracts/NyxeumGameV1.sol",
  "abi": [
    {
      "anonymous": false,
      "inputs": [
        {
          "indexed": false,
          "internalType": "address",
          "name": "",
          "type": "address"
        }
      ],
      "name": "BeginExploration",
      "type": "event"
    },
    {
      "anonymous": false,
      "inputs": [
        {
          "indexed": false,
          "internalType": "address",
          "name": "",
          "type": "address"
        }
      ],
      "name": "BeginMint",
      "type": "event"
    },
    {
      "anonymous": false,
      "inputs": [
        {
          "indexed": false,
          "internalType": "address",
          "name": "",
          "type": "address"
        },
        {
          "indexed": false,
          "internalType": "uint256",
          "name": "",
          "type": "uint256"
        }
      ],
      "name": "EndExploration",
      "type": "event"
    },
    {
      "anonymous": false,
      "inputs": [
        {
          "indexed": false,
          "internalType": "address",
          "name": "",
          "type": "address"
        },
        {
          "indexed": false,
          "internalType": "uint256",
          "name": "",
          "type": "uint256"
        }
      ],
      "name": "EndMint",
      "type": "event"
    },
    {
      "anonymous": false,
      "inputs": [
        {
          "indexed": false,
          "internalType": "uint8",
          "name": "version",
          "type": "uint8"
        }
      ],
      "name": "Initialized",
      "type": "event"
    },
    {
      "inputs": [
        {
          "internalType": "uint256",
          "name": "tokenId",
          "type": "uint256"
        }
      ],
      "name": "exploreCommit",
      "outputs": [],
      "stateMutability": "payable",
      "type": "function"
    },
    {
      "inputs": [
        {
          "internalType": "uint256",
          "name": "tokenId",
          "type": "uint256"
        }
      ],
      "name": "exploreReveal",
      "outputs": [],
      "stateMutability": "nonpayable",
      "type": "function"
    },
    {
      "inputs": [],
      "name": "getMintHeroCommitPrice",
      "outputs": [
        {
          "internalType": "uint256",
          "name": "",
          "type": "uint256"
        }
      ],
      "stateMutability": "view",
      "type": "function"
    },
    {
      "inputs": [],
      "name": "getMintHeroRevealPrice",
      "outputs": [
        {
          "internalType": "uint256",
          "name": "",
          "type": "uint256"
        }
      ],
      "stateMutability": "view",
      "type": "function"
    },
    {
      "inputs": [
        {
          "internalType": "address",
          "name": "nyxEssenceAddress",
          "type": "address"
        },
        {
          "internalType": "address",
          "name": "heroesOfNyxeumAddress",
          "type": "address"
        }
      ],
      "name": "initialize",
      "outputs": [],
      "stateMutability": "nonpayable",
      "type": "function"
    },
    {
      "inputs": [
        {
          "internalType": "uint256",
          "name": "tokenId",
          "type": "uint256"
        }
      ],
      "name": "isExploring",
      "outputs": [
        {
          "internalType": "bool",
          "name": "",
          "type": "bool"
        }
      ],
      "stateMutability": "view",
      "type": "function"
    },
    {
      "inputs": [],
      "name": "isHeroMinted",
      "outputs": [
        {
          "internalType": "bool",
          "name": "",
          "type": "bool"
        }
      ],
      "stateMutability": "view",
      "type": "function"
    },
    {
      "inputs": [],
      "name": "mintHeroCommit",
      "outputs": [],
      "stateMutability": "payable",
      "type": "function"
    },
    {
      "inputs": [],
      "name": "mintHeroReveal",
      "outputs": [],
      "stateMutability": "nonpayable",
      "type": "function"
    },
    {
      "inputs": [],
      "name": "withdrawProfits",
      "outputs": [],
      "stateMutability": "nonpayable",
      "type": "function"
    }
  ],
  "bytecode": "0x608060405234801561001057600080fd5b506120b6806100206000396000f3fe6080604052600436106100915760003560e01c8063b78bb5d911610059578063b78bb5d914610148578063c1de474a14610152578063c86dca5a1461017b578063d99d93bf146101b8578063ef1d0c8b146101cf57610091565b806339913e091461009657806346e21b34146100ad578063485cc955146100c95780636ed69b5b146100f2578063885132e91461011d575b600080fd5b3480156100a257600080fd5b506100ab6101fa565b005b6100c760048036038101906100c29190611283565b61039d565b005b3480156100d557600080fd5b506100f060048036038101906100eb919061130e565b6106d5565b005b3480156100fe57600080fd5b5061010761090e565b604051610114919061135d565b60405180910390f35b34801561012957600080fd5b50610132610918565b60405161013f9190611393565b60405180910390f35b610150610961565b005b34801561015e57600080fd5b5061017960048036038101906101749190611283565b610be7565b005b34801561018757600080fd5b506101a2600480360381019061019d9190611283565b610f57565b6040516101af9190611393565b60405180910390f35b3480156101c457600080fd5b506101cd610f76565b005b3480156101db57600080fd5b506101e461121b565b6040516101f1919061135d565b60405180910390f35b600060029054906101000a900473ffffffffffffffffffffffffffffffffffffffff1673ffffffffffffffffffffffffffffffffffffffff163373ffffffffffffffffffffffffffffffffffffffff161461028a576040517f08c379a000000000000000000000000000000000000000000000000000000000815260040161028190611431565b60405180910390fd5b600047116102cd576040517f08c379a00000000000000000000000000000000000000000000000000000000081526004016102c4906114e9565b60405180910390fd5b60008060029054906101000a900473ffffffffffffffffffffffffffffffffffffffff1673ffffffffffffffffffffffffffffffffffffffff16476040516103149061153a565b60006040518083038185875af1925050503d8060008114610351576040519150601f19603f3d011682016040523d82523d6000602084013e610356565b606091505b505090508061039a576040517f08c379a0000000000000000000000000000000000000000000000000000000008152600401610391906115c1565b60405180910390fd5b50565b600754600160009054906101000a900473ffffffffffffffffffffffffffffffffffffffff1673ffffffffffffffffffffffffffffffffffffffff1663dd62ed3e33306040518363ffffffff1660e01b81526004016103fd9291906115f0565b602060405180830381865afa15801561041a573d6000803e3d6000fd5b505050506040513d601f19601f8201168201806040525081019061043e919061162e565b101561047f576040517f08c379a0000000000000000000000000000000000000000000000000000000008152600401610476906116cd565b60405180910390fd5b3373ffffffffffffffffffffffffffffffffffffffff16600260009054906101000a900473ffffffffffffffffffffffffffffffffffffffff1673ffffffffffffffffffffffffffffffffffffffff16636352211e836040518263ffffffff1660e01b81526004016104f1919061135d565b602060405180830381865afa15801561050e573d6000803e3d6000fd5b505050506040513d601f19601f820116820180604052508101906105329190611702565b73ffffffffffffffffffffffffffffffffffffffff1614610588576040517f08c379a000000000000000000000000000000000000000000000000000000000815260040161057f906117a1565b60405180910390fd5b6000600a600083815260200190815260200160002054146105de576040517f08c379a00000000000000000000000000000000000000000000000000000000081526004016105d590611833565b60405180910390fd5b600160009054906101000a900473ffffffffffffffffffffffffffffffffffffffff1673ffffffffffffffffffffffffffffffffffffffff166323b872dd33306007546040518463ffffffff1660e01b815260040161063f93929190611853565b6020604051808303816000875af115801561065e573d6000803e3d6000fd5b505050506040513d601f19601f8201168201806040525081019061068291906118b6565b5043600a6000838152602001908152602001600020819055507f2fff9fbae38097da283c7eb3b6d225ae0b0732d43a2a40399643364056d185b4336040516106ca91906118e3565b60405180910390a150565b60008060019054906101000a900460ff161590508080156107065750600160008054906101000a900460ff1660ff16105b80610733575061071530611225565b1580156107325750600160008054906101000a900460ff1660ff16145b5b610772576040517f08c379a000000000000000000000000000000000000000000000000000000000815260040161076990611970565b60405180910390fd5b60016000806101000a81548160ff021916908360ff16021790555080156107af576001600060016101000a81548160ff0219169083151502179055505b33600060026101000a81548173ffffffffffffffffffffffffffffffffffffffff021916908373ffffffffffffffffffffffffffffffffffffffff16021790555082600160006101000a81548173ffffffffffffffffffffffffffffffffffffffff021916908373ffffffffffffffffffffffffffffffffffffffff16021790555081600260006101000a81548173ffffffffffffffffffffffffffffffffffffffff021916908373ffffffffffffffffffffffffffffffffffffffff160217905550674563918244f4000060038190555060006004819055506001600581905550670de0b6b3a76400006007819055506000600881905550600160098190555080156109095760008060016101000a81548160ff0219169083151502179055507f7f26b83ff96e1f2b6a682f133852f6798a09c465da95921460cefb3847402498600160405161090091906119e2565b60405180910390a15b505050565b6000600454905090565b600080600660003373ffffffffffffffffffffffffffffffffffffffff1673ffffffffffffffffffffffffffffffffffffffff1681526020019081526020016000205411905090565b600354600160009054906101000a900473ffffffffffffffffffffffffffffffffffffffff1673ffffffffffffffffffffffffffffffffffffffff1663dd62ed3e33306040518363ffffffff1660e01b81526004016109c19291906115f0565b602060405180830381865afa1580156109de573d6000803e3d6000fd5b505050506040513d601f19601f82011682018060405250810190610a02919061162e565b1015610a43576040517f08c379a0000000000000000000000000000000000000000000000000000000008152600401610a3a90611a6f565b60405180910390fd5b6000600660003373ffffffffffffffffffffffffffffffffffffffff1673ffffffffffffffffffffffffffffffffffffffff1681526020019081526020016000205414610ac5576040517f08c379a0000000000000000000000000000000000000000000000000000000008152600401610abc90611b01565b60405180910390fd5b600160009054906101000a900473ffffffffffffffffffffffffffffffffffffffff1673ffffffffffffffffffffffffffffffffffffffff166323b872dd33306003546040518463ffffffff1660e01b8152600401610b2693929190611853565b6020604051808303816000875af1158015610b45573d6000803e3d6000fd5b505050506040513d601f19601f82011682018060405250810190610b6991906118b6565b5043600660003373ffffffffffffffffffffffffffffffffffffffff1673ffffffffffffffffffffffffffffffffffffffff168152602001908152602001600020819055507fd35897783c92f3ac0c8c3d18fa7b6ca76264d08728414c6875759e7253e8685033604051610bdd91906118e3565b60405180910390a1565b3373ffffffffffffffffffffffffffffffffffffffff16600260009054906101000a900473ffffffffffffffffffffffffffffffffffffffff1673ffffffffffffffffffffffffffffffffffffffff16636352211e836040518263ffffffff1660e01b8152600401610c59919061135d565b602060405180830381865afa158015610c76573d6000803e3d6000fd5b505050506040513d601f19601f82011682018060405250810190610c9a9190611702565b73ffffffffffffffffffffffffffffffffffffffff1614610cf0576040517f08c379a0000000000000000000000000000000000000000000000000000000008152600401610ce790611b93565b60405180910390fd5b6000600a60008381526020019081526020016000205403610d46576040517f08c379a0000000000000000000000000000000000000000000000000000000008152600401610d3d90611c25565b60405180910390fd5b600954600a600083815260200190815260200160002054610d679190611c74565b431015610da9576040517f08c379a0000000000000000000000000000000000000000000000000000000008152600401610da090611d40565b60405180910390fd5b600033600a60008481526020019081526020016000205440604051602001610dd2929190611dd3565b6040516020818303038152906040528051906020012060001c9050600a600083815260200190815260200160002060009055600067016345785d8a0000600b83610e1c9190611e2e565b6002610e289190611e5f565b610e329190611e5f565b90506000600160009054906101000a900473ffffffffffffffffffffffffffffffffffffffff1673ffffffffffffffffffffffffffffffffffffffff1663a9059cbb33846040518363ffffffff1660e01b8152600401610e93929190611ea1565b6020604051808303816000875af1158015610eb2573d6000803e3d6000fd5b505050506040513d601f19601f82011682018060405250810190610ed691906118b6565b905080610f18576040517f08c379a0000000000000000000000000000000000000000000000000000000008152600401610f0f90611f16565b60405180910390fd5b7f1f4c26e9d30b2cd4f2b79e41290b5db5a0d05adf3e99e97261a2f28b2ff272043383604051610f49929190611ea1565b60405180910390a150505050565b600080600a600084815260200190815260200160002054119050919050565b6000600660003373ffffffffffffffffffffffffffffffffffffffff1673ffffffffffffffffffffffffffffffffffffffff1681526020019081526020016000205403610ff8576040517f08c379a0000000000000000000000000000000000000000000000000000000008152600401610fef90611fa8565b60405180910390fd5b600554600660003373ffffffffffffffffffffffffffffffffffffffff1673ffffffffffffffffffffffffffffffffffffffff168152602001908152602001600020546110459190611c74565b431015611087576040517f08c379a000000000000000000000000000000000000000000000000000000000815260040161107e90612060565b60405180910390fd5b600033600660003373ffffffffffffffffffffffffffffffffffffffff1673ffffffffffffffffffffffffffffffffffffffff16815260200190815260200160002054406040516020016110dc929190611dd3565b6040516020818303038152906040528051906020012060001c9050600660003373ffffffffffffffffffffffffffffffffffffffff1673ffffffffffffffffffffffffffffffffffffffff168152602001908152602001600020600090556000600260009054906101000a900473ffffffffffffffffffffffffffffffffffffffff1673ffffffffffffffffffffffffffffffffffffffff166340c10f1933846040518363ffffffff1660e01b8152600401611199929190611ea1565b6020604051808303816000875af11580156111b8573d6000803e3d6000fd5b505050506040513d601f19601f820116820180604052508101906111dc919061162e565b90507f947b6fba38e610db2f2ee0e997726f5a848d91ca12a98a65e81643952d4bc309338260405161120f929190611ea1565b60405180910390a15050565b6000600354905090565b6000808273ffffffffffffffffffffffffffffffffffffffff163b119050919050565b600080fd5b6000819050919050565b6112608161124d565b811461126b57600080fd5b50565b60008135905061127d81611257565b92915050565b60006020828403121561129957611298611248565b5b60006112a78482850161126e565b91505092915050565b600073ffffffffffffffffffffffffffffffffffffffff82169050919050565b60006112db826112b0565b9050919050565b6112eb816112d0565b81146112f657600080fd5b50565b600081359050611308816112e2565b92915050565b6000806040838503121561132557611324611248565b5b6000611333858286016112f9565b9250506020611344858286016112f9565b9150509250929050565b6113578161124d565b82525050565b6000602082019050611372600083018461134e565b92915050565b60008115159050919050565b61138d81611378565b82525050565b60006020820190506113a86000830184611384565b92915050565b600082825260208201905092915050565b7f6f6e6c794f776e65722e20596f7520617265206e6f7420746865206f776e657260008201527f206f66207468697320636f6e7472616374210000000000000000000000000000602082015250565b600061141b6032836113ae565b9150611426826113bf565b604082019050919050565b6000602082019050818103600083015261144a8161140e565b9050919050565b7f776974686472617750726f666974732e2050726f66697473206d75737420626560008201527f2067726561746572207468616e203020696e206f7264657220746f207769746860208201527f6472617721000000000000000000000000000000000000000000000000000000604082015250565b60006114d36045836113ae565b91506114de82611451565b606082019050919050565b60006020820190508181036000830152611502816114c6565b9050919050565b600081905092915050565b50565b6000611524600083611509565b915061152f82611514565b600082019050919050565b600061154582611517565b9150819050919050565b7f776974686472617750726f666974732e204661696c656420746f2073656e642060008201527f6574686572000000000000000000000000000000000000000000000000000000602082015250565b60006115ab6025836113ae565b91506115b68261154f565b604082019050919050565b600060208201905081810360008301526115da8161159e565b9050919050565b6115ea816112d0565b82525050565b600060408201905061160560008301856115e1565b61161260208301846115e1565b9392505050565b60008151905061162881611257565b92915050565b60006020828403121561164457611643611248565b5b600061165284828501611619565b91505092915050565b7f6578706c6f7265436f6d6d69742e20436865636b204e595820616c6c6f77616e60008201527f6365000000000000000000000000000000000000000000000000000000000000602082015250565b60006116b76022836113ae565b91506116c28261165b565b604082019050919050565b600060208201905081810360008301526116e6816116aa565b9050919050565b6000815190506116fc816112e2565b92915050565b60006020828403121561171857611717611248565b5b6000611726848285016116ed565b91505092915050565b7f6578706c6f7265436f6d6d69742e20596f7520617265206e6f7420746865206f60008201527f776e6572206f66207468697320746f6b656e0000000000000000000000000000602082015250565b600061178b6032836113ae565b91506117968261172f565b604082019050919050565b600060208201905081810360008301526117ba8161177e565b9050919050565b7f6578706c6f7265436f6d6d69742e2054686973206865726f20697320616c726560008201527f616479206578706c6f72696e6721000000000000000000000000000000000000602082015250565b600061181d602e836113ae565b9150611828826117c1565b604082019050919050565b6000602082019050818103600083015261184c81611810565b9050919050565b600060608201905061186860008301866115e1565b61187560208301856115e1565b611882604083018461134e565b949350505050565b61189381611378565b811461189e57600080fd5b50565b6000815190506118b08161188a565b92915050565b6000602082840312156118cc576118cb611248565b5b60006118da848285016118a1565b91505092915050565b60006020820190506118f860008301846115e1565b92915050565b7f496e697469616c697a61626c653a20636f6e747261637420697320616c72656160008201527f647920696e697469616c697a6564000000000000000000000000000000000000602082015250565b600061195a602e836113ae565b9150611965826118fe565b604082019050919050565b600060208201905081810360008301526119898161194d565b9050919050565b6000819050919050565b600060ff82169050919050565b6000819050919050565b60006119cc6119c76119c284611990565b6119a7565b61199a565b9050919050565b6119dc816119b1565b82525050565b60006020820190506119f760008301846119d3565b92915050565b7f6d696e744865726f436f6d6d69742e20436865636b204e595820616c6c6f776160008201527f6e63650000000000000000000000000000000000000000000000000000000000602082015250565b6000611a596023836113ae565b9150611a64826119fd565b604082019050919050565b60006020820190508181036000830152611a8881611a4c565b9050919050565b7f6d696e744865726f436f6d6d69742e20596f75206861766520616c726561647960008201527f2061206368617261637465722072657175657374656421000000000000000000602082015250565b6000611aeb6037836113ae565b9150611af682611a8f565b604082019050919050565b60006020820190508181036000830152611b1a81611ade565b9050919050565b7f6578706c6f726552657665616c2e20596f7520617265206e6f7420746865206f60008201527f776e6572206f66207468697320746f6b656e0000000000000000000000000000602082015250565b6000611b7d6032836113ae565b9150611b8882611b21565b604082019050919050565b60006020820190508181036000830152611bac81611b70565b9050919050565b7f6578706c6f726552657665616c2e2054686973206865726f206973206e6f742060008201527f6578706c6f72696e672100000000000000000000000000000000000000000000602082015250565b6000611c0f602a836113ae565b9150611c1a82611bb3565b604082019050919050565b60006020820190508181036000830152611c3e81611c02565b9050919050565b7f4e487b7100000000000000000000000000000000000000000000000000000000600052601160045260246000fd5b6000611c7f8261124d565b9150611c8a8361124d565b9250828201905080821115611ca257611ca1611c45565b5b92915050565b7f6578706c6f726552657665616c2e20596f75206e65656420746f20776169742060008201527f6120626974206265666f72652072657475726e696e672066726f6d206578706c60208201527f6f72696e67000000000000000000000000000000000000000000000000000000604082015250565b6000611d2a6045836113ae565b9150611d3582611ca8565b606082019050919050565b60006020820190508181036000830152611d5981611d1d565b9050919050565b60008160601b9050919050565b6000611d7882611d60565b9050919050565b6000611d8a82611d6d565b9050919050565b611da2611d9d826112d0565b611d7f565b82525050565b6000819050919050565b6000819050919050565b611dcd611dc882611da8565b611db2565b82525050565b6000611ddf8285611d91565b601482019150611def8284611dbc565b6020820191508190509392505050565b7f4e487b7100000000000000000000000000000000000000000000000000000000600052601260045260246000fd5b6000611e398261124d565b9150611e448361124d565b925082611e5457611e53611dff565b5b828206905092915050565b6000611e6a8261124d565b9150611e758361124d565b9250828202611e838161124d565b91508282048414831517611e9a57611e99611c45565b5b5092915050565b6000604082019050611eb660008301856115e1565b611ec3602083018461134e565b9392505050565b7f6578706c6f726552657665616c2e204e6f7420656e6f756768204e5958210000600082015250565b6000611f00601e836113ae565b9150611f0b82611eca565b602082019050919050565b60006020820190508181036000830152611f2f81611ef3565b9050919050565b7f6d696e744865726f52657665616c2e20596f75206e65656420746f207265717560008201527f6573742061206368617261637465722066697273742100000000000000000000602082015250565b6000611f926036836113ae565b9150611f9d82611f36565b604082019050919050565b60006020820190508181036000830152611fc181611f85565b9050919050565b7f6d696e744865726f52657665616c2e20596f75206e65656420746f207761697460008201527f206120626974206265666f72652072657665616c696e6720796f75722063686160208201527f7261637465720000000000000000000000000000000000000000000000000000604082015250565b600061204a6046836113ae565b915061205582611fc8565b606082019050919050565b600060208201905081810360008301526120798161203d565b905091905056fea2646970667358221220a5998d38a9e04b19d9f45e36ca171856fa104bd0053535c8bd4dc22908ee7e9864736f6c63430008120033",
  "linkReferences": {},
  "deployedLinkReferences": {}
}