{
  "_format": "hh-sol-artifact-1",
  "contractName": "NyxeumGameV1",
  "sourceName": "contracts/NyxeumGameV1.sol",
  "abi": [
    {
      "anonymous": false,
      "inputs": [
        {
          "indexed": false,
          "internalType": "address",
          "name": "account",
          "type": "address"
        },
        {
          "indexed": false,
          "internalType": "uint256",
          "name": "attackerId",
          "type": "uint256"
        },
        {
          "indexed": false,
          "internalType": "uint256",
          "name": "targetId",
          "type": "uint256"
        }
      ],
      "name": "BeginAttack",
      "type": "event"
    },
    {
      "anonymous": false,
      "inputs": [
        {
          "indexed": false,
          "internalType": "address",
          "name": "account",
          "type": "address"
        }
      ],
      "name": "BeginExploration",
      "type": "event"
    },
    {
      "anonymous": false,
      "inputs": [
        {
          "indexed": false,
          "internalType": "address",
          "name": "account",
          "type": "address"
        }
      ],
      "name": "BeginMint",
      "type": "event"
    },
    {
      "anonymous": false,
      "inputs": [
        {
          "indexed": false,
          "internalType": "address",
          "name": "account",
          "type": "address"
        },
        {
          "indexed": false,
          "internalType": "uint256",
          "name": "attackerId",
          "type": "uint256"
        },
        {
          "indexed": false,
          "internalType": "uint256",
          "name": "targetId",
          "type": "uint256"
        },
        {
          "indexed": false,
          "internalType": "uint256",
          "name": "nyx",
          "type": "uint256"
        },
        {
          "indexed": false,
          "internalType": "string",
          "name": "logs",
          "type": "string"
        }
      ],
      "name": "EndAttack",
      "type": "event"
    },
    {
      "anonymous": false,
      "inputs": [
        {
          "indexed": false,
          "internalType": "address",
          "name": "account",
          "type": "address"
        },
        {
          "indexed": false,
          "internalType": "uint256",
          "name": "nyx",
          "type": "uint256"
        }
      ],
      "name": "EndExploration",
      "type": "event"
    },
    {
      "anonymous": false,
      "inputs": [
        {
          "indexed": false,
          "internalType": "address",
          "name": "account",
          "type": "address"
        },
        {
          "indexed": false,
          "internalType": "uint256",
          "name": "tokenId",
          "type": "uint256"
        }
      ],
      "name": "EndMint",
      "type": "event"
    },
    {
      "anonymous": false,
      "inputs": [
        {
          "indexed": false,
          "internalType": "uint8",
          "name": "version",
          "type": "uint8"
        }
      ],
      "name": "Initialized",
      "type": "event"
    },
    {
      "anonymous": false,
      "inputs": [
        {
          "indexed": false,
          "internalType": "uint256",
          "name": "success",
          "type": "uint256"
        },
        {
          "indexed": false,
          "internalType": "uint256",
          "name": "error",
          "type": "uint256"
        }
      ],
      "name": "NyxTribute",
      "type": "event"
    },
    {
      "inputs": [
        {
          "internalType": "uint256",
          "name": "attackerId",
          "type": "uint256"
        },
        {
          "internalType": "uint256",
          "name": "targetId",
          "type": "uint256"
        }
      ],
      "name": "attackCommit",
      "outputs": [],
      "stateMutability": "payable",
      "type": "function"
    },
    {
      "inputs": [
        {
          "internalType": "uint256",
          "name": "attackerId",
          "type": "uint256"
        }
      ],
      "name": "attackReveal",
      "outputs": [],
      "stateMutability": "nonpayable",
      "type": "function"
    },
    {
      "inputs": [
        {
          "internalType": "bytes",
          "name": "",
          "type": "bytes"
        }
      ],
      "name": "checkUpkeep",
      "outputs": [
        {
          "internalType": "bool",
          "name": "upkeepNeeded",
          "type": "bool"
        },
        {
          "internalType": "bytes",
          "name": "performData",
          "type": "bytes"
        }
      ],
      "stateMutability": "view",
      "type": "function"
    },
    {
      "inputs": [
        {
          "internalType": "uint256",
          "name": "tokenId",
          "type": "uint256"
        }
      ],
      "name": "exploreCommit",
      "outputs": [],
      "stateMutability": "payable",
      "type": "function"
    },
    {
      "inputs": [
        {
          "internalType": "uint256",
          "name": "tokenId",
          "type": "uint256"
        }
      ],
      "name": "exploreReveal",
      "outputs": [],
      "stateMutability": "nonpayable",
      "type": "function"
    },
    {
      "inputs": [
        {
          "internalType": "uint256",
          "name": "tokenId",
          "type": "uint256"
        }
      ],
      "name": "getAttackCooldown",
      "outputs": [
        {
          "internalType": "uint256",
          "name": "",
          "type": "uint256"
        }
      ],
      "stateMutability": "view",
      "type": "function"
    },
    {
      "inputs": [
        {
          "internalType": "uint256",
          "name": "tokenId",
          "type": "uint256"
        }
      ],
      "name": "getExploreCooldown",
      "outputs": [
        {
          "internalType": "uint256",
          "name": "",
          "type": "uint256"
        }
      ],
      "stateMutability": "view",
      "type": "function"
    },
    {
      "inputs": [],
      "name": "getMintHeroCommitPrice",
      "outputs": [
        {
          "internalType": "uint256",
          "name": "",
          "type": "uint256"
        }
      ],
      "stateMutability": "view",
      "type": "function"
    },
    {
      "inputs": [],
      "name": "getMintHeroRevealPrice",
      "outputs": [
        {
          "internalType": "uint256",
          "name": "",
          "type": "uint256"
        }
      ],
      "stateMutability": "view",
      "type": "function"
    },
    {
      "inputs": [
        {
          "internalType": "address",
          "name": "nyxEssenceAddress",
          "type": "address"
        },
        {
          "internalType": "address",
          "name": "heroesOfNyxeumAddress",
          "type": "address"
        }
      ],
      "name": "initialize",
      "outputs": [],
      "stateMutability": "nonpayable",
      "type": "function"
    },
    {
      "inputs": [
        {
          "internalType": "uint256",
          "name": "tokenId",
          "type": "uint256"
        }
      ],
      "name": "isAttacking",
      "outputs": [
        {
          "internalType": "bool",
          "name": "",
          "type": "bool"
        }
      ],
      "stateMutability": "view",
      "type": "function"
    },
    {
      "inputs": [
        {
          "internalType": "uint256",
          "name": "tokenId",
          "type": "uint256"
        }
      ],
      "name": "isExploring",
      "outputs": [
        {
          "internalType": "bool",
          "name": "",
          "type": "bool"
        }
      ],
      "stateMutability": "view",
      "type": "function"
    },
    {
      "inputs": [],
      "name": "isHeroMinted",
      "outputs": [
        {
          "internalType": "bool",
          "name": "",
          "type": "bool"
        }
      ],
      "stateMutability": "view",
      "type": "function"
    },
    {
      "inputs": [],
      "name": "mintHeroCommit",
      "outputs": [],
      "stateMutability": "payable",
      "type": "function"
    },
    {
      "inputs": [],
      "name": "mintHeroReveal",
      "outputs": [],
      "stateMutability": "nonpayable",
      "type": "function"
    },
    {
      "inputs": [],
      "name": "payNyxTribute",
      "outputs": [],
      "stateMutability": "nonpayable",
      "type": "function"
    },
    {
      "inputs": [
        {
          "internalType": "bytes",
          "name": "",
          "type": "bytes"
        }
      ],
      "name": "performUpkeep",
      "outputs": [],
      "stateMutability": "nonpayable",
      "type": "function"
    },
    {
      "inputs": [],
      "name": "withdrawProfits",
      "outputs": [],
      "stateMutability": "nonpayable",
      "type": "function"
    }
  ],
  "bytecode": "0x608060405234801561001057600080fd5b5061562e80620000216000396000f3fe6080604052600436106101095760003560e01c8063b78bb5d911610095578063cb1fca4111610064578063cb1fca4114610319578063ce5cbc2c14610356578063d99d93bf1461036d578063ef1d0c8b14610384578063fea8b108146103af57610109565b8063b78bb5d91461028d578063c1de474a14610297578063c6b717b2146102c0578063c86dca5a146102dc57610109565b80636e04ff0d116100dc5780636e04ff0d146101935780636ed69b5b146101d1578063885132e9146101fc5780638fccaff614610227578063ae3452eb1461026457610109565b806339913e091461010e5780634585e33b1461012557806346e21b341461014e578063485cc9551461016a575b600080fd5b34801561011a57600080fd5b506101236103ec565b005b34801561013157600080fd5b5061014c600480360381019061014791906132c3565b61058f565b005b61016860048036038101906101639190613346565b6105b2565b005b34801561017657600080fd5b50610191600480360381019061018c91906133d1565b610afe565b005b34801561019f57600080fd5b506101ba60048036038101906101b591906132c3565b610d86565b6040516101c89291906134bc565b60405180910390f35b3480156101dd57600080fd5b506101e6610db8565b6040516101f391906134fb565b60405180910390f35b34801561020857600080fd5b50610211610dc2565b60405161021e9190613516565b60405180910390f35b34801561023357600080fd5b5061024e60048036038101906102499190613346565b610e0b565b60405161025b91906134fb565b60405180910390f35b34801561027057600080fd5b5061028b60048036038101906102869190613346565b610e2b565b005b61029561144b565b005b3480156102a357600080fd5b506102be60048036038101906102b99190613346565b611833565b005b6102da60048036038101906102d59190613531565b611cc1565b005b3480156102e857600080fd5b5061030360048036038101906102fe9190613346565b61232b565b6040516103109190613516565b60405180910390f35b34801561032557600080fd5b50610340600480360381019061033b9190613346565b61237a565b60405161034d9190613516565b60405180910390f35b34801561036257600080fd5b5061036b6123c9565b005b34801561037957600080fd5b5061038261255b565b005b34801561039057600080fd5b50610399612800565b6040516103a691906134fb565b60405180910390f35b3480156103bb57600080fd5b506103d660048036038101906103d19190613346565b61280a565b6040516103e391906134fb565b60405180910390f35b600060029054906101000a900473ffffffffffffffffffffffffffffffffffffffff1673ffffffffffffffffffffffffffffffffffffffff163373ffffffffffffffffffffffffffffffffffffffff161461047c576040517f08c379a0000000000000000000000000000000000000000000000000000000008152600401610473906135f4565b60405180910390fd5b600047116104bf576040517f08c379a00000000000000000000000000000000000000000000000000000000081526004016104b6906136ac565b60405180910390fd5b60008060029054906101000a900473ffffffffffffffffffffffffffffffffffffffff1673ffffffffffffffffffffffffffffffffffffffff1647604051610506906136fd565b60006040518083038185875af1925050503d8060008114610543576040519150601f19603f3d011682016040523d82523d6000602084013e610548565b606091505b505090508061058c576040517f08c379a000000000000000000000000000000000000000000000000000000000815260040161058390613784565b60405180910390fd5b50565b60125460115461059f91906137d3565b42106105ae576105ad6123c9565b5b5050565b600754600160009054906101000a900473ffffffffffffffffffffffffffffffffffffffff1673ffffffffffffffffffffffffffffffffffffffff1663dd62ed3e33306040518363ffffffff1660e01b8152600401610612929190613816565b602060405180830381865afa15801561062f573d6000803e3d6000fd5b505050506040513d601f19601f820116820180604052508101906106539190613854565b1015610694576040517f08c379a000000000000000000000000000000000000000000000000000000000815260040161068b906138f3565b60405180910390fd5b600754600160009054906101000a900473ffffffffffffffffffffffffffffffffffffffff1673ffffffffffffffffffffffffffffffffffffffff166370a08231336040518263ffffffff1660e01b81526004016106f29190613913565b602060405180830381865afa15801561070f573d6000803e3d6000fd5b505050506040513d601f19601f820116820180604052508101906107339190613854565b1015610774576040517f08c379a000000000000000000000000000000000000000000000000000000000815260040161076b9061397a565b60405180910390fd5b3373ffffffffffffffffffffffffffffffffffffffff16600260009054906101000a900473ffffffffffffffffffffffffffffffffffffffff1673ffffffffffffffffffffffffffffffffffffffff16636352211e836040518263ffffffff1660e01b81526004016107e691906134fb565b602060405180830381865afa158015610803573d6000803e3d6000fd5b505050506040513d601f19601f8201168201806040525081019061082791906139af565b73ffffffffffffffffffffffffffffffffffffffff161461087d576040517f08c379a000000000000000000000000000000000000000000000000000000000815260040161087490613a4e565b60405180910390fd5b6108868161237a565b156108c6576040517f08c379a00000000000000000000000000000000000000000000000000000000081526004016108bd90613ae0565b60405180910390fd5b42600a600083815260200190815260200160002060010154111561091f576040517f08c379a000000000000000000000000000000000000000000000000000000000815260040161091690613b72565b60405180910390fd5b6000600a600083815260200190815260200160002060000154148061096b575060011515600a600083815260200190815260200160002060020160009054906101000a900460ff161515145b6109aa576040517f08c379a00000000000000000000000000000000000000000000000000000000081526004016109a190613c04565b60405180910390fd5b600160009054906101000a900473ffffffffffffffffffffffffffffffffffffffff1673ffffffffffffffffffffffffffffffffffffffff166323b872dd33306007546040518463ffffffff1660e01b8152600401610a0b93929190613c24565b6020604051808303816000875af1158015610a2a573d6000803e3d6000fd5b505050506040513d601f19601f82011682018060405250810190610a4e9190613c87565b506040518060600160405280438152602001600b5442610a6e91906137d3565b815260200160001515815250600a6000838152602001908152602001600020600082015181600001556020820151816001015560408201518160020160006101000a81548160ff0219169083151502179055509050507f2fff9fbae38097da283c7eb3b6d225ae0b0732d43a2a40399643364056d185b433604051610af39190613913565b60405180910390a150565b60008060019054906101000a900460ff16159050808015610b2f5750600160008054906101000a900460ff1660ff16105b80610b5c5750610b3e3061282a565b158015610b5b5750600160008054906101000a900460ff1660ff16145b5b610b9b576040517f08c379a0000000000000000000000000000000000000000000000000000000008152600401610b9290613d26565b60405180910390fd5b60016000806101000a81548160ff021916908360ff1602179055508015610bd8576001600060016101000a81548160ff0219169083151502179055505b33600060026101000a81548173ffffffffffffffffffffffffffffffffffffffff021916908373ffffffffffffffffffffffffffffffffffffffff1602179055504260118190555062015180601281905550670de0b6b3a764000060138190555082600160006101000a81548173ffffffffffffffffffffffffffffffffffffffff021916908373ffffffffffffffffffffffffffffffffffffffff16021790555081600260006101000a81548173ffffffffffffffffffffffffffffffffffffffff021916908373ffffffffffffffffffffffffffffffffffffffff160217905550674563918244f4000060038190555060006004819055506001600581905550670de0b6b3a764000060078190555060006008819055506001600981905550603c600b81905550670de0b6b3a7640000600c819055506000600d819055506001600e8190555060b46010819055508015610d815760008060016101000a81548160ff0219169083151502179055507f7f26b83ff96e1f2b6a682f133852f6798a09c465da95921460cefb38474024986001604051610d789190613d98565b60405180910390a15b505050565b60006060601254601154610d9a91906137d3565b42101591506040518060200160405280600081525090509250929050565b6000600454905090565b600080600660003373ffffffffffffffffffffffffffffffffffffffff1673ffffffffffffffffffffffffffffffffffffffff1681526020019081526020016000205411905090565b6000600a6000838152602001908152602001600020600101549050919050565b3373ffffffffffffffffffffffffffffffffffffffff16600260009054906101000a900473ffffffffffffffffffffffffffffffffffffffff1673ffffffffffffffffffffffffffffffffffffffff16636352211e836040518263ffffffff1660e01b8152600401610e9d91906134fb565b602060405180830381865afa158015610eba573d6000803e3d6000fd5b505050506040513d601f19601f82011682018060405250810190610ede91906139af565b73ffffffffffffffffffffffffffffffffffffffff1614610f34576040517f08c379a0000000000000000000000000000000000000000000000000000000008152600401610f2b90613e25565b60405180910390fd5b42600f6000838152602001908152602001600020600201541115610f8d576040517f08c379a0000000000000000000000000000000000000000000000000000000008152600401610f8490613eb7565b60405180910390fd5b60001515600f600083815260200190815260200160002060030160009054906101000a900460ff16151514610ff7576040517f08c379a0000000000000000000000000000000000000000000000000000000008152600401610fee90613f49565b60405180910390fd5b600e54600f60008381526020019081526020016000206001015461101b91906137d3565b43101561105d576040517f08c379a000000000000000000000000000000000000000000000000000000000815260040161105490613fdb565b60405180910390fd5b6000600f60008381526020019081526020016000206000015490506000600260009054906101000a900473ffffffffffffffffffffffffffffffffffffffff1673ffffffffffffffffffffffffffffffffffffffff1663ad27314b846040518263ffffffff1660e01b81526004016110d591906134fb565b61012060405180830381865afa1580156110f3573d6000803e3d6000fd5b505050506040513d601f19601f820116820180604052508101906111179190614187565b90506000600260009054906101000a900473ffffffffffffffffffffffffffffffffffffffff1673ffffffffffffffffffffffffffffffffffffffff1663ad27314b846040518263ffffffff1660e01b815260040161117691906134fb565b61012060405180830381865afa158015611194573d6000803e3d6000fd5b505050506040513d601f19601f820116820180604052508101906111b89190614187565b90506000336111c68661284d565b6111cf8661284d565b600f600089815260200190815260200160002060010154406040516020016111fa949392919061426f565b6040516020818303038152906040528051906020012060001c9050600060038261122491906142e4565b90506000611232858361291b565b90506000611240858461291b565b9050600082600886901c6112549190614315565b9050600082601087901c6112689190614315565b905060006112778a848461296e565b90506000600f60008d81526020019081526020016000206040518060800160405290816000820154815260200160018201548152602001600282015481526020016003820160009054906101000a900460ff1615151515815250509050604051806080016040528082600001518152602001826020015181526020018260400151815260200160011515815250600f60008e815260200190815260200160002060008201518160000155602082015181600101556040820151816002015560608201518160030160006101000a81548160ff02191690831515021790555090505060006113fb8d8d8a888b898c8a600160009054906101000a900473ffffffffffffffffffffffffffffffffffffffff1673ffffffffffffffffffffffffffffffffffffffff1663313ce5676040518163ffffffff1660e01b8152600401602060405180830381865afa1580156113d2573d6000803e3d6000fd5b505050506040513d601f19601f820116820180604052508101906113f69190614346565b612be9565b90507fca55264b705c673f3b77d48a609b1c55e83f7df11bbac3ae1afc63744e0b58e3338e8e86856040516114349594939291906143ac565b60405180910390a150505050505050505050505050565b600354600160009054906101000a900473ffffffffffffffffffffffffffffffffffffffff1673ffffffffffffffffffffffffffffffffffffffff1663dd62ed3e33306040518363ffffffff1660e01b81526004016114ab929190613816565b602060405180830381865afa1580156114c8573d6000803e3d6000fd5b505050506040513d601f19601f820116820180604052508101906114ec9190613854565b101561152d576040517f08c379a000000000000000000000000000000000000000000000000000000000815260040161152490614478565b60405180910390fd5b6000600660003373ffffffffffffffffffffffffffffffffffffffff1673ffffffffffffffffffffffffffffffffffffffff16815260200190815260200160002054146115af576040517f08c379a00000000000000000000000000000000000000000000000000000000081526004016115a69061450a565b60405180910390fd5b600260009054906101000a900473ffffffffffffffffffffffffffffffffffffffff1673ffffffffffffffffffffffffffffffffffffffff1663284855866040518163ffffffff1660e01b8152600401602060405180830381865afa15801561161c573d6000803e3d6000fd5b505050506040513d601f19601f820116820180604052508101906116409190613854565b600260009054906101000a900473ffffffffffffffffffffffffffffffffffffffff1673ffffffffffffffffffffffffffffffffffffffff166318160ddd6040518163ffffffff1660e01b8152600401602060405180830381865afa1580156116ad573d6000803e3d6000fd5b505050506040513d601f19601f820116820180604052508101906116d19190613854565b10611711576040517f08c379a00000000000000000000000000000000000000000000000000000000081526004016117089061459c565b60405180910390fd5b600160009054906101000a900473ffffffffffffffffffffffffffffffffffffffff1673ffffffffffffffffffffffffffffffffffffffff166323b872dd33306003546040518463ffffffff1660e01b815260040161177293929190613c24565b6020604051808303816000875af1158015611791573d6000803e3d6000fd5b505050506040513d601f19601f820116820180604052508101906117b59190613c87565b5043600660003373ffffffffffffffffffffffffffffffffffffffff1673ffffffffffffffffffffffffffffffffffffffff168152602001908152602001600020819055507fd35897783c92f3ac0c8c3d18fa7b6ca76264d08728414c6875759e7253e86850336040516118299190613913565b60405180910390a1565b3373ffffffffffffffffffffffffffffffffffffffff16600260009054906101000a900473ffffffffffffffffffffffffffffffffffffffff1673ffffffffffffffffffffffffffffffffffffffff16636352211e836040518263ffffffff1660e01b81526004016118a591906134fb565b602060405180830381865afa1580156118c2573d6000803e3d6000fd5b505050506040513d601f19601f820116820180604052508101906118e691906139af565b73ffffffffffffffffffffffffffffffffffffffff161461193c576040517f08c379a00000000000000000000000000000000000000000000000000000000081526004016119339061462e565b60405180910390fd5b42600a6000838152602001908152602001600020600101541115611995576040517f08c379a000000000000000000000000000000000000000000000000000000000815260040161198c906146c0565b60405180910390fd5b60001515600a600083815260200190815260200160002060020160009054906101000a900460ff161515146119ff576040517f08c379a00000000000000000000000000000000000000000000000000000000081526004016119f690614752565b60405180910390fd5b600954600a600083815260200190815260200160002060000154611a2391906137d3565b431015611a65576040517f08c379a0000000000000000000000000000000000000000000000000000000008152600401611a5c906147e4565b60405180910390fd5b600033600a60008481526020019081526020016000206000015440604051602001611a91929190614804565b6040516020818303038152906040528051906020012060001c9050600067016345785d8a0000600b83611ac491906142e4565b6002611ad09190614830565b611ada9190614830565b90506000600160009054906101000a900473ffffffffffffffffffffffffffffffffffffffff1673ffffffffffffffffffffffffffffffffffffffff1663a9059cbb33846040518363ffffffff1660e01b8152600401611b3b929190614872565b6020604051808303816000875af1158015611b5a573d6000803e3d6000fd5b505050506040513d601f19601f82011682018060405250810190611b7e9190613c87565b905080611bc0576040517f08c379a0000000000000000000000000000000000000000000000000000000008152600401611bb7906148e7565b60405180910390fd5b6000600a600086815260200190815260200160002060405180606001604052908160008201548152602001600182015481526020016002820160009054906101000a900460ff16151515158152505090506040518060600160405280826000015181526020018260200151815260200160011515815250600a6000878152602001908152602001600020600082015181600001556020820151816001015560408201518160020160006101000a81548160ff0219169083151502179055509050507f1f4c26e9d30b2cd4f2b79e41290b5db5a0d05adf3e99e97261a2f28b2ff272043384604051611cb2929190614872565b60405180910390a15050505050565b600c54600160009054906101000a900473ffffffffffffffffffffffffffffffffffffffff1673ffffffffffffffffffffffffffffffffffffffff1663dd62ed3e33306040518363ffffffff1660e01b8152600401611d21929190613816565b602060405180830381865afa158015611d3e573d6000803e3d6000fd5b505050506040513d601f19601f82011682018060405250810190611d629190613854565b1015611da3576040517f08c379a0000000000000000000000000000000000000000000000000000000008152600401611d9a90614979565b60405180910390fd5b600c54600160009054906101000a900473ffffffffffffffffffffffffffffffffffffffff1673ffffffffffffffffffffffffffffffffffffffff166370a08231336040518263ffffffff1660e01b8152600401611e019190613913565b602060405180830381865afa158015611e1e573d6000803e3d6000fd5b505050506040513d601f19601f82011682018060405250810190611e429190613854565b1015611e83576040517f08c379a0000000000000000000000000000000000000000000000000000000008152600401611e7a906149e5565b60405180910390fd5b3373ffffffffffffffffffffffffffffffffffffffff16600260009054906101000a900473ffffffffffffffffffffffffffffffffffffffff1673ffffffffffffffffffffffffffffffffffffffff16636352211e846040518263ffffffff1660e01b8152600401611ef591906134fb565b602060405180830381865afa158015611f12573d6000803e3d6000fd5b505050506040513d601f19601f82011682018060405250810190611f3691906139af565b73ffffffffffffffffffffffffffffffffffffffff1614611f8c576040517f08c379a0000000000000000000000000000000000000000000000000000000008152600401611f8390614a77565b60405180910390fd5b3373ffffffffffffffffffffffffffffffffffffffff16600260009054906101000a900473ffffffffffffffffffffffffffffffffffffffff1673ffffffffffffffffffffffffffffffffffffffff16636352211e836040518263ffffffff1660e01b8152600401611ffe91906134fb565b602060405180830381865afa15801561201b573d6000803e3d6000fd5b505050506040513d601f19601f8201168201806040525081019061203f91906139af565b73ffffffffffffffffffffffffffffffffffffffff1603612095576040517f08c379a000000000000000000000000000000000000000000000000000000000815260040161208c90614b09565b60405180910390fd5b61209e8261232b565b156120de576040517f08c379a00000000000000000000000000000000000000000000000000000000081526004016120d590614b9b565b60405180910390fd5b42600f6000848152602001908152602001600020600201541115612137576040517f08c379a000000000000000000000000000000000000000000000000000000000815260040161212e90614c2d565b60405180910390fd5b6000600f6000848152602001908152602001600020600101541480612183575060011515600f600084815260200190815260200160002060030160009054906101000a900460ff161515145b6121c2576040517f08c379a00000000000000000000000000000000000000000000000000000000081526004016121b990614cbf565b60405180910390fd5b600160009054906101000a900473ffffffffffffffffffffffffffffffffffffffff1673ffffffffffffffffffffffffffffffffffffffff166323b872dd3330600c546040518463ffffffff1660e01b815260040161222393929190613c24565b6020604051808303816000875af1158015612242573d6000803e3d6000fd5b505050506040513d601f19601f820116820180604052508101906122669190613c87565b5060405180608001604052808281526020014381526020016010544261228c91906137d3565b815260200160001515815250600f600084815260200190815260200160002060008201518160000155602082015181600101556040820151816002015560608201518160030160006101000a81548160ff0219169083151502179055509050507facb334074a0ad14881e0a65bdccb54b9da0d2f863669e5459dc8023a5aebe5ee33838360405161231f93929190614cdf565b60405180910390a15050565b600080600a6000848152602001908152602001600020600001541180156123735750600a600083815260200190815260200160002060020160009054906101000a900460ff16155b9050919050565b600080600f6000848152602001908152602001600020600101541180156123c25750600f600083815260200190815260200160002060030160009054906101000a900460ff16155b9050919050565b6012546011546123d991906137d3565b42101561241b576040517f08c379a000000000000000000000000000000000000000000000000000000000815260040161241290614d88565b60405180910390fd5b6000600260009054906101000a900473ffffffffffffffffffffffffffffffffffffffff1673ffffffffffffffffffffffffffffffffffffffff166318160ddd6040518163ffffffff1660e01b8152600401602060405180830381865afa15801561248a573d6000803e3d6000fd5b505050506040513d601f19601f820116820180604052508101906124ae9190613854565b90506000806000600190505b838111612506576124ca81612dc2565b156124e3576001836124dc91906137d3565b92506124f3565b6001826124f091906137d3565b91505b80806124fe90614da8565b9150506124ba565b507f5fbc000f336c0c57f42eaba00c1f6dd7dec17ac4022415ddb0705dd352c58caf8282604051612538929190614df0565b60405180910390a160125460115461255091906137d3565b601181905550505050565b6000600660003373ffffffffffffffffffffffffffffffffffffffff1673ffffffffffffffffffffffffffffffffffffffff16815260200190815260200160002054036125dd576040517f08c379a00000000000000000000000000000000000000000000000000000000081526004016125d490614e8b565b60405180910390fd5b600554600660003373ffffffffffffffffffffffffffffffffffffffff1673ffffffffffffffffffffffffffffffffffffffff1681526020019081526020016000205461262a91906137d3565b43101561266c576040517f08c379a000000000000000000000000000000000000000000000000000000000815260040161266390614f43565b60405180910390fd5b600033600660003373ffffffffffffffffffffffffffffffffffffffff1673ffffffffffffffffffffffffffffffffffffffff16815260200190815260200160002054406040516020016126c1929190614804565b6040516020818303038152906040528051906020012060001c9050600660003373ffffffffffffffffffffffffffffffffffffffff1673ffffffffffffffffffffffffffffffffffffffff168152602001908152602001600020600090556000600260009054906101000a900473ffffffffffffffffffffffffffffffffffffffff1673ffffffffffffffffffffffffffffffffffffffff166340c10f1933846040518363ffffffff1660e01b815260040161277e929190614872565b6020604051808303816000875af115801561279d573d6000803e3d6000fd5b505050506040513d601f19601f820116820180604052508101906127c19190613854565b90507f947b6fba38e610db2f2ee0e997726f5a848d91ca12a98a65e81643952d4bc30933826040516127f4929190614872565b60405180910390a15050565b6000600354905090565b6000600f6000838152602001908152602001600020600201549050919050565b6000808273ffffffffffffffffffffffffffffffffffffffff163b119050919050565b60606000600161285c84613070565b01905060008167ffffffffffffffff81111561287b5761287a614000565b5b6040519080825280601f01601f1916602001820160405280156128ad5781602001600182028036833780820191505090505b509050600082602001820190505b600115612910578080600190039150507f3031323334353637383961626364656600000000000000000000000000000000600a86061a8153600a8581612904576129036142b5565b5b049450600085036128bb575b819350505050919050565b6000808260ff16036129335782600001519050612968565b60018260ff160361294a5782602001519050612967565b60028260ff16036129615782604001519050612966565b600090505b5b5b92915050565b60008160ff168360ff1611156129ad5767016345785d8a000082846129939190614f63565b60ff166129a09190614fac565b67ffffffffffffffff1690505b6000600260009054906101000a900473ffffffffffffffffffffffffffffffffffffffff1673ffffffffffffffffffffffffffffffffffffffff16636352211e866040518263ffffffff1660e01b8152600401612a0a91906134fb565b602060405180830381865afa158015612a27573d6000803e3d6000fd5b505050506040513d601f19601f82011682018060405250810190612a4b91906139af565b90506000600160009054906101000a900473ffffffffffffffffffffffffffffffffffffffff1673ffffffffffffffffffffffffffffffffffffffff166370a08231836040518263ffffffff1660e01b8152600401612aaa9190613913565b602060405180830381865afa158015612ac7573d6000803e3d6000fd5b505050506040513d601f19601f82011682018060405250810190612aeb9190613854565b905082811015612af9578092505b6000600160009054906101000a900473ffffffffffffffffffffffffffffffffffffffff1673ffffffffffffffffffffffffffffffffffffffff166323b872dd8433876040518463ffffffff1660e01b8152600401612b5a93929190613c24565b6020604051808303816000875af1158015612b79573d6000803e3d6000fd5b505050506040513d601f19601f82011682018060405250810190612b9d9190613c87565b905080612bdf576040517f08c379a0000000000000000000000000000000000000000000000000000000008152600401612bd690615035565b60405180910390fd5b5050509392505050565b60608060008960ff1603612c34576040518060400160405280601481526020017f426174746c6520747970653a20535452202f2f200000000000000000000000008152509050612cc2565b60018960ff1603612c7c576040518060400160405280601481526020017f426174746c6520747970653a20444558202f2f200000000000000000000000008152509050612cc1565b60028960ff1603612cc0576040518060400160405280601481526020017f426174746c6520747970653a20494e54202f2f2000000000000000000000000081525090505b5b5b6000612ccd8c61284d565b612cd98a60ff1661284d565b612ce58a60ff1661284d565b604051602001612cf793929190615185565b60405160208183030381529060405290506000612d138c61284d565b612d1f8960ff1661284d565b612d2b8960ff1661284d565b604051602001612d3d9392919061527a565b60405160208183030381529060405290506000612d6860028888600a612d63919061540a565b6131c3565b604051602001612d7891906154a1565b604051602081830303815290604052905083838383604051602001612da094939291906154c3565b6040516020818303038152906040529450505050509998505050505050505050565b600080600260009054906101000a900473ffffffffffffffffffffffffffffffffffffffff1673ffffffffffffffffffffffffffffffffffffffff16636352211e846040518263ffffffff1660e01b8152600401612e2091906134fb565b602060405180830381865afa158015612e3d573d6000803e3d6000fd5b505050506040513d601f19601f82011682018060405250810190612e6191906139af565b9050601354600160009054906101000a900473ffffffffffffffffffffffffffffffffffffffff1673ffffffffffffffffffffffffffffffffffffffff1663dd62ed3e83306040518363ffffffff1660e01b8152600401612ec3929190613816565b602060405180830381865afa158015612ee0573d6000803e3d6000fd5b505050506040513d601f19601f82011682018060405250810190612f049190613854565b1015612f1457600091505061306b565b601354600160009054906101000a900473ffffffffffffffffffffffffffffffffffffffff1673ffffffffffffffffffffffffffffffffffffffff166370a08231836040518263ffffffff1660e01b8152600401612f729190613913565b602060405180830381865afa158015612f8f573d6000803e3d6000fd5b505050506040513d601f19601f82011682018060405250810190612fb39190613854565b1015612fc357600091505061306b565b600160009054906101000a900473ffffffffffffffffffffffffffffffffffffffff1673ffffffffffffffffffffffffffffffffffffffff166323b872dd82306013546040518463ffffffff1660e01b815260040161302493929190613c24565b6020604051808303816000875af1158015613043573d6000803e3d6000fd5b505050506040513d601f19601f820116820180604052508101906130679190613c87565b9150505b919050565b600080600090507a184f03e93ff9f4daa797ed6e38ed64bf6a1f01000000000000000083106130ce577a184f03e93ff9f4daa797ed6e38ed64bf6a1f01000000000000000083816130c4576130c36142b5565b5b0492506040810190505b6d04ee2d6d415b85acef8100000000831061310b576d04ee2d6d415b85acef81000000008381613101576131006142b5565b5b0492506020810190505b662386f26fc10000831061313a57662386f26fc1000083816131305761312f6142b5565b5b0492506010810190505b6305f5e1008310613163576305f5e1008381613159576131586142b5565b5b0492506008810190505b612710831061318857612710838161317e5761317d6142b5565b5b0492506004810190505b606483106131ab57606483816131a1576131a06142b5565b5b0492506002810190505b600a83106131ba576001810190505b80915050919050565b6060600084600a6131d49190615501565b9050600083856131e4919061554c565b90506000828584886131f69190614830565b613200919061554c565b61320a91906142e4565b90506132158261284d565b61321e8261284d565b60405160200161322f9291906155c9565b60405160208183030381529060405293505050509392505050565b6000604051905090565b600080fd5b600080fd5b600080fd5b600080fd5b600080fd5b60008083601f8401126132835761328261325e565b5b8235905067ffffffffffffffff8111156132a05761329f613263565b5b6020830191508360018202830111156132bc576132bb613268565b5b9250929050565b600080602083850312156132da576132d9613254565b5b600083013567ffffffffffffffff8111156132f8576132f7613259565b5b6133048582860161326d565b92509250509250929050565b6000819050919050565b61332381613310565b811461332e57600080fd5b50565b6000813590506133408161331a565b92915050565b60006020828403121561335c5761335b613254565b5b600061336a84828501613331565b91505092915050565b600073ffffffffffffffffffffffffffffffffffffffff82169050919050565b600061339e82613373565b9050919050565b6133ae81613393565b81146133b957600080fd5b50565b6000813590506133cb816133a5565b92915050565b600080604083850312156133e8576133e7613254565b5b60006133f6858286016133bc565b9250506020613407858286016133bc565b9150509250929050565b60008115159050919050565b61342681613411565b82525050565b600081519050919050565b600082825260208201905092915050565b60005b8381101561346657808201518184015260208101905061344b565b60008484015250505050565b6000601f19601f8301169050919050565b600061348e8261342c565b6134988185613437565b93506134a8818560208601613448565b6134b181613472565b840191505092915050565b60006040820190506134d1600083018561341d565b81810360208301526134e38184613483565b90509392505050565b6134f581613310565b82525050565b600060208201905061351060008301846134ec565b92915050565b600060208201905061352b600083018461341d565b92915050565b6000806040838503121561354857613547613254565b5b600061355685828601613331565b925050602061356785828601613331565b9150509250929050565b600082825260208201905092915050565b7f6f6e6c794f776e65722e20596f7520617265206e6f7420746865206f776e657260008201527f206f66207468697320636f6e7472616374210000000000000000000000000000602082015250565b60006135de603283613571565b91506135e982613582565b604082019050919050565b6000602082019050818103600083015261360d816135d1565b9050919050565b7f776974686472617750726f666974732e2050726f66697473206d75737420626560008201527f2067726561746572207468616e203020696e206f7264657220746f207769746860208201527f6472617721000000000000000000000000000000000000000000000000000000604082015250565b6000613696604583613571565b91506136a182613614565b606082019050919050565b600060208201905081810360008301526136c581613689565b9050919050565b600081905092915050565b50565b60006136e76000836136cc565b91506136f2826136d7565b600082019050919050565b6000613708826136da565b9150819050919050565b7f776974686472617750726f666974732e204661696c656420746f2073656e642060008201527f6574686572000000000000000000000000000000000000000000000000000000602082015250565b600061376e602583613571565b915061377982613712565b604082019050919050565b6000602082019050818103600083015261379d81613761565b9050919050565b7f4e487b7100000000000000000000000000000000000000000000000000000000600052601160045260246000fd5b60006137de82613310565b91506137e983613310565b9250828201905080821115613801576138006137a4565b5b92915050565b61381081613393565b82525050565b600060408201905061382b6000830185613807565b6138386020830184613807565b9392505050565b60008151905061384e8161331a565b92915050565b60006020828403121561386a57613869613254565b5b60006138788482850161383f565b91505092915050565b7f6578706c6f7265436f6d6d69742e20436865636b204e595820616c6c6f77616e60008201527f6365000000000000000000000000000000000000000000000000000000000000602082015250565b60006138dd602283613571565b91506138e882613881565b604082019050919050565b6000602082019050818103600083015261390c816138d0565b9050919050565b60006020820190506139286000830184613807565b92915050565b7f6578706c6f7265436f6d6d69742e204e6f7420656e6f756768204e5958000000600082015250565b6000613964601d83613571565b915061396f8261392e565b602082019050919050565b6000602082019050818103600083015261399381613957565b9050919050565b6000815190506139a9816133a5565b92915050565b6000602082840312156139c5576139c4613254565b5b60006139d38482850161399a565b91505092915050565b7f6578706c6f7265436f6d6d69742e20596f7520646f206e6f74206f776e20746860008201527f697320746f6b656e000000000000000000000000000000000000000000000000602082015250565b6000613a38602883613571565b9150613a43826139dc565b604082019050919050565b60006020820190508181036000830152613a6781613a2b565b9050919050565b7f6578706c6f7265436f6d6d69742e2054686973206865726f206973206174746160008201527f636b696e67000000000000000000000000000000000000000000000000000000602082015250565b6000613aca602583613571565b9150613ad582613a6e565b604082019050919050565b60006020820190508181036000830152613af981613abd565b9050919050565b7f6578706c6f7265436f6d6d69742e2054686973206865726f206861732065787060008201527f6c6f726520636f6f6c646f776e21000000000000000000000000000000000000602082015250565b6000613b5c602e83613571565b9150613b6782613b00565b604082019050919050565b60006020820190508181036000830152613b8b81613b4f565b9050919050565b7f6578706c6f7265436f6d6d69742e2050726576696f7573206578706c6f72652060008201527f6e6f7420636c61696d6564210000000000000000000000000000000000000000602082015250565b6000613bee602c83613571565b9150613bf982613b92565b604082019050919050565b60006020820190508181036000830152613c1d81613be1565b9050919050565b6000606082019050613c396000830186613807565b613c466020830185613807565b613c5360408301846134ec565b949350505050565b613c6481613411565b8114613c6f57600080fd5b50565b600081519050613c8181613c5b565b92915050565b600060208284031215613c9d57613c9c613254565b5b6000613cab84828501613c72565b91505092915050565b7f496e697469616c697a61626c653a20636f6e747261637420697320616c72656160008201527f647920696e697469616c697a6564000000000000000000000000000000000000602082015250565b6000613d10602e83613571565b9150613d1b82613cb4565b604082019050919050565b60006020820190508181036000830152613d3f81613d03565b9050919050565b6000819050919050565b600060ff82169050919050565b6000819050919050565b6000613d82613d7d613d7884613d46565b613d5d565b613d50565b9050919050565b613d9281613d67565b82525050565b6000602082019050613dad6000830184613d89565b92915050565b7f61747461636b52657665616c2e20596f7520646f206e6f74206f776e2074686560008201527f2061747461636b65722100000000000000000000000000000000000000000000602082015250565b6000613e0f602a83613571565b9150613e1a82613db3565b604082019050919050565b60006020820190508181036000830152613e3e81613e02565b9050919050565b7f61747461636b52657665616c2e2054686973206865726f20686173206174746160008201527f636b20636f6f6c646f776e210000000000000000000000000000000000000000602082015250565b6000613ea1602c83613571565b9150613eac82613e45565b604082019050919050565b60006020820190508181036000830152613ed081613e94565b9050919050565b7f61747461636b52657665616c2e2041747461636b20616c726561647920636c6160008201527f696d656421000000000000000000000000000000000000000000000000000000602082015250565b6000613f33602583613571565b9150613f3e82613ed7565b604082019050919050565b60006020820190508181036000830152613f6281613f26565b9050919050565b7f61747461636b52657665616c2e204e6f7420656e6f75676820626c6f636b206460008201527f656c617921000000000000000000000000000000000000000000000000000000602082015250565b6000613fc5602583613571565b9150613fd082613f69565b604082019050919050565b60006020820190508181036000830152613ff481613fb8565b9050919050565b600080fd5b7f4e487b7100000000000000000000000000000000000000000000000000000000600052604160045260246000fd5b61403882613472565b810181811067ffffffffffffffff8211171561405757614056614000565b5b80604052505050565b600061406a61324a565b9050614076828261402f565b919050565b61408481613d50565b811461408f57600080fd5b50565b6000815190506140a18161407b565b92915050565b600061012082840312156140be576140bd613ffb565b5b6140c9610120614060565b905060006140d984828501614092565b60008301525060206140ed84828501614092565b602083015250604061410184828501614092565b604083015250606061411584828501614092565b606083015250608061412984828501614092565b60808301525060a061413d84828501614092565b60a08301525060c061415184828501614092565b60c08301525060e061416584828501614092565b60e08301525061010061417a84828501614092565b6101008301525092915050565b6000610120828403121561419e5761419d613254565b5b60006141ac848285016140a7565b91505092915050565b60008160601b9050919050565b60006141cd826141b5565b9050919050565b60006141df826141c2565b9050919050565b6141f76141f282613393565b6141d4565b82525050565b600081519050919050565b600081905092915050565b600061421e826141fd565b6142288185614208565b9350614238818560208601613448565b80840191505092915050565b6000819050919050565b6000819050919050565b61426961426482614244565b61424e565b82525050565b600061427b82876141e6565b60148201915061428b8286614213565b91506142978285614213565b91506142a38284614258565b60208201915081905095945050505050565b7f4e487b7100000000000000000000000000000000000000000000000000000000600052601260045260246000fd5b60006142ef82613310565b91506142fa83613310565b92508261430a576143096142b5565b5b828206905092915050565b600061432082613d50565b915061432b83613d50565b92508261433b5761433a6142b5565b5b828206905092915050565b60006020828403121561435c5761435b613254565b5b600061436a84828501614092565b91505092915050565b600061437e826141fd565b6143888185613571565b9350614398818560208601613448565b6143a181613472565b840191505092915050565b600060a0820190506143c16000830188613807565b6143ce60208301876134ec565b6143db60408301866134ec565b6143e860608301856134ec565b81810360808301526143fa8184614373565b90509695505050505050565b7f6d696e744865726f436f6d6d69742e20436865636b204e595820616c6c6f776160008201527f6e63650000000000000000000000000000000000000000000000000000000000602082015250565b6000614462602383613571565b915061446d82614406565b604082019050919050565b6000602082019050818103600083015261449181614455565b9050919050565b7f6d696e744865726f436f6d6d69742e20596f75206861766520616c726561647960008201527f2061206368617261637465722072657175657374656421000000000000000000602082015250565b60006144f4603783613571565b91506144ff82614498565b604082019050919050565b60006020820190508181036000830152614523816144e7565b9050919050565b7f6d696e744865726f436f6d6d69742e20546f6b656e204c696d6974207265616360008201527f6865640000000000000000000000000000000000000000000000000000000000602082015250565b6000614586602383613571565b91506145918261452a565b604082019050919050565b600060208201905081810360008301526145b581614579565b9050919050565b7f6578706c6f726552657665616c2e20596f7520617265206e6f7420746865206f60008201527f776e6572206f66207468697320746f6b656e0000000000000000000000000000602082015250565b6000614618603283613571565b9150614623826145bc565b604082019050919050565b600060208201905081810360008301526146478161460b565b9050919050565b7f6578706c6f726552657665616c2e2054686973206865726f206861732065787060008201527f6c6f726520636f6f6c646f776e21000000000000000000000000000000000000602082015250565b60006146aa602e83613571565b91506146b58261464e565b604082019050919050565b600060208201905081810360008301526146d98161469d565b9050919050565b7f6578706c6f726552657665616c2e204578706c6f726520616c7265616479206360008201527f6c61696d65642100000000000000000000000000000000000000000000000000602082015250565b600061473c602783613571565b9150614747826146e0565b604082019050919050565b6000602082019050818103600083015261476b8161472f565b9050919050565b7f6578706c6f726552657665616c2e204e6f7420656e6f75676820626c6f636b2060008201527f64656c6179210000000000000000000000000000000000000000000000000000602082015250565b60006147ce602683613571565b91506147d982614772565b604082019050919050565b600060208201905081810360008301526147fd816147c1565b9050919050565b600061481082856141e6565b6014820191506148208284614258565b6020820191508190509392505050565b600061483b82613310565b915061484683613310565b925082820261485481613310565b9150828204841483151761486b5761486a6137a4565b5b5092915050565b60006040820190506148876000830185613807565b61489460208301846134ec565b9392505050565b7f6578706c6f726552657665616c2e204e6f7420656e6f756768204e5958210000600082015250565b60006148d1601e83613571565b91506148dc8261489b565b602082019050919050565b60006020820190508181036000830152614900816148c4565b9050919050565b7f61747461636b436f6d6d69742e20436865636b204e595820616c6c6f77616e6360008201527f6500000000000000000000000000000000000000000000000000000000000000602082015250565b6000614963602183613571565b915061496e82614907565b604082019050919050565b6000602082019050818103600083015261499281614956565b9050919050565b7f61747461636b436f6d6d69742e204e6f7420656e6f756768204e595800000000600082015250565b60006149cf601c83613571565b91506149da82614999565b602082019050919050565b600060208201905081810360008301526149fe816149c2565b9050919050565b7f61747461636b436f6d6d69742e20596f7520646f206e6f74206f776e2074686560008201527f2061747461636b65722100000000000000000000000000000000000000000000602082015250565b6000614a61602a83613571565b9150614a6c82614a05565b604082019050919050565b60006020820190508181036000830152614a9081614a54565b9050919050565b7f61747461636b436f6d6d69742e20596f75206f776e207468652074617267657460008201527f2100000000000000000000000000000000000000000000000000000000000000602082015250565b6000614af3602183613571565b9150614afe82614a97565b604082019050919050565b60006020820190508181036000830152614b2281614ae6565b9050919050565b7f61747461636b436f6d6d69742e2054686973206865726f206973206578706c6f60008201527f72696e6700000000000000000000000000000000000000000000000000000000602082015250565b6000614b85602483613571565b9150614b9082614b29565b604082019050919050565b60006020820190508181036000830152614bb481614b78565b9050919050565b7f61747461636b436f6d6d69742e2054686973206865726f20686173206174746160008201527f636b20636f6f6c646f776e210000000000000000000000000000000000000000602082015250565b6000614c17602c83613571565b9150614c2282614bbb565b604082019050919050565b60006020820190508181036000830152614c4681614c0a565b9050919050565b7f61747461636b436f6d6d69742e2050726576696f75732061747461636b206e6f60008201527f7420636c61696d65642100000000000000000000000000000000000000000000602082015250565b6000614ca9602a83613571565b9150614cb482614c4d565b604082019050919050565b60006020820190508181036000830152614cd881614c9c565b9050919050565b6000606082019050614cf46000830186613807565b614d0160208301856134ec565b614d0e60408301846134ec565b949350505050565b7f7061794e7978547269627574652e204974206973206e6f74207468652074696d60008201527f65207965742e0000000000000000000000000000000000000000000000000000602082015250565b6000614d72602683613571565b9150614d7d82614d16565b604082019050919050565b60006020820190508181036000830152614da181614d65565b9050919050565b6000614db382613310565b91507fffffffffffffffffffffffffffffffffffffffffffffffffffffffffffffffff8203614de557614de46137a4565b5b600182019050919050565b6000604082019050614e0560008301856134ec565b614e1260208301846134ec565b9392505050565b7f6d696e744865726f52657665616c2e20596f75206e65656420746f207265717560008201527f6573742061206368617261637465722066697273742100000000000000000000602082015250565b6000614e75603683613571565b9150614e8082614e19565b604082019050919050565b60006020820190508181036000830152614ea481614e68565b9050919050565b7f6d696e744865726f52657665616c2e20596f75206e65656420746f207761697460008201527f206120626974206265666f72652072657665616c696e6720796f75722063686160208201527f7261637465720000000000000000000000000000000000000000000000000000604082015250565b6000614f2d604683613571565b9150614f3882614eab565b606082019050919050565b60006020820190508181036000830152614f5c81614f20565b9050919050565b6000614f6e82613d50565b9150614f7983613d50565b9250828203905060ff811115614f9257614f916137a4565b5b92915050565b600067ffffffffffffffff82169050919050565b6000614fb782614f98565b9150614fc283614f98565b9250828202614fd081614f98565b9150808214614fe257614fe16137a4565b5b5092915050565b7f61747461636b52657665616c2e204e6f7420656e6f756768204e595821000000600082015250565b600061501f601d83613571565b915061502a82614fe9565b602082019050919050565b6000602082019050818103600083015261504e81615012565b9050919050565b7f41747461636b65723a204865726f204f66204e797865756d2023000000000000600082015250565b600061508b601a83614208565b915061509682615055565b601a82019050919050565b7f202f2f2041747461636b657220526f6c6c3a2000000000000000000000000000600082015250565b60006150d7601383614208565b91506150e2826150a1565b601382019050919050565b7f206f662000000000000000000000000000000000000000000000000000000000600082015250565b6000615123600483614208565b915061512e826150ed565b600482019050919050565b7f202f2f2000000000000000000000000000000000000000000000000000000000600082015250565b600061516f600483614208565b915061517a82615139565b600482019050919050565b60006151908261507e565b915061519c8286614213565b91506151a7826150ca565b91506151b38285614213565b91506151be82615116565b91506151ca8284614213565b91506151d582615162565b9150819050949350505050565b7f5461726765743a204865726f204f66204e797865756d20230000000000000000600082015250565b6000615218601883614208565b9150615223826151e2565b601882019050919050565b7f202f2f2054617267657420526f6c6c3a20000000000000000000000000000000600082015250565b6000615264601183614208565b915061526f8261522e565b601182019050919050565b60006152858261520b565b91506152918286614213565b915061529c82615257565b91506152a88285614213565b91506152b382615116565b91506152bf8284614213565b91506152ca82615162565b9150819050949350505050565b60008160011c9050919050565b6000808291508390505b600185111561532e5780860481111561530a576153096137a4565b5b60018516156153195780820291505b8081029050615327856152d7565b94506152ee565b94509492505050565b6000826153475760019050615403565b816153555760009050615403565b816001811461536b5760028114615375576153a4565b6001915050615403565b60ff841115615387576153866137a4565b5b8360020a91508482111561539e5761539d6137a4565b5b50615403565b5060208310610133831016604e8410600b84101617156153d95782820a9050838111156153d4576153d36137a4565b5b615403565b6153e684848460016152e4565b925090508184048111156153fd576153fc6137a4565b5b81810290505b9392505050565b600061541582613310565b915061542083613d50565b925061544d7fffffffffffffffffffffffffffffffffffffffffffffffffffffffffffffffff8484615337565b905092915050565b7f53746f6c656e204e59583a200000000000000000000000000000000000000000600082015250565b600061548b600c83614208565b915061549682615455565b600c82019050919050565b60006154ac8261547e565b91506154b88284614213565b915081905092915050565b60006154cf8287614213565b91506154db8286614213565b91506154e78285614213565b91506154f38284614213565b915081905095945050505050565b600061550c82613310565b915061551783613310565b92506155447fffffffffffffffffffffffffffffffffffffffffffffffffffffffffffffffff8484615337565b905092915050565b600061555782613310565b915061556283613310565b925082615572576155716142b5565b5b828204905092915050565b7f2e00000000000000000000000000000000000000000000000000000000000000600082015250565b60006155b3600183614208565b91506155be8261557d565b600182019050919050565b60006155d58285614213565b91506155e0826155a6565b91506155ec8284614213565b9150819050939250505056fea2646970667358221220ad67d0451a45c926b7fe3cd175b166de2429c4911a003af51258cff8f46584e264736f6c63430008120033",
  "linkReferences": {},
  "deployedLinkReferences": {}
}