{
  "_format": "hh-sol-artifact-1",
  "contractName": "NyxeumGameV1",
  "sourceName": "contracts/NyxeumGameV1.sol",
  "abi": [
    {
      "anonymous": false,
      "inputs": [
        {
          "indexed": false,
          "internalType": "uint8",
          "name": "version",
          "type": "uint8"
        }
      ],
      "name": "Initialized",
      "type": "event"
    },
    {
      "inputs": [
        {
          "internalType": "address",
          "name": "nyxEssenceAddress",
          "type": "address"
        },
        {
          "internalType": "address",
          "name": "heroesOfNyxeumAddress",
          "type": "address"
        }
      ],
      "name": "initialize",
      "outputs": [],
      "stateMutability": "nonpayable",
      "type": "function"
    },
    {
      "inputs": [],
      "name": "withdrawProfits",
      "outputs": [],
      "stateMutability": "nonpayable",
      "type": "function"
    }
  ],
  "bytecode": "0x608060405234801561001057600080fd5b50610719806100206000396000f3fe608060405234801561001057600080fd5b50600436106100365760003560e01c806339913e091461003b578063485cc95514610045575b600080fd5b610043610061565b005b61005f600480360381019061005a919061044f565b6101ce565b005b600060029054906101000a900473ffffffffffffffffffffffffffffffffffffffff1673ffffffffffffffffffffffffffffffffffffffff163373ffffffffffffffffffffffffffffffffffffffff16146100bb57600080fd5b600047116100fe576040517f08c379a00000000000000000000000000000000000000000000000000000000081526004016100f590610512565b60405180910390fd5b60008060029054906101000a900473ffffffffffffffffffffffffffffffffffffffff1673ffffffffffffffffffffffffffffffffffffffff164760405161014590610563565b60006040518083038185875af1925050503d8060008114610182576040519150601f19603f3d011682016040523d82523d6000602084013e610187565b606091505b50509050806101cb576040517f08c379a00000000000000000000000000000000000000000000000000000000081526004016101c2906105c4565b60405180910390fd5b50565b60008060019054906101000a900460ff161590508080156101ff5750600160008054906101000a900460ff1660ff16105b8061022c575061020e306103c9565b15801561022b5750600160008054906101000a900460ff1660ff16145b5b61026b576040517f08c379a000000000000000000000000000000000000000000000000000000000815260040161026290610656565b60405180910390fd5b60016000806101000a81548160ff021916908360ff16021790555080156102a8576001600060016101000a81548160ff0219169083151502179055505b33600060026101000a81548173ffffffffffffffffffffffffffffffffffffffff021916908373ffffffffffffffffffffffffffffffffffffffff16021790555082600160006101000a81548173ffffffffffffffffffffffffffffffffffffffff021916908373ffffffffffffffffffffffffffffffffffffffff16021790555081600260006101000a81548173ffffffffffffffffffffffffffffffffffffffff021916908373ffffffffffffffffffffffffffffffffffffffff16021790555080156103c45760008060016101000a81548160ff0219169083151502179055507f7f26b83ff96e1f2b6a682f133852f6798a09c465da95921460cefb384740249860016040516103bb91906106c8565b60405180910390a15b505050565b6000808273ffffffffffffffffffffffffffffffffffffffff163b119050919050565b600080fd5b600073ffffffffffffffffffffffffffffffffffffffff82169050919050565b600061041c826103f1565b9050919050565b61042c81610411565b811461043757600080fd5b50565b60008135905061044981610423565b92915050565b60008060408385031215610466576104656103ec565b5b60006104748582860161043a565b92505060206104858582860161043a565b9150509250929050565b600082825260208201905092915050565b7f50726f66697473206d7573742062652067726561746572207468616e2030206960008201527f6e206f7264657220746f20776974686472617721000000000000000000000000602082015250565b60006104fc60348361048f565b9150610507826104a0565b604082019050919050565b6000602082019050818103600083015261052b816104ef565b9050919050565b600081905092915050565b50565b600061054d600083610532565b91506105588261053d565b600082019050919050565b600061056e82610540565b9150819050919050565b7f4661696c656420746f2073656e64206574686572000000000000000000000000600082015250565b60006105ae60148361048f565b91506105b982610578565b602082019050919050565b600060208201905081810360008301526105dd816105a1565b9050919050565b7f496e697469616c697a61626c653a20636f6e747261637420697320616c72656160008201527f647920696e697469616c697a6564000000000000000000000000000000000000602082015250565b6000610640602e8361048f565b915061064b826105e4565b604082019050919050565b6000602082019050818103600083015261066f81610633565b9050919050565b6000819050919050565b600060ff82169050919050565b6000819050919050565b60006106b26106ad6106a884610676565b61068d565b610680565b9050919050565b6106c281610697565b82525050565b60006020820190506106dd60008301846106b9565b9291505056fea2646970667358221220b448f7f6d3ab780525823178f1c1a9cca9eea1ed13438b45753b35e9a244e9ed64736f6c63430008120033",
  "linkReferences": {},
  "deployedLinkReferences": {}
}