{
  "_format": "hh-sol-artifact-1",
  "contractName": "NyxeumGameV1",
  "sourceName": "contracts/NyxeumGameV1.sol",
  "abi": [
    {
      "anonymous": false,
      "inputs": [
        {
          "indexed": false,
          "internalType": "address",
          "name": "account",
          "type": "address"
        },
        {
          "indexed": false,
          "internalType": "uint256",
          "name": "attackerId",
          "type": "uint256"
        },
        {
          "indexed": false,
          "internalType": "uint256",
          "name": "targetId",
          "type": "uint256"
        }
      ],
      "name": "BeginAttack",
      "type": "event"
    },
    {
      "anonymous": false,
      "inputs": [
        {
          "indexed": false,
          "internalType": "address",
          "name": "account",
          "type": "address"
        }
      ],
      "name": "BeginExploration",
      "type": "event"
    },
    {
      "anonymous": false,
      "inputs": [
        {
          "indexed": false,
          "internalType": "address",
          "name": "account",
          "type": "address"
        }
      ],
      "name": "BeginMint",
      "type": "event"
    },
    {
      "anonymous": false,
      "inputs": [
        {
          "indexed": false,
          "internalType": "address",
          "name": "account",
          "type": "address"
        },
        {
          "indexed": false,
          "internalType": "uint256",
          "name": "attackerId",
          "type": "uint256"
        },
        {
          "indexed": false,
          "internalType": "uint256",
          "name": "targetId",
          "type": "uint256"
        },
        {
          "indexed": false,
          "internalType": "uint256",
          "name": "nyx",
          "type": "uint256"
        },
        {
          "indexed": false,
          "internalType": "string",
          "name": "logs",
          "type": "string"
        }
      ],
      "name": "EndAttack",
      "type": "event"
    },
    {
      "anonymous": false,
      "inputs": [
        {
          "indexed": false,
          "internalType": "address",
          "name": "account",
          "type": "address"
        },
        {
          "indexed": false,
          "internalType": "uint256",
          "name": "nyx",
          "type": "uint256"
        }
      ],
      "name": "EndExploration",
      "type": "event"
    },
    {
      "anonymous": false,
      "inputs": [
        {
          "indexed": false,
          "internalType": "address",
          "name": "account",
          "type": "address"
        },
        {
          "indexed": false,
          "internalType": "uint256",
          "name": "tokenId",
          "type": "uint256"
        }
      ],
      "name": "EndMint",
      "type": "event"
    },
    {
      "anonymous": false,
      "inputs": [
        {
          "indexed": false,
          "internalType": "uint8",
          "name": "version",
          "type": "uint8"
        }
      ],
      "name": "Initialized",
      "type": "event"
    },
    {
      "anonymous": false,
      "inputs": [
        {
          "indexed": false,
          "internalType": "uint256",
          "name": "success",
          "type": "uint256"
        },
        {
          "indexed": false,
          "internalType": "uint256",
          "name": "error",
          "type": "uint256"
        }
      ],
      "name": "NyxTribute",
      "type": "event"
    },
    {
      "inputs": [
        {
          "internalType": "uint256",
          "name": "attackerId",
          "type": "uint256"
        },
        {
          "internalType": "uint256",
          "name": "targetId",
          "type": "uint256"
        }
      ],
      "name": "attackCommit",
      "outputs": [],
      "stateMutability": "payable",
      "type": "function"
    },
    {
      "inputs": [
        {
          "internalType": "uint256",
          "name": "attackerId",
          "type": "uint256"
        }
      ],
      "name": "attackReveal",
      "outputs": [],
      "stateMutability": "nonpayable",
      "type": "function"
    },
    {
      "inputs": [
        {
          "internalType": "uint256",
          "name": "tokenId",
          "type": "uint256"
        }
      ],
      "name": "exploreCommit",
      "outputs": [],
      "stateMutability": "payable",
      "type": "function"
    },
    {
      "inputs": [
        {
          "internalType": "uint256",
          "name": "tokenId",
          "type": "uint256"
        }
      ],
      "name": "exploreReveal",
      "outputs": [],
      "stateMutability": "nonpayable",
      "type": "function"
    },
    {
      "inputs": [],
      "name": "getMintHeroCommitPrice",
      "outputs": [
        {
          "internalType": "uint256",
          "name": "",
          "type": "uint256"
        }
      ],
      "stateMutability": "view",
      "type": "function"
    },
    {
      "inputs": [],
      "name": "getMintHeroRevealPrice",
      "outputs": [
        {
          "internalType": "uint256",
          "name": "",
          "type": "uint256"
        }
      ],
      "stateMutability": "view",
      "type": "function"
    },
    {
      "inputs": [
        {
          "internalType": "address",
          "name": "nyxEssenceAddress",
          "type": "address"
        },
        {
          "internalType": "address",
          "name": "heroesOfNyxeumAddress",
          "type": "address"
        }
      ],
      "name": "initialize",
      "outputs": [],
      "stateMutability": "nonpayable",
      "type": "function"
    },
    {
      "inputs": [
        {
          "internalType": "uint256",
          "name": "attackerId",
          "type": "uint256"
        }
      ],
      "name": "isAttacking",
      "outputs": [
        {
          "internalType": "bool",
          "name": "",
          "type": "bool"
        }
      ],
      "stateMutability": "view",
      "type": "function"
    },
    {
      "inputs": [
        {
          "internalType": "uint256",
          "name": "tokenId",
          "type": "uint256"
        }
      ],
      "name": "isExploring",
      "outputs": [
        {
          "internalType": "bool",
          "name": "",
          "type": "bool"
        }
      ],
      "stateMutability": "view",
      "type": "function"
    },
    {
      "inputs": [],
      "name": "isHeroMinted",
      "outputs": [
        {
          "internalType": "bool",
          "name": "",
          "type": "bool"
        }
      ],
      "stateMutability": "view",
      "type": "function"
    },
    {
      "inputs": [],
      "name": "mintHeroCommit",
      "outputs": [],
      "stateMutability": "payable",
      "type": "function"
    },
    {
      "inputs": [],
      "name": "mintHeroReveal",
      "outputs": [],
      "stateMutability": "nonpayable",
      "type": "function"
    },
    {
      "inputs": [],
      "name": "payNyxTribute",
      "outputs": [],
      "stateMutability": "nonpayable",
      "type": "function"
    },
    {
      "inputs": [],
      "name": "withdrawProfits",
      "outputs": [],
      "stateMutability": "nonpayable",
      "type": "function"
    }
  ],
  "bytecode": "0x608060405234801561001057600080fd5b506146a7806100206000396000f3fe6080604052600436106100dd5760003560e01c8063c1de474a1161007f578063cb1fca4111610059578063cb1fca4114610249578063ce5cbc2c14610286578063d99d93bf1461029d578063ef1d0c8b146102b4576100dd565b8063c1de474a146101c7578063c6b717b2146101f0578063c86dca5a1461020c576100dd565b80636ed69b5b116100bb5780636ed69b5b1461013e578063885132e914610169578063ae3452eb14610194578063b78bb5d9146101bd576100dd565b806339913e09146100e257806346e21b34146100f9578063485cc95514610115575b600080fd5b3480156100ee57600080fd5b506100f76102df565b005b610113600480360381019061010e91906128ce565b610482565b005b34801561012157600080fd5b5061013c60048036038101906101379190612959565b6107ba565b005b34801561014a57600080fd5b50610153610a32565b60405161016091906129a8565b60405180910390f35b34801561017557600080fd5b5061017e610a3c565b60405161018b91906129de565b60405180910390f35b3480156101a057600080fd5b506101bb60048036038101906101b691906128ce565b610a85565b005b6101c5610f81565b005b3480156101d357600080fd5b506101ee60048036038101906101e991906128ce565b611207565b005b61020a600480360381019061020591906129f9565b611577565b005b34801561021857600080fd5b50610233600480360381019061022e91906128ce565b6119e7565b60405161024091906129de565b60405180910390f35b34801561025557600080fd5b50610270600480360381019061026b91906128ce565b611a06565b60405161027d91906129de565b60405180910390f35b34801561029257600080fd5b5061029b611a28565b005b3480156102a957600080fd5b506102b2611bba565b005b3480156102c057600080fd5b506102c9611e5f565b6040516102d691906129a8565b60405180910390f35b600060029054906101000a900473ffffffffffffffffffffffffffffffffffffffff1673ffffffffffffffffffffffffffffffffffffffff163373ffffffffffffffffffffffffffffffffffffffff161461036f576040517f08c379a000000000000000000000000000000000000000000000000000000000815260040161036690612abc565b60405180910390fd5b600047116103b2576040517f08c379a00000000000000000000000000000000000000000000000000000000081526004016103a990612b74565b60405180910390fd5b60008060029054906101000a900473ffffffffffffffffffffffffffffffffffffffff1673ffffffffffffffffffffffffffffffffffffffff16476040516103f990612bc5565b60006040518083038185875af1925050503d8060008114610436576040519150601f19603f3d011682016040523d82523d6000602084013e61043b565b606091505b505090508061047f576040517f08c379a000000000000000000000000000000000000000000000000000000000815260040161047690612c4c565b60405180910390fd5b50565b600754600160009054906101000a900473ffffffffffffffffffffffffffffffffffffffff1673ffffffffffffffffffffffffffffffffffffffff1663dd62ed3e33306040518363ffffffff1660e01b81526004016104e2929190612c7b565b602060405180830381865afa1580156104ff573d6000803e3d6000fd5b505050506040513d601f19601f820116820180604052508101906105239190612cb9565b1015610564576040517f08c379a000000000000000000000000000000000000000000000000000000000815260040161055b90612d58565b60405180910390fd5b3373ffffffffffffffffffffffffffffffffffffffff16600260009054906101000a900473ffffffffffffffffffffffffffffffffffffffff1673ffffffffffffffffffffffffffffffffffffffff16636352211e836040518263ffffffff1660e01b81526004016105d691906129a8565b602060405180830381865afa1580156105f3573d6000803e3d6000fd5b505050506040513d601f19601f820116820180604052508101906106179190612d8d565b73ffffffffffffffffffffffffffffffffffffffff161461066d576040517f08c379a000000000000000000000000000000000000000000000000000000000815260040161066490612e2c565b60405180910390fd5b6000600a600083815260200190815260200160002054146106c3576040517f08c379a00000000000000000000000000000000000000000000000000000000081526004016106ba90612ebe565b60405180910390fd5b600160009054906101000a900473ffffffffffffffffffffffffffffffffffffffff1673ffffffffffffffffffffffffffffffffffffffff166323b872dd33306007546040518463ffffffff1660e01b815260040161072493929190612ede565b6020604051808303816000875af1158015610743573d6000803e3d6000fd5b505050506040513d601f19601f820116820180604052508101906107679190612f41565b5043600a6000838152602001908152602001600020819055507f2fff9fbae38097da283c7eb3b6d225ae0b0732d43a2a40399643364056d185b4336040516107af9190612f6e565b60405180910390a150565b60008060019054906101000a900460ff161590508080156107eb5750600160008054906101000a900460ff1660ff16105b8061081857506107fa30611e69565b1580156108175750600160008054906101000a900460ff1660ff16145b5b610857576040517f08c379a000000000000000000000000000000000000000000000000000000000815260040161084e90612ffb565b60405180910390fd5b60016000806101000a81548160ff021916908360ff1602179055508015610894576001600060016101000a81548160ff0219169083151502179055505b33600060026101000a81548173ffffffffffffffffffffffffffffffffffffffff021916908373ffffffffffffffffffffffffffffffffffffffff16021790555042600f8190555062015180601081905550670de0b6b3a764000060118190555082600160006101000a81548173ffffffffffffffffffffffffffffffffffffffff021916908373ffffffffffffffffffffffffffffffffffffffff16021790555081600260006101000a81548173ffffffffffffffffffffffffffffffffffffffff021916908373ffffffffffffffffffffffffffffffffffffffff160217905550674563918244f4000060038190555060006004819055506001600581905550670de0b6b3a764000060078190555060006008819055506001600981905550670de0b6b3a7640000600b819055506000600c819055506001600d819055508015610a2d5760008060016101000a81548160ff0219169083151502179055507f7f26b83ff96e1f2b6a682f133852f6798a09c465da95921460cefb38474024986001604051610a24919061306d565b60405180910390a15b505050565b6000600454905090565b600080600660003373ffffffffffffffffffffffffffffffffffffffff1673ffffffffffffffffffffffffffffffffffffffff1681526020019081526020016000205411905090565b3373ffffffffffffffffffffffffffffffffffffffff16600260009054906101000a900473ffffffffffffffffffffffffffffffffffffffff1673ffffffffffffffffffffffffffffffffffffffff16636352211e836040518263ffffffff1660e01b8152600401610af791906129a8565b602060405180830381865afa158015610b14573d6000803e3d6000fd5b505050506040513d601f19601f82011682018060405250810190610b389190612d8d565b73ffffffffffffffffffffffffffffffffffffffff1614610b8e576040517f08c379a0000000000000000000000000000000000000000000000000000000008152600401610b85906130fa565b60405180910390fd5b6000600e60008381526020019081526020016000206001015403610be7576040517f08c379a0000000000000000000000000000000000000000000000000000000008152600401610bde9061318c565b60405180910390fd5b600d54600e600083815260200190815260200160002060010154610c0b91906131db565b431015610c4d576040517f08c379a0000000000000000000000000000000000000000000000000000000008152600401610c44906132a7565b60405180910390fd5b6000600e60008381526020019081526020016000206000015490506000600260009054906101000a900473ffffffffffffffffffffffffffffffffffffffff1673ffffffffffffffffffffffffffffffffffffffff1663ad27314b846040518263ffffffff1660e01b8152600401610cc591906129a8565b61012060405180830381865afa158015610ce3573d6000803e3d6000fd5b505050506040513d601f19601f82011682018060405250810190610d079190613464565b90506000600260009054906101000a900473ffffffffffffffffffffffffffffffffffffffff1673ffffffffffffffffffffffffffffffffffffffff1663ad27314b846040518263ffffffff1660e01b8152600401610d6691906129a8565b61012060405180830381865afa158015610d84573d6000803e3d6000fd5b505050506040513d601f19601f82011682018060405250810190610da89190613464565b9050600033610db686611e8c565b610dbf86611e8c565b600e60008981526020019081526020016000206001015440604051602001610dea9493929190613576565b6040516020818303038152906040528051906020012060001c9050600e6000868152602001908152602001600020600080820160009055600182016000905550506000600382610e3a91906135eb565b90506000610e488583611f5a565b90506000610e568584611f5a565b9050600082600886901c610e6a919061361c565b9050600082601087901c610e7e919061361c565b90506000610e8d8a8484611fad565b90506000610f328c8c89878a888b89600160009054906101000a900473ffffffffffffffffffffffffffffffffffffffff1673ffffffffffffffffffffffffffffffffffffffff1663313ce5676040518163ffffffff1660e01b8152600401602060405180830381865afa158015610f09573d6000803e3d6000fd5b505050506040513d601f19601f82011682018060405250810190610f2d919061364d565b612228565b90507fca55264b705c673f3b77d48a609b1c55e83f7df11bbac3ae1afc63744e0b58e3338d8d8585604051610f6b9594939291906136b3565b60405180910390a1505050505050505050505050565b600354600160009054906101000a900473ffffffffffffffffffffffffffffffffffffffff1673ffffffffffffffffffffffffffffffffffffffff1663dd62ed3e33306040518363ffffffff1660e01b8152600401610fe1929190612c7b565b602060405180830381865afa158015610ffe573d6000803e3d6000fd5b505050506040513d601f19601f820116820180604052508101906110229190612cb9565b1015611063576040517f08c379a000000000000000000000000000000000000000000000000000000000815260040161105a9061377f565b60405180910390fd5b6000600660003373ffffffffffffffffffffffffffffffffffffffff1673ffffffffffffffffffffffffffffffffffffffff16815260200190815260200160002054146110e5576040517f08c379a00000000000000000000000000000000000000000000000000000000081526004016110dc90613811565b60405180910390fd5b600160009054906101000a900473ffffffffffffffffffffffffffffffffffffffff1673ffffffffffffffffffffffffffffffffffffffff166323b872dd33306003546040518463ffffffff1660e01b815260040161114693929190612ede565b6020604051808303816000875af1158015611165573d6000803e3d6000fd5b505050506040513d601f19601f820116820180604052508101906111899190612f41565b5043600660003373ffffffffffffffffffffffffffffffffffffffff1673ffffffffffffffffffffffffffffffffffffffff168152602001908152602001600020819055507fd35897783c92f3ac0c8c3d18fa7b6ca76264d08728414c6875759e7253e86850336040516111fd9190612f6e565b60405180910390a1565b3373ffffffffffffffffffffffffffffffffffffffff16600260009054906101000a900473ffffffffffffffffffffffffffffffffffffffff1673ffffffffffffffffffffffffffffffffffffffff16636352211e836040518263ffffffff1660e01b815260040161127991906129a8565b602060405180830381865afa158015611296573d6000803e3d6000fd5b505050506040513d601f19601f820116820180604052508101906112ba9190612d8d565b73ffffffffffffffffffffffffffffffffffffffff1614611310576040517f08c379a0000000000000000000000000000000000000000000000000000000008152600401611307906138a3565b60405180910390fd5b6000600a60008381526020019081526020016000205403611366576040517f08c379a000000000000000000000000000000000000000000000000000000000815260040161135d90613935565b60405180910390fd5b600954600a60008381526020019081526020016000205461138791906131db565b4310156113c9576040517f08c379a00000000000000000000000000000000000000000000000000000000081526004016113c0906139ed565b60405180910390fd5b600033600a600084815260200190815260200160002054406040516020016113f2929190613a0d565b6040516020818303038152906040528051906020012060001c9050600a600083815260200190815260200160002060009055600067016345785d8a0000600b8361143c91906135eb565b60026114489190613a39565b6114529190613a39565b90506000600160009054906101000a900473ffffffffffffffffffffffffffffffffffffffff1673ffffffffffffffffffffffffffffffffffffffff1663a9059cbb33846040518363ffffffff1660e01b81526004016114b3929190613a7b565b6020604051808303816000875af11580156114d2573d6000803e3d6000fd5b505050506040513d601f19601f820116820180604052508101906114f69190612f41565b905080611538576040517f08c379a000000000000000000000000000000000000000000000000000000000815260040161152f90613af0565b60405180910390fd5b7f1f4c26e9d30b2cd4f2b79e41290b5db5a0d05adf3e99e97261a2f28b2ff272043383604051611569929190613a7b565b60405180910390a150505050565b600b54600160009054906101000a900473ffffffffffffffffffffffffffffffffffffffff1673ffffffffffffffffffffffffffffffffffffffff1663dd62ed3e33306040518363ffffffff1660e01b81526004016115d7929190612c7b565b602060405180830381865afa1580156115f4573d6000803e3d6000fd5b505050506040513d601f19601f820116820180604052508101906116189190612cb9565b1015611659576040517f08c379a000000000000000000000000000000000000000000000000000000000815260040161165090613b82565b60405180910390fd5b3373ffffffffffffffffffffffffffffffffffffffff16600260009054906101000a900473ffffffffffffffffffffffffffffffffffffffff1673ffffffffffffffffffffffffffffffffffffffff16636352211e846040518263ffffffff1660e01b81526004016116cb91906129a8565b602060405180830381865afa1580156116e8573d6000803e3d6000fd5b505050506040513d601f19601f8201168201806040525081019061170c9190612d8d565b73ffffffffffffffffffffffffffffffffffffffff1614611762576040517f08c379a000000000000000000000000000000000000000000000000000000000815260040161175990613c14565b60405180910390fd5b3373ffffffffffffffffffffffffffffffffffffffff16600260009054906101000a900473ffffffffffffffffffffffffffffffffffffffff1673ffffffffffffffffffffffffffffffffffffffff16636352211e836040518263ffffffff1660e01b81526004016117d491906129a8565b602060405180830381865afa1580156117f1573d6000803e3d6000fd5b505050506040513d601f19601f820116820180604052508101906118159190612d8d565b73ffffffffffffffffffffffffffffffffffffffff160361186b576040517f08c379a000000000000000000000000000000000000000000000000000000000815260040161186290613ca6565b60405180910390fd5b6000600e600084815260200190815260200160002060010154146118c4576040517f08c379a00000000000000000000000000000000000000000000000000000000081526004016118bb90613d38565b60405180910390fd5b600160009054906101000a900473ffffffffffffffffffffffffffffffffffffffff1673ffffffffffffffffffffffffffffffffffffffff166323b872dd3330600b546040518463ffffffff1660e01b815260040161192593929190612ede565b6020604051808303816000875af1158015611944573d6000803e3d6000fd5b505050506040513d601f19601f820116820180604052508101906119689190612f41565b50604051806040016040528082815260200143815250600e600084815260200190815260200160002060008201518160000155602082015181600101559050507facb334074a0ad14881e0a65bdccb54b9da0d2f863669e5459dc8023a5aebe5ee3383836040516119db93929190613d58565b60405180910390a15050565b600080600a600084815260200190815260200160002054119050919050565b600080600e600084815260200190815260200160002060010154119050919050565b601054600f54611a3891906131db565b421015611a7a576040517f08c379a0000000000000000000000000000000000000000000000000000000008152600401611a7190613e01565b60405180910390fd5b6000600260009054906101000a900473ffffffffffffffffffffffffffffffffffffffff1673ffffffffffffffffffffffffffffffffffffffff166318160ddd6040518163ffffffff1660e01b8152600401602060405180830381865afa158015611ae9573d6000803e3d6000fd5b505050506040513d601f19601f82011682018060405250810190611b0d9190612cb9565b90506000806000600190505b838111611b6557611b2981612401565b15611b4257600183611b3b91906131db565b9250611b52565b600182611b4f91906131db565b91505b8080611b5d90613e21565b915050611b19565b507f5fbc000f336c0c57f42eaba00c1f6dd7dec17ac4022415ddb0705dd352c58caf8282604051611b97929190613e69565b60405180910390a1601054600f54611baf91906131db565b600f81905550505050565b6000600660003373ffffffffffffffffffffffffffffffffffffffff1673ffffffffffffffffffffffffffffffffffffffff1681526020019081526020016000205403611c3c576040517f08c379a0000000000000000000000000000000000000000000000000000000008152600401611c3390613f04565b60405180910390fd5b600554600660003373ffffffffffffffffffffffffffffffffffffffff1673ffffffffffffffffffffffffffffffffffffffff16815260200190815260200160002054611c8991906131db565b431015611ccb576040517f08c379a0000000000000000000000000000000000000000000000000000000008152600401611cc290613fbc565b60405180910390fd5b600033600660003373ffffffffffffffffffffffffffffffffffffffff1673ffffffffffffffffffffffffffffffffffffffff1681526020019081526020016000205440604051602001611d20929190613a0d565b6040516020818303038152906040528051906020012060001c9050600660003373ffffffffffffffffffffffffffffffffffffffff1673ffffffffffffffffffffffffffffffffffffffff168152602001908152602001600020600090556000600260009054906101000a900473ffffffffffffffffffffffffffffffffffffffff1673ffffffffffffffffffffffffffffffffffffffff166340c10f1933846040518363ffffffff1660e01b8152600401611ddd929190613a7b565b6020604051808303816000875af1158015611dfc573d6000803e3d6000fd5b505050506040513d601f19601f82011682018060405250810190611e209190612cb9565b90507f947b6fba38e610db2f2ee0e997726f5a848d91ca12a98a65e81643952d4bc3093382604051611e53929190613a7b565b60405180910390a15050565b6000600354905090565b6000808273ffffffffffffffffffffffffffffffffffffffff163b119050919050565b606060006001611e9b846126af565b01905060008167ffffffffffffffff811115611eba57611eb96132dd565b5b6040519080825280601f01601f191660200182016040528015611eec5781602001600182028036833780820191505090505b509050600082602001820190505b600115611f4f578080600190039150507f3031323334353637383961626364656600000000000000000000000000000000600a86061a8153600a8581611f4357611f426135bc565b5b04945060008503611efa575b819350505050919050565b6000808260ff1603611f725782600001519050611fa7565b60018260ff1603611f895782602001519050611fa6565b60028260ff1603611fa05782604001519050611fa5565b600090505b5b5b92915050565b60008160ff168360ff161115611fec5767016345785d8a00008284611fd29190613fdc565b60ff16611fdf9190614025565b67ffffffffffffffff1690505b6000600260009054906101000a900473ffffffffffffffffffffffffffffffffffffffff1673ffffffffffffffffffffffffffffffffffffffff16636352211e866040518263ffffffff1660e01b815260040161204991906129a8565b602060405180830381865afa158015612066573d6000803e3d6000fd5b505050506040513d601f19601f8201168201806040525081019061208a9190612d8d565b90506000600160009054906101000a900473ffffffffffffffffffffffffffffffffffffffff1673ffffffffffffffffffffffffffffffffffffffff166370a08231836040518263ffffffff1660e01b81526004016120e99190612f6e565b602060405180830381865afa158015612106573d6000803e3d6000fd5b505050506040513d601f19601f8201168201806040525081019061212a9190612cb9565b905082811015612138578092505b6000600160009054906101000a900473ffffffffffffffffffffffffffffffffffffffff1673ffffffffffffffffffffffffffffffffffffffff166323b872dd8433876040518463ffffffff1660e01b815260040161219993929190612ede565b6020604051808303816000875af11580156121b8573d6000803e3d6000fd5b505050506040513d601f19601f820116820180604052508101906121dc9190612f41565b90508061221e576040517f08c379a0000000000000000000000000000000000000000000000000000000008152600401612215906140ae565b60405180910390fd5b5050509392505050565b60608060008960ff1603612273576040518060400160405280601481526020017f426174746c6520747970653a20535452202f2f200000000000000000000000008152509050612301565b60018960ff16036122bb576040518060400160405280601481526020017f426174746c6520747970653a20444558202f2f200000000000000000000000008152509050612300565b60028960ff16036122ff576040518060400160405280601481526020017f426174746c6520747970653a20494e54202f2f2000000000000000000000000081525090505b5b5b600061230c8c611e8c565b6123188a60ff16611e8c565b6123248a60ff16611e8c565b604051602001612336939291906141fe565b604051602081830303815290604052905060006123528c611e8c565b61235e8960ff16611e8c565b61236a8960ff16611e8c565b60405160200161237c939291906142f3565b604051602081830303815290604052905060006123a760028888600a6123a29190614483565b612802565b6040516020016123b7919061451a565b6040516020818303038152906040529050838383836040516020016123df949392919061453c565b6040516020818303038152906040529450505050509998505050505050505050565b600080600260009054906101000a900473ffffffffffffffffffffffffffffffffffffffff1673ffffffffffffffffffffffffffffffffffffffff16636352211e846040518263ffffffff1660e01b815260040161245f91906129a8565b602060405180830381865afa15801561247c573d6000803e3d6000fd5b505050506040513d601f19601f820116820180604052508101906124a09190612d8d565b9050601154600160009054906101000a900473ffffffffffffffffffffffffffffffffffffffff1673ffffffffffffffffffffffffffffffffffffffff1663dd62ed3e83306040518363ffffffff1660e01b8152600401612502929190612c7b565b602060405180830381865afa15801561251f573d6000803e3d6000fd5b505050506040513d601f19601f820116820180604052508101906125439190612cb9565b10156125535760009150506126aa565b601154600160009054906101000a900473ffffffffffffffffffffffffffffffffffffffff1673ffffffffffffffffffffffffffffffffffffffff166370a08231836040518263ffffffff1660e01b81526004016125b19190612f6e565b602060405180830381865afa1580156125ce573d6000803e3d6000fd5b505050506040513d601f19601f820116820180604052508101906125f29190612cb9565b10156126025760009150506126aa565b600160009054906101000a900473ffffffffffffffffffffffffffffffffffffffff1673ffffffffffffffffffffffffffffffffffffffff166323b872dd82306011546040518463ffffffff1660e01b815260040161266393929190612ede565b6020604051808303816000875af1158015612682573d6000803e3d6000fd5b505050506040513d601f19601f820116820180604052508101906126a69190612f41565b9150505b919050565b600080600090507a184f03e93ff9f4daa797ed6e38ed64bf6a1f010000000000000000831061270d577a184f03e93ff9f4daa797ed6e38ed64bf6a1f0100000000000000008381612703576127026135bc565b5b0492506040810190505b6d04ee2d6d415b85acef8100000000831061274a576d04ee2d6d415b85acef810000000083816127405761273f6135bc565b5b0492506020810190505b662386f26fc10000831061277957662386f26fc10000838161276f5761276e6135bc565b5b0492506010810190505b6305f5e10083106127a2576305f5e1008381612798576127976135bc565b5b0492506008810190505b61271083106127c75761271083816127bd576127bc6135bc565b5b0492506004810190505b606483106127ea57606483816127e0576127df6135bc565b5b0492506002810190505b600a83106127f9576001810190505b80915050919050565b6060600084600a612813919061457a565b90506000838561282391906145c5565b90506000828584886128359190613a39565b61283f91906145c5565b61284991906135eb565b905061285482611e8c565b61285d82611e8c565b60405160200161286e929190614642565b60405160208183030381529060405293505050509392505050565b6000604051905090565b600080fd5b6000819050919050565b6128ab81612898565b81146128b657600080fd5b50565b6000813590506128c8816128a2565b92915050565b6000602082840312156128e4576128e3612893565b5b60006128f2848285016128b9565b91505092915050565b600073ffffffffffffffffffffffffffffffffffffffff82169050919050565b6000612926826128fb565b9050919050565b6129368161291b565b811461294157600080fd5b50565b6000813590506129538161292d565b92915050565b600080604083850312156129705761296f612893565b5b600061297e85828601612944565b925050602061298f85828601612944565b9150509250929050565b6129a281612898565b82525050565b60006020820190506129bd6000830184612999565b92915050565b60008115159050919050565b6129d8816129c3565b82525050565b60006020820190506129f360008301846129cf565b92915050565b60008060408385031215612a1057612a0f612893565b5b6000612a1e858286016128b9565b9250506020612a2f858286016128b9565b9150509250929050565b600082825260208201905092915050565b7f6f6e6c794f776e65722e20596f7520617265206e6f7420746865206f776e657260008201527f206f66207468697320636f6e7472616374210000000000000000000000000000602082015250565b6000612aa6603283612a39565b9150612ab182612a4a565b604082019050919050565b60006020820190508181036000830152612ad581612a99565b9050919050565b7f776974686472617750726f666974732e2050726f66697473206d75737420626560008201527f2067726561746572207468616e203020696e206f7264657220746f207769746860208201527f6472617721000000000000000000000000000000000000000000000000000000604082015250565b6000612b5e604583612a39565b9150612b6982612adc565b606082019050919050565b60006020820190508181036000830152612b8d81612b51565b9050919050565b600081905092915050565b50565b6000612baf600083612b94565b9150612bba82612b9f565b600082019050919050565b6000612bd082612ba2565b9150819050919050565b7f776974686472617750726f666974732e204661696c656420746f2073656e642060008201527f6574686572000000000000000000000000000000000000000000000000000000602082015250565b6000612c36602583612a39565b9150612c4182612bda565b604082019050919050565b60006020820190508181036000830152612c6581612c29565b9050919050565b612c758161291b565b82525050565b6000604082019050612c906000830185612c6c565b612c9d6020830184612c6c565b9392505050565b600081519050612cb3816128a2565b92915050565b600060208284031215612ccf57612cce612893565b5b6000612cdd84828501612ca4565b91505092915050565b7f6578706c6f7265436f6d6d69742e20436865636b204e595820616c6c6f77616e60008201527f6365000000000000000000000000000000000000000000000000000000000000602082015250565b6000612d42602283612a39565b9150612d4d82612ce6565b604082019050919050565b60006020820190508181036000830152612d7181612d35565b9050919050565b600081519050612d878161292d565b92915050565b600060208284031215612da357612da2612893565b5b6000612db184828501612d78565b91505092915050565b7f6578706c6f7265436f6d6d69742e20596f7520617265206e6f7420746865206f60008201527f776e6572206f66207468697320746f6b656e0000000000000000000000000000602082015250565b6000612e16603283612a39565b9150612e2182612dba565b604082019050919050565b60006020820190508181036000830152612e4581612e09565b9050919050565b7f6578706c6f7265436f6d6d69742e2054686973206865726f20697320616c726560008201527f616479206578706c6f72696e6721000000000000000000000000000000000000602082015250565b6000612ea8602e83612a39565b9150612eb382612e4c565b604082019050919050565b60006020820190508181036000830152612ed781612e9b565b9050919050565b6000606082019050612ef36000830186612c6c565b612f006020830185612c6c565b612f0d6040830184612999565b949350505050565b612f1e816129c3565b8114612f2957600080fd5b50565b600081519050612f3b81612f15565b92915050565b600060208284031215612f5757612f56612893565b5b6000612f6584828501612f2c565b91505092915050565b6000602082019050612f836000830184612c6c565b92915050565b7f496e697469616c697a61626c653a20636f6e747261637420697320616c72656160008201527f647920696e697469616c697a6564000000000000000000000000000000000000602082015250565b6000612fe5602e83612a39565b9150612ff082612f89565b604082019050919050565b6000602082019050818103600083015261301481612fd8565b9050919050565b6000819050919050565b600060ff82169050919050565b6000819050919050565b600061305761305261304d8461301b565b613032565b613025565b9050919050565b6130678161303c565b82525050565b6000602082019050613082600083018461305e565b92915050565b7f61747461636b52657665616c2e20596f7520617265206e6f7420746865206f7760008201527f6e6572206f66207468697320746f6b656e000000000000000000000000000000602082015250565b60006130e4603183612a39565b91506130ef82613088565b604082019050919050565b60006020820190508181036000830152613113816130d7565b9050919050565b7f61747461636b52657665616c2e2054686973206865726f206973206e6f74206160008201527f747461636b696e67210000000000000000000000000000000000000000000000602082015250565b6000613176602983612a39565b91506131818261311a565b604082019050919050565b600060208201905081810360008301526131a581613169565b9050919050565b7f4e487b7100000000000000000000000000000000000000000000000000000000600052601160045260246000fd5b60006131e682612898565b91506131f183612898565b9250828201905080821115613209576132086131ac565b5b92915050565b7f61747461636b52657665616c2e20596f75206e65656420746f2077616974206160008201527f2062697420746f2072657665616c20796f75722061747461636b20726573756c60208201527f7473210000000000000000000000000000000000000000000000000000000000604082015250565b6000613291604383612a39565b915061329c8261320f565b606082019050919050565b600060208201905081810360008301526132c081613284565b9050919050565b600080fd5b6000601f19601f8301169050919050565b7f4e487b7100000000000000000000000000000000000000000000000000000000600052604160045260246000fd5b613315826132cc565b810181811067ffffffffffffffff82111715613334576133336132dd565b5b80604052505050565b6000613347612889565b9050613353828261330c565b919050565b61336181613025565b811461336c57600080fd5b50565b60008151905061337e81613358565b92915050565b6000610120828403121561339b5761339a6132c7565b5b6133a661012061333d565b905060006133b68482850161336f565b60008301525060206133ca8482850161336f565b60208301525060406133de8482850161336f565b60408301525060606133f28482850161336f565b60608301525060806134068482850161336f565b60808301525060a061341a8482850161336f565b60a08301525060c061342e8482850161336f565b60c08301525060e06134428482850161336f565b60e0830152506101006134578482850161336f565b6101008301525092915050565b6000610120828403121561347b5761347a612893565b5b600061348984828501613384565b91505092915050565b60008160601b9050919050565b60006134aa82613492565b9050919050565b60006134bc8261349f565b9050919050565b6134d46134cf8261291b565b6134b1565b82525050565b600081519050919050565b600081905092915050565b60005b8381101561350e5780820151818401526020810190506134f3565b60008484015250505050565b6000613525826134da565b61352f81856134e5565b935061353f8185602086016134f0565b80840191505092915050565b6000819050919050565b6000819050919050565b61357061356b8261354b565b613555565b82525050565b600061358282876134c3565b601482019150613592828661351a565b915061359e828561351a565b91506135aa828461355f565b60208201915081905095945050505050565b7f4e487b7100000000000000000000000000000000000000000000000000000000600052601260045260246000fd5b60006135f682612898565b915061360183612898565b925082613611576136106135bc565b5b828206905092915050565b600061362782613025565b915061363283613025565b925082613642576136416135bc565b5b828206905092915050565b60006020828403121561366357613662612893565b5b60006136718482850161336f565b91505092915050565b6000613685826134da565b61368f8185612a39565b935061369f8185602086016134f0565b6136a8816132cc565b840191505092915050565b600060a0820190506136c86000830188612c6c565b6136d56020830187612999565b6136e26040830186612999565b6136ef6060830185612999565b8181036080830152613701818461367a565b90509695505050505050565b7f6d696e744865726f436f6d6d69742e20436865636b204e595820616c6c6f776160008201527f6e63650000000000000000000000000000000000000000000000000000000000602082015250565b6000613769602383612a39565b91506137748261370d565b604082019050919050565b600060208201905081810360008301526137988161375c565b9050919050565b7f6d696e744865726f436f6d6d69742e20596f75206861766520616c726561647960008201527f2061206368617261637465722072657175657374656421000000000000000000602082015250565b60006137fb603783612a39565b91506138068261379f565b604082019050919050565b6000602082019050818103600083015261382a816137ee565b9050919050565b7f6578706c6f726552657665616c2e20596f7520617265206e6f7420746865206f60008201527f776e6572206f66207468697320746f6b656e0000000000000000000000000000602082015250565b600061388d603283612a39565b915061389882613831565b604082019050919050565b600060208201905081810360008301526138bc81613880565b9050919050565b7f6578706c6f726552657665616c2e2054686973206865726f206973206e6f742060008201527f6578706c6f72696e672100000000000000000000000000000000000000000000602082015250565b600061391f602a83612a39565b915061392a826138c3565b604082019050919050565b6000602082019050818103600083015261394e81613912565b9050919050565b7f6578706c6f726552657665616c2e20596f75206e65656420746f20776169742060008201527f6120626974206265666f72652072657475726e696e672066726f6d206578706c60208201527f6f72696e67000000000000000000000000000000000000000000000000000000604082015250565b60006139d7604583612a39565b91506139e282613955565b606082019050919050565b60006020820190508181036000830152613a06816139ca565b9050919050565b6000613a1982856134c3565b601482019150613a29828461355f565b6020820191508190509392505050565b6000613a4482612898565b9150613a4f83612898565b9250828202613a5d81612898565b91508282048414831517613a7457613a736131ac565b5b5092915050565b6000604082019050613a906000830185612c6c565b613a9d6020830184612999565b9392505050565b7f6578706c6f726552657665616c2e204e6f7420656e6f756768204e5958210000600082015250565b6000613ada601e83612a39565b9150613ae582613aa4565b602082019050919050565b60006020820190508181036000830152613b0981613acd565b9050919050565b7f61747461636b436f6d6d69742e20436865636b204e595820616c6c6f77616e6360008201527f6500000000000000000000000000000000000000000000000000000000000000602082015250565b6000613b6c602183612a39565b9150613b7782613b10565b604082019050919050565b60006020820190508181036000830152613b9b81613b5f565b9050919050565b7f61747461636b436f6d6d69742e20596f7520617265206e6f7420746865206f7760008201527f6e6572206f66207468652061747461636b657220746f6b656e00000000000000602082015250565b6000613bfe603983612a39565b9150613c0982613ba2565b604082019050919050565b60006020820190508181036000830152613c2d81613bf1565b9050919050565b7f61747461636b436f6d6d69742e20596f752061726520746865206f776e65722060008201527f6f66207468652074617267657421000000000000000000000000000000000000602082015250565b6000613c90602e83612a39565b9150613c9b82613c34565b604082019050919050565b60006020820190508181036000830152613cbf81613c83565b9050919050565b7f61747461636b436f6d6d69742e2054686973206865726f20697320616c72656160008201527f64792061747461636b696e672100000000000000000000000000000000000000602082015250565b6000613d22602d83612a39565b9150613d2d82613cc6565b604082019050919050565b60006020820190508181036000830152613d5181613d15565b9050919050565b6000606082019050613d6d6000830186612c6c565b613d7a6020830185612999565b613d876040830184612999565b949350505050565b7f7061794e7978547269627574652e204974206973206e6f74207468652074696d60008201527f65207965742e0000000000000000000000000000000000000000000000000000602082015250565b6000613deb602683612a39565b9150613df682613d8f565b604082019050919050565b60006020820190508181036000830152613e1a81613dde565b9050919050565b6000613e2c82612898565b91507fffffffffffffffffffffffffffffffffffffffffffffffffffffffffffffffff8203613e5e57613e5d6131ac565b5b600182019050919050565b6000604082019050613e7e6000830185612999565b613e8b6020830184612999565b9392505050565b7f6d696e744865726f52657665616c2e20596f75206e65656420746f207265717560008201527f6573742061206368617261637465722066697273742100000000000000000000602082015250565b6000613eee603683612a39565b9150613ef982613e92565b604082019050919050565b60006020820190508181036000830152613f1d81613ee1565b9050919050565b7f6d696e744865726f52657665616c2e20596f75206e65656420746f207761697460008201527f206120626974206265666f72652072657665616c696e6720796f75722063686160208201527f7261637465720000000000000000000000000000000000000000000000000000604082015250565b6000613fa6604683612a39565b9150613fb182613f24565b606082019050919050565b60006020820190508181036000830152613fd581613f99565b9050919050565b6000613fe782613025565b9150613ff283613025565b9250828203905060ff81111561400b5761400a6131ac565b5b92915050565b600067ffffffffffffffff82169050919050565b600061403082614011565b915061403b83614011565b925082820261404981614011565b915080821461405b5761405a6131ac565b5b5092915050565b7f61747461636b52657665616c2e204e6f7420656e6f756768204e595821000000600082015250565b6000614098601d83612a39565b91506140a382614062565b602082019050919050565b600060208201905081810360008301526140c78161408b565b9050919050565b7f41747461636b65723a204865726f204f66204e797865756d2023000000000000600082015250565b6000614104601a836134e5565b915061410f826140ce565b601a82019050919050565b7f202f2f2041747461636b657220526f6c6c3a2000000000000000000000000000600082015250565b60006141506013836134e5565b915061415b8261411a565b601382019050919050565b7f206f662000000000000000000000000000000000000000000000000000000000600082015250565b600061419c6004836134e5565b91506141a782614166565b600482019050919050565b7f202f2f2000000000000000000000000000000000000000000000000000000000600082015250565b60006141e86004836134e5565b91506141f3826141b2565b600482019050919050565b6000614209826140f7565b9150614215828661351a565b915061422082614143565b915061422c828561351a565b91506142378261418f565b9150614243828461351a565b915061424e826141db565b9150819050949350505050565b7f5461726765743a204865726f204f66204e797865756d20230000000000000000600082015250565b60006142916018836134e5565b915061429c8261425b565b601882019050919050565b7f202f2f2054617267657420526f6c6c3a20000000000000000000000000000000600082015250565b60006142dd6011836134e5565b91506142e8826142a7565b601182019050919050565b60006142fe82614284565b915061430a828661351a565b9150614315826142d0565b9150614321828561351a565b915061432c8261418f565b9150614338828461351a565b9150614343826141db565b9150819050949350505050565b60008160011c9050919050565b6000808291508390505b60018511156143a757808604811115614383576143826131ac565b5b60018516156143925780820291505b80810290506143a085614350565b9450614367565b94509492505050565b6000826143c0576001905061447c565b816143ce576000905061447c565b81600181146143e457600281146143ee5761441d565b600191505061447c565b60ff841115614400576143ff6131ac565b5b8360020a915084821115614417576144166131ac565b5b5061447c565b5060208310610133831016604e8410600b84101617156144525782820a90508381111561444d5761444c6131ac565b5b61447c565b61445f848484600161435d565b92509050818404811115614476576144756131ac565b5b81810290505b9392505050565b600061448e82612898565b915061449983613025565b92506144c67fffffffffffffffffffffffffffffffffffffffffffffffffffffffffffffffff84846143b0565b905092915050565b7f53746f6c656e204e59583a200000000000000000000000000000000000000000600082015250565b6000614504600c836134e5565b915061450f826144ce565b600c82019050919050565b6000614525826144f7565b9150614531828461351a565b915081905092915050565b6000614548828761351a565b9150614554828661351a565b9150614560828561351a565b915061456c828461351a565b915081905095945050505050565b600061458582612898565b915061459083612898565b92506145bd7fffffffffffffffffffffffffffffffffffffffffffffffffffffffffffffffff84846143b0565b905092915050565b60006145d082612898565b91506145db83612898565b9250826145eb576145ea6135bc565b5b828204905092915050565b7f2e00000000000000000000000000000000000000000000000000000000000000600082015250565b600061462c6001836134e5565b9150614637826145f6565b600182019050919050565b600061464e828561351a565b91506146598261461f565b9150614665828461351a565b9150819050939250505056fea26469706673582212206247ef07d847c3db1222bd7443f5a946f08b9a688fa7f0405d70ecf3abb5d4b864736f6c63430008120033",
  "linkReferences": {},
  "deployedLinkReferences": {}
}