{
  "_format": "hh-sol-artifact-1",
  "contractName": "NyxEssence",
  "sourceName": "contracts/NyxEssence.sol",
  "abi": [
    {
      "inputs": [],
      "stateMutability": "nonpayable",
      "type": "constructor"
    },
    {
      "anonymous": false,
      "inputs": [
        {
          "indexed": true,
          "internalType": "address",
          "name": "owner",
          "type": "address"
        },
        {
          "indexed": true,
          "internalType": "address",
          "name": "spender",
          "type": "address"
        },
        {
          "indexed": false,
          "internalType": "uint256",
          "name": "value",
          "type": "uint256"
        }
      ],
      "name": "Approval",
      "type": "event"
    },
    {
      "anonymous": false,
      "inputs": [
        {
          "indexed": true,
          "internalType": "address",
          "name": "previousOwner",
          "type": "address"
        },
        {
          "indexed": true,
          "internalType": "address",
          "name": "newOwner",
          "type": "address"
        }
      ],
      "name": "OwnershipTransferred",
      "type": "event"
    },
    {
      "anonymous": false,
      "inputs": [
        {
          "indexed": true,
          "internalType": "address",
          "name": "from",
          "type": "address"
        },
        {
          "indexed": true,
          "internalType": "address",
          "name": "to",
          "type": "address"
        },
        {
          "indexed": false,
          "internalType": "uint256",
          "name": "value",
          "type": "uint256"
        }
      ],
      "name": "Transfer",
      "type": "event"
    },
    {
      "inputs": [
        {
          "internalType": "address",
          "name": "owner",
          "type": "address"
        },
        {
          "internalType": "address",
          "name": "spender",
          "type": "address"
        }
      ],
      "name": "allowance",
      "outputs": [
        {
          "internalType": "uint256",
          "name": "",
          "type": "uint256"
        }
      ],
      "stateMutability": "view",
      "type": "function"
    },
    {
      "inputs": [
        {
          "internalType": "address",
          "name": "spender",
          "type": "address"
        },
        {
          "internalType": "uint256",
          "name": "amount",
          "type": "uint256"
        }
      ],
      "name": "approve",
      "outputs": [
        {
          "internalType": "bool",
          "name": "",
          "type": "bool"
        }
      ],
      "stateMutability": "nonpayable",
      "type": "function"
    },
    {
      "inputs": [
        {
          "internalType": "address",
          "name": "account",
          "type": "address"
        }
      ],
      "name": "balanceOf",
      "outputs": [
        {
          "internalType": "uint256",
          "name": "",
          "type": "uint256"
        }
      ],
      "stateMutability": "view",
      "type": "function"
    },
    {
      "inputs": [],
      "name": "buy",
      "outputs": [],
      "stateMutability": "payable",
      "type": "function"
    },
    {
      "inputs": [],
      "name": "decimals",
      "outputs": [
        {
          "internalType": "uint8",
          "name": "",
          "type": "uint8"
        }
      ],
      "stateMutability": "view",
      "type": "function"
    },
    {
      "inputs": [
        {
          "internalType": "address",
          "name": "spender",
          "type": "address"
        },
        {
          "internalType": "uint256",
          "name": "subtractedValue",
          "type": "uint256"
        }
      ],
      "name": "decreaseAllowance",
      "outputs": [
        {
          "internalType": "bool",
          "name": "",
          "type": "bool"
        }
      ],
      "stateMutability": "nonpayable",
      "type": "function"
    },
    {
      "inputs": [
        {
          "internalType": "address",
          "name": "spender",
          "type": "address"
        },
        {
          "internalType": "uint256",
          "name": "addedValue",
          "type": "uint256"
        }
      ],
      "name": "increaseAllowance",
      "outputs": [
        {
          "internalType": "bool",
          "name": "",
          "type": "bool"
        }
      ],
      "stateMutability": "nonpayable",
      "type": "function"
    },
    {
      "inputs": [
        {
          "internalType": "address",
          "name": "to",
          "type": "address"
        },
        {
          "internalType": "uint256",
          "name": "amount",
          "type": "uint256"
        }
      ],
      "name": "mint",
      "outputs": [],
      "stateMutability": "nonpayable",
      "type": "function"
    },
    {
      "inputs": [],
      "name": "name",
      "outputs": [
        {
          "internalType": "string",
          "name": "",
          "type": "string"
        }
      ],
      "stateMutability": "view",
      "type": "function"
    },
    {
      "inputs": [],
      "name": "owner",
      "outputs": [
        {
          "internalType": "address",
          "name": "",
          "type": "address"
        }
      ],
      "stateMutability": "view",
      "type": "function"
    },
    {
      "inputs": [],
      "name": "renounceOwnership",
      "outputs": [],
      "stateMutability": "nonpayable",
      "type": "function"
    },
    {
      "inputs": [
        {
          "internalType": "uint256",
          "name": "buyPrice",
          "type": "uint256"
        }
      ],
      "name": "setBuyPrice",
      "outputs": [],
      "stateMutability": "nonpayable",
      "type": "function"
    },
    {
      "inputs": [],
      "name": "symbol",
      "outputs": [
        {
          "internalType": "string",
          "name": "",
          "type": "string"
        }
      ],
      "stateMutability": "view",
      "type": "function"
    },
    {
      "inputs": [],
      "name": "totalSupply",
      "outputs": [
        {
          "internalType": "uint256",
          "name": "",
          "type": "uint256"
        }
      ],
      "stateMutability": "view",
      "type": "function"
    },
    {
      "inputs": [
        {
          "internalType": "address",
          "name": "to",
          "type": "address"
        },
        {
          "internalType": "uint256",
          "name": "amount",
          "type": "uint256"
        }
      ],
      "name": "transfer",
      "outputs": [
        {
          "internalType": "bool",
          "name": "",
          "type": "bool"
        }
      ],
      "stateMutability": "nonpayable",
      "type": "function"
    },
    {
      "inputs": [
        {
          "internalType": "address",
          "name": "from",
          "type": "address"
        },
        {
          "internalType": "address",
          "name": "to",
          "type": "address"
        },
        {
          "internalType": "uint256",
          "name": "amount",
          "type": "uint256"
        }
      ],
      "name": "transferFrom",
      "outputs": [
        {
          "internalType": "bool",
          "name": "",
          "type": "bool"
        }
      ],
      "stateMutability": "nonpayable",
      "type": "function"
    },
    {
      "inputs": [
        {
          "internalType": "address",
          "name": "newOwner",
          "type": "address"
        }
      ],
      "name": "transferOwnership",
      "outputs": [],
      "stateMutability": "nonpayable",
      "type": "function"
    }
  ],
  "bytecode": "0x60806040523480156200001157600080fd5b506040518060400160405280600b81526020017f4e797820457373656e63650000000000000000000000000000000000000000008152506040518060400160405280600381526020017f4e5958000000000000000000000000000000000000000000000000000000000081525081600390816200008f9190620006c1565b508060049081620000a19190620006c1565b505050620000c4620000b86200011860201b60201c565b6200012060201b60201c565b6000620000d6620001e660201b60201c565b600a620000e4919062000938565b620f4240620000f4919062000989565b9050620001083082620001ef60201b60201c565b6103e86006819055505062000b32565b600033905090565b6000600560009054906101000a900473ffffffffffffffffffffffffffffffffffffffff16905081600560006101000a81548173ffffffffffffffffffffffffffffffffffffffff021916908373ffffffffffffffffffffffffffffffffffffffff1602179055508173ffffffffffffffffffffffffffffffffffffffff168173ffffffffffffffffffffffffffffffffffffffff167f8be0079c531659141344cd1fd0a4f28419497f9722a3daafe3b4186f6b6457e060405160405180910390a35050565b60006012905090565b620001ff6200021560201b60201c565b620002118282620002a660201b60201c565b5050565b620002256200011860201b60201c565b73ffffffffffffffffffffffffffffffffffffffff166200024b6200041360201b60201c565b73ffffffffffffffffffffffffffffffffffffffff1614620002a4576040517f08c379a00000000000000000000000000000000000000000000000000000000081526004016200029b9062000a35565b60405180910390fd5b565b600073ffffffffffffffffffffffffffffffffffffffff168273ffffffffffffffffffffffffffffffffffffffff160362000318576040517f08c379a00000000000000000000000000000000000000000000000000000000081526004016200030f9062000aa7565b60405180910390fd5b6200032c600083836200043d60201b60201c565b806002600082825462000340919062000ac9565b92505081905550806000808473ffffffffffffffffffffffffffffffffffffffff1673ffffffffffffffffffffffffffffffffffffffff168152602001908152602001600020600082825401925050819055508173ffffffffffffffffffffffffffffffffffffffff16600073ffffffffffffffffffffffffffffffffffffffff167fddf252ad1be2c89b69c2b068fc378daa952ba7f163c4a11628f55a4df523b3ef83604051620003f3919062000b15565b60405180910390a36200040f600083836200044260201b60201c565b5050565b6000600560009054906101000a900473ffffffffffffffffffffffffffffffffffffffff16905090565b505050565b505050565b600081519050919050565b7f4e487b7100000000000000000000000000000000000000000000000000000000600052604160045260246000fd5b7f4e487b7100000000000000000000000000000000000000000000000000000000600052602260045260246000fd5b60006002820490506001821680620004c957607f821691505b602082108103620004df57620004de62000481565b5b50919050565b60008190508160005260206000209050919050565b60006020601f8301049050919050565b600082821b905092915050565b600060088302620005497fffffffffffffffffffffffffffffffffffffffffffffffffffffffffffffffff826200050a565b6200055586836200050a565b95508019841693508086168417925050509392505050565b6000819050919050565b6000819050919050565b6000620005a26200059c62000596846200056d565b62000577565b6200056d565b9050919050565b6000819050919050565b620005be8362000581565b620005d6620005cd82620005a9565b84845462000517565b825550505050565b600090565b620005ed620005de565b620005fa818484620005b3565b505050565b5b81811015620006225762000616600082620005e3565b60018101905062000600565b5050565b601f82111562000671576200063b81620004e5565b6200064684620004fa565b8101602085101562000656578190505b6200066e6200066585620004fa565b830182620005ff565b50505b505050565b600082821c905092915050565b6000620006966000198460080262000676565b1980831691505092915050565b6000620006b1838362000683565b9150826002028217905092915050565b620006cc8262000447565b67ffffffffffffffff811115620006e857620006e762000452565b5b620006f48254620004b0565b6200070182828562000626565b600060209050601f83116001811462000739576000841562000724578287015190505b620007308582620006a3565b865550620007a0565b601f1984166200074986620004e5565b60005b8281101562000773578489015182556001820191506020850194506020810190506200074c565b868310156200079357848901516200078f601f89168262000683565b8355505b6001600288020188555050505b505050505050565b7f4e487b7100000000000000000000000000000000000000000000000000000000600052601160045260246000fd5b60008160011c9050919050565b6000808291508390505b600185111562000836578086048111156200080e576200080d620007a8565b5b60018516156200081e5780820291505b80810290506200082e85620007d7565b9450620007ee565b94509492505050565b60008262000851576001905062000924565b8162000861576000905062000924565b81600181146200087a57600281146200088557620008bb565b600191505062000924565b60ff8411156200089a5762000899620007a8565b5b8360020a915084821115620008b457620008b3620007a8565b5b5062000924565b5060208310610133831016604e8410600b8410161715620008f55782820a905083811115620008ef57620008ee620007a8565b5b62000924565b620009048484846001620007e4565b925090508184048111156200091e576200091d620007a8565b5b81810290505b9392505050565b600060ff82169050919050565b600062000945826200056d565b915062000952836200092b565b9250620009817fffffffffffffffffffffffffffffffffffffffffffffffffffffffffffffffff84846200083f565b905092915050565b600062000996826200056d565b9150620009a3836200056d565b9250828202620009b3816200056d565b91508282048414831517620009cd57620009cc620007a8565b5b5092915050565b600082825260208201905092915050565b7f4f776e61626c653a2063616c6c6572206973206e6f7420746865206f776e6572600082015250565b600062000a1d602083620009d4565b915062000a2a82620009e5565b602082019050919050565b6000602082019050818103600083015262000a508162000a0e565b9050919050565b7f45524332303a206d696e7420746f20746865207a65726f206164647265737300600082015250565b600062000a8f601f83620009d4565b915062000a9c8262000a57565b602082019050919050565b6000602082019050818103600083015262000ac28162000a80565b9050919050565b600062000ad6826200056d565b915062000ae3836200056d565b925082820190508082111562000afe5762000afd620007a8565b5b92915050565b62000b0f816200056d565b82525050565b600060208201905062000b2c600083018462000b04565b92915050565b611aed8062000b426000396000f3fe6080604052600436106100fe5760003560e01c806370a0823111610095578063a457c2d711610064578063a457c2d714610337578063a6f2ae3a14610374578063a9059cbb1461037e578063dd62ed3e146103bb578063f2fde38b146103f8576100fe565b806370a082311461028d578063715018a6146102ca5780638da5cb5b146102e157806395d89b411461030c576100fe565b8063313ce567116100d1578063313ce567146101d357806339509351146101fe57806340c10f191461023b57806363ae8d6c14610264576100fe565b806306fdde0314610103578063095ea7b31461012e57806318160ddd1461016b57806323b872dd14610196575b600080fd5b34801561010f57600080fd5b50610118610421565b60405161012591906110ef565b60405180910390f35b34801561013a57600080fd5b50610155600480360381019061015091906111aa565b6104b3565b6040516101629190611205565b60405180910390f35b34801561017757600080fd5b506101806104d6565b60405161018d919061122f565b60405180910390f35b3480156101a257600080fd5b506101bd60048036038101906101b8919061124a565b6104e0565b6040516101ca9190611205565b60405180910390f35b3480156101df57600080fd5b506101e861050f565b6040516101f591906112b9565b60405180910390f35b34801561020a57600080fd5b50610225600480360381019061022091906111aa565b610518565b6040516102329190611205565b60405180910390f35b34801561024757600080fd5b50610262600480360381019061025d91906111aa565b61054f565b005b34801561027057600080fd5b5061028b600480360381019061028691906112d4565b610565565b005b34801561029957600080fd5b506102b460048036038101906102af9190611301565b610577565b6040516102c1919061122f565b60405180910390f35b3480156102d657600080fd5b506102df6105bf565b005b3480156102ed57600080fd5b506102f66105d3565b604051610303919061133d565b60405180910390f35b34801561031857600080fd5b506103216105fd565b60405161032e91906110ef565b60405180910390f35b34801561034357600080fd5b5061035e600480360381019061035991906111aa565b61068f565b60405161036b9190611205565b60405180910390f35b61037c610706565b005b34801561038a57600080fd5b506103a560048036038101906103a091906111aa565b6107bb565b6040516103b29190611205565b60405180910390f35b3480156103c757600080fd5b506103e260048036038101906103dd9190611358565b6107de565b6040516103ef919061122f565b60405180910390f35b34801561040457600080fd5b5061041f600480360381019061041a9190611301565b610865565b005b606060038054610430906113c7565b80601f016020809104026020016040519081016040528092919081815260200182805461045c906113c7565b80156104a95780601f1061047e576101008083540402835291602001916104a9565b820191906000526020600020905b81548152906001019060200180831161048c57829003601f168201915b5050505050905090565b6000806104be6108e8565b90506104cb8185856108f0565b600191505092915050565b6000600254905090565b6000806104eb6108e8565b90506104f8858285610ab9565b610503858585610b45565b60019150509392505050565b60006012905090565b6000806105236108e8565b905061054481858561053585896107de565b61053f9190611427565b6108f0565b600191505092915050565b610557610dbb565b6105618282610e39565b5050565b61056d610dbb565b8060068190555050565b60008060008373ffffffffffffffffffffffffffffffffffffffff1673ffffffffffffffffffffffffffffffffffffffff168152602001908152602001600020549050919050565b6105c7610dbb565b6105d16000610f8f565b565b6000600560009054906101000a900473ffffffffffffffffffffffffffffffffffffffff16905090565b60606004805461060c906113c7565b80601f0160208091040260200160405190810160405280929190818152602001828054610638906113c7565b80156106855780601f1061065a57610100808354040283529160200191610685565b820191906000526020600020905b81548152906001019060200180831161066857829003601f168201915b5050505050905090565b60008061069a6108e8565b905060006106a882866107de565b9050838110156106ed576040517f08c379a00000000000000000000000000000000000000000000000000000000081526004016106e4906114cd565b60405180910390fd5b6106fa82868684036108f0565b60019250505092915050565b60003411610749576040517f08c379a000000000000000000000000000000000000000000000000000000000815260040161074090611539565b60405180910390fd5b61075230610577565b600654346107609190611559565b11156107a1576040517f08c379a0000000000000000000000000000000000000000000000000000000008152600401610798906115e7565b60405180910390fd5b6107b93033600654346107b49190611559565b610b45565b565b6000806107c66108e8565b90506107d3818585610b45565b600191505092915050565b6000600160008473ffffffffffffffffffffffffffffffffffffffff1673ffffffffffffffffffffffffffffffffffffffff16815260200190815260200160002060008373ffffffffffffffffffffffffffffffffffffffff1673ffffffffffffffffffffffffffffffffffffffff16815260200190815260200160002054905092915050565b61086d610dbb565b600073ffffffffffffffffffffffffffffffffffffffff168173ffffffffffffffffffffffffffffffffffffffff16036108dc576040517f08c379a00000000000000000000000000000000000000000000000000000000081526004016108d390611679565b60405180910390fd5b6108e581610f8f565b50565b600033905090565b600073ffffffffffffffffffffffffffffffffffffffff168373ffffffffffffffffffffffffffffffffffffffff160361095f576040517f08c379a00000000000000000000000000000000000000000000000000000000081526004016109569061170b565b60405180910390fd5b600073ffffffffffffffffffffffffffffffffffffffff168273ffffffffffffffffffffffffffffffffffffffff16036109ce576040517f08c379a00000000000000000000000000000000000000000000000000000000081526004016109c59061179d565b60405180910390fd5b80600160008573ffffffffffffffffffffffffffffffffffffffff1673ffffffffffffffffffffffffffffffffffffffff16815260200190815260200160002060008473ffffffffffffffffffffffffffffffffffffffff1673ffffffffffffffffffffffffffffffffffffffff168152602001908152602001600020819055508173ffffffffffffffffffffffffffffffffffffffff168373ffffffffffffffffffffffffffffffffffffffff167f8c5be1e5ebec7d5bd14f71427d1e84f3dd0314c0f7b2291e5b200ac8c7c3b92583604051610aac919061122f565b60405180910390a3505050565b6000610ac584846107de565b90507fffffffffffffffffffffffffffffffffffffffffffffffffffffffffffffffff8114610b3f5781811015610b31576040517f08c379a0000000000000000000000000000000000000000000000000000000008152600401610b2890611809565b60405180910390fd5b610b3e84848484036108f0565b5b50505050565b600073ffffffffffffffffffffffffffffffffffffffff168373ffffffffffffffffffffffffffffffffffffffff1603610bb4576040517f08c379a0000000000000000000000000000000000000000000000000000000008152600401610bab9061189b565b60405180910390fd5b600073ffffffffffffffffffffffffffffffffffffffff168273ffffffffffffffffffffffffffffffffffffffff1603610c23576040517f08c379a0000000000000000000000000000000000000000000000000000000008152600401610c1a9061192d565b60405180910390fd5b610c2e838383611055565b60008060008573ffffffffffffffffffffffffffffffffffffffff1673ffffffffffffffffffffffffffffffffffffffff16815260200190815260200160002054905081811015610cb4576040517f08c379a0000000000000000000000000000000000000000000000000000000008152600401610cab906119bf565b60405180910390fd5b8181036000808673ffffffffffffffffffffffffffffffffffffffff1673ffffffffffffffffffffffffffffffffffffffff16815260200190815260200160002081905550816000808573ffffffffffffffffffffffffffffffffffffffff1673ffffffffffffffffffffffffffffffffffffffff168152602001908152602001600020600082825401925050819055508273ffffffffffffffffffffffffffffffffffffffff168473ffffffffffffffffffffffffffffffffffffffff167fddf252ad1be2c89b69c2b068fc378daa952ba7f163c4a11628f55a4df523b3ef84604051610da2919061122f565b60405180910390a3610db584848461105a565b50505050565b610dc36108e8565b73ffffffffffffffffffffffffffffffffffffffff16610de16105d3565b73ffffffffffffffffffffffffffffffffffffffff1614610e37576040517f08c379a0000000000000000000000000000000000000000000000000000000008152600401610e2e90611a2b565b60405180910390fd5b565b600073ffffffffffffffffffffffffffffffffffffffff168273ffffffffffffffffffffffffffffffffffffffff1603610ea8576040517f08c379a0000000000000000000000000000000000000000000000000000000008152600401610e9f90611a97565b60405180910390fd5b610eb460008383611055565b8060026000828254610ec69190611427565b92505081905550806000808473ffffffffffffffffffffffffffffffffffffffff1673ffffffffffffffffffffffffffffffffffffffff168152602001908152602001600020600082825401925050819055508173ffffffffffffffffffffffffffffffffffffffff16600073ffffffffffffffffffffffffffffffffffffffff167fddf252ad1be2c89b69c2b068fc378daa952ba7f163c4a11628f55a4df523b3ef83604051610f77919061122f565b60405180910390a3610f8b6000838361105a565b5050565b6000600560009054906101000a900473ffffffffffffffffffffffffffffffffffffffff16905081600560006101000a81548173ffffffffffffffffffffffffffffffffffffffff021916908373ffffffffffffffffffffffffffffffffffffffff1602179055508173ffffffffffffffffffffffffffffffffffffffff168173ffffffffffffffffffffffffffffffffffffffff167f8be0079c531659141344cd1fd0a4f28419497f9722a3daafe3b4186f6b6457e060405160405180910390a35050565b505050565b505050565b600081519050919050565b600082825260208201905092915050565b60005b8381101561109957808201518184015260208101905061107e565b60008484015250505050565b6000601f19601f8301169050919050565b60006110c18261105f565b6110cb818561106a565b93506110db81856020860161107b565b6110e4816110a5565b840191505092915050565b6000602082019050818103600083015261110981846110b6565b905092915050565b600080fd5b600073ffffffffffffffffffffffffffffffffffffffff82169050919050565b600061114182611116565b9050919050565b61115181611136565b811461115c57600080fd5b50565b60008135905061116e81611148565b92915050565b6000819050919050565b61118781611174565b811461119257600080fd5b50565b6000813590506111a48161117e565b92915050565b600080604083850312156111c1576111c0611111565b5b60006111cf8582860161115f565b92505060206111e085828601611195565b9150509250929050565b60008115159050919050565b6111ff816111ea565b82525050565b600060208201905061121a60008301846111f6565b92915050565b61122981611174565b82525050565b60006020820190506112446000830184611220565b92915050565b60008060006060848603121561126357611262611111565b5b60006112718682870161115f565b93505060206112828682870161115f565b925050604061129386828701611195565b9150509250925092565b600060ff82169050919050565b6112b38161129d565b82525050565b60006020820190506112ce60008301846112aa565b92915050565b6000602082840312156112ea576112e9611111565b5b60006112f884828501611195565b91505092915050565b60006020828403121561131757611316611111565b5b60006113258482850161115f565b91505092915050565b61133781611136565b82525050565b6000602082019050611352600083018461132e565b92915050565b6000806040838503121561136f5761136e611111565b5b600061137d8582860161115f565b925050602061138e8582860161115f565b9150509250929050565b7f4e487b7100000000000000000000000000000000000000000000000000000000600052602260045260246000fd5b600060028204905060018216806113df57607f821691505b6020821081036113f2576113f1611398565b5b50919050565b7f4e487b7100000000000000000000000000000000000000000000000000000000600052601160045260246000fd5b600061143282611174565b915061143d83611174565b9250828201905080821115611455576114546113f8565b5b92915050565b7f45524332303a2064656372656173656420616c6c6f77616e63652062656c6f7760008201527f207a65726f000000000000000000000000000000000000000000000000000000602082015250565b60006114b760258361106a565b91506114c28261145b565b604082019050919050565b600060208201905081810360008301526114e6816114aa565b9050919050565b7f596f75206e65656420746f2070617920736f6d65204554480000000000000000600082015250565b600061152360188361106a565b915061152e826114ed565b602082019050919050565b6000602082019050818103600083015261155281611516565b9050919050565b600061156482611174565b915061156f83611174565b925082820261157d81611174565b91508282048414831517611594576115936113f8565b5b5092915050565b7f4e6f7420656e6f756768204e595820696e207468652072657365727665000000600082015250565b60006115d1601d8361106a565b91506115dc8261159b565b602082019050919050565b60006020820190508181036000830152611600816115c4565b9050919050565b7f4f776e61626c653a206e6577206f776e657220697320746865207a65726f206160008201527f6464726573730000000000000000000000000000000000000000000000000000602082015250565b600061166360268361106a565b915061166e82611607565b604082019050919050565b6000602082019050818103600083015261169281611656565b9050919050565b7f45524332303a20617070726f76652066726f6d20746865207a65726f2061646460008201527f7265737300000000000000000000000000000000000000000000000000000000602082015250565b60006116f560248361106a565b915061170082611699565b604082019050919050565b60006020820190508181036000830152611724816116e8565b9050919050565b7f45524332303a20617070726f766520746f20746865207a65726f20616464726560008201527f7373000000000000000000000000000000000000000000000000000000000000602082015250565b600061178760228361106a565b91506117928261172b565b604082019050919050565b600060208201905081810360008301526117b68161177a565b9050919050565b7f45524332303a20696e73756666696369656e7420616c6c6f77616e6365000000600082015250565b60006117f3601d8361106a565b91506117fe826117bd565b602082019050919050565b60006020820190508181036000830152611822816117e6565b9050919050565b7f45524332303a207472616e736665722066726f6d20746865207a65726f20616460008201527f6472657373000000000000000000000000000000000000000000000000000000602082015250565b600061188560258361106a565b915061189082611829565b604082019050919050565b600060208201905081810360008301526118b481611878565b9050919050565b7f45524332303a207472616e7366657220746f20746865207a65726f206164647260008201527f6573730000000000000000000000000000000000000000000000000000000000602082015250565b600061191760238361106a565b9150611922826118bb565b604082019050919050565b600060208201905081810360008301526119468161190a565b9050919050565b7f45524332303a207472616e7366657220616d6f756e742065786365656473206260008201527f616c616e63650000000000000000000000000000000000000000000000000000602082015250565b60006119a960268361106a565b91506119b48261194d565b604082019050919050565b600060208201905081810360008301526119d88161199c565b9050919050565b7f4f776e61626c653a2063616c6c6572206973206e6f7420746865206f776e6572600082015250565b6000611a1560208361106a565b9150611a20826119df565b602082019050919050565b60006020820190508181036000830152611a4481611a08565b9050919050565b7f45524332303a206d696e7420746f20746865207a65726f206164647265737300600082015250565b6000611a81601f8361106a565b9150611a8c82611a4b565b602082019050919050565b60006020820190508181036000830152611ab081611a74565b905091905056fea26469706673582212209743486e52139adf2498548ac4471e489ae1c5d20361eda9f7149bd467204b1164736f6c63430008120033",
  "linkReferences": {},
  "deployedLinkReferences": {}
}