{
  "_format": "hh-sol-artifact-1",
  "contractName": "NyxEssence",
  "sourceName": "contracts/NyxEssence.sol",
  "abi": [
    {
      "inputs": [],
      "stateMutability": "nonpayable",
      "type": "constructor"
    },
    {
      "anonymous": false,
      "inputs": [
        {
          "indexed": true,
          "internalType": "address",
          "name": "owner",
          "type": "address"
        },
        {
          "indexed": true,
          "internalType": "address",
          "name": "spender",
          "type": "address"
        },
        {
          "indexed": false,
          "internalType": "uint256",
          "name": "value",
          "type": "uint256"
        }
      ],
      "name": "Approval",
      "type": "event"
    },
    {
      "anonymous": false,
      "inputs": [
        {
          "indexed": true,
          "internalType": "address",
          "name": "previousOwner",
          "type": "address"
        },
        {
          "indexed": true,
          "internalType": "address",
          "name": "newOwner",
          "type": "address"
        }
      ],
      "name": "OwnershipTransferred",
      "type": "event"
    },
    {
      "anonymous": false,
      "inputs": [
        {
          "indexed": true,
          "internalType": "address",
          "name": "from",
          "type": "address"
        },
        {
          "indexed": true,
          "internalType": "address",
          "name": "to",
          "type": "address"
        },
        {
          "indexed": false,
          "internalType": "uint256",
          "name": "value",
          "type": "uint256"
        }
      ],
      "name": "Transfer",
      "type": "event"
    },
    {
      "inputs": [],
      "name": "acceptShareNyx",
      "outputs": [],
      "stateMutability": "nonpayable",
      "type": "function"
    },
    {
      "inputs": [
        {
          "internalType": "address",
          "name": "owner",
          "type": "address"
        },
        {
          "internalType": "address",
          "name": "spender",
          "type": "address"
        }
      ],
      "name": "allowance",
      "outputs": [
        {
          "internalType": "uint256",
          "name": "",
          "type": "uint256"
        }
      ],
      "stateMutability": "view",
      "type": "function"
    },
    {
      "inputs": [
        {
          "internalType": "address",
          "name": "spender",
          "type": "address"
        },
        {
          "internalType": "uint256",
          "name": "amount",
          "type": "uint256"
        }
      ],
      "name": "approve",
      "outputs": [
        {
          "internalType": "bool",
          "name": "",
          "type": "bool"
        }
      ],
      "stateMutability": "nonpayable",
      "type": "function"
    },
    {
      "inputs": [
        {
          "internalType": "address",
          "name": "account",
          "type": "address"
        }
      ],
      "name": "balanceOf",
      "outputs": [
        {
          "internalType": "uint256",
          "name": "",
          "type": "uint256"
        }
      ],
      "stateMutability": "view",
      "type": "function"
    },
    {
      "inputs": [],
      "name": "buy",
      "outputs": [],
      "stateMutability": "payable",
      "type": "function"
    },
    {
      "inputs": [],
      "name": "decimals",
      "outputs": [
        {
          "internalType": "uint8",
          "name": "",
          "type": "uint8"
        }
      ],
      "stateMutability": "view",
      "type": "function"
    },
    {
      "inputs": [
        {
          "internalType": "address",
          "name": "spender",
          "type": "address"
        },
        {
          "internalType": "uint256",
          "name": "subtractedValue",
          "type": "uint256"
        }
      ],
      "name": "decreaseAllowance",
      "outputs": [
        {
          "internalType": "bool",
          "name": "",
          "type": "bool"
        }
      ],
      "stateMutability": "nonpayable",
      "type": "function"
    },
    {
      "inputs": [
        {
          "internalType": "address",
          "name": "spender",
          "type": "address"
        },
        {
          "internalType": "uint256",
          "name": "addedValue",
          "type": "uint256"
        }
      ],
      "name": "increaseAllowance",
      "outputs": [
        {
          "internalType": "bool",
          "name": "",
          "type": "bool"
        }
      ],
      "stateMutability": "nonpayable",
      "type": "function"
    },
    {
      "inputs": [
        {
          "internalType": "address",
          "name": "to",
          "type": "address"
        },
        {
          "internalType": "uint256",
          "name": "amount",
          "type": "uint256"
        }
      ],
      "name": "mint",
      "outputs": [],
      "stateMutability": "nonpayable",
      "type": "function"
    },
    {
      "inputs": [],
      "name": "name",
      "outputs": [
        {
          "internalType": "string",
          "name": "",
          "type": "string"
        }
      ],
      "stateMutability": "view",
      "type": "function"
    },
    {
      "inputs": [],
      "name": "owner",
      "outputs": [
        {
          "internalType": "address",
          "name": "",
          "type": "address"
        }
      ],
      "stateMutability": "view",
      "type": "function"
    },
    {
      "inputs": [],
      "name": "renounceOwnership",
      "outputs": [],
      "stateMutability": "nonpayable",
      "type": "function"
    },
    {
      "inputs": [
        {
          "internalType": "uint256",
          "name": "buyPrice",
          "type": "uint256"
        }
      ],
      "name": "setBuyPrice",
      "outputs": [],
      "stateMutability": "nonpayable",
      "type": "function"
    },
    {
      "inputs": [
        {
          "internalType": "address",
          "name": "nyxeumGame",
          "type": "address"
        }
      ],
      "name": "setNyxeumGame",
      "outputs": [],
      "stateMutability": "nonpayable",
      "type": "function"
    },
    {
      "inputs": [],
      "name": "symbol",
      "outputs": [
        {
          "internalType": "string",
          "name": "",
          "type": "string"
        }
      ],
      "stateMutability": "view",
      "type": "function"
    },
    {
      "inputs": [],
      "name": "totalSupply",
      "outputs": [
        {
          "internalType": "uint256",
          "name": "",
          "type": "uint256"
        }
      ],
      "stateMutability": "view",
      "type": "function"
    },
    {
      "inputs": [
        {
          "internalType": "address",
          "name": "to",
          "type": "address"
        },
        {
          "internalType": "uint256",
          "name": "amount",
          "type": "uint256"
        }
      ],
      "name": "transfer",
      "outputs": [
        {
          "internalType": "bool",
          "name": "",
          "type": "bool"
        }
      ],
      "stateMutability": "nonpayable",
      "type": "function"
    },
    {
      "inputs": [
        {
          "internalType": "address",
          "name": "from",
          "type": "address"
        },
        {
          "internalType": "address",
          "name": "to",
          "type": "address"
        },
        {
          "internalType": "uint256",
          "name": "amount",
          "type": "uint256"
        }
      ],
      "name": "transferFrom",
      "outputs": [
        {
          "internalType": "bool",
          "name": "",
          "type": "bool"
        }
      ],
      "stateMutability": "nonpayable",
      "type": "function"
    },
    {
      "inputs": [
        {
          "internalType": "address",
          "name": "newOwner",
          "type": "address"
        }
      ],
      "name": "transferOwnership",
      "outputs": [],
      "stateMutability": "nonpayable",
      "type": "function"
    }
  ],
  "bytecode": "0x60806040523480156200001157600080fd5b506040518060400160405280600b81526020017f4e797820457373656e63650000000000000000000000000000000000000000008152506040518060400160405280600381526020017f4e5958000000000000000000000000000000000000000000000000000000000081525081600390816200008f9190620006c1565b508060049081620000a19190620006c1565b505050620000c4620000b86200011860201b60201c565b6200012060201b60201c565b6000620000d6620001e660201b60201c565b600a620000e4919062000938565b620f4240620000f4919062000989565b9050620001083082620001ef60201b60201c565b6103e86007819055505062000b32565b600033905090565b6000600560009054906101000a900473ffffffffffffffffffffffffffffffffffffffff16905081600560006101000a81548173ffffffffffffffffffffffffffffffffffffffff021916908373ffffffffffffffffffffffffffffffffffffffff1602179055508173ffffffffffffffffffffffffffffffffffffffff168173ffffffffffffffffffffffffffffffffffffffff167f8be0079c531659141344cd1fd0a4f28419497f9722a3daafe3b4186f6b6457e060405160405180910390a35050565b60006012905090565b620001ff6200021560201b60201c565b620002118282620002a660201b60201c565b5050565b620002256200011860201b60201c565b73ffffffffffffffffffffffffffffffffffffffff166200024b6200041360201b60201c565b73ffffffffffffffffffffffffffffffffffffffff1614620002a4576040517f08c379a00000000000000000000000000000000000000000000000000000000081526004016200029b9062000a35565b60405180910390fd5b565b600073ffffffffffffffffffffffffffffffffffffffff168273ffffffffffffffffffffffffffffffffffffffff160362000318576040517f08c379a00000000000000000000000000000000000000000000000000000000081526004016200030f9062000aa7565b60405180910390fd5b6200032c600083836200043d60201b60201c565b806002600082825462000340919062000ac9565b92505081905550806000808473ffffffffffffffffffffffffffffffffffffffff1673ffffffffffffffffffffffffffffffffffffffff168152602001908152602001600020600082825401925050819055508173ffffffffffffffffffffffffffffffffffffffff16600073ffffffffffffffffffffffffffffffffffffffff167fddf252ad1be2c89b69c2b068fc378daa952ba7f163c4a11628f55a4df523b3ef83604051620003f3919062000b15565b60405180910390a36200040f600083836200044260201b60201c565b5050565b6000600560009054906101000a900473ffffffffffffffffffffffffffffffffffffffff16905090565b505050565b505050565b600081519050919050565b7f4e487b7100000000000000000000000000000000000000000000000000000000600052604160045260246000fd5b7f4e487b7100000000000000000000000000000000000000000000000000000000600052602260045260246000fd5b60006002820490506001821680620004c957607f821691505b602082108103620004df57620004de62000481565b5b50919050565b60008190508160005260206000209050919050565b60006020601f8301049050919050565b600082821b905092915050565b600060088302620005497fffffffffffffffffffffffffffffffffffffffffffffffffffffffffffffffff826200050a565b6200055586836200050a565b95508019841693508086168417925050509392505050565b6000819050919050565b6000819050919050565b6000620005a26200059c62000596846200056d565b62000577565b6200056d565b9050919050565b6000819050919050565b620005be8362000581565b620005d6620005cd82620005a9565b84845462000517565b825550505050565b600090565b620005ed620005de565b620005fa818484620005b3565b505050565b5b81811015620006225762000616600082620005e3565b60018101905062000600565b5050565b601f82111562000671576200063b81620004e5565b6200064684620004fa565b8101602085101562000656578190505b6200066e6200066585620004fa565b830182620005ff565b50505b505050565b600082821c905092915050565b6000620006966000198460080262000676565b1980831691505092915050565b6000620006b1838362000683565b9150826002028217905092915050565b620006cc8262000447565b67ffffffffffffffff811115620006e857620006e762000452565b5b620006f48254620004b0565b6200070182828562000626565b600060209050601f83116001811462000739576000841562000724578287015190505b620007308582620006a3565b865550620007a0565b601f1984166200074986620004e5565b60005b8281101562000773578489015182556001820191506020850194506020810190506200074c565b868310156200079357848901516200078f601f89168262000683565b8355505b6001600288020188555050505b505050505050565b7f4e487b7100000000000000000000000000000000000000000000000000000000600052601160045260246000fd5b60008160011c9050919050565b6000808291508390505b600185111562000836578086048111156200080e576200080d620007a8565b5b60018516156200081e5780820291505b80810290506200082e85620007d7565b9450620007ee565b94509492505050565b60008262000851576001905062000924565b8162000861576000905062000924565b81600181146200087a57600281146200088557620008bb565b600191505062000924565b60ff8411156200089a5762000899620007a8565b5b8360020a915084821115620008b457620008b3620007a8565b5b5062000924565b5060208310610133831016604e8410600b8410161715620008f55782820a905083811115620008ef57620008ee620007a8565b5b62000924565b620009048484846001620007e4565b925090508184048111156200091e576200091d620007a8565b5b81810290505b9392505050565b600060ff82169050919050565b600062000945826200056d565b915062000952836200092b565b9250620009817fffffffffffffffffffffffffffffffffffffffffffffffffffffffffffffffff84846200083f565b905092915050565b600062000996826200056d565b9150620009a3836200056d565b9250828202620009b3816200056d565b91508282048414831517620009cd57620009cc620007a8565b5b5092915050565b600082825260208201905092915050565b7f4f776e61626c653a2063616c6c6572206973206e6f7420746865206f776e6572600082015250565b600062000a1d602083620009d4565b915062000a2a82620009e5565b602082019050919050565b6000602082019050818103600083015262000a508162000a0e565b9050919050565b7f45524332303a206d696e7420746f20746865207a65726f206164647265737300600082015250565b600062000a8f601f83620009d4565b915062000a9c8262000a57565b602082019050919050565b6000602082019050818103600083015262000ac28162000a80565b9050919050565b600062000ad6826200056d565b915062000ae3836200056d565b925082820190508082111562000afe5762000afd620007a8565b5b92915050565b62000b0f816200056d565b82525050565b600060208201905062000b2c600083018462000b04565b92915050565b611bde8062000b426000396000f3fe6080604052600436106101145760003560e01c806370a08231116100a0578063a6f2ae3a11610064578063a6f2ae3a146103b3578063a9059cbb146103bd578063d73833cd146103fa578063dd62ed3e14610411578063f2fde38b1461044e57610114565b806370a08231146102cc578063715018a6146103095780638da5cb5b1461032057806395d89b411461034b578063a457c2d71461037657610114565b8063313ce567116100e7578063313ce567146101e9578063395093511461021457806340c10f191461025157806363ae8d6c1461027a57806366aadc03146102a357610114565b806306fdde0314610119578063095ea7b31461014457806318160ddd1461018157806323b872dd146101ac575b600080fd5b34801561012557600080fd5b5061012e610477565b60405161013b91906111e0565b60405180910390f35b34801561015057600080fd5b5061016b6004803603810190610166919061129b565b610509565b60405161017891906112f6565b60405180910390f35b34801561018d57600080fd5b5061019661052c565b6040516101a39190611320565b60405180910390f35b3480156101b857600080fd5b506101d360048036038101906101ce919061133b565b610536565b6040516101e091906112f6565b60405180910390f35b3480156101f557600080fd5b506101fe610565565b60405161020b91906113aa565b60405180910390f35b34801561022057600080fd5b5061023b6004803603810190610236919061129b565b61056e565b60405161024891906112f6565b60405180910390f35b34801561025d57600080fd5b506102786004803603810190610273919061129b565b6105a5565b005b34801561028657600080fd5b506102a1600480360381019061029c91906113c5565b6105bb565b005b3480156102af57600080fd5b506102ca60048036038101906102c591906113f2565b6105cd565b005b3480156102d857600080fd5b506102f360048036038101906102ee91906113f2565b610619565b6040516103009190611320565b60405180910390f35b34801561031557600080fd5b5061031e610661565b005b34801561032c57600080fd5b50610335610675565b604051610342919061142e565b60405180910390f35b34801561035757600080fd5b5061036061069f565b60405161036d91906111e0565b60405180910390f35b34801561038257600080fd5b5061039d6004803603810190610398919061129b565b610731565b6040516103aa91906112f6565b60405180910390f35b6103bb6107a8565b005b3480156103c957600080fd5b506103e460048036038101906103df919061129b565b61085d565b6040516103f191906112f6565b60405180910390f35b34801561040657600080fd5b5061040f610880565b005b34801561041d57600080fd5b5061043860048036038101906104339190611449565b6108cf565b6040516104459190611320565b60405180910390f35b34801561045a57600080fd5b50610475600480360381019061047091906113f2565b610956565b005b606060038054610486906114b8565b80601f01602080910402602001604051908101604052809291908181526020018280546104b2906114b8565b80156104ff5780601f106104d4576101008083540402835291602001916104ff565b820191906000526020600020905b8154815290600101906020018083116104e257829003601f168201915b5050505050905090565b6000806105146109d9565b90506105218185856109e1565b600191505092915050565b6000600254905090565b6000806105416109d9565b905061054e858285610baa565b610559858585610c36565b60019150509392505050565b60006012905090565b6000806105796109d9565b905061059a81858561058b85896108cf565b6105959190611518565b6109e1565b600191505092915050565b6105ad610eac565b6105b78282610f2a565b5050565b6105c3610eac565b8060078190555050565b6105d5610eac565b80600660006101000a81548173ffffffffffffffffffffffffffffffffffffffff021916908373ffffffffffffffffffffffffffffffffffffffff16021790555050565b60008060008373ffffffffffffffffffffffffffffffffffffffff1673ffffffffffffffffffffffffffffffffffffffff168152602001908152602001600020549050919050565b610669610eac565b6106736000611080565b565b6000600560009054906101000a900473ffffffffffffffffffffffffffffffffffffffff16905090565b6060600480546106ae906114b8565b80601f01602080910402602001604051908101604052809291908181526020018280546106da906114b8565b80156107275780601f106106fc57610100808354040283529160200191610727565b820191906000526020600020905b81548152906001019060200180831161070a57829003601f168201915b5050505050905090565b60008061073c6109d9565b9050600061074a82866108cf565b90508381101561078f576040517f08c379a0000000000000000000000000000000000000000000000000000000008152600401610786906115be565b60405180910390fd5b61079c82868684036109e1565b60019250505092915050565b600034116107eb576040517f08c379a00000000000000000000000000000000000000000000000000000000081526004016107e29061162a565b60405180910390fd5b6107f430610619565b60075434610802919061164a565b1115610843576040517f08c379a000000000000000000000000000000000000000000000000000000000815260040161083a906116d8565b60405180910390fd5b61085b303360075434610856919061164a565b610c36565b565b6000806108686109d9565b9050610875818585610c36565b600191505092915050565b6108cc600660009054906101000a900473ffffffffffffffffffffffffffffffffffffffff167fffffffffffffffffffffffffffffffffffffffffffffffffffffffffffffffff610509565b50565b6000600160008473ffffffffffffffffffffffffffffffffffffffff1673ffffffffffffffffffffffffffffffffffffffff16815260200190815260200160002060008373ffffffffffffffffffffffffffffffffffffffff1673ffffffffffffffffffffffffffffffffffffffff16815260200190815260200160002054905092915050565b61095e610eac565b600073ffffffffffffffffffffffffffffffffffffffff168173ffffffffffffffffffffffffffffffffffffffff16036109cd576040517f08c379a00000000000000000000000000000000000000000000000000000000081526004016109c49061176a565b60405180910390fd5b6109d681611080565b50565b600033905090565b600073ffffffffffffffffffffffffffffffffffffffff168373ffffffffffffffffffffffffffffffffffffffff1603610a50576040517f08c379a0000000000000000000000000000000000000000000000000000000008152600401610a47906117fc565b60405180910390fd5b600073ffffffffffffffffffffffffffffffffffffffff168273ffffffffffffffffffffffffffffffffffffffff1603610abf576040517f08c379a0000000000000000000000000000000000000000000000000000000008152600401610ab69061188e565b60405180910390fd5b80600160008573ffffffffffffffffffffffffffffffffffffffff1673ffffffffffffffffffffffffffffffffffffffff16815260200190815260200160002060008473ffffffffffffffffffffffffffffffffffffffff1673ffffffffffffffffffffffffffffffffffffffff168152602001908152602001600020819055508173ffffffffffffffffffffffffffffffffffffffff168373ffffffffffffffffffffffffffffffffffffffff167f8c5be1e5ebec7d5bd14f71427d1e84f3dd0314c0f7b2291e5b200ac8c7c3b92583604051610b9d9190611320565b60405180910390a3505050565b6000610bb684846108cf565b90507fffffffffffffffffffffffffffffffffffffffffffffffffffffffffffffffff8114610c305781811015610c22576040517f08c379a0000000000000000000000000000000000000000000000000000000008152600401610c19906118fa565b60405180910390fd5b610c2f84848484036109e1565b5b50505050565b600073ffffffffffffffffffffffffffffffffffffffff168373ffffffffffffffffffffffffffffffffffffffff1603610ca5576040517f08c379a0000000000000000000000000000000000000000000000000000000008152600401610c9c9061198c565b60405180910390fd5b600073ffffffffffffffffffffffffffffffffffffffff168273ffffffffffffffffffffffffffffffffffffffff1603610d14576040517f08c379a0000000000000000000000000000000000000000000000000000000008152600401610d0b90611a1e565b60405180910390fd5b610d1f838383611146565b60008060008573ffffffffffffffffffffffffffffffffffffffff1673ffffffffffffffffffffffffffffffffffffffff16815260200190815260200160002054905081811015610da5576040517f08c379a0000000000000000000000000000000000000000000000000000000008152600401610d9c90611ab0565b60405180910390fd5b8181036000808673ffffffffffffffffffffffffffffffffffffffff1673ffffffffffffffffffffffffffffffffffffffff16815260200190815260200160002081905550816000808573ffffffffffffffffffffffffffffffffffffffff1673ffffffffffffffffffffffffffffffffffffffff168152602001908152602001600020600082825401925050819055508273ffffffffffffffffffffffffffffffffffffffff168473ffffffffffffffffffffffffffffffffffffffff167fddf252ad1be2c89b69c2b068fc378daa952ba7f163c4a11628f55a4df523b3ef84604051610e939190611320565b60405180910390a3610ea684848461114b565b50505050565b610eb46109d9565b73ffffffffffffffffffffffffffffffffffffffff16610ed2610675565b73ffffffffffffffffffffffffffffffffffffffff1614610f28576040517f08c379a0000000000000000000000000000000000000000000000000000000008152600401610f1f90611b1c565b60405180910390fd5b565b600073ffffffffffffffffffffffffffffffffffffffff168273ffffffffffffffffffffffffffffffffffffffff1603610f99576040517f08c379a0000000000000000000000000000000000000000000000000000000008152600401610f9090611b88565b60405180910390fd5b610fa560008383611146565b8060026000828254610fb79190611518565b92505081905550806000808473ffffffffffffffffffffffffffffffffffffffff1673ffffffffffffffffffffffffffffffffffffffff168152602001908152602001600020600082825401925050819055508173ffffffffffffffffffffffffffffffffffffffff16600073ffffffffffffffffffffffffffffffffffffffff167fddf252ad1be2c89b69c2b068fc378daa952ba7f163c4a11628f55a4df523b3ef836040516110689190611320565b60405180910390a361107c6000838361114b565b5050565b6000600560009054906101000a900473ffffffffffffffffffffffffffffffffffffffff16905081600560006101000a81548173ffffffffffffffffffffffffffffffffffffffff021916908373ffffffffffffffffffffffffffffffffffffffff1602179055508173ffffffffffffffffffffffffffffffffffffffff168173ffffffffffffffffffffffffffffffffffffffff167f8be0079c531659141344cd1fd0a4f28419497f9722a3daafe3b4186f6b6457e060405160405180910390a35050565b505050565b505050565b600081519050919050565b600082825260208201905092915050565b60005b8381101561118a57808201518184015260208101905061116f565b60008484015250505050565b6000601f19601f8301169050919050565b60006111b282611150565b6111bc818561115b565b93506111cc81856020860161116c565b6111d581611196565b840191505092915050565b600060208201905081810360008301526111fa81846111a7565b905092915050565b600080fd5b600073ffffffffffffffffffffffffffffffffffffffff82169050919050565b600061123282611207565b9050919050565b61124281611227565b811461124d57600080fd5b50565b60008135905061125f81611239565b92915050565b6000819050919050565b61127881611265565b811461128357600080fd5b50565b6000813590506112958161126f565b92915050565b600080604083850312156112b2576112b1611202565b5b60006112c085828601611250565b92505060206112d185828601611286565b9150509250929050565b60008115159050919050565b6112f0816112db565b82525050565b600060208201905061130b60008301846112e7565b92915050565b61131a81611265565b82525050565b60006020820190506113356000830184611311565b92915050565b60008060006060848603121561135457611353611202565b5b600061136286828701611250565b935050602061137386828701611250565b925050604061138486828701611286565b9150509250925092565b600060ff82169050919050565b6113a48161138e565b82525050565b60006020820190506113bf600083018461139b565b92915050565b6000602082840312156113db576113da611202565b5b60006113e984828501611286565b91505092915050565b60006020828403121561140857611407611202565b5b600061141684828501611250565b91505092915050565b61142881611227565b82525050565b6000602082019050611443600083018461141f565b92915050565b600080604083850312156114605761145f611202565b5b600061146e85828601611250565b925050602061147f85828601611250565b9150509250929050565b7f4e487b7100000000000000000000000000000000000000000000000000000000600052602260045260246000fd5b600060028204905060018216806114d057607f821691505b6020821081036114e3576114e2611489565b5b50919050565b7f4e487b7100000000000000000000000000000000000000000000000000000000600052601160045260246000fd5b600061152382611265565b915061152e83611265565b9250828201905080821115611546576115456114e9565b5b92915050565b7f45524332303a2064656372656173656420616c6c6f77616e63652062656c6f7760008201527f207a65726f000000000000000000000000000000000000000000000000000000602082015250565b60006115a860258361115b565b91506115b38261154c565b604082019050919050565b600060208201905081810360008301526115d78161159b565b9050919050565b7f596f75206e65656420746f2070617920736f6d65204554480000000000000000600082015250565b600061161460188361115b565b915061161f826115de565b602082019050919050565b6000602082019050818103600083015261164381611607565b9050919050565b600061165582611265565b915061166083611265565b925082820261166e81611265565b91508282048414831517611685576116846114e9565b5b5092915050565b7f4e6f7420656e6f756768204e595820696e207468652072657365727665000000600082015250565b60006116c2601d8361115b565b91506116cd8261168c565b602082019050919050565b600060208201905081810360008301526116f1816116b5565b9050919050565b7f4f776e61626c653a206e6577206f776e657220697320746865207a65726f206160008201527f6464726573730000000000000000000000000000000000000000000000000000602082015250565b600061175460268361115b565b915061175f826116f8565b604082019050919050565b6000602082019050818103600083015261178381611747565b9050919050565b7f45524332303a20617070726f76652066726f6d20746865207a65726f2061646460008201527f7265737300000000000000000000000000000000000000000000000000000000602082015250565b60006117e660248361115b565b91506117f18261178a565b604082019050919050565b60006020820190508181036000830152611815816117d9565b9050919050565b7f45524332303a20617070726f766520746f20746865207a65726f20616464726560008201527f7373000000000000000000000000000000000000000000000000000000000000602082015250565b600061187860228361115b565b91506118838261181c565b604082019050919050565b600060208201905081810360008301526118a78161186b565b9050919050565b7f45524332303a20696e73756666696369656e7420616c6c6f77616e6365000000600082015250565b60006118e4601d8361115b565b91506118ef826118ae565b602082019050919050565b60006020820190508181036000830152611913816118d7565b9050919050565b7f45524332303a207472616e736665722066726f6d20746865207a65726f20616460008201527f6472657373000000000000000000000000000000000000000000000000000000602082015250565b600061197660258361115b565b91506119818261191a565b604082019050919050565b600060208201905081810360008301526119a581611969565b9050919050565b7f45524332303a207472616e7366657220746f20746865207a65726f206164647260008201527f6573730000000000000000000000000000000000000000000000000000000000602082015250565b6000611a0860238361115b565b9150611a13826119ac565b604082019050919050565b60006020820190508181036000830152611a37816119fb565b9050919050565b7f45524332303a207472616e7366657220616d6f756e742065786365656473206260008201527f616c616e63650000000000000000000000000000000000000000000000000000602082015250565b6000611a9a60268361115b565b9150611aa582611a3e565b604082019050919050565b60006020820190508181036000830152611ac981611a8d565b9050919050565b7f4f776e61626c653a2063616c6c6572206973206e6f7420746865206f776e6572600082015250565b6000611b0660208361115b565b9150611b1182611ad0565b602082019050919050565b60006020820190508181036000830152611b3581611af9565b9050919050565b7f45524332303a206d696e7420746f20746865207a65726f206164647265737300600082015250565b6000611b72601f8361115b565b9150611b7d82611b3c565b602082019050919050565b60006020820190508181036000830152611ba181611b65565b905091905056fea2646970667358221220174b6806f00b42f693e5a883a34d5a2cc010c6be3986334a631b51038497680b64736f6c63430008120033",
  "linkReferences": {},
  "deployedLinkReferences": {}
}