{
  "_format": "hh-sol-artifact-1",
  "contractName": "NyxEssence",
  "sourceName": "contracts/NyxEssence.sol",
  "abi": [
    {
      "inputs": [],
      "stateMutability": "nonpayable",
      "type": "constructor"
    },
    {
      "anonymous": false,
      "inputs": [
        {
          "indexed": true,
          "internalType": "address",
          "name": "owner",
          "type": "address"
        },
        {
          "indexed": true,
          "internalType": "address",
          "name": "spender",
          "type": "address"
        },
        {
          "indexed": false,
          "internalType": "uint256",
          "name": "value",
          "type": "uint256"
        }
      ],
      "name": "Approval",
      "type": "event"
    },
    {
      "anonymous": false,
      "inputs": [
        {
          "indexed": true,
          "internalType": "address",
          "name": "previousOwner",
          "type": "address"
        },
        {
          "indexed": true,
          "internalType": "address",
          "name": "newOwner",
          "type": "address"
        }
      ],
      "name": "OwnershipTransferred",
      "type": "event"
    },
    {
      "anonymous": false,
      "inputs": [
        {
          "indexed": true,
          "internalType": "address",
          "name": "from",
          "type": "address"
        },
        {
          "indexed": true,
          "internalType": "address",
          "name": "to",
          "type": "address"
        },
        {
          "indexed": false,
          "internalType": "uint256",
          "name": "value",
          "type": "uint256"
        }
      ],
      "name": "Transfer",
      "type": "event"
    },
    {
      "inputs": [
        {
          "internalType": "address",
          "name": "owner",
          "type": "address"
        },
        {
          "internalType": "address",
          "name": "spender",
          "type": "address"
        }
      ],
      "name": "allowance",
      "outputs": [
        {
          "internalType": "uint256",
          "name": "",
          "type": "uint256"
        }
      ],
      "stateMutability": "view",
      "type": "function"
    },
    {
      "inputs": [
        {
          "internalType": "address",
          "name": "spender",
          "type": "address"
        },
        {
          "internalType": "uint256",
          "name": "amount",
          "type": "uint256"
        }
      ],
      "name": "approve",
      "outputs": [
        {
          "internalType": "bool",
          "name": "",
          "type": "bool"
        }
      ],
      "stateMutability": "nonpayable",
      "type": "function"
    },
    {
      "inputs": [
        {
          "internalType": "address",
          "name": "account",
          "type": "address"
        }
      ],
      "name": "balanceOf",
      "outputs": [
        {
          "internalType": "uint256",
          "name": "",
          "type": "uint256"
        }
      ],
      "stateMutability": "view",
      "type": "function"
    },
    {
      "inputs": [],
      "name": "buy",
      "outputs": [],
      "stateMutability": "payable",
      "type": "function"
    },
    {
      "inputs": [],
      "name": "decimals",
      "outputs": [
        {
          "internalType": "uint8",
          "name": "",
          "type": "uint8"
        }
      ],
      "stateMutability": "view",
      "type": "function"
    },
    {
      "inputs": [
        {
          "internalType": "address",
          "name": "spender",
          "type": "address"
        },
        {
          "internalType": "uint256",
          "name": "subtractedValue",
          "type": "uint256"
        }
      ],
      "name": "decreaseAllowance",
      "outputs": [
        {
          "internalType": "bool",
          "name": "",
          "type": "bool"
        }
      ],
      "stateMutability": "nonpayable",
      "type": "function"
    },
    {
      "inputs": [
        {
          "internalType": "address",
          "name": "spender",
          "type": "address"
        },
        {
          "internalType": "uint256",
          "name": "addedValue",
          "type": "uint256"
        }
      ],
      "name": "increaseAllowance",
      "outputs": [
        {
          "internalType": "bool",
          "name": "",
          "type": "bool"
        }
      ],
      "stateMutability": "nonpayable",
      "type": "function"
    },
    {
      "inputs": [
        {
          "internalType": "address",
          "name": "to",
          "type": "address"
        },
        {
          "internalType": "uint256",
          "name": "amount",
          "type": "uint256"
        }
      ],
      "name": "mint",
      "outputs": [],
      "stateMutability": "nonpayable",
      "type": "function"
    },
    {
      "inputs": [],
      "name": "name",
      "outputs": [
        {
          "internalType": "string",
          "name": "",
          "type": "string"
        }
      ],
      "stateMutability": "view",
      "type": "function"
    },
    {
      "inputs": [],
      "name": "owner",
      "outputs": [
        {
          "internalType": "address",
          "name": "",
          "type": "address"
        }
      ],
      "stateMutability": "view",
      "type": "function"
    },
    {
      "inputs": [],
      "name": "renounceOwnership",
      "outputs": [],
      "stateMutability": "nonpayable",
      "type": "function"
    },
    {
      "inputs": [],
      "name": "symbol",
      "outputs": [
        {
          "internalType": "string",
          "name": "",
          "type": "string"
        }
      ],
      "stateMutability": "view",
      "type": "function"
    },
    {
      "inputs": [],
      "name": "totalSupply",
      "outputs": [
        {
          "internalType": "uint256",
          "name": "",
          "type": "uint256"
        }
      ],
      "stateMutability": "view",
      "type": "function"
    },
    {
      "inputs": [
        {
          "internalType": "address",
          "name": "to",
          "type": "address"
        },
        {
          "internalType": "uint256",
          "name": "amount",
          "type": "uint256"
        }
      ],
      "name": "transfer",
      "outputs": [
        {
          "internalType": "bool",
          "name": "",
          "type": "bool"
        }
      ],
      "stateMutability": "nonpayable",
      "type": "function"
    },
    {
      "inputs": [
        {
          "internalType": "address",
          "name": "from",
          "type": "address"
        },
        {
          "internalType": "address",
          "name": "to",
          "type": "address"
        },
        {
          "internalType": "uint256",
          "name": "amount",
          "type": "uint256"
        }
      ],
      "name": "transferFrom",
      "outputs": [
        {
          "internalType": "bool",
          "name": "",
          "type": "bool"
        }
      ],
      "stateMutability": "nonpayable",
      "type": "function"
    },
    {
      "inputs": [
        {
          "internalType": "address",
          "name": "newOwner",
          "type": "address"
        }
      ],
      "name": "transferOwnership",
      "outputs": [],
      "stateMutability": "nonpayable",
      "type": "function"
    }
  ],
  "bytecode": "0x60806040523480156200001157600080fd5b506040518060400160405280600b81526020017f4e797820457373656e63650000000000000000000000000000000000000000008152506040518060400160405280600381526020017f4e5958000000000000000000000000000000000000000000000000000000000081525081600390816200008f9190620006b8565b508060049081620000a19190620006b8565b505050620000c4620000b86200010f60201b60201c565b6200011760201b60201c565b6000620000d6620001dd60201b60201c565b600a620000e491906200092f565b620f4240620000f4919062000980565b9050620001083082620001e660201b60201c565b5062000b29565b600033905090565b6000600560009054906101000a900473ffffffffffffffffffffffffffffffffffffffff16905081600560006101000a81548173ffffffffffffffffffffffffffffffffffffffff021916908373ffffffffffffffffffffffffffffffffffffffff1602179055508173ffffffffffffffffffffffffffffffffffffffff168173ffffffffffffffffffffffffffffffffffffffff167f8be0079c531659141344cd1fd0a4f28419497f9722a3daafe3b4186f6b6457e060405160405180910390a35050565b60006012905090565b620001f66200020c60201b60201c565b6200020882826200029d60201b60201c565b5050565b6200021c6200010f60201b60201c565b73ffffffffffffffffffffffffffffffffffffffff16620002426200040a60201b60201c565b73ffffffffffffffffffffffffffffffffffffffff16146200029b576040517f08c379a0000000000000000000000000000000000000000000000000000000008152600401620002929062000a2c565b60405180910390fd5b565b600073ffffffffffffffffffffffffffffffffffffffff168273ffffffffffffffffffffffffffffffffffffffff16036200030f576040517f08c379a0000000000000000000000000000000000000000000000000000000008152600401620003069062000a9e565b60405180910390fd5b62000323600083836200043460201b60201c565b806002600082825462000337919062000ac0565b92505081905550806000808473ffffffffffffffffffffffffffffffffffffffff1673ffffffffffffffffffffffffffffffffffffffff168152602001908152602001600020600082825401925050819055508173ffffffffffffffffffffffffffffffffffffffff16600073ffffffffffffffffffffffffffffffffffffffff167fddf252ad1be2c89b69c2b068fc378daa952ba7f163c4a11628f55a4df523b3ef83604051620003ea919062000b0c565b60405180910390a362000406600083836200043960201b60201c565b5050565b6000600560009054906101000a900473ffffffffffffffffffffffffffffffffffffffff16905090565b505050565b505050565b600081519050919050565b7f4e487b7100000000000000000000000000000000000000000000000000000000600052604160045260246000fd5b7f4e487b7100000000000000000000000000000000000000000000000000000000600052602260045260246000fd5b60006002820490506001821680620004c057607f821691505b602082108103620004d657620004d562000478565b5b50919050565b60008190508160005260206000209050919050565b60006020601f8301049050919050565b600082821b905092915050565b600060088302620005407fffffffffffffffffffffffffffffffffffffffffffffffffffffffffffffffff8262000501565b6200054c868362000501565b95508019841693508086168417925050509392505050565b6000819050919050565b6000819050919050565b600062000599620005936200058d8462000564565b6200056e565b62000564565b9050919050565b6000819050919050565b620005b58362000578565b620005cd620005c482620005a0565b8484546200050e565b825550505050565b600090565b620005e4620005d5565b620005f1818484620005aa565b505050565b5b8181101562000619576200060d600082620005da565b600181019050620005f7565b5050565b601f82111562000668576200063281620004dc565b6200063d84620004f1565b810160208510156200064d578190505b620006656200065c85620004f1565b830182620005f6565b50505b505050565b600082821c905092915050565b60006200068d600019846008026200066d565b1980831691505092915050565b6000620006a883836200067a565b9150826002028217905092915050565b620006c3826200043e565b67ffffffffffffffff811115620006df57620006de62000449565b5b620006eb8254620004a7565b620006f88282856200061d565b600060209050601f8311600181146200073057600084156200071b578287015190505b6200072785826200069a565b86555062000797565b601f1984166200074086620004dc565b60005b828110156200076a5784890151825560018201915060208501945060208101905062000743565b868310156200078a578489015162000786601f8916826200067a565b8355505b6001600288020188555050505b505050505050565b7f4e487b7100000000000000000000000000000000000000000000000000000000600052601160045260246000fd5b60008160011c9050919050565b6000808291508390505b60018511156200082d578086048111156200080557620008046200079f565b5b6001851615620008155780820291505b80810290506200082585620007ce565b9450620007e5565b94509492505050565b6000826200084857600190506200091b565b816200085857600090506200091b565b81600181146200087157600281146200087c57620008b2565b60019150506200091b565b60ff8411156200089157620008906200079f565b5b8360020a915084821115620008ab57620008aa6200079f565b5b506200091b565b5060208310610133831016604e8410600b8410161715620008ec5782820a905083811115620008e657620008e56200079f565b5b6200091b565b620008fb8484846001620007db565b925090508184048111156200091557620009146200079f565b5b81810290505b9392505050565b600060ff82169050919050565b60006200093c8262000564565b9150620009498362000922565b9250620009787fffffffffffffffffffffffffffffffffffffffffffffffffffffffffffffffff848462000836565b905092915050565b60006200098d8262000564565b91506200099a8362000564565b9250828202620009aa8162000564565b91508282048414831517620009c457620009c36200079f565b5b5092915050565b600082825260208201905092915050565b7f4f776e61626c653a2063616c6c6572206973206e6f7420746865206f776e6572600082015250565b600062000a14602083620009cb565b915062000a2182620009dc565b602082019050919050565b6000602082019050818103600083015262000a478162000a05565b9050919050565b7f45524332303a206d696e7420746f20746865207a65726f206164647265737300600082015250565b600062000a86601f83620009cb565b915062000a938262000a4e565b602082019050919050565b6000602082019050818103600083015262000ab98162000a77565b9050919050565b600062000acd8262000564565b915062000ada8362000564565b925082820190508082111562000af55762000af46200079f565b5b92915050565b62000b068162000564565b82525050565b600060208201905062000b23600083018462000afb565b92915050565b611a7a8062000b396000396000f3fe6080604052600436106100f35760003560e01c8063715018a61161008a578063a6f2ae3a11610059578063a6f2ae3a14610340578063a9059cbb1461034a578063dd62ed3e14610387578063f2fde38b146103c4576100f3565b8063715018a6146102965780638da5cb5b146102ad57806395d89b41146102d8578063a457c2d714610303576100f3565b8063313ce567116100c6578063313ce567146101c857806339509351146101f357806340c10f191461023057806370a0823114610259576100f3565b806306fdde03146100f8578063095ea7b31461012357806318160ddd1461016057806323b872dd1461018b575b600080fd5b34801561010457600080fd5b5061010d6103ed565b60405161011a91906110a9565b60405180910390f35b34801561012f57600080fd5b5061014a60048036038101906101459190611164565b61047f565b60405161015791906111bf565b60405180910390f35b34801561016c57600080fd5b506101756104a2565b60405161018291906111e9565b60405180910390f35b34801561019757600080fd5b506101b260048036038101906101ad9190611204565b6104ac565b6040516101bf91906111bf565b60405180910390f35b3480156101d457600080fd5b506101dd6104db565b6040516101ea9190611273565b60405180910390f35b3480156101ff57600080fd5b5061021a60048036038101906102159190611164565b6104e4565b60405161022791906111bf565b60405180910390f35b34801561023c57600080fd5b5061025760048036038101906102529190611164565b61051b565b005b34801561026557600080fd5b50610280600480360381019061027b919061128e565b610531565b60405161028d91906111e9565b60405180910390f35b3480156102a257600080fd5b506102ab610579565b005b3480156102b957600080fd5b506102c261058d565b6040516102cf91906112ca565b60405180910390f35b3480156102e457600080fd5b506102ed6105b7565b6040516102fa91906110a9565b60405180910390f35b34801561030f57600080fd5b5061032a60048036038101906103259190611164565b610649565b60405161033791906111bf565b60405180910390f35b6103486106c0565b005b34801561035657600080fd5b50610371600480360381019061036c9190611164565b610775565b60405161037e91906111bf565b60405180910390f35b34801561039357600080fd5b506103ae60048036038101906103a991906112e5565b610798565b6040516103bb91906111e9565b60405180910390f35b3480156103d057600080fd5b506103eb60048036038101906103e6919061128e565b61081f565b005b6060600380546103fc90611354565b80601f016020809104026020016040519081016040528092919081815260200182805461042890611354565b80156104755780601f1061044a57610100808354040283529160200191610475565b820191906000526020600020905b81548152906001019060200180831161045857829003601f168201915b5050505050905090565b60008061048a6108a2565b90506104978185856108aa565b600191505092915050565b6000600254905090565b6000806104b76108a2565b90506104c4858285610a73565b6104cf858585610aff565b60019150509392505050565b60006012905090565b6000806104ef6108a2565b90506105108185856105018589610798565b61050b91906113b4565b6108aa565b600191505092915050565b610523610d75565b61052d8282610df3565b5050565b60008060008373ffffffffffffffffffffffffffffffffffffffff1673ffffffffffffffffffffffffffffffffffffffff168152602001908152602001600020549050919050565b610581610d75565b61058b6000610f49565b565b6000600560009054906101000a900473ffffffffffffffffffffffffffffffffffffffff16905090565b6060600480546105c690611354565b80601f01602080910402602001604051908101604052809291908181526020018280546105f290611354565b801561063f5780601f106106145761010080835404028352916020019161063f565b820191906000526020600020905b81548152906001019060200180831161062257829003601f168201915b5050505050905090565b6000806106546108a2565b905060006106628286610798565b9050838110156106a7576040517f08c379a000000000000000000000000000000000000000000000000000000000815260040161069e9061145a565b60405180910390fd5b6106b482868684036108aa565b60019250505092915050565b60003411610703576040517f08c379a00000000000000000000000000000000000000000000000000000000081526004016106fa906114c6565b60405180910390fd5b61070c30610531565b6103e83461071a91906114e6565b111561075b576040517f08c379a000000000000000000000000000000000000000000000000000000000815260040161075290611574565b60405180910390fd5b61077330336103e83461076e91906114e6565b610aff565b565b6000806107806108a2565b905061078d818585610aff565b600191505092915050565b6000600160008473ffffffffffffffffffffffffffffffffffffffff1673ffffffffffffffffffffffffffffffffffffffff16815260200190815260200160002060008373ffffffffffffffffffffffffffffffffffffffff1673ffffffffffffffffffffffffffffffffffffffff16815260200190815260200160002054905092915050565b610827610d75565b600073ffffffffffffffffffffffffffffffffffffffff168173ffffffffffffffffffffffffffffffffffffffff1603610896576040517f08c379a000000000000000000000000000000000000000000000000000000000815260040161088d90611606565b60405180910390fd5b61089f81610f49565b50565b600033905090565b600073ffffffffffffffffffffffffffffffffffffffff168373ffffffffffffffffffffffffffffffffffffffff1603610919576040517f08c379a000000000000000000000000000000000000000000000000000000000815260040161091090611698565b60405180910390fd5b600073ffffffffffffffffffffffffffffffffffffffff168273ffffffffffffffffffffffffffffffffffffffff1603610988576040517f08c379a000000000000000000000000000000000000000000000000000000000815260040161097f9061172a565b60405180910390fd5b80600160008573ffffffffffffffffffffffffffffffffffffffff1673ffffffffffffffffffffffffffffffffffffffff16815260200190815260200160002060008473ffffffffffffffffffffffffffffffffffffffff1673ffffffffffffffffffffffffffffffffffffffff168152602001908152602001600020819055508173ffffffffffffffffffffffffffffffffffffffff168373ffffffffffffffffffffffffffffffffffffffff167f8c5be1e5ebec7d5bd14f71427d1e84f3dd0314c0f7b2291e5b200ac8c7c3b92583604051610a6691906111e9565b60405180910390a3505050565b6000610a7f8484610798565b90507fffffffffffffffffffffffffffffffffffffffffffffffffffffffffffffffff8114610af95781811015610aeb576040517f08c379a0000000000000000000000000000000000000000000000000000000008152600401610ae290611796565b60405180910390fd5b610af884848484036108aa565b5b50505050565b600073ffffffffffffffffffffffffffffffffffffffff168373ffffffffffffffffffffffffffffffffffffffff1603610b6e576040517f08c379a0000000000000000000000000000000000000000000000000000000008152600401610b6590611828565b60405180910390fd5b600073ffffffffffffffffffffffffffffffffffffffff168273ffffffffffffffffffffffffffffffffffffffff1603610bdd576040517f08c379a0000000000000000000000000000000000000000000000000000000008152600401610bd4906118ba565b60405180910390fd5b610be883838361100f565b60008060008573ffffffffffffffffffffffffffffffffffffffff1673ffffffffffffffffffffffffffffffffffffffff16815260200190815260200160002054905081811015610c6e576040517f08c379a0000000000000000000000000000000000000000000000000000000008152600401610c659061194c565b60405180910390fd5b8181036000808673ffffffffffffffffffffffffffffffffffffffff1673ffffffffffffffffffffffffffffffffffffffff16815260200190815260200160002081905550816000808573ffffffffffffffffffffffffffffffffffffffff1673ffffffffffffffffffffffffffffffffffffffff168152602001908152602001600020600082825401925050819055508273ffffffffffffffffffffffffffffffffffffffff168473ffffffffffffffffffffffffffffffffffffffff167fddf252ad1be2c89b69c2b068fc378daa952ba7f163c4a11628f55a4df523b3ef84604051610d5c91906111e9565b60405180910390a3610d6f848484611014565b50505050565b610d7d6108a2565b73ffffffffffffffffffffffffffffffffffffffff16610d9b61058d565b73ffffffffffffffffffffffffffffffffffffffff1614610df1576040517f08c379a0000000000000000000000000000000000000000000000000000000008152600401610de8906119b8565b60405180910390fd5b565b600073ffffffffffffffffffffffffffffffffffffffff168273ffffffffffffffffffffffffffffffffffffffff1603610e62576040517f08c379a0000000000000000000000000000000000000000000000000000000008152600401610e5990611a24565b60405180910390fd5b610e6e6000838361100f565b8060026000828254610e8091906113b4565b92505081905550806000808473ffffffffffffffffffffffffffffffffffffffff1673ffffffffffffffffffffffffffffffffffffffff168152602001908152602001600020600082825401925050819055508173ffffffffffffffffffffffffffffffffffffffff16600073ffffffffffffffffffffffffffffffffffffffff167fddf252ad1be2c89b69c2b068fc378daa952ba7f163c4a11628f55a4df523b3ef83604051610f3191906111e9565b60405180910390a3610f4560008383611014565b5050565b6000600560009054906101000a900473ffffffffffffffffffffffffffffffffffffffff16905081600560006101000a81548173ffffffffffffffffffffffffffffffffffffffff021916908373ffffffffffffffffffffffffffffffffffffffff1602179055508173ffffffffffffffffffffffffffffffffffffffff168173ffffffffffffffffffffffffffffffffffffffff167f8be0079c531659141344cd1fd0a4f28419497f9722a3daafe3b4186f6b6457e060405160405180910390a35050565b505050565b505050565b600081519050919050565b600082825260208201905092915050565b60005b83811015611053578082015181840152602081019050611038565b60008484015250505050565b6000601f19601f8301169050919050565b600061107b82611019565b6110858185611024565b9350611095818560208601611035565b61109e8161105f565b840191505092915050565b600060208201905081810360008301526110c38184611070565b905092915050565b600080fd5b600073ffffffffffffffffffffffffffffffffffffffff82169050919050565b60006110fb826110d0565b9050919050565b61110b816110f0565b811461111657600080fd5b50565b60008135905061112881611102565b92915050565b6000819050919050565b6111418161112e565b811461114c57600080fd5b50565b60008135905061115e81611138565b92915050565b6000806040838503121561117b5761117a6110cb565b5b600061118985828601611119565b925050602061119a8582860161114f565b9150509250929050565b60008115159050919050565b6111b9816111a4565b82525050565b60006020820190506111d460008301846111b0565b92915050565b6111e38161112e565b82525050565b60006020820190506111fe60008301846111da565b92915050565b60008060006060848603121561121d5761121c6110cb565b5b600061122b86828701611119565b935050602061123c86828701611119565b925050604061124d8682870161114f565b9150509250925092565b600060ff82169050919050565b61126d81611257565b82525050565b60006020820190506112886000830184611264565b92915050565b6000602082840312156112a4576112a36110cb565b5b60006112b284828501611119565b91505092915050565b6112c4816110f0565b82525050565b60006020820190506112df60008301846112bb565b92915050565b600080604083850312156112fc576112fb6110cb565b5b600061130a85828601611119565b925050602061131b85828601611119565b9150509250929050565b7f4e487b7100000000000000000000000000000000000000000000000000000000600052602260045260246000fd5b6000600282049050600182168061136c57607f821691505b60208210810361137f5761137e611325565b5b50919050565b7f4e487b7100000000000000000000000000000000000000000000000000000000600052601160045260246000fd5b60006113bf8261112e565b91506113ca8361112e565b92508282019050808211156113e2576113e1611385565b5b92915050565b7f45524332303a2064656372656173656420616c6c6f77616e63652062656c6f7760008201527f207a65726f000000000000000000000000000000000000000000000000000000602082015250565b6000611444602583611024565b915061144f826113e8565b604082019050919050565b6000602082019050818103600083015261147381611437565b9050919050565b7f596f75206e65656420746f2070617920736f6d65204554480000000000000000600082015250565b60006114b0601883611024565b91506114bb8261147a565b602082019050919050565b600060208201905081810360008301526114df816114a3565b9050919050565b60006114f18261112e565b91506114fc8361112e565b925082820261150a8161112e565b9150828204841483151761152157611520611385565b5b5092915050565b7f4e6f7420656e6f756768204e595820696e207468652072657365727665000000600082015250565b600061155e601d83611024565b915061156982611528565b602082019050919050565b6000602082019050818103600083015261158d81611551565b9050919050565b7f4f776e61626c653a206e6577206f776e657220697320746865207a65726f206160008201527f6464726573730000000000000000000000000000000000000000000000000000602082015250565b60006115f0602683611024565b91506115fb82611594565b604082019050919050565b6000602082019050818103600083015261161f816115e3565b9050919050565b7f45524332303a20617070726f76652066726f6d20746865207a65726f2061646460008201527f7265737300000000000000000000000000000000000000000000000000000000602082015250565b6000611682602483611024565b915061168d82611626565b604082019050919050565b600060208201905081810360008301526116b181611675565b9050919050565b7f45524332303a20617070726f766520746f20746865207a65726f20616464726560008201527f7373000000000000000000000000000000000000000000000000000000000000602082015250565b6000611714602283611024565b915061171f826116b8565b604082019050919050565b6000602082019050818103600083015261174381611707565b9050919050565b7f45524332303a20696e73756666696369656e7420616c6c6f77616e6365000000600082015250565b6000611780601d83611024565b915061178b8261174a565b602082019050919050565b600060208201905081810360008301526117af81611773565b9050919050565b7f45524332303a207472616e736665722066726f6d20746865207a65726f20616460008201527f6472657373000000000000000000000000000000000000000000000000000000602082015250565b6000611812602583611024565b915061181d826117b6565b604082019050919050565b6000602082019050818103600083015261184181611805565b9050919050565b7f45524332303a207472616e7366657220746f20746865207a65726f206164647260008201527f6573730000000000000000000000000000000000000000000000000000000000602082015250565b60006118a4602383611024565b91506118af82611848565b604082019050919050565b600060208201905081810360008301526118d381611897565b9050919050565b7f45524332303a207472616e7366657220616d6f756e742065786365656473206260008201527f616c616e63650000000000000000000000000000000000000000000000000000602082015250565b6000611936602683611024565b9150611941826118da565b604082019050919050565b6000602082019050818103600083015261196581611929565b9050919050565b7f4f776e61626c653a2063616c6c6572206973206e6f7420746865206f776e6572600082015250565b60006119a2602083611024565b91506119ad8261196c565b602082019050919050565b600060208201905081810360008301526119d181611995565b9050919050565b7f45524332303a206d696e7420746f20746865207a65726f206164647265737300600082015250565b6000611a0e601f83611024565b9150611a19826119d8565b602082019050919050565b60006020820190508181036000830152611a3d81611a01565b905091905056fea2646970667358221220858500cb48d9bb35b365df87ac5d61c1acf27f22cc081e2c7fb1634df964e93964736f6c63430008120033",
  "linkReferences": {},
  "deployedLinkReferences": {}
}